:020000040000FA
:0400000007EF00F016
:100008005D82FEED0FF0F5EF0EF00E6E5550D8A4A0
:1000180010EF00F012EF00F0BBEF00F0FB0E036EE4
:100028002E0E046E800E056EBFEC0EF00B0E0E1831
:10003800D8A421EF00F023EF00F039EF00F0C80E4C
:100048004F24D96E000E5020DA6E310EDF6E4F50FD
:10005800C30F086E2A0EFDEC10F0000E546E000E51
:10006800536E4F4A502A52EF00F00C0E0E18D8A4C7
:1000780040EF00F042EF00F052EF00F0C80E4F24BE
:10008800D96E000E5020DA6E300EDF6E4F50C30F5F
:10009800086E2A0EFDEC10F031EF00F0040E4F1838
:1000A8005010D8A45AEF00F05CEF00F00CEF02F00B
:1000B8005C06000E506E000E4F6E000E0001CC6FF5
:1000C800950E016E000E026EC80E036E000E046ED1
:1000D800BCEC0DF001500210D8B475EF00F077EFCA
:1000E80000F0A2EF00F0EA0E036E2E0E046E800EF2
:1000F800056EBFEC0EF0C00E086E5C50FDEC10F003
:10010800B40E036E2F0E046EC10E056EBFEC0EF01A
:100118001A0E0B6E5E0E0A6E6E0EE82EFED70A2EB3
:10012800FCD70B2EFAD700D0720E036E2F0E046E7A
:10013800C00E056EBFEC0EF0ACEF00F0720E036E51
:100148002F0E046EC00E056EBFEC0EF0010E556E3C
:10015800300E5C18D8A4B3EF00F0B5EF00F00CEF48
:1001680002F0000E556E020E586E5AEF02F055045A
:10017800D8A4C1EF00F0C3EF00F029EF01F0B70EEB
:10018800036E2E0E046E800E056EBFEC0EF00B0E85
:100198000E18D8A4D2EF00F0D4EF00F0EAEF00F088
:1001A800C80E4F24D96E000E5020DA6E310EDF6E65
:1001B8004F50C30F086E2A0EFDEC10F0000E546E5F
:1001C800000E536E4F4A502A03EF01F00C0E0E1822
:1001D800D8A4F1EF00F0F3EF00F003EF01F0C80E40
:1001E8004F24D96E000E5020DA6E300EDF6E4F505D
:1001F800C30F086E2A0EFDEC10F0E2EF00F0040EBB
:100208004F185010D8A40BEF01F00DEF01F00CEFD0
:1002180002F0720E036E2F0E046EC00E056EBFEC58
:100228000EF0020E556E000E506E000E4F6E0D0E43
:100238000B6EAF0E0A6EB60EE82EFED70A2EFCD74E
:100248000B2EFAD700D00CEF02F0020E5518D8A4E6
:1002580030EF01F032EF01F00CEF02F0500E036EB8
:100268002F0E046E800E056EBFEC0EF00B0E0E18EE
:10027800D8A441EF01F043EF01F059EF01F0C30EAC
:100288004F24D96E000E5020DA6E310EDF6E4F50BB
:10029800C30F086E2A0EFDEC10F0000E546E000E0F
:1002A800536E4F4A502A72EF01F00C0E0E18D8A464
:1002B80060EF01F062EF01F072EF01F0C30E4F241E
:1002C800D96E000E5020DA6E300EDF6E4F50C30F1D
:1002D800086E2A0EFDEC10F051EF01F0040E4F18D5
:1002E8005010D8A47AEF01F07CEF01F00CEF02F087
:1002F800000E506E000E4F6E000E0001C76FC80E44
:10030800016E000E026EC30E036E000E046EBCEC8E
:100318000DF001500210D8A494EF01F096EF01F00F
:10032800E8EF01F03F0E036E2F0E046E800E056E8F
:10033800BFEC0EF0D90E036E2E0E046EC00E056EC5
:10034800BFEC0EF0B8EF01F0C30E4F24D96E000ECB
:100358005020DA6E950E4F24E16E000E5020E26EAA
:10036800DFCFE7FF4F4A502AC30E4F24D96E000E45
:100378005020DA6EDF50D8A4C4EF01F0C6EF01F0C8
:10038800A8EF01F0000E0D6E000E0C6EC30E0C24CB
:10039800D96E000E0D20DA6EDF50026E0C50460F3B
:1003A80022EC10F00C4A0D2A0DBEE4EF01F00D50BE
:1003B80009E1040E0C5CD8A0E4EF01F0E6EF01F0CF
:1003C800CAEF01F0F8EF01F0840E036E2E0E046EF2
:1003D800800E056EBFEC0EF02D0E036E2E0E046E11
:1003E800C00E056EBFEC0EF0000E556E020E586E74
:1003F800000E506E000E4F6E1A0E0B6E5E0E0A6ED9
:100408006E0EE82EFED70A2EFCD70B2EFAD700D098
:10041800050E53185410D8A414EF02F016EF02F08A
:1004280020EF02F0000E556E020E586E000E506E50
:10043800000E4F6E5AEF02F04D500A6E4E500B6E82
:100448004D4A4E2A200E0A5C030E0B58D8B02FEFE7
:1004580002F031EF02F039EF02F04F50C30F086E8F
:100468005F0EFDEC10F05AEF02F0210E4D5C030E0A
:100478004E58D8A042EF02F044EF02F05AEF02F0D3
:100488004F50C30F086E200EFDEC10F0400E4D18B3
:1004980007E1060E4E18D8A454EF02F056EF02F00A
:1004A8005AEF02F0000E4E6E000E4D6E12001A50FA
:1004B800800B276E1A501A242E6E19AE66EF02F0C2
:1004C80068EF02F069EF02F02E802E50D8B46FEF7B
:1004D80002F071EF02F086EF02F02E28D8A477EF31
:1004E80002F079EF02F081EF02F0000E176E000EB5
:1004F800186E000E196E000E1A6E198E000E1A6E06
:100508008EEF02F0000E176E000E186E000E196EB8
:10051800000E1A6E1E50800B271A1E501E242F6EB6
:100528001DAE99EF02F09BEF02F09CEF02F02F80D6
:100538002F50D8B4A2EF02F0A4EF02F0B9EF02F006
:100548002F28D8A4AAEF02F0ACEF02F0B4EF02F023
:10055800000E1B6E000E1C6E000E1D6E000E1E6E31
:100568001D8E000E1E6EC1EF02F0000E1B6E000EF7
:100578001C6E000E1D6E000E1E6E1B501C101D10F2
:100588001E10D8A4CAEF02F0CCEF02F0E4EF02F09C
:10059800000E176E000E186E000E196E000E1A6E01
:1005A800800E19127F0E1A1227501A1217C017F050
:1005B80018C018F019C019F01AC01AF027EF04F083
:1005C8002E50D8A4EAEF02F0ECEF02F0F6EF02F0BA
:1005D800000E176E000E186E000E196E000E1A6EC1
:1005E80027EF04F02F502EC01FF0206A1F5E000E68
:1005F800205A7F0E1F24286E000E2020296E17C057
:1006080023F018C024F019C025F01AC026F0000EF7
:10061800176E000E186E000E196E000E1A6E000E80
:100628002A6E000E2B6E000E2C6E000E2D6E000E24
:100638002F6E57EF03F02F50D8B425EF03F027EFB4
:1006480003F03EEF03F0D8902336243625362636BD
:10065800D8901736183619361A362DAE36EF03F0FD
:1006680038EF03F039EF03F01780D8902A362B368D
:100678002C362D361B50235C1C5024581D502558F1
:100688001E502658D8A04BEF03F04DEF03F056EF5D
:1006980003F02D8C1B50235E1C50245A1D50255AE4
:1006A8001E50265A2F2A190E2F645DEF03F05FEFB4
:1006B80003F01FEF03F02350241025102610D8B4A0
:1006C80068EF03F06AEF03F082EF03F02A8082EF0D
:1006D80003F0D8901736183619361A362DAE77EF3C
:1006E80003F079EF03F07AEF03F01780D8902A36F9
:1006F8002B362C362D362806D8A0290619AE87EFBA
:1007080003F089EF03F06DEF03F0000E2F6E2DAEAE
:1007180090EF03F092EF03F0B6EF03F0FF0E2A1408
:100728001F6EFF0E2B14206EFF0E2C14216E7F0EF1
:100738002D14226E1F50201021102210D8B4A7EFBC
:1007480003F0A9EF03F0ADEF03F0010E2F6EB6EF43
:1007580003F017A0B2EF03F0B4EF03F0B6EF03F025
:10076800A9EF03F02F50D8B4BCEF03F0BEEF03F0AD
:10077800E2EF03F0010E1726000E182219221A22A2
:100788001AA0C9EF03F0CBEF03F0E2EF03F017C0B4
:100798001FF018C020F019C021F01AC022F022342E
:1007A8002232213220321F321FC017F020C018F029
:1007B80021C019F022C01AF0284A292A29BEEDEFD3
:1007C80003F0295008E12828D8A0EDEF03F0EFEF57
:1007D80003F0FAEF03F0000E296E2868000E176E7A
:1007E800000E186E000E196E000E1A6E29BE07EF65
:1007F80004F0295006E12804D8B005EF04F007EF0B
:1008080004F015EF04F0000E296E000E286E000E9D
:10081800176E000E186E000E196E000E1A6E000E7E
:10082800276E28C02EF02EA01CEF04F01EEF04F057
:1008380021EF04F0198E22EF04F0199ED8902E3083
:100848001A6ED8EF02F01200E3EC10F0000E3D6EC5
:10085800000E3C6E950E3C24D96E000E3D20DA6EDB
:10086800DF50026E3C50460F22EC10F03C4A3D2A05
:100878003DBE48EF04F03D5009E1040E3C5CD8A0B1
:1008880048EF04F04AEF04F02EEF04F0000E3F6E3C
:10089800000E3E6E950E3E24D96E000E3F20DA6E95
:1008A8003E50460F9BEC10F0DF6E3E4A3F2A3FBE9B
:1008B80067EF04F03F5009E1040E3E5CD8A067EFF3
:1008C80004F069EF04F04EEF04F0000E0001996F98
:1008D800140E1B6EAE0E1C6E230E1D6E410E1E6E88
:1008E800040EB6EC0FF001C009F002C00AF00B6A62
:1008F8000C6A000E59EC0AF009C017F00AC018F08B
:100908000BC019F00CC01AF05BEC02F017C030F005
:1009180018C031F019C032F01AC033F080EC0CF076
:1009280030C0AFF031C0B0F0AFC008F0B0C009F0CF
:1009380042EC10F00BEC0EF0840E066E000E076E03
:1009480003EC0DF0020E5818D8B4ADEF04F0AFEF79
:1009580004F0B8EF04F0030E5818D8A4B6EF04F06A
:10096800B8EF04F0BEEF04F0000E86EC0EF0426E15
:10097800C2EF04F0010E86EC0EF0426E040E581819
:10098800D8A4C9EF04F0CBEF04F0CFEF04F0000EC9
:1009980086EC0EF0426E0A0E4218D8A4D6EF04F088
:1009A800D8EF04F091EF05F05850D8A4DEEF04F02A
:1009B800E0EF04F091EF05F0720E036E2F0E046E57
:1009C800C00E056EBFEC0EF0010E586E000E546E90
:1009D800000E536E91EF05F042505AEC0FF0BAEF4B
:1009E80005F04250B2EC07F0020E5818D8A4FFEFF9
:1009F80004F001EF05F0BAEF05F0000E546E000E9A
:100A0800536EBAEF05F04250F2EC05F0070E581895
:100A1800D8A411EF05F013EF05F01DEF05F0720EE5
:100A2800036E2F0E046EC00E056EBFEC0EF001EFC4
:100A380005F0040E5818D8A424EF05F026EF05F0A9
:100A4800BAEF05F0000E416E000E406E840E402491
:100A5800D96E000E4120DA6E9A0E4024E16E000E27
:100A68004120E26EDFCFE7FF404A412A41BE46EF10
:100A780005F0415009E1080E405CD8A046EF05F0AA
:100A880048EF05F02AEF05F0BAEF05F0425021ECE7
:100A980009F0020E5818D8A454EF05F056EF05F0E7
:100AA800BAEF05F001EF05F0425042EC11F0BAEF51
:100AB80005F089EC0FF0020E586E01EF05F0425078
:100AC80009EC00F0020E5818D8A46DEF05F06FEF8E
:100AD80005F0BAEF05F001EF05F0720E036E2F0E68
:100AE800046E800E056EBFEC0EF0830E036E2F0EA3
:100AF800046EC00E056EBFEC0EF0660E3B6E760EF1
:100B08003A6EC10EE82EFED73A2EFCD73B2EFAD706
:100B180000F0020E586EBAEF05F058503A6E3B6A74
:100B28003B50000AD8B49BEF05F071EF05F03A503E
:100B3800000AD8B4F0EF04F0010AD8B4F5EF04F0D5
:100B4800030AD8B407EF05F0010AD8B44AEF05F054
:100B5800070AD8B458EF05F0020AD8B45DEF05F0DB
:100B6800010AD8B463EF05F071EF05F00BEC0EF055
:100B7800140E1B6EAE0E1C6E230E1D6E410E1E6EE5
:100B8800040EB6EC0FF001C009F002C00AF00B6ABF
:100B98000C6A000E59EC0AF009C017F00AC018F0E8
:100BA8000BC019F00CC01AF05BEC02F017C030F063
:100BB80018C031F019C032F01AC033F080EC0CF0D4
:100BC80030C0AFF031C0B0F0AFC008F0B0C009F02D
:100BD80042EC10F0A6EF04F007EF00F0106E0B0ED9
:100BE8001018D8A4FAEF05F0FCEF05F068EF06F04E
:100BF800000E546E000E536E10C04BF04C6A4550F8
:100C08000E6E46500F6E454A462A910E0E5C010E36
:100C18000F58D8A012EF06F014EF06F0C8EF06F050
:100C2800040E47184810D8B41CEF06F01EEF06F063
:100C380028EF06F0030E47184810D8A426EF06F050
:100C480028EF06F02CEF06F0000E466E000E456EFB
:100C58004750030F586E47504810D8B436EF06F087
:100C680038EF06F0B1EF07F0D8904734D96E483422
:100C7800DA6E780ED926000EDA22DECFF6FFDDCF47
:100C8800F7FF0800F5CF8EF0D8904734D96E483476
:100C9800DA6E780ED926000EDA22DECF0EF0DDCF1E
:100CA8000FF0010E0E26000E0F220EC0F6FF0FC029
:100CB800F7FF0800F5CF8FF0840E066E000E076E62
:100CC80003EC0DF0B1EF07F045504610D8B46FEFC4
:100CD80006F071EF06F0C8EF06F0900E455C010EC5
:100CE8004658D8B07AEF06F07CEF06F0C8EF06F069
:100CF8000B0E4B184C10D8A484EF06F086EF06F0C4
:100D0800C8EF06F01028D8A48CEF06F08EEF06F096
:100D1800C8EF06F059505A10D8B495EF06F097EF7F
:100D280006F0C8EF06F0000182518311D8A49FEFA6
:100D380006F0A1EF06F0A7EF06F0000E836F010E94
:100D4800826FB8EF06F05A5009E1020E595CD8A03C
:100D5800B0EF06F0B2EF06F0B8EF06F04906D8A0FB
:100D68004A065906D8A05A0647504810D8B4BFEFCB
:100D780006F0C1EF06F0C4EF06F04706D8A0480613
:100D8800000E466E000E456E0C0E1018D8A4CFEF5C
:100D980006F0D1EF06F002EF07F0000E546E000ED9
:100DA800536E10C04BF04C6A45500E6E46500F6E95
:100DB800454A462A910E0E5C010E0F58D8A0E7EF5F
:100DC80006F0E9EF06F063EF07F0000E4A6E000E3A
:100DD800496E000E5A6E010E596E000E0001836FA7
:100DE800010E826F000E486E000E476E000E586EA0
:100DF800000E466E000E456EB1EF07F045504610E6
:100E0800D8B409EF07F00BEF07F063EF07F0900E87
:100E1800455C010E4658D8B014EF07F016EF07F0FE
:100E280063EF07F00C0E4B184C10D8A41EEF07F018
:100E380020EF07F063EF07F01028D8A426EF07F09B
:100E480028EF07F063EF07F04A5007E1040E495C0A
:100E5800D8B031EF07F033EF07F063EF07F0000188
:100E680082058311D8A43BEF07F03DEF07F043EF6D
:100E780007F0000E836F000E826F52EF07F04A50A2
:100E880007E1030E495CD8B04CEF07F04EEF07F0CE
:100E980052EF07F0494A4A2A594A5A2A485007E164
:100EA800040E475CD8B05BEF07F05DEF07F05FEF2B
:100EB80007F0474A482A000E466E000E456E050E9A
:100EC80053185410D8A46BEF07F06DEF07F06FEFCD
:100ED80007F0E9EF06F0000182058311D8A477EF47
:100EE80007F079EF07F085EF07F0800E086E2A0EFD
:100EF800FDEC10F0C00E086E200EFDEC10F08FEF28
:100F080007F0800E086E200EFDEC10F0C00E086E83
:100F18002A0EFDEC10F0D8904934D96E4A34DA6EB6
:100F2800700ED926000EDA22DECF03F0DDCF04F0F2
:100F3800810E056EBFEC0EF0D8905934D96E5A3434
:100F4800DA6E700ED926000EDA22DECF03F0DDCF7E
:100F580004F0C10E056EBFEC0EF012000C6E0C0E04
:100F6800036E2F0E046E800E056EBFEC0EF00B0E96
:100F78000C18D8A4C2EF07F0C4EF07F0DAEF07F0B7
:100F8800C80E4F24D96E000E5020DA6E310EDF6E77
:100F98004F50C30F086E2A0EFDEC10F0000E546E71
:100FA800000E536E4F4A502AF3EF07F00C0E0C1840
:100FB800D8A4E1EF07F0E3EF07F0F3EF07F0C80E6E
:100FC8004F24D96E000E5020DA6E300EDF6E4F506F
:100FD800C30F086E2A0EFDEC10F0D2EF07F0050ED5
:100FE80053185410D8A4FBEF07F0FDEF07F007EFF4
:100FF80008F0000E586E000E506E000E4F6E330E45
:101008005C6E20EF09F04D500A6E4E500B6E4D4A43
:101018004E2A200E0A5C030E0B58D8B016EF08F0C3
:1010280018EF08F020EF08F04F50C30F086E5F0E5E
:10103800FDEC10F041EF08F0210E4D5C030E4E5808
:10104800D8A029EF08F02BEF08F041EF08F04F5037
:10105800C30F086E200EFDEC10F0400E4D1807E18E
:10106800060E4E18D8A43BEF08F03DEF08F041EF0C
:1010780008F0000E4E6E000E4D6E040E4F18501004
:10108800D8A449EF08F04BEF08F020EF09F0080E5C
:101098000B6E9D0E0A6E060EE82EFED70A2EFCD7A2
:1010A8000B2EFAD75C06000E506E000E4F6E950E92
:1010B800016E000E026EC80E036E000E046EBCECCC
:1010C8000DF001500210D8B46CEF08F06EEF08F084
:1010D800A5EF08F00D0E0B6EAF0E0A6EB60EE82ED9
:1010E800FED70A2EFCD70B2EFAD700D0A40E036E1B
:1010F8002F0E046E800E056EBFEC0EF0C00E086E4B
:101108005C50FDEC10F0B40E036E2F0E046EC10E91
:10111800056EBFEC0EF00D0E0B6EAF0E0A6EB60E1E
:10112800E82EFED70A2EFCD70B2EFAD700D0720E67
:10113800036E2F0E046EC00E056EBFEC0EF0CBEFE3
:1011480008F0000E506E000E4F6E330E5C6E610E8E
:10115800036E2F0E046E800E056EBFEC0EF0950E1A
:10116800036E2E0E046EC00E056EBFEC0EF0120E4E
:101178000B6EC20E0A6E660EE82EFED70A2EFCD73C
:101188000B2EFAD700D0020E586E20EF09F0300E61
:101198005C18D8A4D2EF08F0D4EF08F020EF09F0DB
:1011A800C80E036E2E0E046E800E056EBFEC0EF098
:1011B8002E0E036E2F0E046EC00E056EBFEC0EF0E1
:1011C800000E546E000E536E12EF09F0CA0E086E30
:1011D80053503B08016E5450D8A0E82A0008026E0C
:1011E800000E046E0A0E036E4CEC0EF00150300F28
:1011F800FDEC10F0CB0E086E53503B08016E5450B6
:10120800D8A0E82A0008026E000E046E0A0E036ECB
:1012180028EC0FF00150300FFDEC10F03C0E531885
:101228005410D8A41AEF09F01CEF09F0EAEF08F0FF
:10123800000E586E330E5C6E12000E6ED00E036EEA
:101248002F0E046E800E056EBFEC0EF0890E086E30
:10125800A9C001F0AAC002F057C003F0046A28EC44
:101268000FF00150300FFDEC10F0C40E036E2F0E7E
:10127800046E8A0E056EBFEC0EF00B0E0E18D8A485
:1012880048EF09F04AEF09F051EF09F00EC04BF0B2
:101298004C6A454A462A17EF0AF045504610D8B41A
:1012A80058EF09F05AEF09F0A0EF09F0900E455CED
:1012B800010E4658D8B063EF09F065EF09F0A0EFCA
:1012C80009F00B0E4B184C10D8A46DEF09F06FEF16
:1012D80009F0A0EF09F00E28D8A475EF09F077EF10
:1012E80009F0A0EF09F00001A907D8A0AA07430652
:1012F800D8A04406432806E14428D8A486EF09F07C
:1013080088EF09F08CEF09F0000E446E090E436E69
:10131800A92906E1AA29D8A494EF09F096EF09F0C3
:101328009AEF09F0000EAA6F090EA96F000E466E1B
:10133800000E456E17EF0AF00C0E0E18D8A4A7EF92
:1013480009F0A9EF09F0CEEF09F00EC04BF04C6A96
:1013580045500A6E46500B6E454A462A2D0E0A5CC9
:10136800010E0B58D8A0BBEF09F0BDEF09F017EF3D
:101378000AF0000E466E000E456E020E586E000E04
:101388000001AA6F000EA96F000E546E000E536E76
:1013980058EF0AF045504610D8B4D5EF09F0D7EF0A
:1013A80009F09AEF09F02C0E455C010E4658D8B0AA
:1013B800E0EF09F0E2EF09F09AEF09F00C0E4B1894
:1013C8004C10D8A4EAEF09F0ECEF09F09AEF09F015
:1013D8000E28D8A4F2EF09F0F4EF09F09AEF09F01B
:1013E8000001A94BAA2B434A442A0A0E4318441069
:1013F800D8A401EF0AF003EF0AF007EF0AF0000E95
:10140800446E000E436E0A0EA919AA11D8A40FEF54
:101418000AF011EF0AF09AEF09F0000EAA6F000E19
:10142800A96F9AEF09F043C001F044C002F057C019
:1014380003F0046A28EC0FF0013A023AF00E0216A3
:1014480001500F0B0212F00E011601C0A7F002C0E6
:10145800A8F0000E0D6E000E0C6EB20E0C24D96EA4
:10146800000E0D20DA6E0C500001A7259BEC10F041
:10147800DF6E0C4A0D2A0DBE4BEF0AF00D5009E144
:10148800100E0C5CD8A04BEF0AF04DEF0AF031EFCC
:101498000AF0000E0001C26FB20E036E000E046E59
:1014A800C00E056EBFEC0EF01200116E1150D8B4CC
:1014B80060EF0AF062EF0AF084EF0AF00CBE69EF01
:1014C8000AF067EF0AF084EF0AF009C00DF00AC0CD
:1014D8000EF00BC00FF00CC010F00D1E0E1E0F1EEC
:1014E800101E0D2A000E0E220F2210220DC013F01E
:1014F8000EC014F00FC015F010C016F08CEF0AF0F3
:1015080009C013F00AC014F00BC015F00CC016F097
:1015180009500A100B100C10D8A495EF0AF097EF99
:101528000AF0A1EF0AF0000E096E000E0A6E000E16
:101538000B6E000E0C6E32EF0BF0960E126EABEFC8
:101548000AF0122AD8901632153214321332000ECD
:1015580013140D6E000E14140E6E000E15140F6E7B
:10156800FE0E1614106E0D500E100F101010D8A489
:10157800C0EF0AF0C2EF0AF0A5EF0AF0D0EF0AF0C8
:10158800122A010E1326000E142215221622D890B4
:101598001632153214321332000E13140D6E000E6B
:1015A80014140E6E000E15140F6EFF0E1614106E26
:1015B8000D500E100F101010D8A4E5EF0AF0E7EF49
:1015C8000AF0C4EF0AF0EFEF0AF01206D8901336CB
:1015D80014361536163615BEF4EF0AF0F6EF0AF093
:1015E800FEEF0AF0020E1260FCEF0AF0FEEF0AF0BE
:1015F800E9EF0AF012B003EF0BF005EF0BF006EF7E
:101608000BF0159ED890123212C00DF00E6A0F6AB8
:10161800106A0DC010F00F6A0E6A0D6A0D50131291
:101628000E5014120F501512105016121150D8B433
:1016380020EF0BF022EF0BF02AEF0BF00CBE29EF96
:101648000BF027EF0BF02AEF0BF0168E13C009F002
:1016580014C00AF015C00BF016C00CF01200106E82
:101668001004D8A43AEF0BF03CEF0BF04DEF0BF061
:101678004B044C10D8B443EF0BF045EF0BF04DEF93
:101688000BF0010E566E000E526E070E516EC0EF33
:101698000BF0020E1018D8B454EF0BF056EF0BF005
:1016A8005FEF0BF0030E1018D8A45DEF0BF05FEF9F
:1016B8000BF0C0EF0BF0070E51185210D8A467EFCB
:1016C8000BF069EF0BF082EF0BF0020E1018D8A4A4
:1016D80070EF0BF072EF0BF082EF0BF0020E4B186D
:1016E8004C10D8B47AEF0BF07CEF0BF082EF0BF0D4
:1016F800010E566E000E526E000E516E020E10183C
:10170800D8A489EF0BF08BEF0BF09CEF0BF0525045
:1017180007E1060E515CD8B094EF0BF096EF0BF092
:101728009CEF0BF0514A522A010E566EC0EF0BF097
:10173800030E1018D8A4A3EF0BF0A5EF0BF0C0EF21
:101748000BF0525009E1020E515CD8A0AEEF0BF03D
:10175800B0EF0BF0C0EF0BF0525007E1070E515CF1
:10176800D8B0B9EF0BF0BBEF0BF0C0EF0BF05106A0
:10177800D8A0520698EF0BF05604D8A4C6EF0BF089
:10178800C8EF0BF0F8EF0BF0000E566ED8905134FE
:10179800D96E5234DA6E600ED926000EDA22DECF08
:1017A800F6FFDDCFF7FF0800F5CF8EF0D890513463
:1017B800D96E5234DA6E600ED926000EDA22DECFE8
:1017C8000EF0DDCF0FF0010E0E26000E0F220EC018
:1017D800F6FF0FC0F7FF0800F5CF8FF0840E066EF6
:1017E800000E076E03EC0DF010C04BF04C6A1200AF
:1017F800819A818C818E81B204EF0CF006EF0CF097
:1018080009EF0CF0010E7FEF0CF081B40EEF0CF035
:1018180010EF0CF013EF0CF0040E7FEF0CF081B614
:1018280018EF0CF01AEF0CF01DEF0CF0070E7FEF1D
:101838000CF081B822EF0CF024EF0CF027EF0CF03D
:101848000A0E7FEF0CF0818A819C818E81B22FEF86
:101858000CF031EF0CF034EF0CF0020E7FEF0CF0CF
:1018680081B439EF0CF03BEF0CF03EEF0CF0050EB5
:101878007FEF0CF081B643EF0CF045EF0CF048EF2A
:101888000CF0080E7FEF0CF081B84DEF0CF04FEF25
:101898000CF052EF0CF00B0E7FEF0CF0818A818C6C
:1018A800819E819E81B25BEF0CF05DEF0CF060EFE2
:1018B8000CF0030E7FEF0CF081B465EF0CF067EFCE
:1018C8000CF06AEF0CF0060E7FEF0CF081B66FEFAC
:1018D8000CF071EF0CF074EF0CF0090E7FEF0CF0C8
:1018E80081B879EF0CF07BEF0CF07EEF0CF00C0E6A
:1018F8007FEF0CF0FF0E120032343334396E39505A
:10190800D8A489EF0CF08BEF0CF095EF0CF0000EDB
:10191800306E000E316E000E326E000E336E02EF26
:101928000DF030C034F031C035F032C036F033C07D
:1019380037F0200EA5EF0CF0D8903732363235321A
:101948003432E82EA0EF0CF03450386E328EFF0E91
:101958003016FF0E3116FF0E3216000E3316960E95
:10196800395E39BEBCEF0CF0BAEF0CF0D2EF0CF0D8
:101978003950800A970FD8B0C4EF0CF0C6EF0CF0BE
:10198800C8EF0CF08BEF0CF0D89033323232313292
:101998003032393EC8EF0CF0EAEF0CF01F0E396414
:1019A800D8EF0CF0DAEF0CF0E2EF0CF08BEF0CF064
:1019B800D890303631363236333639063950D8A4D5
:1019C800E8EF0CF0EAEF0CF0DCEF0CF03850D8B48C
:1019D800F0EF0CF0F2EF0CF0FAEF0CF0331E321EC1
:1019E800311E306C000E31223222332230C030F0EA
:1019F80031C031F032C032F033C033F01200ADC024
:101A080008F0AEC009F0083A093AF00E0916085075
:101A18000F0B0912F00E081608C00AF009C00BF0E7
:101A2800000E0D6E000E0C6E0C500624D96E0D5073
:101A38000720DA6EDF50026E0A500C2422EC10F0F8
:101A48000C4A0D2A0DBE32EF0DF00D5009E1100EB3
:101A58000C5CD8A032EF0DF034EF0DF018EF0DF05C
:101A68000001AD4BAE2B0A0E57603DEF0DF03FEF76
:101A78000DF042EF0DF0572A55EF0DF0445007E1F5
:101A8800090E435CD8B04BEF0DF04DEF0DF051EF60
:101A98000DF0434A442A55EF0DF0000E446E000E37
:101AA800436E0A0EAD19AE11D8A45DEF0DF05FEFCD
:101AB8000DF063EF0DF0000EAE6F000EAD6F12006B
:101AC800000E956E9450F80B946E8290020E046E80
:101AD800040E036EBA0EE82EFED7032EFCD7042E92
:101AE800FAD700D0000E016E330E7EEC10F01B0EFC
:101AF800036E9E0EE82EFED7032EFCD700D0000EF4
:101B0800016E330E7EEC10F0A60EE82EFED700D044
:101B1800000E016E330E7EEC10F000D000D000F005
:101B2800000E016E020E7EEC10F0A60EE82EFED717
:101B380000D0000E016E380E7EEC10F0A60EE82ED6
:101B4800FED700D0000E016E010E7EEC10F0040EE0
:101B5800036E3E0EE82EFED7032EFCD7000E016E54
:101B68000C0E7EEC10F0A60EE82EFED700D0120068
:101B7800000E096E000E086EFAEF0DF008500124F1
:101B8800D96E09500220DA6EDF50056E066A0850D9
:101B98000324D96E09500420DA6EDF50076E07500F
:101BA800055E000E065A05500610D8B4DEEF0DF09B
:101BB800E0EF0DF0F8EF0DF008500124D96E095050
:101BC8000220DA6EDF50056E08500324D96E0950E2
:101BD8000420DA6EDF50066E0650055C016E026A5C
:101BE800D8A002060AEF0EF0084A092A0850012474
:101BF800D96E09500220DA6EDF50D8A406EF0EF035
:101C080008EF0EF0C2EF0DF0E0EF0DF01200020E3B
:101C1800B0EC10F00001A26F010EB0EC10F0000162
:101C2800A36F000EB0EC10F00001A46FA2AD1FEF7F
:101C38000EF021EF0EF02CEF0EF0A2390F0B010B76
:101C4800300F846FA2510F0B300F856F35EF0EF0F8
:101C5800A2390F0B030B300F846FA2510F0B300FFB
:101C6800856F3A0E866FA3390F0B0F0B300F876FF6
:101C7800A3510F0B300F886F3A0E896FA4390F0BE1
:101C88000F0B300F8A6FA4510F0B300F8B6F1200A0
:101C9800000E066E000E056E03500410D8B457EF00
:101CA8000EF059EF0EF081EF0EF0010E076E61EFA6
:101CB8000EF0D89003360436072A04AE66EF0EF00D
:101CC80068EF0EF05DEF0EF0D8900536063603503B
:101CD800015C04500258D8A074EF0EF076EF0EF0B5
:101CE8007BEF0EF00350015E0450025A0580D89035
:101CF80004320332072E68EF0EF005C001F006C06B
:101D080002F01200016E0150D8A48DEF0EF08FEF93
:101D18000EF093EF0EF0FCEC0BF0BEEF0EF00104AA
:101D2800D8A499EF0EF09BEF0EF0BEEF0EF0FCEC8E
:101D38000BF0026E0228D8B4A4EF0EF0A6EF0EF056
:101D4800B3EF0EF05B50D8B4ACEF0EF0AEEF0EF080
:101D5800B3EF0EF0000E5B6E0250BEEF0EF00228DD
:101D6800D8A4B9EF0EF0BBEF0EF0BDEF0EF0010EE8
:101D78005B6EFF0E1200000E016E05507EEC10F037
:101D8800DCEF0EF0010E016E03C0F6FF04C0F7FF92
:101D9800F86A050EF76403D00800F55005D0F6CFB1
:101DA800E1FFF7CFE2FFE7507EEC10F0034A042A88
:101DB80003C0F6FF04C0F7FFF86A050EF76403D006
:101DC8000800F55005D0F6CFE1FFF7CFE2FFE75066
:101DD8000009D8A4F2EF0EF0F4EF0EF0C6EF0EF003
:101DE8001200C20EF66E200EF76E000EF86E00EEB0
:101DF80060F010EE3AF00900F5CFEEFFE550E15043
:101E0800FAE1800EF66E220EF76E000EF86E00EE06
:101E180059F010EE04F00900F5CFEEFFE550E1505F
:101E2800FAE100EE9AF0330EEE6AE806FDE100EE04
:101E380043F0160EEE6AE806FDE15D905D92000E35
:101E4800F86E000128EF04F003500410D8B42FEF07
:101E58000FF031EF0FF055EF0FF0010E056E39EF6F
:101E68000FF0D89003360436052A04AE3EEF0FF083
:101E780040EF0FF035EF0FF00350015C04500258AB
:101E8800D8A049EF0FF04BEF0FF04FEF0FF00350D2
:101E9800015E0450025AD89004320332052E40EFF6
:101EA8000FF001C001F002C002F01200116E1D0E09
:101EB800036E2F0E046E800E056EBFEC0EF011043B
:101EC800D8B469EF0FF06BEF0FF07DEF0FF0020E53
:101ED8001118D8B472EF0FF074EF0FF07DEF0FF018
:101EE800030E1118D8A47BEF0FF07DEF0FF080EFF1
:101EF8000FF0115033EC0BF0840E036E000E046EDD
:101F0800C00E056EBFEC0EF012003F0E036E2E0ED3
:101F1800046E800E056EBFEC0EF0D90E036E2E0E09
:101F2800046EC00E056EBFEC0EF0000E0001AE6F21
:101F3800000EAD6F000E446E000E436E000E576E1D
:101F4800840E066E000E076E03EC0DF07F0E0F6E0A
:101F5800D40E0E6E320EE82EFED70E2EFCD70F2EA4
:101F6800FAD71200086E08C003F0D8900336D8904C
:101F78000336C250C30B0310C26EC282C2B2C7EF8F
:101F88000FF0C9EF0FF0C2EF0FF0C4CF03F0030E4C
:101F980003160350056E046AC350066E076A0450A0
:101FA8000610016E05500710026E1200000EB0EC0C
:101FB80010F0046E04508009026E000EC5EC10F09B
:101FC800020EB0EC10F0046E04504009026E020ECE
:101FD800C5EC10F0930E026E070EC5EC10F0000E63
:101FE800B0EC10F0046E04507F0B026E000EC5ECCE
:101FF80010F012000600DE0ED624D66E0B0ED72087
:10200800D76EF2A40AEF10F00CEF10F020EF10F0EA
:102018000001A54BA62B510EA519A611D8A417EFA0
:1020280010F019EF10F01FEF10F0000EA66F000E61
:10203800A56F534A542AF2945D921100056E39EC4B
:1020480011F0A00E23EC11F0055023EC11F0025012
:1020580023EC11F035EC11F00B0E046EB80E036E84
:102068000306D8A00406032806E10428D8A43FEFF5
:1020780010F041EF10F034EF10F0120008C001F03A
:1020880009C002F0000E046E0A0E036E4CEC0EF04E
:102098000150300F0001926F08C001F009C002F032
:1020A800000E046E0A0E036E28EC0FF00150300F7C
:1020B8000001936F000E946F1200F22FEF2FDD2FA7
:1020C800E02FE32FE62FF82FDA2F622E512EA62EBF
:1020D800732E942FFB2FEC2FE92FF52F01002020D2
:1020E80020202020202020204F4E2020202020317A
:1020F80031303000026E01B084EF10F087EF10F03D
:10210800828288EF10F0829202C083FF82848294D8
:10211800958E828082928284829483BE96EF10F09C
:1021280098EF10F08FEF10F08290959E1200026EDB
:1021380039EC11F0A00E23EC11F0025023EC11F051
:102148002DEC11F0A10E23EC11F01DEC11F0036E33
:1021580035EC11F003501200026E39EC11F0D00E7C
:1021680023EC11F0025023EC11F02DEC11F0D10EFC
:1021780023EC11F01DEC11F0036E35EC11F0035057
:102188001200036E39EC11F0D00E23EC11F003505D
:1021980023EC11F0025023EC11F035EC11F0120091
:1021A800C280C19AC198C186C194C182C190C08AB7
:1021B800C098C096C094C082C090C08E120029EC0E
:1021C80011F064EC0DF0D4EC10F0F0EC10F009EC28
:1021D80011F0DAEC0FF01200F28EF28CF28AF2941F
:1021E8000B0ED76EDC0ED66ED58ED59CD59AD586BD
:1021F8001200096E000E016E08507EEC10F0010E00
:10220800016E09507EEC10F0120094869488280E16
:10221800C66E310EC86EC79CC78E9E96A1961200D8
:102228009EA619EF11F01BEF11F014EF11F09E9616
:10223800120031EC11F03DEC11F0C9501200016EA2
:1022480001C0C9FF14EC11F012001E0E936EF19E2E
:102258001200C58214EC11F01200C58614EC11F0BE
:102268001200C58414EC11F01200C58014EC11F0B2
:0E2278001200C58AC588120001000133120051
:102E2C00002020204E6F74204D617463686564200F
:102E3C002020002020204C6F6720436C6561726558
:102E4C0064202020005365742054696D6520202077
:102E5C0020202020200056696577204C6F672020A9
:102E6C0020202020202000436C656172206C6F674D
:102E7C00202020202020200020202020506173734F
:102E8C00776F726420202020002020204D656E7505
:102E9C0020506167652020202000446F776E6C6F96
:102EAC006164204C6F67202020200020204E657725
:102EBC002050617373776F7264202000202041745E
:102ECC0074656D7074204F7665722020002020533D
:102EDC0075636365737366756C6C7920200020577D
:102EEC00726F6E672050617373776F72642000206D
:102EFC00456E7465722050617373776F7264200035
:102F0C0020456E7465722070617373776F726420E4
:102F1C0000202054494D4520202020455620205388
:102F2C005000205761697420466F72202020205376
:102F3C0065630050617373776F7264206368616EB0
:102F4C0067656400436F6E6669726D2050617373C0
:102F5C00776F726400436F72726563742050617393
:102F6C0073776F72640020202020202020202020E6
:102F7C002020202020200020202068656C6C6F2DE4
:102F8C006D656E752020200052657365742050614C
:102F9C007373776F726420002057726F6E672050C6
:102FAC00617373776F7264002D417474656D707406
:102FBC002052656D61696E005D202020202020204C
:102FCC00202020004C6F67733A2D2D3E5B00432070
:102FDC0000473100473200473300473400434C0070
:102FEC00444C00474E004F4E004350004752005394
:032FFC005400007E
:020000040020DA
:08000000FFFFFFFFFFFFFFFF00
:020000040030CA
:0E000000FF071F1FFF8285FF0FC00FE00F409C
:00000001FF
