:020000040000FA
:0400000007EF00F016
:100008005D825EED0EF0B1EF0DF00C6E5450D8A489
:1000180010EF00F012EF00F088EF00F00C0E036E06
:100028002F0E046E800E056E46EC0DF00B0E0C18AC
:10003800D8A421EF00F023EF00F039EF00F0B70E5D
:100048004C24D96E000E4D20DA6E310EDF6E4C5006
:10005800C30F086E2A0E5CEC0FF0000E536E000EF4
:10006800526E4C4A4D2A52EF00F00C0E0C18D8A4D0
:1000780040EF00F042EF00F052EF00F0B70E4C24D2
:10008800D96E000E4D20DA6E300EDF6E4C50C30F65
:10009800086E2A0E5CEC0FF031EF00F0040E4C18DD
:1000A8004D10D8A45AEF00F05CEF00F096EF01F085
:1000B800000E4D6E000E4C6E000E0001BB6F930ECD
:1000C800016E000E026EB70E036E000E046EFCEC9D
:1000D8000BF001500210D8B474EF00F076EF00F086
:1000E8007CEF00F0000E546E020E566EE4EF01F045
:1000F800720E036E2F0E046EC00E056E46EC0DF0E8
:10010800010E546E96EF01F05404D8A48EEF00F05F
:1001180090EF00F0F6EF00F0EA0E036E2E0E046E7C
:10012800800E056E46EC0DF00B0E0C18D8A49FEF50
:1001380000F0A1EF00F0B7EF00F0B70E4C24D96E35
:10014800000E4D20DA6E310EDF6E4C50C30F086E74
:100158002A0E5CEC0FF0000E536E000E526E4C4AE5
:100168004D2AD0EF00F00C0E0C18D8A4BEEF00F00A
:10017800C0EF00F0D0EF00F0B70E4C24D96E000E9F
:100188004D20DA6E300EDF6E4C50C30F086E2A0E0B
:100198005CEC0FF0AFEF00F0040E4C184D10D8A433
:1001A800D8EF00F0DAEF00F096EF01F0720E036E70
:1001B8002F0E046EC00E056E46EC0DF0020E546E46
:1001C800000E4D6E000E4C6E0D0E0B6EAF0E0A6ECD
:1001D800B60EE82EFED70A2EFCD70B2EFAD700D083
:1001E80096EF01F0020E5418D8A4FDEF00F0FFEFCF
:1001F80000F096EF01F0500E036E2F0E046E800E85
:10020800056E46EC0DF00B0E0C18D8A40EEF01F09D
:1002180010EF01F026EF01F0B20E4C24D96E000E5B
:100228004D20DA6E310EDF6E4C50C30F086E2A0E69
:100238005CEC0FF0000E536E000E526E4C4A4D2AC5
:100248003FEF01F00C0E0C18D8A42DEF01F02FEFA2
:1002580001F03FEF01F0B20E4C24D96E000E4D2094
:10026800DA6E300EDF6E4C50C30F086E2A0E5CEC4F
:100278000FF01EEF01F0040E4C184D10D8A447EFF4
:1002880001F049EF01F096EF01F0000E4D6E000EFF
:100298004C6E000E0001B66FB70E016E000E026EB6
:1002A800B20E036E000E046EFCEC0BF0015002104F
:1002B800D8A461EF01F063EF01F083EF01F075EF6F
:1002C80001F0B20E4C24D96E000E4D20DA6E930E5A
:1002D8004C24E16E000E4D20E26EDFCFE7FF4C4A62
:1002E8004D2AB20E4C24D96E000E4D20DA6EDF5026
:1002F800D8A481EF01F083EF01F065EF01F0000E63
:10030800546E020E566E000E4D6E000E4C6E0B0EA5
:100318000B6E260E0A6E5E0EE82EFED70A2EFCD74E
:100328000B2EFAD7050E52185310D8A49EEF01F0E1
:10033800A0EF01F0AAEF01F0000E546E020E566E07
:10034800000E4D6E000E4C6EE4EF01F04A500A6E3E
:100358004B500B6E4A4A4B2A200E0A5C030E0B5870
:10036800D8B0B9EF01F0BBEF01F0C3EF01F04C508A
:10037800C30F086E5F0E5CEC0FF0E4EF01F0210E86
:100388004A5C030E4B58D8A0CCEF01F0CEEF01F039
:10039800E4EF01F04C50C30F086E200E5CEC0FF038
:1003A800400E4A1807E1060E4B18D8A4DEEF01F0FC
:1003B800E0EF01F0E4EF01F0000E4B6E000E4A6E24
:1003C80012001A50800B276E1A501A242E6E19AE7E
:1003D800F0EF01F0F2EF01F0F3EF01F02E802E5074
:1003E800D8B4F9EF01F0FBEF01F010EF02F02E287E
:1003F800D8A401EF02F003EF02F00BEF02F0000EB9
:10040800176E000E186E000E196E000E1A6E198EF9
:10041800000E1A6E18EF02F0000E176E000E186E1E
:10042800000E196E000E1A6E1E50800B271A1E50F1
:100438001E242F6E1DAE23EF02F025EF02F026EFEB
:1004480002F02F802F50D8B42CEF02F02EEF02F0DC
:1004580043EF02F02F28D8A434EF02F036EF02F071
:100468003EEF02F0000E1B6E000E1C6E000E1D6E9D
:10047800000E1E6E1D8E000E1E6E4BEF02F0000E5B
:100488001B6E000E1C6E000E1D6E000E1E6E1B50A5
:100498001C101D101E10D8A454EF02F056EF02F0E5
:1004A8006EEF02F0000E176E000E186E000E196E39
:1004B800000E1A6E800E19127F0E1A1227501A1289
:1004C80017C017F018C018F019C019F01AC01AF0A0
:1004D800B1EF03F02E50D8A474EF02F076EF02F0DB
:1004E80080EF02F0000E176E000E186E000E196EE7
:1004F800000E1A6EB1EF03F02F502EC01FF0206AC5
:100508001F5E000E205A7F0E1F24286E000E20202A
:10051800296E17C023F018C024F019C025F01AC09E
:1005280026F0000E176E000E186E000E196E000EE3
:100538001A6E000E2A6E000E2B6E000E2C6E000E28
:100548002D6E000E2F6EE1EF02F02F50D8B4AFEFF2
:1005580002F0B1EF02F0C8EF02F0D890233624364B
:1005680025362636D8901736183619361A362DAE4F
:10057800C0EF02F0C2EF02F0C3EF02F01780D8908C
:100588002A362B362C362D361B50235C1C5024580B
:100598001D5025581E502658D8A0D5EF02F0D7EF89
:1005A80002F0E0EF02F02D8C1B50235E1C50245A01
:1005B8001D50255A1E50265A2F2A190E2F64E7EF70
:1005C80002F0E9EF02F0A9EF02F023502410251001
:1005D8002610D8B4F2EF02F0F4EF02F00CEF03F0BB
:1005E8002A800CEF03F0D8901736183619361A36C9
:1005F8002DAE01EF03F003EF03F004EF03F01780D3
:10060800D8902A362B362C362D362806D8A029061F
:1006180019AE11EF03F013EF03F0F7EF02F0000E3D
:100628002F6E2DAE1AEF03F01CEF03F040EF03F02E
:10063800FF0E2A141F6EFF0E2B14206EFF0E2C14B3
:10064800216E7F0E2D14226E1F50201021102210B3
:10065800D8B431EF03F033EF03F037EF03F0010EB6
:100668002F6E40EF03F017A03CEF03F03EEF03F0CE
:1006780040EF03F033EF03F02F50D8B446EF03F008
:1006880048EF03F06CEF03F0010E1726000E182256
:1006980019221A221AA053EF03F055EF03F06CEF5A
:1006A80003F017C01FF018C020F019C021F01AC0BD
:1006B80022F022342232213220321F321FC017F09A
:1006C80020C018F021C019F022C01AF0284A292A9F
:1006D80029BE77EF03F0295008E12828D8A077EF42
:1006E80003F079EF03F084EF03F0000E296E286819
:1006F800000E176E000E186E000E196E000E1A6EA0
:1007080029BE91EF03F0295006E12804D8B08FEFF5
:1007180003F091EF03F09FEF03F0000E296E000E37
:10072800286E000E176E000E186E000E196E000E61
:100738001A6E000E276E28C02EF02EA0A6EF03F02A
:10074800A8EF03F0ABEF03F0198EACEF03F0199E9E
:10075800D8902E301A6E62EF02F012000E6E0B0E59
:100768000E18D8A4BAEF03F0BCEF03F01EEF04F0A4
:10077800000E536E000E526E0EC048F0496A425089
:100788000C6E43500D6E424A432A910E0C5C010ECA
:100798000D58D8A0D2EF03F0D4EF03F07DEF04F0AA
:1007A800040E44184510D8A4DCEF03F0DEEF03F084
:1007B800E2EF03F0000E436E000E426E4450030F4A
:1007C800566E44504510D8B4ECEF03F0EEEF03F04A
:1007D80063EF05F0D8904434D96E4534DA6E780E5C
:1007E800D926000EDA22DECFF6FFDDCFF7FF0800AC
:1007F800F5CF8CF0D8904434D96E4534DA6E780E43
:10080800D926000EDA22DECF0CF0DDCF0DF0010E76
:100818000C26000E0D220CC0F6FF0DC0F7FF0800D5
:10082800F5CF8DF0820E066E000E076E4BEC0CF0C5
:1008380063EF05F042504310D8B425EF04F027EFDA
:1008480004F07DEF04F0900E425C010E4358D8B0DE
:1008580030EF04F032EF04F07DEF04F00B0E48188F
:100868004910D8A43AEF04F03CEF04F07DEF04F00F
:100878000E28D8A442EF04F044EF04F07DEF04F012
:1008880059505A10D8B44BEF04F04DEF04F07DEFF7
:1008980004F057505810D8A454EF04F056EF04F061
:1008A8005CEF04F0000E586E010E576E6DEF04F009
:1008B8005A5009E1020E595CD8A065EF04F067EFC1
:1008C80004F06DEF04F04606D8A047065906D8A0F4
:1008D8005A0644504510D8B474EF04F076EF04F08B
:1008E80079EF04F04406D8A04506000E436E000ECA
:1008F800426E0C0E0E18D8A484EF04F086EF04F0B4
:10090800B6EF04F0000E536E000E526E0EC048F0A3
:10091800496A42500C6E43500D6E424A432A910E6A
:100928000C5C010E0D58D8A09CEF04F09EEF04F06B
:1009380016EF05F0000E476E000E466E000E5A6E5A
:10094800010E596E000E586E010E576E000E456E60
:10095800000E446E000E566E000E436E000E426E80
:1009680063EF05F042504310D8B4BDEF04F0BFEF79
:1009780004F016EF05F0900E425C010E4358D8B013
:10098800C8EF04F0CAEF04F016EF05F00C0E481893
:100998004910D8A4D2EF04F0D4EF04F016EF05F014
:1009A8000E28D8A4DAEF04F0DCEF04F016EF05F017
:1009B800475007E1040E465CD8B0E5EF04F0E7EFD6
:1009C80004F016EF05F057045810D8A4EEEF04F021
:1009D800F0EF04F0F6EF04F0000E586E000E576EBC
:1009E80005EF05F0475007E1030E465CD8B0FFEF6E
:1009F80004F001EF05F005EF05F0464A472A594A89
:100A08005A2A455007E1040E445CD8B00EEF05F0B1
:100A180010EF05F012EF05F0444A452A000E436E28
:100A2800000E426E050E52185310D8A41EEF05F0A2
:100A380020EF05F022EF05F09EEF04F05704581060
:100A4800D8A429EF05F02BEF05F037EF05F0800E5D
:100A5800086E2A0E5CEC0FF0C00E086E200E5CECDF
:100A68000FF041EF05F0800E086E200E5CEC0FF0E1
:100A7800C00E086E2A0E5CEC0FF0D8904634D96E82
:100A88004734DA6E700ED926000EDA22DECF03F074
:100A9800DDCF04F0810E056E46EC0DF0D890593488
:100AA800D96E5A34DA6E700ED926000EDA22DECFED
:100AB80003F0DDCF04F0C10E056E46EC0DF0120018
:100AC8000C6E1D0E036E2F0E046E800E056E46EC26
:100AD8000DF00B0E0C18D8A474EF05F076EF05F0A6
:100AE8008CEF05F0B70E4C24D96E000E4D20DA6E4F
:100AF800310EDF6E4C50C30F086E2A0E5CEC0FF0FF
:100B0800000E536E000E526E4C4A4D2AA5EF05F0AA
:100B18000C0E0C18D8A493EF05F095EF05F0A5EF8F
:100B280005F0B70E4C24D96E000E4D20DA6E300E4B
:100B3800DF6E4C50C30F086E2A0E5CEC0FF084EF8A
:100B480005F0050E52185310D8A4ADEF05F0AFEF1D
:100B580005F0B9EF05F0000E566E000E4D6E000E52
:100B68004C6E330E5C6ED2EF06F04A500A6E4B5054
:100B78000B6E4A4A4B2A200E0A5C030E0B58D8B05B
:100B8800C8EF05F0CAEF05F0D2EF05F04C50C30FDF
:100B9800086E5F0E5CEC0FF0F3EF05F0210E4A5C77
:100BA800030E4B58D8A0DBEF05F0DDEF05F0F3EFAF
:100BB80005F04C50C30F086E200E5CEC0FF0400E91
:100BC8004A1807E1060E4B18D8A4EDEF05F0EFEF31
:100BD80005F0F3EF05F0000E4B6E000E4A6E040EA2
:100BE8004C184D10D8A4FBEF05F0FDEF05F0D2EF3F
:100BF80006F0080E0B6E9D0E0A6E060EE82EFED746
:100C08000A2EFCD70B2EFAD75C06000E4D6E000E8E
:100C18004C6E930E016E000E026EB70E036E000E40
:100C2800046EFCEC0BF001500210D8B41EEF06F075
:100C380020EF06F057EF06F00D0E0B6EAF0E0A6EA2
:100C4800B60EE82EFED70A2EFCD70B2EFAD700D008
:100C5800A40E036E2F0E046E800E056E46EC0DF08A
:100C6800C00E086E5C505CEC0FF0B40E036E2F0ED5
:100C7800046EC10E056E46EC0DF00D0E0B6EAF0E38
:100C88000A6EB60EE82EFED70A2EFCD70B2EFAD720
:100C980000D0720E036E2F0E046EC00E056E46EC69
:100CA8000DF07DEF06F0000E4D6E000E4C6E330E0B
:100CB8005C6E610E036E2F0E046E800E056E46ECA0
:100CC8000DF0C80E036E2E0E046EC00E056E46ECB7
:100CD8000DF0120E0B6EC20E0A6E660EE82EFED7CF
:100CE8000A2EFCD70B2EFAD700D0020E566ED2EF82
:100CF80006F0300E5C18D8A484EF06F086EF06F0F4
:100D0800D2EF06F0FB0E036E2E0E046E800E056EFB
:100D180046EC0DF03F0E036E2F0E046EC00E056EEE
:100D280046EC0DF0000E536E000E526EC4EF06F046
:100D3800CA0E086E52503B08016E5350D8A0E82ADC
:100D48000008026E000E046E0A0E036ED3EC0CF05F
:100D58000150300F5CEC0FF0CB0E086E52503B0880
:100D6800016E5350D8A0E82A0008026E000E046EE7
:100D78000A0E036EE4EC0DF00150300F5CEC0FF03E
:100D88003C0E52185310D8A4CCEF06F0CEEF06F064
:100D98009CEF06F0000E566E330E5C6E120042ECAD
:100DA8000FF0140E1B6EAE0E1C6E230E1D6E410E40
:100DB8001E6E040E16EC0EF001C009F002C00AF017
:100DC8000B6A0C6A000E26EC09F009C017F00AC07D
:100DD80018F00BC019F00CC01AF0E5EC01F017C0C0
:100DE80030F018C031F019C032F01AC033F021ECDD
:100DF8000BF030C09EF031C09FF09EC008F09FC03D
:100E080009F0A2EC0EF093EC0CF0820E066E000EC8
:100E1800076E4BEC0CF0020E5618D8B416EF07F01C
:100E280018EF07F021EF07F0030E5618D8A41FEFAC
:100E380007F021EF07F027EF07F0000E0DEC0DF09B
:100E48003C6E2BEF07F0010E0DEC0DF03C6E0A0E18
:100E58003C18D8A432EF07F034EF07F0B5EF07F0ED
:100E68005650D8A43AEF07F03CEF07F0B5EF07F07B
:100E7800720E036E2F0E046EC00E056E46EC0DF05A
:100E8800010E566E000E536E000E526EB5EF07F04F
:100E98003C507CEC0DF0D6EF07F03C5064EC05F0CC
:100EA800020E5618D8A45BEF07F05DEF07F0D6EFF7
:100EB80007F0000E536E000E526ED6EF07F03C504E
:100EC800B2EC03F0070E5618D8A46DEF07F06FEFD9
:100ED80007F0D6EF07F0720E036E2F0E046EC00EE9
:100EE800056E46EC0DF05DEF07F03C500EEC08F097
:100EF800020E5618D8A483EF07F085EF07F0D6EF57
:100F080007F05DEF07F03C5009EC00F0020E5618B0
:100F1800D8A491EF07F093EF07F0D6EF07F05DEF55
:100F280007F0720E036E2F0E046E800E056E46ECEF
:100F38000DF0830E036E2F0E046EC00E056E46EC88
:100F48000DF0660E3B6E760E3A6EC10EE82EFED799
:100F58003A2EFCD73B2EFAD700F0020E566ED6EF8B
:100F680007F056503A6E3B6A3B50000AD8B4BFEFC0
:100F780007F095EF07F03A50000AD8B44CEF07F0A5
:100F8800010AD8B451EF07F0030AD8B463EF07F0A9
:100F9800010AD8B479EF07F0040AD8B487EF07F04C
:100FA80095EF07F093EC0CF0140E1B6EAE0E1C6E52
:100FB800230E1D6E410E1E6E040E16EC0EF001C0BF
:100FC80009F002C00AF00B6A0C6A000E26EC09F060
:100FD80009C017F00AC018F00BC019F00CC01AF0BD
:100FE800E5EC01F017C030F018C031F019C032F04C
:100FF8001AC033F021EC0BF030C09EF031C09FF0E6
:101008009EC008F09FC009F0A2EC0EF00FEF07F0A9
:1010180007EF00F00E6ED00E036E2F0E046E800EDA
:10102800056E46EC0DF0890E086E40C001F041C017
:1010380002F050C003F051C004F0E4EC0DF0015090
:10104800300F5CEC0FF0C40E036E2F0E046E8A0E88
:10105800056E46EC0DF00B0E0E18D8A436EF08F00E
:1010680038EF08F03FEF08F00EC048F0496A424AEE
:10107800432AE3EF08F042504310D8B446EF08F093
:1010880048EF08F07FEF08F0900E425C010E4358DD
:10109800D8B051EF08F053EF08F07FEF08F00B0ECF
:1010A80048184910D8A45BEF08F05DEF08F07FEF0F
:1010B80008F00E28D8A463EF08F065EF08F07FEF7A
:1010C80008F0010E0001A06F4006D8A04106402894
:1010D80006E14128D8A473EF08F075EF08F079EF1E
:1010E80008F0000E416E090E406E000E436E000EB1
:1010F800426EE3EF08F00C0E0E18D8A486EF08F045
:1011080088EF08F0A8EF08F00EC048F0496A42508E
:101118000A6E43500B6E424A432A910E0A5C010E36
:101128000B58D8A09AEF08F09CEF08F0E3EF08F00E
:10113800020E566E000E416E000E406E000E536E8B
:10114800000E526E25EF09F042504310D8B4AFEFAD
:1011580008F0B1EF08F079EF08F0900E425C010E4C
:101168004358D8B0BAEF08F0BCEF08F079EF08F0B0
:101178000C0E48184910D8A4C4EF08F0C6EF08F0C0
:1011880079EF08F00E28D8A4CCEF08F0CEEF08F0DD
:1011980079EF08F0010E0001A06F404A412A0A0EBB
:1011A80040184110D8A4DBEF08F0DDEF08F079EF24
:1011B80008F0000E416E000E406E79EF08F040C056
:1011C80001F041C002F050C003F051C004F0E4EC5B
:1011D8000DF0013A023AF00E021601500F0B0212FE
:1011E800F00E011601C09AF002C09BF0000E0D6EC1
:1011F800000E0C6EA10E0C24D96E000E0D20DA6EB6
:101208000C5000019A25FAEC0EF0DF6E0C4A0D2AFC
:101218000DBE18EF09F00D5009E1100E0C5CD8A0B6
:1012280018EF09F01AEF09F0FEEF08F0000E0001C0
:10123800B16FA10E036E000E046EC00E056E46EC73
:101248000DF01200116E1150D8B42DEF09F02FEFE8
:1012580009F051EF09F00CBE36EF09F034EF09F050
:1012680051EF09F009C00DF00AC00EF00BC00FF0E5
:101278000CC010F00D1E0E1E0F1E101E0D2A000EA3
:101288000E220F2210220DC013F00EC014F00FC052
:1012980015F010C016F059EF09F009C013F00AC094
:1012A80014F00BC015F00CC016F009500A100B1002
:1012B8000C10D8A462EF09F064EF09F06EEF09F0A2
:1012C800000E096E000E0A6E000E0B6E000E0C6EFC
:1012D800FFEF09F0960E126E78EF09F0122AD890F7
:1012E8001632153214321332000E13140D6E000E1E
:1012F80014140E6E000E15140F6EFE0E1614106EDA
:101308000D500E100F101010D8A48DEF09F08FEFAC
:1013180009F072EF09F09DEF09F0122A010E132669
:10132800000E142215221622D890163215321432C5
:101338001332000E13140D6E000E14140E6E000EF0
:1013480015140F6EFF0E1614106E0D500E100F10A0
:101358001010D8A4B2EF09F0B4EF09F091EF09F03A
:10136800BCEF09F01206D890133614361536163627
:1013780015BEC1EF09F0C3EF09F0CBEF09F0020E7B
:101388001260C9EF09F0CBEF09F0B6EF09F012B01F
:10139800D0EF09F0D2EF09F0D3EF09F0159ED890FD
:1013A800123212C00DF00E6A0F6A106A0DC010F0EA
:1013B8000F6A0E6A0D6A0D5013120E5014120F5058
:1013C8001512105016121150D8B4EDEF09F0EFEFC6
:1013D80009F0F7EF09F00CBEF6EF09F0F4EF09F0A9
:1013E800F7EF09F0168E13C009F014C00AF015C003
:1013F8000BF016C00CF01200036E0304D8A407EF1C
:101408000AF009EF0AF00FEF0AF0000E4F6E070E10
:101418004E6E74EF0AF0020E0318D8B416EF0AF0F5
:1014280018EF0AF021EF0AF0030E0318D8A41FEFF3
:101438000AF021EF0AF074EF0AF0070E4E184F1069
:10144800D8A429EF0AF02BEF0AF038EF0AF0020EC1
:101458000318D8A432EF0AF034EF0AF038EF0AF094
:10146800000E4F6E000E4E6E020E0318D8A43FEF0A
:101478000AF041EF0AF050EF0AF04F5007E1060E6C
:101488004E5CD8B04AEF0AF04CEF0AF050EF0AF081
:101498004E4A4F2A74EF0AF0030E0318D8A457EFE8
:1014A8000AF059EF0AF074EF0AF04F5009E1020E02
:1014B8004E5CD8A062EF0AF064EF0AF074EF0AF00D
:1014C8004F5007E1070E4E5CD8B06DEF0AF06FEF92
:1014D8000AF074EF0AF04E06D8A04F0674EF0AF02F
:1014E800D8904E34D96E4F34DA6E600ED926000E7D
:1014F800DA22DECFF6FFDDCFF7FF0800F5CF8CF05C
:10150800D8904E34D96E4F34DA6E600ED926000E5C
:10151800DA22DECF01F0DDCF02F0010E0126000E47
:10152800022201C0F6FF02C0F7FF0800F5CF8DF0D8
:101538001200819A818C818E81B2A5EF0AF0A7EF03
:101548000AF0AAEF0AF0010E20EF0BF081B4AFEF1A
:101558000AF0B1EF0AF0B4EF0AF0040E20EF0BF036
:1015680081B6B9EF0AF0BBEF0AF0BEEF0AF0070E3A
:1015780020EF0BF081B8C3EF0AF0C5EF0AF0C8EF0F
:101588000AF00A0E20EF0BF0818A819C818E81B2CD
:10159800D0EF0AF0D2EF0AF0D5EF0AF0020E20EFF2
:1015A8000BF081B4DAEF0AF0DCEF0AF0DFEF0AF0B3
:1015B800050E20EF0BF081B6E4EF0AF0E6EF0AF033
:1015C800E9EF0AF0080E20EF0BF081B8EEEF0AF011
:1015D800F0EF0AF0F3EF0AF00B0E20EF0BF0818A20
:1015E800818C819E819E81B2FCEF0AF0FEEF0AF0A9
:1015F80001EF0BF0030E20EF0BF081B406EF0BF0B8
:1016080008EF0BF00BEF0BF0060E20EF0BF081B696
:1016180010EF0BF012EF0BF015EF0BF0090E20EFA7
:101628000BF081B81AEF0BF01CEF0BF01FEF0BF06B
:101638000C0E20EF0BF0FF0E120032343334396EEB
:101648003950D8A42AEF0BF02CEF0BF036EF0BF043
:10165800000E306E000E316E000E326E000E336ECC
:10166800A3EF0BF030C034F031C035F032C036F0A3
:1016780033C037F0200E46EF0BF0D89037323632B1
:1016880035323432E82E41EF0BF03450386E328E5A
:10169800FF0E3016FF0E3116FF0E3216000E3316EF
:1016A800960E395E39BE5DEF0BF05BEF0BF073EF12
:1016B8000BF03950800A970FD8B065EF0BF067EF41
:1016C8000BF069EF0BF02CEF0BF0D890333232327D
:1016D80031323032393E69EF0BF08BEF0BF01F0ED1
:1016E800396479EF0BF07BEF0BF083EF0BF02CEF05
:1016F8000BF0D89030363136323633363906395019
:10170800D8A489EF0BF08BEF0BF07DEF0BF038507E
:10171800D8B491EF0BF093EF0BF09BEF0BF0331E67
:10172800321E311E306C000E31223222332230C07C
:1017380030F031C031F032C032F033C033F0120033
:10174800000E956E9450F80B946E8290020E046E03
:10175800040E036EBA0EE82EFED7032EFCD7042E15
:10176800FAD700D0000E016E330EC1EC0EF01B0E3E
:10177800036E9E0EE82EFED7032EFCD700D0000E77
:10178800016E330EC1EC0EF0A60EE82EFED700D087
:10179800000E016E330EC1EC0EF000D000D000F048
:1017A800000E016E020EC1EC0EF0A60EE82EFED75A
:1017B80000D0000E016E380EC1EC0EF0A60EE82E19
:1017C800FED700D0000E016E010EC1EC0EF0040E23
:1017D800036E3E0EE82EFED7032EFCD7000E016ED8
:1017E8000C0EC1EC0EF0A60EE82EFED700D01200AB
:1017F800000E096E000E086E3AEF0CF00850012436
:10180800D96E09500220DA6EDF50056E066A08505C
:101818000324D96E09500420DA6EDF50076E075092
:10182800055E000E065A05500610D8B41EEF0CF0DF
:1018380020EF0CF038EF0CF008500124D96E095055
:101848000220DA6EDF50056E08500324D96E095065
:101858000420DA6EDF50066E0650055C016E026ADF
:10186800D8A002064AEF0CF0084A092A08500124B9
:10187800D96E09500220DA6EDF50D8A446EF0CF07A
:1018880048EF0CF002EF0CF020EF0CF0120050C003
:1018980001F051C002F0000E046E0A0E036EE4EC73
:1018A8000DF0013A023AF00E021601500F0B021227
:1018B800F00E011601C008F002C009F0000E0B6E10
:1018C800000E0A6E0A500624D96E0B500720DA6EF5
:1018D800DF50026E08500A2482EC0EF00A4A0B2AE6
:1018E8000BBE80EF0CF00B5009E1100E0A5CD8A07B
:1018F80080EF0CF082EF0CF066EF0CF0504A512AA2
:101908000A0E50185110D8A48CEF0CF08EEF0CF082
:1019180092EF0CF0000E516E000E506E1200020E87
:101928000FEC0FF03D6E010E0FEC0FF03E6E000E47
:101938000FEC0FF03F6E3DACA4EF0CF0A6EF0CF0EF
:10194800B2EF0CF03D380F0B010B300F0001826F26
:101958003D500F0B300F836FBCEF0CF03D380F0B71
:10196800030B300F0001826F3D500F0B300F836F58
:101978003A0E846F3E380F0B0F0B300F856F3E50B9
:101988000F0B300F866F3A0E876F3F380F0B0F0B18
:10199800300F886F3F500F0B300F896F1200000E09
:1019A800066E000E056E03500410D8B4DEEF0CF07E
:1019B800E0EF0CF008EF0DF0010E076EE8EF0CF009
:1019C800D89003360436072A04AEEDEF0CF0EFEF9B
:1019D8000CF0E4EF0CF0D890053606360350015CA5
:1019E80004500258D8A0FBEF0CF0FDEF0CF002EF0A
:1019F8000DF00350015E0450025A0580D89004325D
:101A08000332072EEFEF0CF005C001F006C002F01C
:101A18001200016E0150D8A414EF0DF016EF0DF06E
:101A28001AEF0DF09DEC0AF045EF0DF00104D8A473
:101A380020EF0DF022EF0DF045EF0DF09DEC0AF0D0
:101A4800026E0228D8B42BEF0DF02DEF0DF03AEF0F
:101A58000DF05B50D8B433EF0DF035EF0DF03AEFE1
:101A68000DF0000E5B6E025045EF0DF00228D8A471
:101A780040EF0DF042EF0DF044EF0DF0010E5B6EFC
:101A8800FF0E1200000E016E0550C1EC0EF063EF60
:101A98000DF0010E016E03C0F6FF04C0F7FFF86AEF
:101AA800050EF76403D00800F55005D0F6CFE1FF26
:101AB800F7CFE2FFE750C1EC0EF0034A042A03C057
:101AC800F6FF04C0F7FFF86A050EF76403D00800B4
:101AD800F55005D0F6CFE1FFF7CFE2FFE750000958
:101AE800D8A479EF0DF07BEF0DF04DEF0DF012005B
:101AF8000C6E2E0E036E2F0E046E800E056E46ECD5
:101B08000DF00C04D8B48BEF0DF08DEF0DF09FEFB6
:101B18000DF0020E0C18D8B494EF0DF096EF0DF0FE
:101B28009FEF0DF0030E0C18D8A49DEF0DF09FEF5A
:101B38000DF0A8EF0DF00C5000EC0AF0820E066EC6
:101B4800000E076E4BEC0CF0820E036E000E046E56
:101B5800C00E056E46EC0DF01200BC0EF66E1D0EA2
:101B6800F76E000EF86E00EE60F010EE38F0090027
:101B7800F5CFEEFFE550E150FAE1380EF66E1F0E94
:101B8800F76E000EF86E00EE57F010EE06F0090042
:101B9800F5CFEEFFE550E150FAE100EE98F0240EA3
:101BA800EE6AE806FDE100EE3DF01A0EEE6AE80680
:101BB800FDE15D905D92000EF86E0001D3EF06F036
:101BC80003500410D8B4EBEF0DF0EDEF0DF011EF6A
:101BD8000EF0010E056EF5EF0DF0D89003360436C1
:101BE800052A04AEFAEF0DF0FCEF0DF0F1EF0DF061
:101BF8000350015C04500258D8A005EF0EF007EF1F
:101C08000EF00BEF0EF00350015E0450025AD8900C
:101C180004320332052EFCEF0DF001C001F002C0C2
:101C280002F01200086E08C003F0D8900336D8906E
:101C38000336C250C30B0310C26EC282C2B227EF72
:101C48000EF029EF0EF022EF0EF0C4CF03F0030ED2
:101C580003160350056E046AC350066E076A0450E3
:101C68000610016E05500710026E1200000E0FECF0
:101C78000FF0046E04508009026E000E24EC0FF081
:101C8800020E0FEC0FF0046E04504009026E020EB3
:101C980024EC0FF0930E026E070E24EC0FF0000EEA
:101CA8000FEC0FF0046E04507F0B026E000E24EC54
:101CB8000FF012000600DE0ED624D66E0B0ED720CB
:101CC800D76EF2A46AEF0EF06CEF0EF080EF0EF014
:101CD8000001984B992B510E98199911D8A477EFB8
:101CE8000EF079EF0EF07FEF0EF0000E996F000EF8
:101CF800986F524A532AF2945D921100056E98EC3F
:101D08000FF0A00E82EC0FF0055082EC0FF002509D
:101D180082EC0FF094EC0FF00B0E046EB80E036E0D
:101D28000306D8A00406032806E10428D8A49FEFD8
:101D38000EF0A1EF0EF094EF0EF0120008C001F0C3
:101D480009C002F0000E046E0A0E036ED3EC0CF00C
:101D58000150300F0001906F08C001F009C002F077
:101D6800000E046E0A0E036EE4EC0DF00150300F05
:101D78000001916F000E926F1200026E01B0C7EF62
:101D88000EF0CAEF0EF08282CBEF0EF0829202C004
:101D980083FF82848294958E828082928284829448
:101DA80083BED9EF0EF0DBEF0EF0D2EF0EF082908B
:101DB800959E1200F22FEF2FDD2FE02FE32FE62F55
:101DC800F82FDA2FA62E952ED92EB72E942FFB2F6B
:101DD800EC2FE92FF52F2020202020202020202064
:101DE8004F4E20202020203131303000026E98ECF8
:101DF8000FF0A00E82EC0FF0025082EC0FF08CEC8A
:101E08000FF0A10E82EC0FF07CEC0FF0036E94EC57
:101E18000FF003501200026E98EC0FF0D00E82EC17
:101E28000FF0025082EC0FF08CEC0FF0D10E82EC28
:101E38000FF07CEC0FF0036E94EC0FF003501200DF
:101E4800036E98EC0FF0D00E82EC0FF0035082EC8A
:101E58000FF0025082EC0FF094EC0FF01200C280E9
:101E6800C19AC198C186C194C182C190C08AC098E4
:101E7800C096C094C082C090C08E120088EC0FF04B
:101E8800A4EC0BF033EC0FF04FEC0FF068EC0FF014
:101E98003AEC0EF01200F28EF28CF28AF2940B0EEB
:101EA800D76EDC0ED66ED58ED59CD59AD586120007
:101EB800096E000E016E0850C1EC0EF0010E016EA5
:101EC8000950C1EC0EF0120094869488280EC66E54
:101ED800310EC86EC79CC78E9E96A19612009EA60C
:101EE80078EF0FF07AEF0FF073EF0FF09E96120075
:101EF80090EC0FF09FEC0FF0C9501200016E01C07A
:101F0800C9FF73EC0FF012001E0E936EF19E1200C3
:101F1800C58273EC0FF01200C58673EC0FF0120047
:101F2800C58473EC0FF01200C58073EC0FF012003B
:0C1F3800010001000133C58AC5881200B9
:102E9400005365742054696D652020202020202073
:102EA400200056696577204C6F6720202020202061
:102EB400202000436C656172206C6F672020202005
:102EC400202020002020204D656E7520506167650C
:102ED4002020202000446F776E6C6F6164204C6F5B
:102EE40067202020200020204E65772050617373D6
:102EF400776F72642020002020417474656D7074B3
:102F0400204F76657220200020456E746572205033
:102F1400617373776F7264200020456E746572204C
:102F240070617373776F72642000202054494D459B
:102F340020202020455620205350002057616974DA
:102F440020466F722020202053656300436F6E6615
:102F540069726D2050617373776F726400436F728E
:102F6400726563742050617373776F7264002020FC
:102F7400202020202020202020202020202000206D
:102F8400202068656C6C6F2D6D656E7520202000A7
:102F940052657365742050617373776F7264200097
:102FA4002057726F6E672050617373776F7264007D
:102FB4002D417474656D70742052656D61696E0085
:102FC4005D20202020202020202020004C6F6773CB
:102FD4003A2D2D3E5B004320004731004732004725
:102FE4003300473400434C00444C00474E004F4EDE
:0B2FF4000043500047520053540000FF
:020000040020DA
:08000000FFFFFFFFFFFFFFFF00
:020000040030CA
:0E000000FF071F1FFF8285FF0FC00FE00F409C
:00000001FF
