:020000040000FA
:0400000007EF00F016
:100008005C8272ED09F01EEF09F01A50800B276E22
:100018001A501A242E6E19AE14EF00F016EF00F0E5
:1000280017EF00F02E802E50D8B41DEF00F01FEF10
:1000380000F034EF00F02E28D8A425EF00F027EFC9
:1000480000F02FEF00F0000E176E000E186E000E75
:10005800196E000E1A6E198E000E1A6E3CEF00F023
:10006800000E176E000E186E000E196E000E1A6E36
:100078001E50800B271A1E501E242F6E1DAE47EFF0
:1000880000F049EF00F04AEF00F02F802F50D8B46D
:1000980050EF00F052EF00F067EF00F02F28D8A4DF
:1000A80058EF00F05AEF00F062EF00F0000E1B6E00
:1000B800000E1C6E000E1D6E000E1E6E1D8E000EB4
:1000C8001E6E6FEF00F0000E1B6E000E1C6E000E11
:1000D8001D6E000E1E6E1B501C101D101E10D8A485
:1000E80078EF00F07AEF00F092EF00F0000E176E54
:1000F800000E186E000E196E000E1A6E800E191280
:100108007F0E1A1227501A1217C017F018C018F0CD
:1001180019C019F01AC01AF0D5EF01F02E50D8A462
:1001280098EF00F09AEF00F0A4EF00F0000E176EC1
:10013800000E186E000E196E000E1A6ED5EF01F043
:100148002F502EC01FF0206A1F5E000E205A7F0E0F
:100158001F24286E000E2020296E17C023F018C017
:1001680024F019C025F01AC026F0000E176E000EF4
:10017800186E000E196E000E1A6E000E2A6E000E12
:100188002B6E000E2C6E000E2D6E000E2F6E05EFDE
:1001980001F02F50D8B4D3EF00F0D5EF00F0ECEF1A
:1001A80000F0D8902336243625362636D8901736D0
:1001B800183619361A362DAEE4EF00F0E6EF00F0E7
:1001C800E7EF00F01780D8902A362B362C362D36DC
:1001D8001B50235C1C5024581D5025581E5026586F
:1001E800D8A0F9EF00F0FBEF00F004EF01F02D8C40
:1001F8001B50235E1C50245A1D50255A1E50265A47
:100208002F2A190E2F640BEF01F00DEF01F0CDEF3F
:1002180000F02350241025102610D8B416EF01F052
:1002280018EF01F030EF01F02A8030EF01F0D8909C
:100238001736183619361A362DAE25EF01F027EF86
:1002480001F028EF01F01780D8902A362B362C368B
:100258002D362806D8A0290619AE35EF01F037EF5C
:1002680001F01BEF01F0000E2F6E2DAE3EEF01F0F6
:1002780040EF01F064EF01F0FF0E2A141F6EFF0E2D
:100288002B14206EFF0E2C14216E7F0E2D14226E5F
:100298001F50201021102210D8B455EF01F057EF4D
:1002A80001F05BEF01F0010E2F6E64EF01F017A073
:1002B80060EF01F062EF01F064EF01F057EF01F039
:1002C8002F50D8B46AEF01F06CEF01F090EF01F015
:1002D800010E1726000E182219221A221AA077EFEB
:1002E80001F079EF01F090EF01F017C01FF018C08E
:1002F80020F019C021F01AC022F022342232213213
:1003080020321F321FC017F020C018F021C019F08A
:1003180022C01AF0284A292A29BE9BEF01F0295049
:1003280008E12828D8A09BEF01F09DEF01F0A8EF85
:1003380001F0000E296E2868000E176E000E186E68
:10034800000E196E000E1A6E29BEB5EF01F0295085
:1003580006E12804D8B0B3EF01F0B5EF01F0C3EF20
:1003680001F0000E296E000E286E000E176E000EAA
:10037800186E000E196E000E1A6E000E276E28C039
:100388002EF02EA0CAEF01F0CCEF01F0CFEF01F074
:10039800198ED0EF01F0199ED8902E301A6E86EF84
:1003A80000F012000E6E46504710D8A4DEEF01F0A0
:1003B800E0EF01F075EF03F00B0E0E18D8A4E7EF8D
:1003C80001F0E9EF01F0FFEF01F07A0E4A24D96E4F
:1003D800000E4B20DA6E310EDF6E4A50C30F086EE6
:1003E8002A0E21EC0AF0000E516E000E506E4A4A99
:1003F8004B2A18EF02F00C0E0E18D8A406EF02F0E4
:1004080008EF02F018EF02F07A0E4A24D96E000EB7
:100418004B20DA6E300EDF6E4A50C30F086E2A0E7C
:1004280021EC0AF0F7EF01F0050E50185110D8A48E
:1004380020EF02F022EF02F028EF02F0000E536ED8
:1004480084EF03F084EF03F048500A6E49500B6EB6
:10045800484A492A200E0A5C030E0B58D8B037EFD9
:1004680002F039EF02F041EF02F04A50C30F086E74
:100478005F0E21EC0AF062EF02F0210E485C030ED9
:100488004958D8A04AEF02F04CEF02F062EF02F0B0
:100498004A50C30F086E200E21EC0AF0400E48188F
:1004A80007E1060E4918D8A45CEF02F05EEF02F0EF
:1004B80062EF02F0000E496E000E486EA70E036E42
:1004C8002F0E046E800E056E95EC09F0040E4A1886
:1004D8004B10D8A472EF02F074EF02F084EF03F02F
:1004E800080E0B6E9D0E0A6E060EE82EFED70A2E1B
:1004F800FCD70B2EFAD75B06000E4B6E000E4A6E29
:10050800000E106E000E0F6E000E0D6E000E0C6EBB
:10051800E1EF02F07A0E0F24D96E000E1020DA6E89
:10052800F90E0F24F66E2F0E1020F76EDE5009001C
:10053800F518D8B4A2EF02F0A4EF02F0DFEF02F052
:10054800000E0D6E010E0C6E0D0E0B6EAF0E0A6EC8
:10055800B60EE82EFED70A2EFCD70B2EFAD700D0FF
:10056800970E036E2F0E046E800E056E95EC09F043
:10057800C00E086E5B5021EC0AF0B70E036E2F0E0A
:10058800046EC10E056E95EC09F00D0E0B6EAF0EE4
:100598000A6EB60EE82EFED70A2EFCD70B2EFAD717
:1005A80000D0CD0E036E2E0E046EC00E056E95ECB7
:1005B80009F0F1EF02F00F4A102AF90E0F24F66E37
:1005C8002F0E1020F76E0800F5500009D8A4EFEFA1
:1005D80002F0F1EF02F08EEF02F00C500D10D8A4EB
:1005E800F8EF02F0FAEF02F01EEF03F0000E476E8C
:1005F800010E466E330E5B6E660E036E2F0E046E92
:10060800800E056E95EC09F0110E036E2F0E046E28
:10061800C00E056E95EC09F0120E0B6EC20E0A6E36
:10062800660EE82EFED70A2EFCD70B2EFAD700D07E
:1006380084EF03F0300E5B18D8A425EF03F027EF02
:1006480003F026EF02F0330E036E2F0E046E800EB9
:10065800056E95EC09F0550E036E2F0E046EC00E54
:10066800056E95EC09F0000E516E000E506E65EFA8
:1006780003F0CA0E086E50503B08016E5150D8A0C6
:10068800E82A0008026E000E046E0A0E036E79EC6A
:1006980008F00150300F21EC0AF0CB0E086E5050D4
:1006A8003B08016E5150D8A0E82A0008026E000EDF
:1006B800046E0A0E036EECEC08F00150300F21ECCA
:1006C8000AF03C0E50185110D8A46DEF03F06FEFEC
:1006D80003F03DEF03F0000E536E330E5B6E84EFB4
:1006E80003F046044710D8A47CEF03F07EEF03F034
:1006F80084EF03F0000E476E000E466E020E536E36
:1007080012000C6E0B0E0C18D8A48DEF03F08FEFAF
:1007180003F0C2EF03F0000E516E000E506E0CC0D5
:1007280044F0456A3E500A6E3F500B6E3E4A3F2ADF
:10073800910E0A5C010E0B58D8A0A5EF03F0A7EFA5
:1007480003F021EF04F0770E036E2F0E046E800E77
:10075800056E95EC09F0D8904034D96E4134DA6EC4
:10076800700ED926000EDA22DECF03F0DDCF04F0BA
:10077800C00E056E95EC09F0A7EF03F03E503F1050
:10078800D8B4C9EF03F0CBEF03F021EF04F0900EDB
:100798003E5C010E3F58D8B0D4EF03F0D6EF03F01B
:1007A80021EF04F00B0E44184510D8A4DEEF03F037
:1007B800E0EF03F021EF04F00C28D8A4E6EF03F0F3
:1007C800E8EF03F021EF04F056505710D8B4EFEFDC
:1007D80003F0F1EF03F021EF04F054505510D8A4C2
:1007E800F8EF03F0FAEF03F000EF04F0000E556E97
:1007F800010E546E11EF04F0575009E1020E565CD9
:10080800D8A009EF04F00BEF04F011EF04F0420652
:10081800D8A043065606D8A0570640504110D8B471
:1008280018EF04F01AEF04F01DEF04F04006D8A00A
:100838004106000E3F6E000E3E6E0C0E0C18D8A43A
:1008480028EF04F02AEF04F05AEF04F0000E516E7E
:10085800000E506E0CC044F0456A3E500A6E3F5080
:100868000B6E3E4A3F2A910E0A5C010E0B58D8A027
:1008780040EF04F042EF04F0BAEF04F0000E436ECC
:10088800000E426E000E576E010E566E000E556E2B
:10089800010E546E000E416E000E406E000E536E37
:1008A800000E3F6E000E3E6E1DEF05F03E503F10ED
:1008B800D8B461EF04F063EF04F0BAEF04F0900EDF
:1008C8003E5C010E3F58D8B06CEF04F06EEF04F0B8
:1008D800BAEF04F00C0E44184510D8A476EF04F0D3
:1008E80078EF04F0BAEF04F00C28D8A47EEF04F0F7
:1008F80080EF04F0BAEF04F0435007E1040E425CC5
:10090800D8B089EF04F08BEF04F0BAEF04F0540488
:100918005510D8A492EF04F094EF04F09AEF04F085
:10092800000E556E000E546EA9EF04F0435007E117
:10093800030E425CD8B0A3EF04F0A5EF04F0A9EFD2
:1009480004F0424A432A564A572A415007E1040E06
:10095800405CD8B0B2EF04F0B4EF04F0B6EF04F0A6
:10096800404A412A000E3F6E000E3E6E050E50189A
:100978005110D8A4C2EF04F0C4EF04F0DCEF04F087
:10098800000E436E000E426E000E576E010E566E3C
:10099800000E556E010E546E000E416E000E406E34
:1009A800000E3F6E000E3E6E000E536E1DEF05F0FA
:1009B80054045510D8A4E3EF04F0E5EF04F0F1EF88
:1009C80004F0800E086E2A0E21EC0AF0C00E086EA4
:1009D800200E21EC0AF0FBEF04F0800E086E200ECA
:1009E80021EC0AF0C00E086E2A0E21EC0AF0D8900D
:1009F8004234D96E4334DA6E700ED926000EDA22EC
:100A0800DECF03F0DDCF04F0810E056E95EC09F022
:100A1800D8905634D96E5734DA6E700ED926000E37
:100A2800DA22DECF03F0DDCF04F0C10E056E95ECBF
:100A380009F01200116E1150D8B425EF05F027EF18
:100A480005F049EF05F00CBE2EEF05F02CEF05F090
:100A580049EF05F009C00DF00AC00EF00BC00FF009
:100A68000CC010F00D1E0E1E0F1E101E0D2A000EBB
:100A78000E220F2210220DC013F00EC014F00FC06A
:100A880015F010C016F051EF05F009C013F00AC0B8
:100A980014F00BC015F00CC016F009500A100B101A
:100AA8000C10D8A45AEF05F05CEF05F066EF05F0DE
:100AB800000E096E000E0A6E000E0B6E000E0C6E14
:100AC800F7EF05F0960E126E70EF05F0122AD89027
:100AD8001632153214321332000E13140D6E000E36
:100AE80014140E6E000E15140F6EFE0E1614106EF2
:100AF8000D500E100F101010D8A485EF05F087EFD9
:100B080005F06AEF05F095EF05F0122A010E13269D
:100B1800000E142215221622D890163215321432DD
:100B28001332000E13140D6E000E14140E6E000E08
:100B380015140F6EFF0E1614106E0D500E100F10B8
:100B48001010D8A4AAEF05F0ACEF05F089EF05F076
:100B5800B4EF05F01206D89013361436153616364B
:100B680015BEB9EF05F0BBEF05F0C3EF05F0020EB7
:100B78001260C1EF05F0C3EF05F0AEEF05F012B05B
:100B8800C8EF05F0CAEF05F0CBEF05F0159ED89039
:100B9800123212C00DF00E6A0F6A106A0DC010F002
:100BA8000F6A0E6A0D6A0D5013120E5014120F5070
:100BB8001512105016121150D8B4E5EF05F0E7EFF2
:100BC80005F0EFEF05F00CBEEEEF05F0ECEF05F0E9
:100BD800EFEF05F0168E13C009F014C00AF015C027
:100BE8000BF016C00CF01200066E0604D8A4FFEF36
:100BF80005F001EF06F007EF06F0000E4F6E070E46
:100C08004E6E6CEF06F0020E0618D8B40EEF06F022
:100C180010EF06F019EF06F0030E0618D8A417EF28
:100C280006F019EF06F06CEF06F0070E4E184F109D
:100C3800D8A421EF06F023EF06F030EF06F0020EFD
:100C48000618D8A42AEF06F02CEF06F030EF06F0CD
:100C5800000E4F6E000E4E6E020E0618D8A437EF27
:100C680006F039EF06F048EF06F04F5007E1060EA0
:100C78004E5CD8B042EF06F044EF06F048EF06F0BD
:100C88004E4A4F2A6CEF06F0030E0618D8A44FEF11
:100C980006F051EF06F06CEF06F04F5009E1020E36
:100CA8004E5CD8A05AEF06F05CEF06F06CEF06F049
:100CB8004F5007E1070E4E5CD8B065EF06F067EFBE
:100CC80006F06CEF06F04E06D8A04F066CEF06F063
:100CD800D8904E34D96E4F34DA6E600ED926000E95
:100CE800DA22DECF03F0DDCF04F0C90E056E95ECF5
:100CF80009F01200819A818C818E81B286EF06F00C
:100D080088EF06F08BEF06F0010E01EF07F081B4D3
:100D180090EF06F092EF06F095EF06F0040E01EF63
:100D280007F081B69AEF06F09CEF06F09FEF06F009
:100D3800070E01EF07F081B8A4EF06F0A6EF06F062
:100D4800A9EF06F00A0E01EF07F0818A819C818ED7
:100D580081B2B1EF06F0B3EF06F0B6EF06F0020E7F
:100D680001EF07F081B4BBEF06F0BDEF06F0C0EF6E
:100D780006F0050E01EF07F081B6C5EF06F0C7EFE4
:100D880006F0CAEF06F0080E01EF07F081B8CFEFC2
:100D980006F0D1EF06F0D4EF06F00B0E01EF07F0E6
:100DA800818A818C819E819E81B2DDEF06F0DFEF22
:100DB80006F0E2EF06F0030E01EF07F081B4E7EF6B
:100DC80006F0E9EF06F0ECEF06F0060E01EF07F08B
:100DD80081B6F1EF06F0F3EF06F0F6EF06F0090E34
:100DE80001EF07F081B8FBEF06F0FDEF06F000EF2A
:100DF80007F00C0E01EF07F0FF0E12003234333407
:100E0800396E3950D8A40BEF07F00DEF07F017EF44
:100E180007F0000E306E000E316E000E326E000EBE
:100E2800336E84EF07F030C034F031C035F032C093
:100E380036F033C037F0200E27EF07F0D89037325E
:100E4800363235323432E82E22EF07F03450386E1D
:100E5800328EFF0E3016FF0E3116FF0E3216000EC0
:100E68003316960E395E39BE3EEF07F03CEF07F0B9
:100E780054EF07F03950800A970FD8B046EF07F0C3
:100E880048EF07F04AEF07F00DEF07F0D89033323C
:100E9800323231323032393E4AEF07F06CEF07F028
:100EA8001F0E39645AEF07F05CEF07F064EF07F0A4
:100EB8000DEF07F0D89030363136323633363906F2
:100EC8003950D8A46AEF07F06CEF07F05EEF07F02F
:100ED8003850D8B472EF07F074EF07F07CEF07F0E2
:100EE800331E321E311E306C000E31223222332264
:100EF80030C030F031C031F032C032F033C033F09E
:100F080012002DEC0AF0020E5318D8A48EEF07F049
:100F180090EF07F096EF07F0000EB3EC08F03B6E89
:100F28009AEF07F0010EB3EC08F03B6E0A0E3B187F
:100F3800D8A4A1EF07F0A3EF07F0B1EF07F0CE0EAA
:100F4800036E2E0E046EC00E056E95EC09F0010EB0
:100F5800536E000E516E000E506E5304D8A4B7EFB6
:100F680007F0B9EF07F0CBEF07F03B50D6EC01F0F4
:100F7800020E5318D8A4C3EF07F0C5EF07F087EFA8
:100F880007F0000E516E000E506E87EF07F0020E4C
:100F98005318D8A4D2EF07F0D4EF07F0D9EF07F031
:100FA8003B5085EC03F087EF07F03B5038EC08F036
:100FB80087EF07F007EF00F0000E956E9450F80BDE
:100FC800946E8290020E046E040E036EBA0EE82E22
:100FD800FED7032EFCD7042EFAD700D0000E016EE0
:100FE800330ED8EC09F01B0E036E9E0EE82EFED7CA
:100FF800032EFCD700D0000E016E330ED8EC09F09A
:10100800A60EE82EFED700D0000E016E330ED8ECE7
:1010180009F000D000D000F0000E016E020ED8ECEE
:1010280009F0A60EE82EFED700D0000E016E380E8D
:10103800D8EC09F0A60EE82EFED700D0000E016EFF
:10104800010ED8EC09F0040E036E3E0EE82EFED712
:10105800032EFCD7000E016E0C0ED8EC09F0A60E7C
:10106800E82EFED700D012003A6E440E036E2F0E03
:10107800046E800E056E95EC09F036EC0AF03A50D5
:10108800F8EC05F0140E1B6EAE0E1C6E230E1D6ED2
:10109800410E1E6E040E4EEC09F001C009F002C0AC
:1010A8000AF00B6A0C6A000E1EEC05F009C017F076
:1010B8000AC018F00BC019F00CC01AF009EC00F0C7
:1010C80017C030F018C031F019C032F01AC033F030
:1010D80002EC07F030C04CF031C04DF04CC00AF0C3
:1010E8004DC00BF0B7EC09F01200000E066E000EB2
:1010F800056E03500410D8B484EF08F086EF08F0AA
:10110800AEEF08F0010E076E8EEF08F0D8900336A8
:101118000436072A04AE93EF08F095EF08F08AEF3B
:1011280008F0D890053606360350015C0450025882
:10113800D8A0A1EF08F0A3EF08F0A8EF08F003503B
:10114800015E0450025A0580D89004320332072EFB
:1011580095EF08F005C001F006C002F01200016E1C
:101168000150D8A4BAEF08F0BCEF08F0C0EF08F0BF
:101178007EEC06F0EBEF08F00104D8A4C6EF08F007
:10118800C8EF08F0EBEF08F07EEC06F0026E0228DC
:10119800D8B4D1EF08F0D3EF08F0E0EF08F05A50D8
:1011A800D8B4D9EF08F0DBEF08F0E0EF08F0000E54
:1011B8005A6E0250EBEF08F00228D8A4E6EF08F0C8
:1011C800E8EF08F0EAEF08F0010E5A6EFF0E120081
:1011D80003500410D8B4F3EF08F0F5EF08F019EF56
:1011E80009F0010E056EFDEF08F0D89003360436BD
:1011F800052A04AE02EF09F004EF09F0F9EF08F050
:101208000350015C04500258D8A00DEF09F00FEF0D
:1012180009F013EF09F00350015E0450025AD89008
:1012280004320332052E04EF09F001C001F002C0B8
:1012380002F01200EA0EF66E130EF76E000EF86E4C
:1012480000EE60F010EE1FF00900F5CFEEFFE5505C
:10125800E150FAE17E0EF66E140EF76E000EF86E8F
:1012680000EE54F010EE08F00900F5CFEEFFE5505F
:10127800E150FAE10001806B7F6B00EE3CF0180E44
:10128800EE6AE806FDE15C905C92000EF86E0001E3
:1012980085EF07F0086E08C003F0D8900336D890A1
:1012A8000336C250C30B0310C26EC282C2B25FEFD4
:1012B80009F061EF09F05AEF09F0C4CF03F0030E0B
:1012C80003160350056E046AC350066E076A04507D
:1012D8000610016E05500710026E12000600DE0EA1
:1012E800D624D66E0B0ED720D76EF2A47EEF09F067
:1012F80080EF09F093EF09F03C4A3D2A510E3C1863
:101308003D10D8A48AEF09F08CEF09F092EF09F0AC
:10131800000E3D6E000E3C6E504A512AF2945C92CB
:101328001100000E016E0550D8EC09F0A8EF09F085
:10133800010E016E03C0F6FF04C0F7FF0800F55068
:10134800D8EC09F0034A042A03C0F6FF04C0F7FFEB
:101358000800F5500009D8A4B4EF09F0B6EF09F079
:101368009CEF09F01200CD0E086E0AC001F00BC008
:1013780002F0000E046E0A0E036E79EC08F00150BC
:10138800300F21EC0AF0CE0E086E0AC001F00BC037
:1013980002F0000E046E0A0E036EECEC08F0015029
:1013A800300F21EC0AF01200026E01B0DEEF09F0F6
:1013B800E1EF09F08282E2EF09F0829202C083FF36
:1013C80082848294958E828082928284829483BE63
:1013D800F0EF09F0F2EF09F0E9EF09F08290959E3D
:1013E8001200EA2FE52FD12FD62FDB2FE02FF42F75
:1013F800EF2FEF2EDE2E222F002F872F20202020E8
:0114080000E3
:10140A00C280C19AC198C186C194C182C190C08A62
:10141A00C098C096C094C082C090C08E1200F28E4E
:10142A00F28CF28AF2940B0ED76EDC0ED66ED58E43
:10143A00D59CD59AD5861200096E000E016E085009
:10144A00D8EC09F0010E016E0950D8EC09F012002F
:10145A0043EC0AF0E0EC07F005EC0AF014EC0AF0B1
:10146A001200C70E036E2F0E046EC00E056E95ECA9
:10147A0009F0120001000100F92F01331E0E936ECC
:04148A00F19E1200BD
:102ECC000020202020202020202020202020202016
:102EDC0020005365742054696D652020202020202B
:102EEC0020200056696577204C6F67202020202019
:102EFC0020202000436C656172206C6F67202020BD
:102F0C0020202020002020204D656E752050616708
:102F1C00652020202000446F776E6C6F6164204C1C
:102F2C006F6720202020002020417474656D707420
:102F3C00204F766572202000202054494D452020DA
:102F4C00202045562053502000205761697420469C
:102F5C006F722020202053656300436F727265638B
:102F6C00742050617373776F726400456E74657270
:102F7C006564204D454E55203A20005265736574AA
:102F8C002050617373776F726420002057726F6EDC
:102F9C00672050617373776F72640020456E74659F
:102FAC00722070617373776F7264002D4174746555
:102FBC006D70742052656D61696E0031303A30303D
:102FCC003A303020002047312000204732200020AA
:102FDC0047332000204734200020474E2000204F4C
:102FEC004E20002043522000204752200030303128
:032FFC00310000A1
:020000040020DA
:08000000FFFFFFFFFFFFFFFF00
:020000040030CA
:0E000000FF071F1FFF8285FF0FC00FE00F409C
:00000001FF
