:020000040000FA
:0400000007EF00F016
:0A00080055821DED0BF083EF0BF0A5
:10060000002020202020202020202020202020200A
:1006100020002020205761697420466F722020201E
:100620002020002020204D656E75205061676520D8
:10063000202020002020202056696577204C6F67FD
:10064000202020200020202020436C656172204C57
:100650006F67202020002020417474656D70742025
:100660004F766572202000202054494D45202020DF
:100670002045202053502000436F72726563742020
:1006800050617373776F7264002057726F6E6720CA
:1006900050617373776F72640020456E74657220C9
:1006A00070617373776F7264002D417474656D703F
:1006B000742052656D61696E005365636F6E64737B
:1006C0002072656D61696E0031303A30303A3030F9
:1006D00020003030313100432000473100473200E4
:1006E000473300473400474E004F4E00475200004A
:1006F000000E546E000E536E330E196E000E216EF6
:10070000000E206E000E1B6E000E1A6E000E176E8D
:10071000000E166ED20E146E060E156E000E116EC1
:10072000010E036E060E046EC00E056E40EC0BF05B
:1007300016501710D8A49FEF03F0A1EF03F05DEF60
:1007400005F0010E8EEC0AF0186E0B0E1818D8A4E6
:10075000ACEF03F0AEEF03F0BEEF03F00D0E20247C
:10076000D96E000E2120DA6E310EDF6E000E546E4F
:10077000000E536E204A212AD1EF03F00C0E1818F8
:10078000D8A4C5EF03F0C7EF03F0D1EF03F00D0ECF
:100790002024D96E000E2120DA6E300EDF6EB6EF07
:1007A00003F0050E53185410D8A4D9EF03F0DBEF73
:1007B00003F0DDEF03F086EF05F0000E1F6E000E74
:1007C0001E6EEBEF03F01E50C30F086E2A0EF3EC03
:1007D0000BF01E4A1F2A20501E5C21501F58D8A023
:1007E000F4EF03F0F6EF03F0E3EF03F01A500A6EB4
:1007F0001B500B6E1A4A1B2A200E0A5C030E0B5864
:10080000D8B005EF04F007EF04F00FEF04F01E502E
:10081000C30F086E5F0EF3EC0BF030EF04F0210E07
:100820001A5C030E1B58D8A018EF04F01AEF04F05E
:1008300030EF04F01E50C30F086E200EF3EC0BF0E7
:10084000400E1A1807E1060E1B18D8A42AEF04F070
:100850002CEF04F030EF04F0000E1B6E000E1A6E49
:10086000990E036E060E046E800E056E40EC0BF0C2
:10087000040E20182110D8A440EF04F042EF04F039
:1008800098EF03F0100E0B6E390E0A6E0E0EE82E66
:10089000FED70A2EFCD70B2EFAD71906000E1D6EB6
:1008A000000E1C6E000E136E000E126EBBEF04F0F5
:1008B0000D0E1C24D96E000E1D20DA6E1C5014245F
:1008C0000B6E1D5015200C6E0BC0F6FF0CC0F7FF11
:1008D000DE500900F518D8B470EF04F072EF04F0A0
:1008E000B9EF04F0000E216E000E206E000E136EA4
:1008F000010E126E0D0E0B6EAF0E0A6EB60EE82EC6
:10090000FED70A2EFCD70B2EFAD700D0890E036E25
:10091000060E046E800E056E40EC0BF0010E036EA9
:10092000060E046EC00E056E40EC0BF0C00E086E95
:100930001950F3EC0BF0A90E036E060E046EC10EF7
:10094000056E40EC0BF00D0E0B6EAF0E0A6EB60E80
:10095000E82EFED70A2EFCD70B2EFAD700D0010EB8
:10096000036E060E046EC00E056E40EC0BF0CFEF6A
:1009700004F01C4A1D2A1C5014240A6E1D50152018
:100980000B6E0AC0F6FF0BC0F7FF0800F550000918
:10099000D8A4CDEF04F0CFEF04F058EF04F01250DC
:1009A0001310D8A4D6EF04F0D8EF04F0FAEF04F057
:1009B000000E176E010E166E0D0E0B6EAF0E0A6E48
:1009C000B60EE82EFED70A2EFCD70B2EFAD700D093
:1009D000780E036E060E046E800E056E40EC0BF072
:1009E000230E036E060E046EC00E056E40EC0BF077
:1009F00098EF03F0300E1918D8A401EF05F003EFBB
:100A000005F084EF05F0560E036E060E046E800EA0
:100A1000056E40EC0BF0010E036E060E046EC00E68
:100A2000056E40EC0BF0000E546E000E536E51EF4D
:100A300005F0120E036E060E046E800E056E40EC7D
:100A40000BF0C00E086E53503B08016E5450D8A0F6
:100A5000E82A0008026E000E046E0A0E036E54ECC3
:100A60000AF00150300FF3EC0BF0C10E086E53503A
:100A70003B08016E5450D8A0E82A0008026E000E10
:100A8000046E0A0E036EC7EC0AF00150300FF3EC4F
:100A90000BF0B90E036E060E046EC20E056E40EC2E
:100AA0000BF03C0E53185410D8A459EF05F05BEF2F
:100AB00005F019EF05F086EF05F016041710D8A41D
:100AC00064EF05F066EF05F098EF03F01A0E0B6E79
:100AD0005E0E0A6E6E0EE82EFED70A2EFCD70B2E87
:100AE000FAD700D0340E036E060E046E800E056E2B
:100AF00040EC0BF0450E036E060E046EC00E056E44
:100B000040EC0BF098EF03F098EF03F012001A504E
:100B1000800B276E1A501A242E6E19AE92EF05F034
:100B200094EF05F095EF05F02E802E50D8B49BEF92
:100B300005F09DEF05F0B2EF05F02E28D8A4A3EF45
:100B400005F0A5EF05F0ADEF05F0000E176E000EF5
:100B5000186E000E196E000E1A6E198E000E1A6EA7
:100B6000BAEF05F0000E176E000E186E000E196E2B
:100B7000000E1A6E1E50800B271A1E501E242F6E58
:100B80001DAEC5EF05F0C7EF05F0C8EF05F02F80EB
:100B90002F50D8B4CEEF05F0D0EF05F0E5EF05F01B
:100BA0002F28D8A4D6EF05F0D8EF05F0E0EF05F038
:100BB000000E1B6E000E1C6E000E1D6E000E1E6ED3
:100BC0001D8E000E1E6EEDEF05F0000E1B6E000E6A
:100BD0001C6E000E1D6E000E1E6E1B501C101D1094
:100BE0001E10D8A4F6EF05F0F8EF05F010EF06F0B0
:100BF000000E176E000E186E000E196E000E1A6EA3
:100C0000800E19127F0E1A1227501A1217C017F0F1
:100C100018C018F019C019F01AC01AF053EF07F0F5
:100C20002E50D8A416EF06F018EF06F022EF06F0CB
:100C3000000E176E000E186E000E196E000E1A6E62
:100C400053EF07F02F502EC01FF0206A1F5E000EDA
:100C5000205A7F0E1F24286E000E2020296E17C0F8
:100C600023F018C024F019C025F01AC026F0000E99
:100C7000176E000E186E000E196E000E1A6E000E22
:100C80002A6E000E2B6E000E2C6E000E2D6E000EC6
:100C90002F6E83EF06F02F50D8B451EF06F053EFCC
:100CA00006F06AEF06F0D89023362436253626362D
:100CB000D8901736183619361A362DAE62EF06F070
:100CC00064EF06F065EF06F01780D8902A362B36D1
:100CD0002C362D361B50235C1C5024581D50255893
:100CE0001E502658D8A077EF06F079EF06F082EF75
:100CF00006F02D8C1B50235E1C50245A1D50255A83
:100D00001E50265A2F2A190E2F6489EF06F08BEFFA
:100D100006F04BEF06F02350241025102610D8B40F
:100D200094EF06F096EF06F0AEEF06F02A80AEEFF5
:100D300006F0D8901736183619361A362DAEA3EFAE
:100D400006F0A5EF06F0A6EF06F01780D8902A3639
:100D50002B362C362D362806D8A0290619AEB3EF2F
:100D600006F0B5EF06F099EF06F0000E2F6E2DAEEF
:100D7000BCEF06F0BEEF06F0E2EF06F0FF0E2A141D
:100D80001F6EFF0E2B14206EFF0E2C14216E7F0E93
:100D90002D14226E1F50201021102210D8B4D3EF32
:100DA00006F0D5EF06F0D9EF06F0010E2F6EE2EF58
:100DB00006F017A0DEEF06F0E0EF06F0E2EF06F037
:100DC000D5EF06F02F50D8B4E8EF06F0EAEF06F0C2
:100DD0000EEF07F0010E1726000E182219221A2214
:100DE0001AA0F5EF06F0F7EF06F00EEF07F017C0C8
:100DF0001FF018C020F019C021F01AC022F02234D0
:100E00002232213220321F321FC017F020C018F0CA
:100E100021C019F022C01AF0284A292A29BE19EF48
:100E200007F0295008E12828D8A019EF07F01BEF98
:100E300007F026EF07F0000E296E2868000E176EE7
:100E4000000E186E000E196E000E1A6E29BE33EFDA
:100E500007F0295006E12804D8B031EF07F033EF4E
:100E600007F041EF07F0000E296E000E286E000E0D
:100E7000176E000E186E000E196E000E1A6E000E20
:100E8000276E28C02EF02EA048EF07F04AEF07F09B
:100E90004DEF07F0198E4EEF07F0199ED8902E30C7
:100EA0001A6E04EF06F01200116E1150D8B45BEF09
:100EB00007F05DEF07F07FEF07F00CBE64EF07F07F
:100EC00062EF07F07FEF07F009C00DF00AC00EF0E7
:100ED0000BC00FF00CC010F00D1E0E1E0F1E101ECA
:100EE0000D2A000E0E220F2210220DC013F00EC08C
:100EF00014F00FC015F010C016F087EF07F009C00E
:100F000013F00AC014F00BC015F00CC016F0095015
:100F10000A100B100C10D8A490EF07F092EF07F016
:100F20009CEF07F0000E096E000E0A6E000E0B6EAD
:100F3000000E0C6E2DEF08F0960E126EA6EF07F065
:100F4000122AD8901632153214321332000E1314AE
:100F50000D6E000E14140E6E000E15140F6EFE0EA4
:100F60001614106E0D500E100F101010D8A4BBEFF9
:100F700007F0BDEF07F0A0EF07F0CBEF07F0122A64
:100F8000010E1326000E142215221622D8901632B6
:100F9000153214321332000E13140D6E000E141499
:100FA0000E6E000E15140F6EFF0E1614106E0D50FF
:100FB0000E100F101010D8A4E0EF07F0E2EF07F0CA
:100FC000BFEF07F0EAEF07F01206D8901336143699
:100FD0001536163615BEEFEF07F0F1EF07F0F9EF13
:100FE00007F0020E1260F7EF07F0F9EF07F0E4EFF9
:100FF00007F012B0FEEF07F000EF08F001EF08F085
:10100000159ED890123212C00DF00E6A0F6A106A47
:101010000DC010F00F6A0E6A0D6A0D5013120E50BB
:1010200014120F501512105016121150D8B41BEF95
:1010300008F01DEF08F025EF08F00CBE24EF08F0D3
:1010400022EF08F025EF08F0168E13C009F014C047
:101050000AF015C00BF016C00CF01200066E060464
:10106000D8A435EF08F037EF08F03DEF08F0000E98
:10107000526E070E516EA2EF08F0020E0618D8B499
:1010800044EF08F046EF08F04FEF08F0030E0618A3
:10109000D8A44DEF08F04FEF08F0A2EF08F0070ECC
:1010A00051185210D8A457EF08F059EF08F066EF26
:1010B00008F0020E0618D8A460EF08F062EF08F0FE
:1010C00066EF08F0000E526E000E516E020E06180A
:1010D000D8A46DEF08F06FEF08F07EEF08F05250E3
:1010E00007E1060E515CD8B078EF08F07AEF08F00F
:1010F0007EEF08F0514A522AA2EF08F0030E0618BC
:10110000D8A485EF08F087EF08F0A2EF08F052505E
:1011100009E1020E515CD8A090EF08F092EF08F0C0
:10112000A2EF08F0525007E1070E515CD8B09BEFD8
:1011300008F09DEF08F0A2EF08F05106D8A0520683
:10114000A2EF08F0D8905134D96E5234DA6E3C0ECA
:10115000D926000EDA22DECF03F0DDCF04F0CA0E6E
:10116000056E40EC0BF01200819A818C818E81B269
:10117000BCEF08F0BEEF08F0C1EF08F0010E37EF4A
:1011800009F081B4C6EF08F0C8EF08F0CBEF08F023
:10119000040E37EF09F081B6D0EF08F0D2EF08F077
:1011A000D5EF08F0070E37EF09F081B8DAEF08F055
:1011B000DCEF08F0DFEF08F00A0E37EF09F0818A64
:1011C000819C818E81B2E7EF08F0E9EF08F0ECEF47
:1011D00008F0020E37EF09F081B4F1EF08F0F3EFF9
:1011E00008F0F6EF08F0050E37EF09F081B6FBEFD7
:1011F00008F0FDEF08F000EF09F0080E37EF09F0F6
:1012000081B805EF09F007EF09F00AEF09F00B0EBE
:1012100037EF09F0818A818C819E819E81B213EF24
:1012200009F015EF09F018EF09F0030E37EF09F098
:1012300081B41DEF09F01FEF09F022EF09F0060E4F
:1012400037EF09F081B627EF09F029EF09F02CEF0D
:1012500009F0090E37EF09F081B831EF09F033EFEB
:1012600009F036EF09F00C0E37EF09F0FF0E12000F
:1012700032343334396E3950D8A441EF09F043EF9A
:1012800009F04DEF09F0000E306E000E316E000EC9
:10129000326E000E336EBAEF09F030C034F031C058
:1012A00035F032C036F033C037F0200E5DEF09F074
:1012B000D8903732363235323432E82E58EF09F0D2
:1012C0003450386E328EFF0E3016FF0E3116FF0E80
:1012D0003216000E3316960E395E39BE74EF09F0E1
:1012E00072EF09F08AEF09F03950800A970FD8B0F1
:1012F0007CEF09F07EEF09F080EF09F043EF09F091
:10130000D8903332323231323032393E80EF09F008
:10131000A2EF09F01F0E396490EF09F092EF09F087
:101320009AEF09F043EF09F0D89030363136323673
:10133000333639063950D8A4A0EF09F0A2EF09F0EE
:1013400094EF09F03850D8B4A8EF09F0AAEF09F0EB
:10135000B2EF09F0331E321E311E306C000E312206
:101360003222332230C030F031C031F032C032F09E
:1013700033C033F01200000E956E9450F80B946E4B
:101380008290020E046E040E036EBA0EE82EFED793
:10139000032EFCD7042EFAD700D0000E016E330EB8
:1013A000A2EC0BF01B0E036E9E0EE82EFED7032E52
:1013B000FCD700D0000E016E330EA2EC0BF0A60E8F
:1013C000E82EFED700D0000E016E330EA2EC0BF01B
:1013D00000D000D000F0000E016E020EA2EC0BF067
:1013E000A60EE82EFED700D0000E016E380EA2EC3D
:1013F0000BF0A60EE82EFED700D0000E016E010EF7
:10140000A2EC0BF0040E036E3E0EE82EFED7032E68
:10141000FCD7000E016E0C0EA2EC0BF0A60EE82E0F
:10142000FED700D012003A6E670E036E060E046EF1
:10143000800E056E40EC0BF008EC0CF03A502EECF0
:1014400008F0140E1B6EAE0E1C6E230E1D6E410EA8
:101450001E6E040EF9EC0AF001C009F002C00AF099
:101460000B6A0C6A000E54EC07F009C017F00AC0B2
:1014700018F00BC019F00CC01AF087EC05F017C07B
:1014800030F018C031F019C032F01AC033F038EC27
:1014900009F030C04FF031C050F04FC00AF050C0DA
:1014A0000BF062EC0BF01200000E066E000E056EE3
:1014B00003500410D8B45FEF0AF061EF0AF089EF2F
:1014C0000AF0010E076E69EF0AF0D8900336043671
:1014D000072A04AE6EEF0AF070EF0AF065EF0AF02B
:1014E000D890053606360350015C04500258D8A047
:1014F0007CEF0AF07EEF0AF083EF0AF00350015E02
:101500000450025A0580D89004320332072E70EF3F
:101510000AF005C001F006C002F01200016E015091
:10152000D8A495EF0AF097EF0AF09BEF0AF0B4EC1D
:1015300008F0C6EF0AF00104D8A4A1EF0AF0A3EF67
:101540000AF0C6EF0AF0B4EC08F0026E0228D8B434
:10155000ACEF0AF0AEEF0AF0BBEF0AF04C50D8B493
:10156000B4EF0AF0B6EF0AF0BBEF0AF0000E4C6ED3
:101570000250C6EF0AF00228D8A4C1EF0AF0C3EF68
:101580000AF0C5EF0AF0010E4C6EFF0E1200035078
:101590000410D8B4CEEF0AF0D0EF0AF0F4EF0AF05E
:1015A000010E056ED8EF0AF0D89003360436052AEE
:1015B00004AEDDEF0AF0DFEF0AF0D4EF0AF00350DB
:1015C000015C04500258D8A0E8EF0AF0EAEF0AF0F4
:1015D000EEEF0AF00350015E0450025AD890043234
:1015E0000332052EDFEF0AF001C001F002C002F065
:1015F0001200086E08C003F0D8900336D890033666
:10160000C250C30B0310C26EC282C2B20AEF0BF00B
:101610000CEF0BF005EF0BF0C4CF03F0030E031635
:101620000350056E046AC350066E076A0450061024
:10163000016E05500710026E12000600DE0ED62461
:10164000D66E0B0ED720D76EF2A429EF0BF02BEF3E
:101650000BF03EEF0BF04D4A4E2A510E4D184E1036
:10166000D8A435EF0BF037EF0BF03DEF0BF0000E89
:101670004E6E000E4D6E534A542AF294559211004C
:10168000000E016E0550A2EC0BF053EF0BF0010EB3
:10169000016E03C0F6FF04C0F7FF0800F550A2EC8E
:1016A0000BF0034A042A03C0F6FF04C0F7FF08004A
:1016B000F5500009D8A45FEF0BF061EF0BF047EF96
:1016C0000BF01200CD0E086E0AC001F00BC002F044
:1016D000000E046E0A0E036E54EC0AF00150300F37
:1016E000F3EC0BF0CE0E086E0AC001F00BC002F056
:1016F000000E046E0A0E036EC7EC0AF00150300FA4
:10170000F3EC0BF01200220EF66E180EF76E000EC0
:10171000F86E00EE3CF010EE11F00900F5CFEEFF90
:10172000E550E150FAE100EE4DF0080EEE6AE806F1
:10173000FDE155905592000EF86E060EF76E000111
:10174000BFEF0BF0026E01B0A8EF0BF0ABEF0BF0A8
:101750008282ACEF0BF0829202C083FF828482947B
:10176000958E828082928284829483BEBAEF0BF03F
:10177000BCEF0BF0B3EF0BF08290959E1200FFECE4
:101780000BF0010E8EEC0AF03B6E0A0E3B18D8A44B
:10179000CCEF0BF0CEEF0BF0D0EF0BF078EC03F0CA
:1017A0003B5013EC0AF0C1EF0BF007EF00F0C280E2
:1017B000C19AC198C186C194C182C190C08AC098A3
:1017C000C096C094C082C090C08E1200F28EF28C7F
:1017D000F28AF2940B0ED76EDC0ED66ED58ED59CA7
:1017E000D59AD5861200096E000E016E0850A2EC43
:1017F0000BF0010E016E0950A2EC0BF012001AEC76
:101800000CF0BBEC09F0D7EC0BF0E6EC0BF012009F
:10181000C80E036E060E046EC00E056E40EC0BF093
:101820001200E906E606DA06DD06E006E306EC0647
:03183000D70601D7
:081834001E0E936EF19E1200DE
:020000040020DA
:08000000FFFFFFFFFFFFFFFF00
:020000040030CA
:0E000000FF071F1FFF8285FF0FC00FE00F409C
:00000001FF
