:020000040000FA
:0400000007EF00F016
:100008005D82A8ED11F0D5EF10F00E6E5550D8A412
:1000180010EF00F012EF00F0BBEF00F0EB0E036EF4
:100028002E0E046E800E056E6DEC10F00B0E0E1881
:10003800D8A421EF00F023EF00F039EF00F0CA0E4A
:100048004F24D96E000E5020DA6E310EDF6E4F50FD
:10005800C30F086E2A0EADEC12F0000E546E000E9F
:10006800536E4F4A502A52EF00F00C0E0E18D8A4C7
:1000780040EF00F042EF00F052EF00F0CA0E4F24BC
:10008800D96E000E5020DA6E300EDF6E4F50C30F5F
:10009800086E2A0EADEC12F031EF00F0040E4F1886
:1000A8005010D8A45AEF00F05CEF00F00CEF02F00B
:1000B8005C06000E506E000E4F6E000E0001CE6FF3
:1000C800A00E016E000E026ECA0E036E000E046EC4
:1000D8006AEC0FF001500210D8B475EF00F077EF1A
:1000E80000F0A2EF00F0DA0E036E2E0E046E800E02
:1000F800056E6DEC10F0C00E086E5C50ADEC12F0A1
:10010800B50E036E2F0E046EC10E056E6DEC10F069
:100118001A0E0B6E5E0E0A6E6E0EE82EFED70A2EB3
:10012800FCD70B2EFAD700D0620E036E2F0E046E8A
:10013800C00E056E6DEC10F0ACEF00F0620E036EB1
:100148002F0E046EC00E056E6DEC10F0010E556E8C
:10015800300E5C18D8A4B3EF00F0B5EF00F00CEF48
:1001680002F0000E556E020E5A6E5AEF02F0550458
:10017800D8A4C1EF00F0C3EF00F029EF01F0A70EFB
:10018800036E2E0E046E800E056E6DEC10F00B0ED5
:100198000E18D8A4D2EF00F0D4EF00F0EAEF00F088
:1001A800CA0E4F24D96E000E5020DA6E310EDF6E63
:1001B8004F50C30F086E2A0EADEC12F0000E546EAD
:1001C800000E536E4F4A502A03EF01F00C0E0E1822
:1001D800D8A4F1EF00F0F3EF00F003EF01F0CA0E3E
:1001E8004F24D96E000E5020DA6E300EDF6E4F505D
:1001F800C30F086E2A0EADEC12F0E2EF00F0040E09
:100208004F185010D8A40BEF01F00DEF01F00CEFD0
:1002180002F0620E036E2F0E046EC00E056E6DECBA
:1002280010F0020E556E000E506E000E4F6E0D0E41
:100238000B6EAF0E0A6EB60EE82EFED70A2EFCD74E
:100248000B2EFAD700D00CEF02F0020E5518D8A4E6
:1002580030EF01F032EF01F00CEF02F0400E036EC8
:100268002F0E046E800E056E6DEC10F00B0E0E183E
:10027800D8A441EF01F043EF01F059EF01F0C50EAA
:100288004F24D96E000E5020DA6E310EDF6E4F50BB
:10029800C30F086E2A0EADEC12F0000E546E000E5D
:1002A800536E4F4A502A72EF01F00C0E0E18D8A464
:1002B80060EF01F062EF01F072EF01F0C50E4F241C
:1002C800D96E000E5020DA6E300EDF6E4F50C30F1D
:1002D800086E2A0EADEC12F051EF01F0040E4F1823
:1002E8005010D8A47AEF01F07CEF01F00CEF02F087
:1002F800000E506E000E4F6E000E0001C96FCA0E40
:10030800016E000E026EC50E036E000E046E6AECDE
:100318000FF001500210D8A494EF01F096EF01F00D
:10032800E8EF01F02F0E036E2F0E046E800E056E9F
:100338006DEC10F0C90E036E2E0E046EC00E056E25
:100348006DEC10F0B8EF01F0C50E4F24D96E000E19
:100358005020DA6EA00E4F24E16E000E5020E26E9F
:10036800DFCFE7FF4F4A502AC50E4F24D96E000E43
:100378005020DA6EDF50D8A4C4EF01F0C6EF01F0C8
:10038800A8EF01F0000E0D6E000E0C6EC50E0C24C9
:10039800D96E000E0D20DA6EDF50026E0C50460F3B
:1003A800EFEC11F00C4A0D2A0DBEE4EF01F00D50F0
:1003B80009E1040E0C5CD8A0E4EF01F0E6EF01F0CF
:1003C800CAEF01F0F8EF01F0740E036E2E0E046E02
:1003D800800E056E6DEC10F01D0E036E2E0E046E71
:1003E800C00E056E6DEC10F0000E556E020E5A6EC2
:1003F800000E506E000E4F6E1A0E0B6E5E0E0A6ED9
:100408006E0EE82EFED70A2EFCD70B2EFAD700D098
:10041800050E53185410D8A414EF02F016EF02F08A
:1004280020EF02F0000E556E020E5A6E000E506E4E
:10043800000E4F6E5AEF02F04D500A6E4E500B6E82
:100448004D4A4E2A200E0A5C030E0B58D8B02FEFE7
:1004580002F031EF02F039EF02F04F50C30F086E8F
:100468005F0EADEC12F05AEF02F0210E4D5C030E58
:100478004E58D8A042EF02F044EF02F05AEF02F0D3
:100488004F50C30F086E200EADEC12F0400E4D1801
:1004980007E1060E4E18D8A454EF02F056EF02F00A
:1004A8005AEF02F0000E4E6E000E4D6E120093ECE5
:1004B80012F0000E3D6E000E3C6EA00E3C24D96E6C
:1004C800000E3D20DA6EDF50026E3C50460FEFEC16
:1004D80011F03C4A3D2A3DBE7BEF02F03D5009E158
:1004E800040E3C5CD8A07BEF02F07DEF02F061EFD8
:1004F80002F0000E3F6E000E3E6EA00E3E24D96E36
:10050800000E3F20DA6E3E50460F4BEC12F0DF6EC5
:100518003E4A3F2A3FBE9AEF02F03F5009E1040EDF
:100528003E5CD8A09AEF02F09CEF02F081EF02F057
:10053800000E0001A46F140E1B6EAE0E1C6E230E6F
:100548001D6E410E1E6E040E60EC11F001C009F024
:1005580002C00AF00B6A0C6A000E07EC0CF009C026
:1005680017F00AC018F00BC019F00CC01AF015ECFF
:1005780006F017C030F018C031F019C032F01AC0B8
:1005880033F02EEC0EF030C0B2F031C0B3F0B2C090
:1005980008F0B3C009F00FEC12F0B9EC0FF0860EBA
:1005A800066E000E076EB1EC0EF0020E5A18D8B4A3
:1005B800E0EF02F0E2EF02F0F4EF02F0030E5A1857
:1005C800D8B4E9EF02F0EBEF02F0F4EF02F0040E1A
:1005D8005A18D8A4F2EF02F0F4EF02F0FAEF02F0A2
:1005E800000E34EC10F0426EFEEF02F0010E34EC17
:1005F80010F0426E0A0E4218D8A405EF03F007EF78
:1006080003F0DDEF03F05A50D8A40DEF03F00FEF1D
:1006180003F0DDEF03F0620E036E2F0E046EC00EC2
:10062800056E6DEC10F0010E5A6E000E546E000E41
:10063800536EDDEF03F0425004EC11F006EF04F0C6
:10064800425060EC09F0020E5A18D8A42EEF03F0BD
:1006580030EF03F006EF04F0000E546E000E536EF8
:1006680006EF04F042503EEC04F0070E5A18D8A4E6
:1006780040EF03F042EF03F04CEF03F0620E036E1D
:100688002F0E046EC00E056E6DEC10F030EF03F007
:10069800040E5A18D8A453EF03F055EF03F006EFF1
:1006A80004F0730E036E2F0E046E800E056E6DEC53
:1006B80010F0000E416E000E406E860E4024D96E7A
:1006C800000E4120DA6E970E4024E16E000E4120A4
:1006D800E26EDFCFE7FF404A412A41BE7DEF03F0DB
:1006E800415009E1080E405CD8A07DEF03F07FEF90
:1006F80003F061EF03F00D0E3B6EAF0E3A6EB60ECF
:10070800E82EFED73A2EFCD73B2EFAD700D006EFBC
:1007180004F04250CFEC0AF0020E5A18D8A497EF12
:1007280003F099EF03F006EF04F030EF03F04250C6
:10073800E2EC07F0020E5A18D8A4A5EF03F0A7EFD1
:1007480003F006EF04F030EF03F033EC11F0020E83
:100758005A6E30EF03F0425009EC00F0020E5A18BE
:10076800D8A4B9EF03F0BBEF03F006EF04F030EFC5
:1007780003F0620E036E2F0E046E800E056E6DEC94
:1007880010F0840E036E2F0E046EC00E056E6DEC15
:1007980010F0660E3B6E760E3A6EC10EE82EFED74E
:1007A8003A2EFCD73B2EFAD700F0020E5A6E06EF0F
:1007B80004F05A503A6E3B6A3B50000AD8B4E7EF4F
:1007C80003F0BDEF03F03A50000AD8B41FEF03F06E
:1007D800010AD8B424EF03F0030AD8B436EF03F0C3
:1007E800010AD8B48DEF03F0070AD8B49BEF03F0E1
:1007F800020AD8B4A9EF03F0010AD8B4AFEF03F0A6
:10080800BDEF03F0B9EC0FF0140E1B6EAE0E1C6EAC
:10081800230E1D6E410E1E6E040E60EC11F001C019
:1008280009F002C00AF00B6A0C6A000E07EC0CF023
:1008380009C017F00AC018F00BC019F00CC01AF064
:1008480015EC06F017C030F018C031F019C032F0BE
:100858001AC033F02EEC0EF030C0B2F031C0B3F055
:10086800B2C008F0B3C009F00FEC12F0D9EF02F0F3
:1008780007EF00F0106E0B0E1018D8A446EF04F026
:1008880048EF04F0CAEF04F0000E546E000E536EE9
:1008980010C04BF04C6A45500E6E46500F6E454ADC
:1008A800462A910E0E5C010E0F58D8A05EEF04F098
:1008B80060EF04F02AEF05F0040E47184810D8B48A
:1008C80068EF04F06AEF04F07DEF04F0030E4718B8
:1008D8004810D8B472EF04F074EF04F07DEF04F020
:1008E80047044810D8A47BEF04F07DEF04F081EFB3
:1008F80004F0000E466E000E456E47044810D8A45A
:1009080088EF04F08AEF04F08EEF04F0000E506ECA
:10091800060E4F6E4750030F5A6E47504810D8B412
:1009280098EF04F09AEF04F014EF06F0D8904734EB
:10093800D96E4834DA6E780ED926000EDA22DECF68
:10094800F6FFDDCFF7FF0800F5CF90F0D8904734D9
:10095800D96E4834DA6E780ED926000EDA22DECF48
:100968000EF0DDCF0FF0010E0E26000E0F220EC086
:10097800F6FF0FC0F7FF0800F5CF91F0860E066E60
:10098800000E076EB1EC0EF014EF06F0455046105D
:10099800D8B4D1EF04F0D3EF04F02AEF05F0900EAD
:1009A800455C010E4658D8B0DCEF04F0DEEF04F0E9
:1009B8002AEF05F00B0E4B184C10D8A4E6EF04F004
:1009C800E8EF04F02AEF05F01028D8A4EEEF04F0C1
:1009D800F0EF04F02AEF05F0000184518511D8B436
:1009E800F8EF04F0FAEF04F02AEF05F082518311D2
:1009F800D8A401EF05F003EF05F009EF05F0000EAC
:100A0800836F010E826F1AEF05F0855109E1020E1E
:100A1800845DD8A012EF05F014EF05F01AEF05F089
:100A28004906D8A04A068407D8A085074750481029
:100A3800D8B421EF05F023EF05F026EF05F04706BF
:100A4800D8A04806000E466E000E456E0C0E101813
:100A5800D8A431EF05F033EF05F064EF05F0000E90
:100A6800546E000E536E10C04BF04C6A45500E6E1B
:100A780046500F6E454A462A910E0E5C010E0F58DD
:100A8800D8A049EF05F04BEF05F0C5EF05F0000ED3
:100A98004A6E000E496E000E0001856F010E846FCC
:100AA800000E836F010E826F000E486E000E476EB7
:100AB800000E5A6E000E466E000E456E14EF06F0DC
:100AC80045504610D8B46BEF05F06DEF05F0C5EF53
:100AD80005F0900E455C010E4658D8B076EF05F04B
:100AE80078EF05F0C5EF05F00C0E4B184C10D8A4A4
:100AF80080EF05F082EF05F0C5EF05F01028D8A4C7
:100B080088EF05F08AEF05F0C5EF05F04A5007E1D8
:100B1800040E495CD8B093EF05F095EF05F0C5EFEA
:100B280005F0000182058311D8A49DEF05F09FEF21
:100B380005F0A5EF05F0000E836F000E826FB4EF8D
:100B480005F04A5007E1030E495CD8B0AEEF05F056
:100B5800B0EF05F0B4EF05F0494A4A2A844B852BDB
:100B6800485007E1040E475CD8B0BDEF05F0BFEF71
:100B780005F0C1EF05F0474A482A000E466E000E00
:100B8800456E050E53185410D8A4CDEF05F0CFEFDD
:100B980005F0D1EF05F04BEF05F000018205831158
:100BA800D8A4D9EF05F0DBEF05F0E7EF05F0800EEC
:100BB800086E2A0EADEC12F0C00E086E200EADECD9
:100BC80012F0F1EF05F0800E086E200EADEC12F079
:100BD800C00E086E2A0EADEC12F0D8904934D96ECA
:100BE8004A34DA6E700ED926000EDA22DECF03F010
:100BF800DDCF04F0810E056E6DEC10F0D890000189
:100C08008435D96E8535DA6E700ED926000EDA2253
:100C1800DECF03F0DDCF04F0C10E056E6DEC10F0F1
:100C280012001A50800B276E1A501A242E6E19AE15
:100C380020EF06F022EF06F023EF06F02E802E506C
:100C4800D8B429EF06F02BEF06F040EF06F02E2877
:100C5800D8A431EF06F033EF06F03BEF06F0000EB4
:100C6800176E000E186E000E196E000E1A6E198E91
:100C7800000E1A6E48EF06F0000E176E000E186E82
:100C8800000E196E000E1A6E1E50800B271A1E5089
:100C98001E242F6E1DAE53EF06F055EF06F056EFEB
:100CA80006F02F802F50D8B45CEF06F05EEF06F008
:100CB80073EF06F02F28D8A464EF06F066EF06F06D
:100CC8006EEF06F0000E1B6E000E1C6E000E1D6E01
:100CD800000E1E6E1D8E000E1E6E7BEF06F0000EBF
:100CE8001B6E000E1C6E000E1D6E000E1E6E1B503D
:100CF8001C101D101E10D8A484EF06F086EF06F015
:100D08009EEF06F0000E176E000E186E000E196E9C
:100D1800000E1A6E800E19127F0E1A1227501A1220
:100D280017C017F018C018F019C019F01AC01AF037
:100D3800E1EF07F02E50D8A4A4EF06F0A6EF06F0D6
:100D4800B0EF06F0000E176E000E186E000E196E4A
:100D5800000E1A6EE1EF07F02F502EC01FF0206A28
:100D68001F5E000E205A7F0E1F24286E000E2020C2
:100D7800296E17C023F018C024F019C025F01AC036
:100D880026F0000E176E000E186E000E196E000E7B
:100D98001A6E000E2A6E000E2B6E000E2C6E000EC0
:100DA8002D6E000E2F6E11EF07F02F50D8B4DFEF25
:100DB80006F0E1EF06F0F8EF06F0D8902336243677
:100DC80025362636D8901736183619361A362DAEE7
:100DD800F0EF06F0F2EF06F0F3EF06F01780D89088
:100DE8002A362B362C362D361B50235C1C502458A3
:100DF8001D5025581E502658D8A005EF07F007EFBC
:100E080007F010EF07F02D8C1B50235E1C50245A5E
:100E18001D50255A1E50265A2F2A190E2F6417EFD7
:100E280007F019EF07F0D9EF06F02350241025102A
:100E38002610D8B422EF07F024EF07F03CEF07F0B4
:100E48002A803CEF07F0D8901736183619361A362C
:100E58002DAE31EF07F033EF07F034EF07F01780CE
:100E6800D8902A362B362C362D362806D8A02906B7
:100E780019AE41EF07F043EF07F027EF07F0000E38
:100E88002F6E2DAE4AEF07F04CEF07F070EF07F02A
:100E9800FF0E2A141F6EFF0E2B14206EFF0E2C144B
:100EA800216E7F0E2D14226E1F502010211022104B
:100EB800D8B461EF07F063EF07F067EF07F0010EB2
:100EC8002F6E70EF07F017A06CEF07F06EEF07F0CA
:100ED80070EF07F063EF07F02F50D8B476EF07F004
:100EE80078EF07F09CEF07F0010E1726000E182286
:100EF80019221A221AA083EF07F085EF07F09CEF5A
:100F080007F017C01FF018C020F019C021F01AC050
:100F180022F022342232213220321F321FC017F031
:100F280020C018F021C019F022C01AF0284A292A36
:100F380029BEA7EF07F0295008E12828D8A0A7EF75
:100F480007F0A9EF07F0B4EF07F0000E296E286844
:100F5800000E176E000E186E000E196E000E1A6E37
:100F680029BEC1EF07F0295006E12804D8B0BFEF29
:100F780007F0C1EF07F0CFEF07F0000E296E000E63
:100F8800286E000E176E000E186E000E196E000EF9
:100F98001A6E000E276E28C02EF02EA0D6EF07F08E
:100FA800D8EF07F0DBEF07F0198EDCEF07F0199E9A
:100FB800D8902E301A6E92EF06F012000C6E0B0EBF
:100FC8000C18D8A4EAEF07F0ECEF07F010EF08F0E0
:100FD8000CC04BF04C6A45500A6E46500B6E454AA1
:100FE800462A910E0A5C010E0B58D8A0FEEF07F0B6
:100FF80000EF08F028EF09F0000E466E000E456E6F
:10100800020E5A6E000E506E000E4F6E000E546E99
:10101800000E536E5FEF09F045504610D8B417EF35
:1010280008F019EF08F0C8EF08F0900E455C010EC3
:101038004658D8B022EF08F024EF08F0C8EF08F0BF
:101048000B0E4B184C10D8A42CEF08F02EEF08F01C
:10105800C8EF08F00C28D8A434EF08F036EF08F0F1
:10106800C8EF08F04F505010D8A43DEF08F03FEFFC
:1010780008F068EF08F0320E00019719D8B447EF6E
:1010880008F049EF08F058EF08F0982B3A0E981935
:10109800D8A451EF08F053EF08F0C2EF08F0300E73
:1010A800986F972BC2EF08F0982B350E9819D8A493
:1010B80060EF08F062EF08F0C2EF08F0300E976FAB
:1010C800300E986FC2EF08F0030E4F185010D8A4D6
:1010D80070EF08F072EF08F09BEF08F0350E000192
:1010E8009A19D8B47AEF08F07CEF08F08BEF08F083
:1010F8009B2B3A0E9B19D8A484EF08F086EF08F0D2
:10110800C2EF08F0300E9B6F9A2BC2EF08F09B2BB2
:101118003A0E9B19D8A493EF08F095EF08F0C2EFA8
:1011280008F0300E9B6F300E9A6FC2EF08F0350E44
:1011380000019D19D8B4A3EF08F0A5EF08F0B4EFAB
:1011480008F09E2B3A0E9E19D8A4ADEF08F0AFEF29
:1011580008F0C2EF08F0300E9E6F9D2BC2EF08F02A
:101168009E2B3A0E9E19D8A4BCEF08F0BEEF08F0EB
:10117800C2EF08F0300E9E6F300E9D6F000E466E67
:10118800000E456E28EF09F00C0E0C18D8A4CFEF0E
:1011980008F0D1EF08F0E7EF08F00CC04BF04C6A0C
:1011A80045500A6E46500B6E454A462A910E0A5C17
:1011B800010E0B58D8A0E3EF08F0E5EF08F028EF90
:1011C80009F000EF08F045504610D8B4EEEF08F0EB
:1011D800F0EF08F028EF09F0900E455C010E465834
:1011E800D8B0F9EF08F0FBEF08F028EF09F00C0E83
:1011F8004B184C10D8A403EF09F005EF09F028EFBD
:1012080009F00C28D8A40BEF09F00DEF09F028EF2E
:1012180009F0030E4F5E000E505A8A0E086E4F50AA
:10122800300FADEC12F0FD0E4F1806E15028D8A48F
:1012380020EF09F022EF09F0C2EF08F0000E506E1F
:10124800060E4F6EC2EF08F0562A56040A6E640E58
:101258000A6031EF09F033EF09F03DEF09F0970E1E
:10126800036E000E046EC00E056E6DEC10F059EFA3
:1012780009F0640E566443EF09F045EF09F059EFA1
:1012880009F0700E036E2F0E046E4F50C00F056EDE
:101298006DEC10F0C80E5618D8A455EF09F057EFAA
:1012A80009F059EF09F0000E566E8E0E086E565072
:1012B800300FADEC12F012000C6EFC0E036E2E0E09
:1012C800046E800E056E6DEC10F00B0E0C18D8A491
:1012D80070EF09F072EF09F088EF09F0CA0E4F2499
:1012E800D96E000E5020DA6E310EDF6E4F50C30FEC
:1012F800086E2A0EADEC12F0000E546E000E536EFE
:101308004F4A502AA1EF09F00C0E0C18D8A48FEF01
:1013180009F091EF09F0A1EF09F0CA0E4F24D96E38
:10132800000E5020DA6E300EDF6E4F50C30F086E7D
:101338002A0EADEC12F080EF09F0050E5318541088
:10134800D8A4A9EF09F0ABEF09F0B5EF09F0000E4A
:101358005A6E000E506E000E4F6E330E5C6ECEEF5E
:101368000AF04D500A6E4E500B6E4D4A4E2A200E12
:101378000A5C030E0B58D8B0C4EF09F0C6EF09F0A9
:10138800CEEF09F04F50C30F086E5F0EADEC12F0B0
:10139800EFEF09F0210E4D5C030E4E58D8A0D7EFA1
:1013A80009F0D9EF09F0EFEF09F04F50C30F086EBD
:1013B800200EADEC12F0400E4D1807E1060E4E1847
:1013C800D8A4E9EF09F0EBEF09F0EFEF09F0000E10
:1013D8004E6E000E4D6E040E4F185010D8A4F7EF45
:1013E80009F0F9EF09F0CEEF0AF0080E0B6E9D0E2A
:1013F8000A6E060EE82EFED70A2EFCD70B2EFAD759
:101408005C06000E506E000E4F6EA00E016E000EB0
:10141800026ECA0E036E000E046E6AEC0FF00150E5
:101428000210D8B41AEF0AF01CEF0AF053EF0AF0D2
:101438000D0E0B6EAF0E0A6EB60EE82EFED70A2EF4
:10144800FCD70B2EFAD700D0A50E036E2F0E046E14
:10145800800E056E6DEC10F0C00E086E5C50ADECA1
:1014680012F0B50E036E2F0E046EC10E056E6DECF4
:1014780010F00D0E0B6EAF0E0A6EB60EE82EFED7EC
:101488000A2EFCD70B2EFAD700D0620E036E2F0E51
:10149800046EC00E056E6DEC10F079EF0AF0000EC8
:1014A800506E000E4F6E330E5C6E510E036E2F0E93
:1014B800046E800E056E6DEC10F0850E036E2E0E18
:1014C800046EC00E056E6DEC10F0120E0B6EC20E9F
:1014D8000A6E660EE82EFED70A2EFCD70B2EFAD718
:1014E80000D0020E5A6ECEEF0AF0300E5C18D8A467
:1014F80080EF0AF082EF0AF0CEEF0AF0B80E036E22
:101508002E0E046E800E056E6DEC10F01E0E036E2E
:101518002F0E046EC00E056E6DEC10F0000E546EAA
:10152800000E536EC0EF0AF0CA0E086E53503B0807
:10153800016E5450D8A0E82A0008026E000E046E0E
:101548000A0E036EFAEC0FF00150300FADEC12F0FA
:10155800CB0E086E53503B08016E5450D8A0E82AB1
:101568000008026E000E046E0A0E036EA3EC10F063
:101578000150300FADEC12F03C0E53185410D8A4A3
:10158800C8EF0AF0CAEF0AF098EF0AF0000E5A6E98
:10159800330E5C6E12000E6ED10E036E2F0E046EAB
:1015A800800E056E6DEC10F0890E086EACC001F06F
:1015B800ADC002F058C003F0046AA3EC10F001506B
:1015C800300FADEC12F0C50E036E2F0E046E8A0EAE
:1015D800056E6DEC10F00B0E0E18D8A4F6EF0AF09D
:1015E800F8EF0AF0FFEF0AF00EC04BF04C6A454ADC
:1015F800462AC5EF0BF045504610D8B406EF0BF05D
:1016080008EF0BF04EEF0BF0900E455C010E4658BC
:10161800D8B011EF0BF013EF0BF04EEF0BF00B0EF1
:101628004B184C10D8A41BEF0BF01DEF0BF04EEF2E
:101638000BF00E28D8A423EF0BF025EF0BF04EEF9C
:101648000BF00001AC07D8A0AD074306D8A04406AC
:10165800432806E14428D8A434EF0BF036EF0BF00A
:101668003AEF0BF0000E446E090E436EAC2906E10A
:10167800AD29D8A442EF0BF044EF0BF048EF0BF084
:10168800000EAD6F090EAC6F000E466E000E456E73
:10169800C5EF0BF00C0E0E18D8A455EF0BF057EF52
:1016A8000BF07CEF0BF00EC04BF04C6A45500A6E05
:1016B80046500B6E454A462A2D0E0A5C010E0B5801
:1016C800D8A069EF0BF06BEF0BF0C5EF0BF0000E35
:1016D800466E000E456E020E5A6E000E0001AD6F8A
:1016E800000EAC6F000E546E000E536E06EF0CF039
:1016F80045504610D8B483EF0BF085EF0BF048EF58
:101708000BF02C0E455C010E4658D8B08EEF0BF04E
:1017180090EF0BF048EF0BF00C0E4B184C10D8A4C0
:1017280098EF0BF09AEF0BF048EF0BF00E28D8A4C7
:10173800A0EF0BF0A2EF0BF048EF0BF00001AC4B61
:10174800AD2B434A442A0A0E43184410D8A4AFEFDD
:101758000BF0B1EF0BF0B5EF0BF0000E446E000E7E
:10176800436E0A0EAC19AD11D8A4BDEF0BF0BFEF54
:101778000BF048EF0BF0000EAD6F000EAC6F48EFAA
:101788000BF043C001F044C002F058C003F0046AF3
:10179800A3EC10F0013A023AF00E021601500F0BBA
:1017A8000212F00E011601C0AAF002C0ABF0000E42
:1017B8000D6E000E0C6EB40E0C24D96E000E0D20AA
:1017C800DA6E0C500001AA254BEC12F0DF6E0C4AC1
:1017D8000D2A0DBEF9EF0BF00D5009E1100E0C5C4F
:1017E800D8A0F9EF0BF0FBEF0BF0DFEF0BF0000EDA
:1017F8000001C46FB40E036E000E046EC00E056EB9
:101808006DEC10F01200116E1150D8B40EEF0CF000
:1018180010EF0CF032EF0CF00CBE17EF0CF015EFD8
:101828000CF032EF0CF009C00DF00AC00EF00BC03E
:101838000FF00CC010F00D1E0E1E0F1E101E0D2AEC
:10184800000E0E220F2210220DC013F00EC014F04D
:101858000FC015F010C016F03AEF0CF009C013F0E5
:101868000AC014F00BC015F00CC016F009500A108D
:101878000B100C10D8A443EF0CF045EF0CF04FEF11
:101888000CF0000E096E000E0A6E000E0B6E000EB4
:101898000C6EE0EF0CF0960E126E59EF0CF0122A57
:1018A800D8901632153214321332000E13140D6EFE
:1018B800000E14140E6E000E15140F6EFE0E161484
:1018C800106E0D500E100F101010D8A46EEF0CF003
:1018D80070EF0CF053EF0CF07EEF0CF0122A010EB3
:1018E8001326000E142215221622D890163215320D
:1018F80014321332000E13140D6E000E14140E6EF3
:10190800000E15140F6EFF0E1614106E0D500E10EB
:101918000F101010D8A493EF0CF095EF0CF072EFA5
:101928000CF09DEF0CF01206D890133614361536CD
:10193800163615BEA2EF0CF0A4EF0CF0ACEF0CF0CD
:10194800020E1260AAEF0CF0ACEF0CF097EF0CF05F
:1019580012B0B1EF0CF0B3EF0CF0B4EF0CF0159E31
:10196800D890123212C00DF00E6A0F6A106A0DC0BC
:1019780010F00F6A0E6A0D6A0D5013120E501412F1
:101988000F501512105016121150D8B4CEEF0CF09B
:10199800D0EF0CF0D8EF0CF00CBED7EF0CF0D5EF71
:1019A8000CF0D8EF0CF0168E13C009F014C00AF032
:1019B80015C00BF016C00CF01200106E1004D8A45D
:1019C800E8EF0CF0EAEF0CF0FBEF0CF04B044C10D6
:1019D800D8B4F1EF0CF0F3EF0CF0FBEF0CF0010EC4
:1019E800576E000E526E070E516E6EEF0DF0020E1E
:1019F8001018D8B402EF0DF004EF0DF00DEF0DF054
:101A0800030E1018D8A40BEF0DF00DEF0DF06EEFCC
:101A18000DF0070E51185210D8A415EF0DF017EF5E
:101A28000DF030EF0DF0020E1018D8A41EEF0DF0D7
:101A380020EF0DF030EF0DF0020E4B184C10D8B41B
:101A480028EF0DF02AEF0DF030EF0DF0010E576E74
:101A5800000E526E000E516E020E1018D8A437EF09
:101A68000DF039EF0DF04AEF0DF0525007E1060E78
:101A7800515CD8B042EF0DF044EF0DF04AEF0DF095
:101A8800514A522A010E576E6EEF0DF0030E1018D0
:101A9800D8A451EF0DF053EF0DF06EEF0DF052504A
:101AA80009E1020E515CD8A05CEF0DF05EEF0DF07D
:101AB8006EEF0DF0525007E1070E515CD8B067EF9A
:101AC8000DF069EF0DF06EEF0DF05106D8A052063B
:101AD80046EF0DF05704D8A474EF0DF076EF0DF033
:101AE800A6EF0DF0000E576ED8905134D96E5234CF
:101AF800DA6E600ED926000EDA22DECFF6FFDDCFD1
:101B0800F7FF0800F5CF90F0D8905134D96E5234D1
:101B1800DA6E600ED926000EDA22DECF0EF0DDCFA7
:101B28000FF0010E0E26000E0F220EC0F6FF0FC09A
:101B3800F7FF0800F5CF91F0860E066E000E076ECF
:101B4800B1EC0EF010C04BF04C6A1200819A818CF7
:101B5800818E81B2B2EF0DF0B4EF0DF0B7EF0DF05A
:101B6800010E2DEF0EF081B4BCEF0DF0BEEF0DF0BD
:101B7800C1EF0DF0040E2DEF0EF081B6C6EF0DF09B
:101B8800C8EF0DF0CBEF0DF0070E2DEF0EF081B87A
:101B9800D0EF0DF0D2EF0DF0D5EF0DF00A0E2DEFCE
:101BA8000EF0818A819C818E81B2DDEF0DF0DFEF2E
:101BB8000DF0E2EF0DF0020E2DEF0EF081B4E7EF1D
:101BC8000DF0E9EF0DF0ECEF0DF0050E2DEF0EF036
:101BD80081B6F1EF0DF0F3EF0DF0F6EF0DF0080E12
:101BE8002DEF0EF081B8FBEF0DF0FDEF0DF000EFDB
:101BF8000EF00B0E2DEF0EF0818A818C819E819E56
:101C080081B209EF0EF00BEF0EF00EEF0EF0030E9F
:101C18002DEF0EF081B413EF0EF015EF0EF018EF64
:101C28000EF0060E2DEF0EF081B61DEF0EF01FEF31
:101C38000EF022EF0EF0090E2DEF0EF081B827EF0F
:101C48000EF029EF0EF02CEF0EF00C0E2DEF0EF02B
:101C5800FF0E120032343334396E3950D8A437EFBE
:101C68000EF039EF0EF043EF0EF0000E306E000E5E
:101C7800316E000E326E000E336EB0EF0EF030C0D3
:101C880034F031C035F032C036F033C037F0200EB2
:101C980053EF0EF0D8903732363235323432E82EE0
:101CA8004EEF0EF03450386E328EFF0E3016FF0EA7
:101CB8003116FF0E3216000E3316960E395E39BEF7
:101CC8006AEF0EF068EF0EF080EF0EF03950800AE0
:101CD800970FD8B072EF0EF074EF0EF076EF0EF0AB
:101CE80039EF0EF0D8903332323231323032393E59
:101CF80076EF0EF098EF0EF01F0E396486EF0EF0B7
:101D080088EF0EF090EF0EF039EF0EF0D8903036E5
:101D180031363236333639063950D8A496EF0EF0BC
:101D280098EF0EF08AEF0EF03850D8B49EEF0EF010
:101D3800A0EF0EF0A8EF0EF0331E321E311E306CED
:101D4800000E31223222332230C030F031C031F05F
:101D580032C032F033C033F01200B0C008F0B1C066
:101D680009F0083A093AF00E091608500F0B091243
:101D7800F00E081608C00AF009C00BF0000E0D6E30
:101D8800000E0C6E0C500624D96E0D500720DA6E2A
:101D9800DF50026E0A500C24EFEC11F00C4A0D2AA9
:101DA8000DBEE0EF0EF00D5009E1100E0C5CD8A04E
:101DB800E0EF0EF0E2EF0EF0C6EF0EF00001B04BD0
:101DC800B12B0A0E5860EBEF0EF0EDEF0EF0F0EFCE
:101DD8000EF0582A03EF0FF0445007E1090E435C58
:101DE800D8B0F9EF0EF0FBEF0EF0FFEF0EF0434A1C
:101DF800442A03EF0FF0000E446E000E436E0A0EE5
:101E0800B019B111D8A40BEF0FF00DEF0FF011EFCF
:101E18000FF0000EB16F000EB06F1200000E956E3D
:101E28009450F80B946E8290020E046E040E036EAA
:101E3800BA0EE82EFED7032EFCD7042EFAD700D010
:101E4800000E016E330E2EEC12F01B0E036E9E0E6A
:101E5800E82EFED7032EFCD700D0000E016E330EFD
:101E68002EEC12F0A60EE82EFED700D0000E016E62
:101E7800330E2EEC12F000D000D000F0000E016EF0
:101E8800020E2EEC12F0A60EE82EFED700D0000EA1
:101E9800016E380E2EEC12F0A60EE82EFED700D0FA
:101EA800000E016E010E2EEC12F0040E036E3E0EB3
:101EB800E82EFED7032EFCD7000E016E0C0E2EEC7A
:101EC80012F0A60EE82EFED700D01200000E096E02
:101ED800000E086EA8EF0FF008500124D96E0950C3
:101EE8000220DA6EDF50056E066A08500324D96EA8
:101EF80009500420DA6EDF50076E0750055E000EA9
:101F0800065A05500610D8B48CEF0FF08EEF0FF07C
:101F1800A6EF0FF008500124D96E09500220DA6E9E
:101F2800DF50056E08500324D96E09500420DA6E7C
:101F3800DF50066E0650055C016E026AD8A00206E4
:101F4800B8EF0FF0084A092A08500124D96E095041
:101F58000220DA6EDF50D8A4B4EF0FF0B6EF0FF01E
:101F680070EF0FF08EEF0FF01200020E60EC12F01F
:101F78000001A56F010E60EC12F00001A66F000EC3
:101F880060EC12F00001A76FA5ADCDEF0FF0CFEF19
:101F98000FF0DAEF0FF0A5390F0B010B300F866F3A
:101FA800A5510F0B300F876FE3EF0FF0A5390F0B1B
:101FB800030B300F866FA5510F0B300F876F3A0E4A
:101FC800886FA6390F0B0F0B300F896FA6510F0BB7
:101FD800300F8A6F3A0E8B6FA7390F0B0F0B300F2C
:101FE8008C6FA7510F0B300F8D6F1200000E066E0D
:101FF800000E056E03500410D8B405EF10F007EF7B
:1020080010F02FEF10F0010E076E0FEF10F0D890C0
:1020180003360436072A04AE14EF10F016EF10F05A
:102028000BEF10F0D890053606360350015C0450CB
:102038000258D8A022EF10F024EF10F029EF10F08A
:102048000350015E0450025A0580D89004320332CE
:10205800072E16EF10F005C001F006C002F01200BE
:10206800016E0150D8A43BEF10F03DEF10F041EFA6
:1020780010F0AAEC0DF06CEF10F00104D8A447EFB3
:1020880010F049EF10F06CEF10F0AAEC0DF0026EB2
:102098000228D8B452EF10F054EF10F061EF10F0AE
:1020A8005B50D8B45AEF10F05CEF10F061EF10F00D
:1020B800000E5B6E02506CEF10F00228D8A467EF98
:1020C80010F069EF10F06BEF10F0010E5B6EFF0E71
:1020D8001200000E016E05502EEC12F08AEF10F07F
:1020E800010E016E03C0F6FF04C0F7FFF86A050E83
:1020F800F76403D00800F55005D0F6CFE1FFF7CF1D
:10210800E2FFE7502EEC12F0034A042A03C0F6FF60
:1021180004C0F7FFF86A050EF76403D00800F5500D
:1021280005D0F6CFE1FFF7CFE2FFE7500009D8A4CA
:10213800A0EF10F0A2EF10F074EF10F012000350AF
:102148000410D8B4AAEF10F0ACEF10F0D0EF10F0F4
:10215800010E056EB4EF10F0D89003360436052A48
:1021680004AEB9EF10F0BBEF10F0B0EF10F0035071
:10217800015C04500258D8A0C4EF10F0C6EF10F06C
:10218800CAEF10F00350015E0450025AD89004328E
:102198000332052EBBEF10F001C001F002C002F0BF
:1021A8001200980EF66E230EF76E000EF86E00EE13
:1021B80060F010EE45F00900F5CFEEFFE550E15074
:1021C800FAE1E00EF66E250EF76E000EF86E0900C5
:1021D800F5CF5BF00900F5CF5CF000EEA5F02A0E14
:1021E800EE6AE806FDE100EE43F0180EEE6AE80636
:1021F800FDE15D905D92000EF86E00015BEF02F06C
:10220800116E0D0E036E2F0E046E800E056E6DECB2
:1022180010F01104D8B413EF11F015EF11F027EFF7
:1022280011F0020E1118D8B41CEF11F01EEF11F0C6
:1022380027EF11F0030E1118D8A425EF11F027EF9E
:1022480011F02AEF11F01150E1EC0CF0860E036E3C
:10225800000E046EC00E056E6DEC10F012002F0E0D
:10226800036E2E0E046E800E056E6DEC10F0C90E16
:10227800036E2E0E046EC00E056E6DEC10F0000E8F
:102288000001B16F000EB06F000E446E000E436E79
:10229800000E586E860E066E000E076EB1EC0EF03C
:1022A8007F0E0F6ED40E0E6E320EE82EFED70E2E57
:1022B800FCD70F2EFAD71200086E08C003F0D8908A
:1022C8000336D8900336C250C30B0310C26EC282C5
:1022D800C2B271EF11F073EF11F06CEF11F0C4CFCF
:1022E80003F0030E03160350056E046AC350066E0E
:1022F800076A04500610016E05500710026E12009E
:10230800000E60EC12F0046E04508009026E000E9C
:1023180075EC12F0020E60EC12F0046E04504009E5
:10232800026E020E75EC12F0930E026E070E75EC3B
:1023380012F0000E60EC12F0046E04507F0B026E77
:10234800000E75EC12F012000600DE0ED624D66ED2
:102358000B0ED720D76EF2A4B4EF11F0B6EF11F040
:10236800CAEF11F00001A84BA92B510EA819A91109
:10237800D8A4C1EF11F0C3EF11F0C9EF11F0000EAE
:10238800A96F000EA86F534A542AF2945D92110067
:10239800F32FF02FDE2FE12FE42FE72FF92FDB2F7C
:1023A800522E412E962E632E952FFC2FED2FEA2FBD
:1023B800F62F0100010020202020202020202020AE
:1023C8004F4E202020202030303A30303A30300034
:0523D80031313030003E
:1023DE00056EE9EC12F0A00ED3EC12F00550D3EC22
:1023EE0012F00250D3EC12F0E5EC12F00B0E046E6C
:1023FE00B80E036E0306D8A00406032806E10428CF
:10240E00D8A40CEF12F00EEF12F001EF12F0120042
:10241E0008C001F009C002F0000E046E0A0E036E31
:10242E00FAEC0FF00150300F0001946F08C001F06C
:10243E0009C002F0000E046E0A0E036EA3EC10F03B
:10244E000150300F0001956F000E966F1200026E54
:10245E0001B034EF12F037EF12F0828238EF12F043
:10246E00829202C083FF82848294958E82808292B1
:10247E008284829483BE46EF12F048EF12F03FEF53
:10248E0012F08290959E1200026EE9EC12F0A00EF0
:10249E00D3EC12F00250D3EC12F0DDEC12F0A10EE0
:1024AE00D3EC12F0CDEC12F0036EE5EC12F003500B
:1024BE001200026EE9EC12F0D00ED3EC12F00250C4
:1024CE00D3EC12F0DDEC12F0D10ED3EC12F0CDEC19
:1024DE0012F0036EE5EC12F003501200036EE9ECFD
:1024EE0012F0D00ED3EC12F00350D3EC12F00250D7
:1024FE00D3EC12F0E5EC12F01200C280C19AC19832
:10250E00C186C194C182C190C08AC098C096C09441
:10251E00C082C090C08E1200D9EC12F012EC0FF0F7
:10252E0084EC12F0A0EC12F0B9EC12F084EC11F085
:10253E001200F28EF28CF28AF2940B0ED76EDC0E33
:10254E00D66ED58ED59CD59AD5861200096E000E04
:10255E00016E08502EEC12F0010E016E09502EEC99
:10256E0012F0120094869488280EC66E310EC86E34
:10257E00C79CC78E9E96A19612009EA6C9EF12F01A
:10258E00CBEF12F0C4EF12F09E961200E1EC12F0B7
:10259E00EDEC12F0C9501200016E01C0C9FFC4EC7F
:1025AE0012F012001E0E936EF19E1200C582C4EC44
:1025BE0012F01200C586C4EC12F01200C584C4ECF1
:1025CE0012F01200C580C4EC12F01200C58AC58844
:0425DE0012000133B3
:102E1C00002020204E6F74204D617463686564201F
:102E2C002020002020204C6F6720436C6561726568
:102E3C0064202020005365742054696D6520202087
:102E4C0020202020200056696577204C6F672020B9
:102E5C0020202020202000436C656172206C6F675D
:102E6C00202020202020200020202020506173735F
:102E7C00776F726420202020002020204D656E7515
:102E8C0020506167652020202000446F776E6C6FA6
:102E9C006164204C6F67202020200020204E657735
:102EAC002050617373776F7264202000202041746E
:102EBC0074656D7074204F7665722020002020534D
:102ECC0075636365737366756C6C7920200020578D
:102EDC00726F6E672050617373776F72642000207D
:102EEC00456E7465722050617373776F7264200045
:102EFC0020456E7465722070617373776F726420F5
:102F0C0000202054494D4520202020455620205398
:102F1C005000205761697420466F72202020205386
:102F2C0065630050617373776F7264206368616EC0
:102F3C0067656400436F6E6669726D2050617373D0
:102F4C00776F726400436F727265637420506173A3
:102F5C0073776F72640020202020202020202020F6
:102F6C002020202020200020205365742054696DDF
:102F7C00652020202020200020202068656C6C6FAC
:102F8C002D6D656E75202020005265736574205080
:102F9C00617373776F726420002057726F6E6720B5
:102FAC0050617373776F7264002D417474656D702A
:102FBC00742052656D61696E005D202020202020F8
:102FCC0020202020004C6F67733A2D2D3E5B004370
:102FDC002000473100473200473300473400434C50
:102FEC0000444C00474E004F4E00435000475200E7
:042FFC00535400002A
:020000040020DA
:08000000FFFFFFFFFFFFFFFF00
:020000040030CA
:0E000000FF071F1FFF8285FF0FC00FE00F409C
:00000001FF
