:020000040000FA
:0400000007EF00F016
:100008005D823DED0CF090EF0BF01A50800B276EDF
:100018001A501A242E6E19AE14EF00F016EF00F0E5
:1000280017EF00F02E802E50D8B41DEF00F01FEF10
:1000380000F034EF00F02E28D8A425EF00F027EFC9
:1000480000F02FEF00F0000E176E000E186E000E75
:10005800196E000E1A6E198E000E1A6E3CEF00F023
:10006800000E176E000E186E000E196E000E1A6E36
:100078001E50800B271A1E501E242F6E1DAE47EFF0
:1000880000F049EF00F04AEF00F02F802F50D8B46D
:1000980050EF00F052EF00F067EF00F02F28D8A4DF
:1000A80058EF00F05AEF00F062EF00F0000E1B6E00
:1000B800000E1C6E000E1D6E000E1E6E1D8E000EB4
:1000C8001E6E6FEF00F0000E1B6E000E1C6E000E11
:1000D8001D6E000E1E6E1B501C101D101E10D8A485
:1000E80078EF00F07AEF00F092EF00F0000E176E54
:1000F800000E186E000E196E000E1A6E800E191280
:100108007F0E1A1227501A1217C017F018C018F0CD
:1001180019C019F01AC01AF0D5EF01F02E50D8A462
:1001280098EF00F09AEF00F0A4EF00F0000E176EC1
:10013800000E186E000E196E000E1A6ED5EF01F043
:100148002F502EC01FF0206A1F5E000E205A7F0E0F
:100158001F24286E000E2020296E17C023F018C017
:1001680024F019C025F01AC026F0000E176E000EF4
:10017800186E000E196E000E1A6E000E2A6E000E12
:100188002B6E000E2C6E000E2D6E000E2F6E05EFDE
:1001980001F02F50D8B4D3EF00F0D5EF00F0ECEF1A
:1001A80000F0D8902336243625362636D8901736D0
:1001B800183619361A362DAEE4EF00F0E6EF00F0E7
:1001C800E7EF00F01780D8902A362B362C362D36DC
:1001D8001B50235C1C5024581D5025581E5026586F
:1001E800D8A0F9EF00F0FBEF00F004EF01F02D8C40
:1001F8001B50235E1C50245A1D50255A1E50265A47
:100208002F2A190E2F640BEF01F00DEF01F0CDEF3F
:1002180000F02350241025102610D8B416EF01F052
:1002280018EF01F030EF01F02A8030EF01F0D8909C
:100238001736183619361A362DAE25EF01F027EF86
:1002480001F028EF01F01780D8902A362B362C368B
:100258002D362806D8A0290619AE35EF01F037EF5C
:1002680001F01BEF01F0000E2F6E2DAE3EEF01F0F6
:1002780040EF01F064EF01F0FF0E2A141F6EFF0E2D
:100288002B14206EFF0E2C14216E7F0E2D14226E5F
:100298001F50201021102210D8B455EF01F057EF4D
:1002A80001F05BEF01F0010E2F6E64EF01F017A073
:1002B80060EF01F062EF01F064EF01F057EF01F039
:1002C8002F50D8B46AEF01F06CEF01F090EF01F015
:1002D800010E1726000E182219221A221AA077EFEB
:1002E80001F079EF01F090EF01F017C01FF018C08E
:1002F80020F019C021F01AC022F022342232213213
:1003080020321F321FC017F020C018F021C019F08A
:1003180022C01AF0284A292A29BE9BEF01F0295049
:1003280008E12828D8A09BEF01F09DEF01F0A8EF85
:1003380001F0000E296E2868000E176E000E186E68
:10034800000E196E000E1A6E29BEB5EF01F0295085
:1003580006E12804D8B0B3EF01F0B5EF01F0C3EF20
:1003680001F0000E296E000E286E000E176E000EAA
:10037800186E000E196E000E1A6E000E276E28C039
:100388002EF02EA0CAEF01F0CCEF01F0CFEF01F074
:10039800198ED0EF01F0199ED8902E301A6E86EF84
:1003A80000F012000C6E0B0E0C18D8A4DEEF01F052
:1003B800E0EF01F000EF02F0000E526E000E516EF9
:1003C8000CC045F0466A3F500A6E40500B6E3F4ADB
:1003D800402A910E0A5C010E0B58D8A0F6EF01F0E6
:1003E800F8EF01F05FEF02F0030E566E000E406E5C
:1003F800000E3F6E45EF03F03F504010D8B407EFB2
:1004080002F009EF02F05FEF02F0900E3F5C010E80
:100418004058D8B012EF02F014EF02F05FEF02F08C
:100428000B0E45184610D8A41CEF02F01EEF02F080
:100438005FEF02F00C28D8A424EF02F026EF02F0B8
:100448005FEF02F059505A10D8B42DEF02F02FEF99
:1004580002F05FEF02F057505810D8A436EF02F0C0
:1004680038EF02F03EEF02F0000E586E010E576EA4
:100478004FEF02F05A5009E1020E595CD8A047EF3D
:1004880002F049EF02F04FEF02F04306D8A044060D
:100498005906D8A05A0641504210D8B456EF02F077
:1004A80058EF02F05BEF02F04106D8A04206000EBA
:1004B800406E000E3F6E050E51185210D8A467EF1B
:1004C80002F069EF02F081EF02F0000E446E000EB8
:1004D800436E000E5A6E010E596E000E586E010ED4
:1004E800576E000E426E000E416E000E566E000EE4
:1004F800406E000E3F6E45EF03F00C0E0C18D8A4AA
:1005080088EF02F08AEF02F0A4EF02F0000E526EBC
:10051800000E516E0CC045F0466A3F500A6E4050BE
:100528000B6E3F4A402A910E0A5C010E0B58D8A068
:10053800A0EF02F0A2EF02F004EF03F069EF02F07F
:100548003F504010D8B4ABEF02F0ADEF02F004EF2B
:1005580003F0900E3F5C010E4058D8B0B6EF02F0A1
:10056800B8EF02F004EF03F00C0E45184610D8A4BB
:10057800C0EF02F0C2EF02F004EF03F00C28D8A499
:10058800C8EF02F0CAEF02F004EF03F0445007E1AD
:10059800040E435CD8B0D3EF02F0D5EF02F004EFBD
:1005A80003F057045810D8A4DCEF02F0DEEF02F095
:1005B800E4EF02F0000E586E000E576EF3EF02F0F3
:1005C800445007E1030E435CD8B0EDEF02F0EFEFC3
:1005D80002F0F3EF02F0434A442A594A5A2A425099
:1005E80007E1040E415CD8B0FCEF02F0FEEF02F028
:1005F80000EF03F0414A422A000E406E000E3F6EA3
:1006080057045810D8A40BEF03F00DEF03F019EFBF
:1006180003F0800E086E2A0E36EC0DF0C00E086E40
:10062800200E36EC0DF023EF03F0800E086E200E3E
:1006380036EC0DF0C00E086E2A0E36EC0DF0D89090
:100648004334D96E4434DA6E700ED926000EDA229D
:10065800DECF03F0DDCF04F0810E056E5AEC0BF00F
:10066800D8905934D96E5A34DA6E700ED926000EE5
:10067800DA22DECF03F0DDCF04F0C10E056E5AECAE
:100688000BF012000E6EAA0E036E2F0E046E800E73
:10069800056E5AEC0BF00B0E0E18D8A456EF03F0AB
:1006A80058EF03F06EEF03F0A40E4924D96E000E44
:1006B8004A20DA6E310EDF6E4950C30F086E2A0EDB
:1006C80036EC0DF0000E526E000E516E494A4A2A61
:1006D80087EF03F00C0E0E18D8A475EF03F077EF30
:1006E80003F087EF03F0A40E4924D96E000E4A20C8
:1006F800DA6E300EDF6E4950C30F086E2A0E36ECE4
:100708000DF066EF03F0050E51185210D8A48FEFC4
:1007180003F091EF03F09BEF03F0000E566E000E0E
:100728004A6E000E496E330E5C6EB4EF04F047500B
:100738000C6E48500D6E474A482A200E0C5C030E7A
:100748000D58D8B0AAEF03F0ACEF03F0B4EF03F004
:100758004950C30F086E5F0E36EC0DF0D5EF03F06D
:10076800210E475C030E4858D8A0BDEF03F0BFEF39
:1007780003F0D5EF03F04950C30F086E200E36EC96
:100788000DF0400E471807E1060E4818D8A4CFEF21
:1007980003F0D1EF03F0D5EF03F0000E486E000E22
:1007A800476E040E49184A10D8A4DDEF03F0DFEFB6
:1007B80003F0B4EF04F0080E0D6E9D0E0C6E060EDD
:1007C800E82EFED70C2EFCD70D2EFAD75C06000EAD
:1007D8004A6E000E496EF90E016E2F0E026EA40EBF
:1007E800036E000E046E4EEC09F001500210D8B4EE
:1007F80000EF04F002EF04F039EF04F00D0E0D6E77
:10080800AF0E0C6EB60EE82EFED70C2EFCD70D2EB2
:10081800FAD700D09A0E036E2F0E046E800E056E66
:100828005AEC0BF0C00E086E5C5036EC0DF0BA0EA8
:10083800036E2F0E046EC10E056E5AEC0BF00D0EF2
:100848000D6EAF0E0C6EB60EE82EFED70C2EFCD732
:100858000D2EFAD700D0CF0E036E2E0E046EC00EEA
:10086800056E5AEC0BF05FEF04F0000E4A6E000EB6
:10087800496E330E5C6E790E036E2F0E046E800E79
:10088800056E5AEC0BF0240E036E2F0E046EC00E8C
:10089800056E5AEC0BF0120E0D6EC20E0C6E660E43
:1008A800E82EFED70C2EFCD70D2EFAD700D0020E5C
:1008B800566EB4EF04F0300E5C18D8A466EF04F05E
:1008C80068EF04F0B4EF04F0460E036E2F0E046ECA
:1008D800800E056E5AEC0BF0680E036E2F0E046E38
:1008E800C00E056E5AEC0BF0000E526E000E516EE3
:1008F800A6EF04F0CA0E086E51503B08016E525024
:10090800D8A0E82A0008026E000E046E0A0E036ED4
:10091800E7EC0AF00150300F36EC0DF0CB0E086E04
:1009280051503B08016E5250D8A0E82A0008026EC8
:10093800000E046E0A0E036EC3EC0BF00150300F6C
:1009480036EC0DF03C0E51185210D8A4AEEF04F05E
:10095800B0EF04F07EEF04F0000E566E330E5C6EBE
:1009680012000E6EE00E036E2E0E046E800E056EE3
:100978005AEC0BF00B0E0E18D8A4C5EF04F0C7EF15
:1009880004F0E1EF04F00EC045F0466A3F500A6EED
:1009980040500B6E3F4A402A910E0A5C010E0B58DC
:1009A800D8A0D9EF04F0DBEF04F00CEF05F0000E4F
:1009B800406E000E3F6EA7EF05F03F504010D8B4D0
:1009C800E8EF04F0EAEF04F00CEF05F0900E3F5C5E
:1009D800010E4058D8B0F3EF04F0F5EF04F00CEF37
:1009E80005F00B0E45184610D8A4FDEF04F0FFEFF4
:1009F80004F00CEF05F00E28D8A405EF05F007EF7A
:100A080005F00CEF05F05406000E406E000E3F6E28
:100A18000C0E0E18D8A413EF05F015EF05F033EF00
:100A280005F00EC045F0466A3F500A6E40500B6E06
:100A38003F4A402A910E0A5C010E0B58D8A027EFB6
:100A480005F029EF05F069EF05F0020E566E000E6D
:100A5800546E000E526E000E516EA7EF05F03F5017
:100A68004010D8B43AEF05F03CEF05F069EF05F017
:100A7800900E3F5C010E4058D8B045EF05F047EFA7
:100A880005F069EF05F00C0E45184610D8A44FEF95
:100A980005F051EF05F069EF05F00E28D8A457EFDF
:100AA80005F059EF05F069EF05F0542A0A0E5418BD
:100AB800D8A461EF05F063EF05F065EF05F0000ECF
:100AC800546E000E406E000E3F6E5450100DF3CF62
:100AD80001F0F4CF02F0000E046E0A0E036EADECC6
:100AE80009F00150536E860E086E5450300F36ECE4
:100AF8000DF0000E0D6E000E0C6E930E0C24D96EC8
:100B0800000E0D20DA6E53500C24D4EC0CF0DF6E7E
:100B18000C4A0D2A0DBE9AEF05F00D5009E1100E92
:100B28000C5CD8A09AEF05F09CEF05F081EF05F07A
:100B3800000E0001A36F930E036E000E046EC00E2C
:100B4800056E5AEC0BF01200116E1150D8B4AFEFCD
:100B580005F0B1EF05F0D3EF05F00CBEB8EF05F0E6
:100B6800B6EF05F0D3EF05F009C00DF00AC00EF09E
:100B78000BC00FF00CC010F00D1E0E1E0F1E101E25
:100B88000D2A000E0E220F2210220DC013F00EC0E7
:100B980014F00FC015F010C016F0DBEF05F009C017
:100BA80013F00AC014F00BC015F00CC016F0095071
:100BB8000A100B100C10D8A4E4EF05F0E6EF05F0CE
:100BC800F0EF05F0000E096E000E0A6E000E0B6EB7
:100BD800000E0C6E81EF06F0960E126EFAEF05F01D
:100BE800122AD8901632153214321332000E13140A
:100BF8000D6E000E14140E6E000E15140F6EFE0E00
:100C08001614106E0D500E100F101010D8A40FEF00
:100C180006F011EF06F0F4EF05F01FEF06F0122AC8
:100C2800010E1326000E142215221622D890163211
:100C3800153214321332000E13140D6E000E1414F4
:100C48000E6E000E15140F6EFF0E1614106E0D505A
:100C58000E100F101010D8A434EF06F036EF06F07F
:100C680013EF06F03EEF06F01206D890133614364E
:100C78001536163615BE43EF06F045EF06F04DEF74
:100C880006F0020E12604BEF06F04DEF06F038EF5B
:100C980006F012B052EF06F054EF06F055EF06F0EA
:100CA800159ED890123212C00DF00E6A0F6A106AA3
:100CB8000DC010F00F6A0E6A0D6A0D5013120E5017
:100CC80014120F501512105016121150D8B46FEF9D
:100CD80006F071EF06F079EF06F00CBE78EF06F03B
:100CE80076EF06F079EF06F0168E13C009F014C0FF
:100CF8000AF015C00BF016C00CF01200056E0504C2
:100D0800D8A489EF06F08BEF06F091EF06F0000EFD
:100D18004E6E070E4D6EF6EF06F0020E0518D8B4AB
:100D280098EF06F09AEF06F0A3EF06F0030E051809
:100D3800D8A4A1EF06F0A3EF06F0F6EF06F0070E31
:100D48004D184E10D8A4ABEF06F0ADEF06F0BAEF91
:100D580006F0020E0518D8A4B4EF06F0B6EF06F0B8
:100D6800BAEF06F0000E4E6E000E4D6E020E05181C
:100D7800D8A4C1EF06F0C3EF06F0D2EF06F04E504C
:100D880007E1060E4D5CD8B0CCEF06F0CEEF06F0CA
:100D9800D2EF06F04D4A4E2AF6EF06F0030E05187C
:100DA800D8A4D9EF06F0DBEF06F0F6EF06F04E50C8
:100DB80009E1020E4D5CD8A0E4EF06F0E6EF06F07C
:100DC800F6EF06F04E5007E1070E4D5CD8B0EFEF96
:100DD80006F0F1EF06F0F6EF06F04D06D8A04E0645
:100DE800F6EF06F0200E0001846F000E046E000E70
:100DF800036E1FEF07F0D8904D34D96E4E34DA6E7B
:100E0800600ED926000EDA22DECF01F0DDCF02F027
:100E1800035001260450022201C0F6FF02C0F7FF6A
:100E2800850E0324D96E000E0420DA6E0800F5CF73
:100E3800DFFF034A042AD8904D34D96E4E34DA6E57
:100E4800600ED926000EDA22DECF01F0DDCF02F0E7
:100E5800035001260450022201C0F6FF02C0F7FF2A
:100E68000800F5500009D8A43CEF07F03EEF07F062
:100E7800FFEF06F04F50300F0001896F12001CEC95
:100E88000DF0020E5618D8B44CEF07F04EEF07F0ED
:100E980057EF07F0030E5618D8A455EF07F057EF91
:100EA80007F05DEF07F0000E21EC0BF03B6E61EFF1
:100EB80007F0010E21EC0BF03B6E0A0E3B18D8A48C
:100EC80068EF07F06AEF07F081EF07F0020E561897
:100ED800D8B471EF07F073EF07F081EF07F0D00E89
:100EE800036E2E0E046EC00E056E5AEC0BF0010E4A
:100EF800566E000E526E000E516E5604D8A487EF3F
:100F080007F089EF07F09BEF07F03B5046EC03F042
:100F1800020E5618D8A493EF07F095EF07F045EFA7
:100F280007F0000E526E000E516E45EF07F0020EEC
:100F38005618D8A4A2EF07F0A4EF07F0B2EF07F015
:100F48003B50D6EC01F0070E5618D8A4AEEF07F0C8
:100F5800B0EF07F045EF07F095EF07F0030E5618CE
:100F6800D8A4B9EF07F0BBEF07F0C9EF07F03B5083
:100F7800B5EC04F0020E5618D8A4C5EF07F0C7EF79
:100F880007F045EF07F095EF07F0070E5618D8A4BD
:100F9800D0EF07F0D2EF07F0D7EF07F03B5056EC51
:100FA8000DF045EF07F03B50E5EC08F045EF07F092
:100FB80007EF00F0819A818C818E81B2E6EF07F00D
:100FC800E8EF07F0EBEF07F0010E61EF08F081B4EE
:100FD800F0EF07F0F2EF07F0F5EF07F0040E61EF1E
:100FE80008F081B6FAEF07F0FCEF07F0FFEF07F023
:100FF800070E61EF08F081B804EF08F006EF08F07B
:1010080009EF08F00A0E61EF08F0818A819C818E51
:1010180081B211EF08F013EF08F016EF08F0020E96
:1010280061EF08F081B41BEF08F01DEF08F020EF26
:1010380008F0050E61EF08F081B625EF08F027EFFC
:1010480008F02AEF08F0080E61EF08F081B82FEFDA
:1010580008F031EF08F034EF08F00B0E61EF08F0FC
:10106800818A818C819E819E81B23DEF08F03FEF9D
:1010780008F042EF08F0030E61EF08F081B447EF83
:1010880008F049EF08F04CEF08F0060E61EF08F0A1
:1010980081B651EF08F053EF08F056EF08F0090E4B
:1010A80061EF08F081B85BEF08F05DEF08F060EFE2
:1010B80008F00C0E61EF08F0FF0E120032343334E2
:1010C800396E3950D8A46BEF08F06DEF08F077EF60
:1010D80008F0000E306E000E316E000E326E000EFB
:1010E800336EE4EF08F030C034F031C035F032C070
:1010F80036F033C037F0200E87EF08F0D89037323B
:10110800363235323432E82E82EF08F03450386EF9
:10111800328EFF0E3016FF0E3116FF0E3216000EFD
:101128003316960E395E39BE9EEF08F09CEF08F034
:10113800B4EF08F03950800A970FD8B0A6EF08F03E
:10114800A8EF08F0AAEF08F06DEF08F0D890333256
:10115800323231323032393EAAEF08F0CCEF08F0A3
:101168001F0E3964BAEF08F0BCEF08F0C4EF08F0BE
:101178006DEF08F0D89030363136323633363906CE
:101188003950D8A4CAEF08F0CCEF08F0BEEF08F049
:101198003850D8B4D2EF08F0D4EF08F0DCEF08F0FC
:1011A800331E321E311E306C000E312232223322A1
:1011B80030C030F031C031F032C032F033C033F0DB
:1011C80012003A6E570E036E2F0E046E800E056ED7
:1011D8005AEC0BF0A7EC0AF03A04D8B4F6EF08F092
:1011E800F8EF08F00AEF09F0020E3A18D8B4FFEF4A
:1011F80008F001EF09F00AEF09F0030E3A18D8A435
:1012080008EF09F00AEF09F013EF09F03A5082EC01
:1012180006F07C0E066E000E076E5DEC0AF0140EEA
:101228001B6EAE0E1C6E230E1D6E410E1E6E040E3E
:1012380019EC0CF001C009F002C00AF00B6A0C6A44
:10124800000EA8EC05F009C017F00AC018F00BC092
:1012580019F00CC01AF009EC00F017C030F018C0F3
:1012680031F019C032F01AC033F062EC08F030C027
:101278004BF031C04CF04BC008F04CC009F081EC89
:101288000CF07C0E036E000E046EC00E056E5AEC58
:101298000BF01200000E0B6E000E0A6E96EF09F0AE
:1012A8000A500124056E0B500220066E05C0F6FF99
:1012B80006C0F7FF0800F550076E086A0A500324B5
:1012C800D96E0B500420DA6EDF50096E0950075EA4
:1012D800000E085A07500810D8B475EF09F077EFD8
:1012E80009F094EF09F00A500124056E0B50022012
:1012F800066E05C0F6FF06C0F7FF0800F5CF07F039
:101308000A500324D96E0B500420DA6EDF50086EA1
:101318000850075C016E026AD8A00206ACEF09F01B
:101328000A4A0B2A0A500124056E0B500220066E49
:1013380005C0F6FF06C0F7FF0800F5500009D8A45D
:10134800A8EF09F0AAEF09F054EF09F077EF09F0D8
:101358001200000E066E02BEB6EF09F0B4EF09F0F7
:10136800BCEF09F0016C021ED8B0022A010E066E0D
:1013780004BEC3EF09F0C1EF09F0C7EF09F0036C31
:10138800041ED8B0042A03500410D8B4CEEF09F0D4
:10139800D0EF09F0F4EF09F0010E056ED8EF09F06F
:1013A800D89003360436052A04AEDDEF09F0DFEFE6
:1013B80009F0D4EF09F00350015C04500258D8A09A
:1013C800E8EF09F0EAEF09F0EEEF09F00350015EEB
:1013D8000450025AD89004320332052EDFEF09F088
:1013E8000650D8B4FAEF09F0FCEF09F000EF0AF064
:1013F800016C021ED8B0022A01C001F002C002F03E
:101408001200000E956E9450F80B946E8290020EA6
:10141800046E040E036EBA0EE82EFED7032EFCD718
:10142800042EFAD700D0000E016E330EA0EC0CF09B
:101438001B0E036E9E0EE82EFED7032EFCD700D09F
:10144800000E016E330EA0EC0CF0A60EE82EFED7AF
:1014580000D0000E016E330EA0EC0CF000D000D0CE
:1014680000F0000E016E020EA0EC0CF0A60EE82EA5
:10147800FED700D0000E016E380EA0EC0CF0A60EC0
:10148800E82EFED700D0000E016E010EA0EC0CF085
:10149800040E036E3E0EE82EFED7032EFCD7000E78
:1014A800016E0C0EA0EC0CF0A60EE82EFED700D0B4
:1014B8001200000E0B6E000E0A6E4FC001F050C0F5
:1014C80002F0000E046E0A0E036EC3EC0BF0013A34
:1014D800023AF00E021601500F0B0212F00E01161E
:1014E80001C008F002C009F088EF0AF00A5006248B
:1014F800D96E0B500720DA6EDF50026E08500A24AE
:1015080061EC0CF00A4A0B2A0A500624D96E0B50DB
:101518000720DA6EDF50D8A494EF0AF096EF0AF0AD
:101528007AEF0AF04F4A502A0A0E4F185010D8A4E2
:10153800A0EF0AF0A2EF0AF0A6EF0AF0000E506E34
:10154800000E4F6E1200020EE9EC0CF03C6E010E1C
:10155800E9EC0CF03D6E000EE9EC0CF03E6E3CAC94
:10156800B8EF0AF0BAEF0AF0C6EF0AF03C380F0BF2
:10157800010B300F00017C6F3C500F0B300F7D6F5B
:10158800D0EF0AF03C380F0B030B300F00017C6FD3
:101598003C500F0B300F7D6F3A0E7E6F3D380F0BAE
:1015A8000F0B300F7F6F3D500F0B300F806F3A0ECF
:1015B800816F3E380F0B0F0B300F826F3E500F0BB1
:1015C800300F836F1200000E066E000E056E03507A
:1015D8000410D8B4F2EF0AF0F4EF0AF01CEF0BF0A5
:1015E800010E076EFCEF0AF0D89003360436072A7E
:1015F80004AE01EF0BF003EF0BF0F8EF0AF0D89010
:10160800053606360350015C04500258D8A00FEF87
:101618000BF011EF0BF016EF0BF00350015E0450C6
:10162800025A0580D89004320332072E03EF0BF0DC
:1016380005C001F006C002F01200016E0150D8A4E6
:1016480028EF0BF02AEF0BF02EEF0BF0DEEC07F093
:1016580059EF0BF00104D8A434EF0BF036EF0BF080
:1016680059EF0BF0DEEC07F0026E0228D8B43FEF1A
:101678000BF041EF0BF04EEF0BF05B50D8B447EF97
:101688000BF049EF0BF04EEF0BF0000E5B6E0250C3
:1016980059EF0BF00228D8A454EF0BF056EF0BF0DB
:1016A80058EF0BF0010E5B6EFF0E1200000E016E7C
:1016B8000550A0EC0CF077EF0BF0010E016E03C0A3
:1016C800F6FF04C0F7FFF86A050EF76403D00800B8
:1016D800F55005D0F6CFE9FFF7CFEAFFEF50A0ECC1
:1016E8000CF0034A042A03C0F6FF04C0F7FFF86AA7
:1016F800050EF76403D00800F55005D0F6CFE9FFD2
:10170800F7CFEAFFEF500009D8A48DEF0BF08FEF69
:101718000BF061EF0BF012007A0EF66E190EF76EF1
:10172800000EF86E00EE60F010EE2DF00900F5CF17
:10173800EEFFE550E150FAE1FE0EF66E1A0EF76E76
:10174800000EF86E00EE57F010EE06F00900F5CF27
:10175800EEFFE550E150FAE100EE8DF01C0EEE6A66
:10176800E806FDE100EE3CF01B0EEE6AE806FDE13E
:101778005D905D92000EF86E000143EF07F0035094
:101788000410D8B4CAEF0BF0CCEF0BF0F0EF0BF06D
:10179800010E056ED4EF0BF0D89003360436052AF7
:1017A80004AED9EF0BF0DBEF0BF0D0EF0BF00350EA
:1017B800015C04500258D8A0E4EF0BF0E6EF0BF000
:1017C800EAEF0BF00350015E0450025AD89004323D
:1017D8000332052EDBEF0BF001C001F002C002F06E
:1017E8001200000EE9EC0CF0046E04508009026E41
:1017F800000EFEEC0CF0020EE9EC0CF0046E045046
:101808004009026E020EFEEC0CF0930E026E070EFB
:10181800FEEC0CF0000EE9EC0CF0046E04507F0BAB
:10182800026E000EFEEC0CF01200086E08C003F009
:10183800D8900336D8900336C250C30B0310C26E3B
:10184800C282C2B22AEF0CF02CEF0CF025EF0CF09C
:10185800C4CF03F0030E03160350056E046AC35089
:10186800066E076A04500610016E05500710026ED6
:1018780012000600DE0ED624D66E0B0ED720D76EC9
:10188800F2A449EF0CF04BEF0CF05FEF0CF0000105
:101898008D4B8E2B510E8D198E11D8A456EF0CF04E
:1018A80058EF0CF05EEF0CF0000E8E6F000E8D6F8F
:1018B800514A522AF2945D921100056E73EC0DF0B4
:1018C800A00E5FEC0DF005505FEC0DF002505FECE0
:1018D8000DF06FEC0DF00B0E046EB80E036E0306E0
:1018E800D8A00406032806E10428D8A47EEF0CF04B
:1018F80080EF0CF073EF0CF0120008C001F009C083
:1019080002F0000E046E0A0E036EE7EC0AF00150B6
:10191800300F00018A6F08C001F009C002F0000E04
:10192800046E0A0E036EC3EC0BF00150300F000179
:101938008B6F000E8C6F1200026E01B0A6EF0CF0D8
:10194800A9EF0CF08282AAEF0CF0829202C083FF0A
:1019580082848294958E828082928284829483BECD
:10196800B8EF0CF0BAEF0CF0B1EF0CF08290959E46
:101978001200EF2FEA2FD62FDB2FE02FE52FF42FC1
:10198800D12F022FF12E352F132F8A2FF92F202038
:0F19980020202020202020204F4E202020202003
:1019A800026E73EC0DF0A00E5FEC0DF002505FECD0
:1019B8000DF077EC0DF0A10E5FEC0DF065EC0DF07D
:1019C800036E6FEC0DF003501200026E73EC0DF015
:1019D800D00E5FEC0DF002505FEC0DF077EC0DF0DF
:1019E800D10E5FEC0DF065EC0DF0036E6FEC0DF0B1
:1019F80003501200036E73EC0DF0D00E5FEC0DF087
:101A080003505FEC0DF002505FEC0DF06FEC0DF041
:101A18001200C280C19AC198C186C194C182C19086
:101A2800C08AC098C096C094C082C090C08E120070
:101A38006BEC0DF005EC0AF00DEC0DF029EC0DF057
:101A480042EC0DF0F5EC0BF01200F28EF28CF28AFB
:101A5800F2940B0ED76EDC0ED66ED58ED59CD59A29
:101A6800D5861200096E000E016E0850A0EC0CF02D
:101A7800010E016E0950A0EC0CF0120094869488B7
:101A8800280EC66E310EC86EC79CC78E9E96A1964C
:101A980012009EA652EF0DF054EF0DF04DEF0DF031
:101AA8009E961200CA0E036E2F0E046EC00E056EAF
:101AB8005AEC0BF01200016E01C0C9FF4DEC0DF09D
:101AC80012007BEC0DF082EC0DF0C95012001E0ED6
:101AD800936EF19E1200C5844DEC0DF01200C58086
:101AE8004DEC0DF01200C5824DEC0DF01200C586CC
:101AF8004DEC0DF01200010001000133C58AC588C4
:021B08001200C9
:102ECE000020202020202020202020202020202014
:102EDE0020004C6F67733A2D2020202020202020C8
:102EEE002020005365742054696D65202020202019
:102EFE002020200056696577204C6F672020202007
:102F0E002020202000436C656172206C6F672020AA
:102F1E002020202020002020204D656E752050613D
:102F2E0067652020202000446F776E6C6F616420EF
:102F3E004C6F6720202020002020417474656D7036
:102F4E0074204F766572202000202054494D452074
:102F5E0020202045562020535000205761697420B0
:102F6E00466F722020202053656300436F72726596
:102F7E0063742050617373776F726400526573656A
:102F8E00742050617373776F726420002057726FD4
:102F9E006E672050617373776F72640020456E7494
:102FAE0065722070617373776F7264002D41747453
:102FBE00656D70742052656D61696E00686920736D
:102FCE00616D002043202000204731200020473231
:102FDE0020002047332000204734200020474E2079
:102FEE0000204F4E2000204752200030303131005B
:012FFE0000D2
:020000040020DA
:08000000FFFFFFFFFFFFFFFF00
:020000040030CA
:0E000000FF071F1FFF8285FF0FC00FE00F409C
:00000001FF
