:020000040000FA
:0400000007EF00F016
:100008005D82D7ED12F004EF12F00E6E5550D8A4B1
:1000180010EF00F012EF00F0BBEF00F0CC0E036E13
:100028002E0E046E800E056E9CEC11F00B0E0E1851
:10003800D8A421EF00F023EF00F039EF00F0CC0E48
:100048004F24D96E000E5020DA6E310EDF6E4F50FD
:10005800C30F086E2A0EDCEC13F0000E546E000E6F
:10006800536E4F4A502A52EF00F00C0E0E18D8A4C7
:1000780040EF00F042EF00F052EF00F0CC0E4F24BA
:10008800D96E000E5020DA6E300EDF6E4F50C30F5F
:10009800086E2A0EDCEC13F031EF00F0040E4F1856
:1000A8005010D8A45AEF00F05CEF00F00CEF02F00B
:1000B8005C06000E506E000E4F6E000E0001D06FF1
:1000C800A00E016E000E026ECC0E036E000E046EC2
:1000D80099EC10F001500210D8B475EF00F077EFEA
:1000E80000F0A2EF00F0BB0E036E2E0E046E800E21
:1000F800056E9CEC11F0C00E086E5C50DCEC13F041
:10010800B70E036E2F0E046EC10E056E9CEC11F037
:100118001A0E0B6E5E0E0A6E6E0EE82EFED70A2EB3
:10012800FCD70B2EFAD700D0650E036E2F0E046E87
:10013800C00E056E9CEC11F0ACEF00F0650E036E7E
:100148002F0E046EC00E056E9CEC11F0010E556E5C
:10015800300E5C18D8A4B3EF00F0B5EF00F00CEF48
:1001680002F0000E556E020E5A6E5AEF02F0550458
:10017800D8A4C1EF00F0C3EF00F029EF01F0880E1A
:10018800036E2E0E046E800E056E9CEC11F00B0EA5
:100198000E18D8A4D2EF00F0D4EF00F0EAEF00F088
:1001A800CC0E4F24D96E000E5020DA6E310EDF6E61
:1001B8004F50C30F086E2A0EDCEC13F0000E546E7D
:1001C800000E536E4F4A502A03EF01F00C0E0E1822
:1001D800D8A4F1EF00F0F3EF00F003EF01F0CC0E3C
:1001E8004F24D96E000E5020DA6E300EDF6E4F505D
:1001F800C30F086E2A0EDCEC13F0E2EF00F0040ED9
:100208004F185010D8A40BEF01F00DEF01F00CEFD0
:1002180002F0650E036E2F0E046EC00E056E9CEC88
:1002280011F0020E556E000E506E000E4F6E0D0E40
:100238000B6EAF0E0A6EB60EE82EFED70A2EFCD74E
:100248000B2EFAD700D00CEF02F0020E5518D8A4E6
:1002580030EF01F032EF01F00CEF02F0430E036EC5
:100268002F0E046E800E056E9CEC11F00B0E0E180E
:10027800D8A441EF01F043EF01F059EF01F0C70EA8
:100288004F24D96E000E5020DA6E310EDF6E4F50BB
:10029800C30F086E2A0EDCEC13F0000E546E000E2D
:1002A800536E4F4A502A72EF01F00C0E0E18D8A464
:1002B80060EF01F062EF01F072EF01F0C70E4F241A
:1002C800D96E000E5020DA6E300EDF6E4F50C30F1D
:1002D800086E2A0EDCEC13F051EF01F0040E4F18F3
:1002E8005010D8A47AEF01F07CEF01F00CEF02F087
:1002F800000E506E000E4F6E000E0001CB6FCC0E3C
:10030800016E000E026EC70E036E000E046E99ECAD
:1003180010F001500210D8A494EF01F096EF01F00C
:10032800E8EF01F0320E036E2F0E046E800E056E9C
:100338009CEC11F0AA0E036E2E0E046EC00E056E14
:100348009CEC11F0B8EF01F0C70E4F24D96E000EE7
:100358005020DA6EA00E4F24E16E000E5020E26E9F
:10036800DFCFE7FF4F4A502AC70E4F24D96E000E41
:100378005020DA6EDF50D8A4C4EF01F0C6EF01F0C8
:10038800A8EF01F0000E0D6E000E0C6EC70E0C24C7
:10039800D96E000E0D20DA6EDF50026E0C50460F3B
:1003A8001EEC13F00C4A0D2A0DBEE4EF01F00D50BF
:1003B80009E1040E0C5CD8A0E4EF01F0E6EF01F0CF
:1003C800CAEF01F0F8EF01F0550E036E2E0E046E21
:1003D800800E056E9CEC11F0EC0E036E2D0E046E73
:1003E800C00E056E9CEC11F0000E556E020E5A6E92
:1003F800000E506E000E4F6E1A0E0B6E5E0E0A6ED9
:100408006E0EE82EFED70A2EFCD70B2EFAD700D098
:10041800050E53185410D8A414EF02F016EF02F08A
:1004280020EF02F0000E556E020E5A6E000E506E4E
:10043800000E4F6E5AEF02F04D500A6E4E500B6E82
:100448004D4A4E2A200E0A5C030E0B58D8B02FEFE7
:1004580002F031EF02F039EF02F04F50C30F086E8F
:100468005F0EDCEC13F05AEF02F0210E4D5C030E28
:100478004E58D8A042EF02F044EF02F05AEF02F0D3
:100488004F50C30F086E200EDCEC13F0400E4D18D1
:1004980007E1060E4E18D8A454EF02F056EF02F00A
:1004A8005AEF02F0000E4E6E000E4D6E1200106EE6
:1004B8000B0E1018D8A463EF02F065EF02F000EFFE
:1004C80003F0000E546E000E536E10C04BF04C6AD1
:1004D80045500E6E46500F6E454A462A910E0E5CE8
:1004E800010E0F58D8A07BEF02F07DEF02F060EF0D
:1004F80003F0040E47184810D8B485EF02F087EFD0
:1005080002F09AEF02F0030E47184810D8B48FEFA4
:1005180002F091EF02F09AEF02F047044810D8A4D5
:1005280098EF02F09AEF02F09EEF02F0000E466E8E
:10053800000E456E4750030F5A6E47504810D8B406
:10054800A8EF02F0AAEF02F0D8EF02F0D8904734F3
:10055800D96E4834DA6E780ED926000EDA22DECF4C
:10056800F6FFDDCFF7FF0800F5CF90F0D8904734BD
:10057800D96E4834DA6E780ED926000EDA22DECF2C
:100588000EF0DDCF0FF0010E0E26000E0F220EC06A
:10059800F6FF0FC0F7FF0800F5CF91F0860E066E44
:1005A800000E076EE0EC0FF047044810D8A4DFEF08
:1005B80002F0E1EF02F0E7EF02F0000E506E060ED7
:1005C8004F6E4AEF04F047504810D8B4EEEF02F0EF
:1005D800F0EF02F0FAEF02F0020E47184810D8A424
:1005E800F8EF02F0FAEF02F04AEF04F0AEC043F081
:1005F800AFC044F04AEF04F045504610D8B407EFB6
:1006080003F009EF03F060EF03F0900E455C010E74
:100618004658D8B012EF03F014EF03F060EF03F080
:100628000B0E4B184C10D8A41CEF03F01EEF03F070
:1006380060EF03F01028D8A424EF03F026EF03F0AE
:1006480060EF03F0000184518511D8B42EEF03F058
:1006580030EF03F060EF03F082518311D8A437EF35
:1006680003F039EF03F03FEF03F0000E836F010E44
:10067800826F50EF03F0855109E1020E845DD8A026
:1006880048EF03F04AEF03F050EF03F04906D8A013
:100698004A068407D8A0850747504810D8B457EFB2
:1006A80003F059EF03F05CEF03F04706D8A04806C3
:1006B800000E466E000E456E0C0E1018D8A467EF9B
:1006C80003F069EF03F09AEF03F0000E546E000E8A
:1006D800536E10C04BF04C6A45500E6E46500F6E6C
:1006E800454A462A910E0E5C010E0F58D8A07FEF9E
:1006F80003F081EF03F0FBEF03F0000E4A6E000EEB
:10070800496E000E0001856F010E846F000E836F25
:10071800010E826F000E486E000E476E000E5A6E74
:10072800000E466E000E456E4AEF04F04550461026
:10073800D8B4A1EF03F0A3EF03F0FBEF03F0900EA2
:10074800455C010E4658D8B0ACEF03F0AEEF03F0AD
:10075800FBEF03F00C0E4B184C10D8A4B6EF03F0C7
:10076800B8EF03F0FBEF03F01028D8A4BEEF03F0B6
:10077800C0EF03F0FBEF03F04A5007E1040E495CB9
:10078800D8B0C9EF03F0CBEF03F0FBEF03F00001A3
:1007980082058311D8A4D3EF03F0D5EF03F0DBEF84
:1007A80003F0000E836F000E826FEAEF03F04A50E9
:1007B80007E1030E495CD8B0E4EF03F0E6EF03F07D
:1007C800EAEF03F0494A4A2A844B852B485007E14F
:1007D800040E475CD8B0F3EF03F0F5EF03F0F7EF42
:1007E80003F0474A482A000E466E000E456E050E75
:1007F80053185410D8A403EF04F005EF04F007EFE2
:1008080004F081EF03F0000182058311D8A40FEFF3
:1008180004F011EF04F01DEF04F0800E086E2A0EAC
:10082800DCEC13F0C00E086E200EDCEC13F027EFA2
:1008380004F0800E086E200EDCEC13F0C00E086E7B
:100848002A0EDCEC13F0D8904934D96E4A34DA6EAB
:10085800700ED926000EDA22DECF03F0DDCF04F0C9
:10086800810E056E9CEC11F0D89000018435D96E8C
:100878008535DA6E700ED926000EDA22DECF03F047
:10088800DDCF04F0C10E056E9CEC11F01200C2EC35
:1008980013F0000E3D6E000E3C6EA00E3C24D96E87
:1008A800000E3D20DA6EDF50026E3C50460F1EEC03
:1008B80013F03C4A3D2A3DBE6BEF04F03D5009E180
:1008C800040E3C5CD8A06BEF04F06DEF04F051EF20
:1008D80004F0000E3F6E000E3E6EA00E3E24D96E50
:1008E800000E3F20DA6E3E50460F8FEC13F0DF6E9D
:1008F8003E4A3F2A3FBE8AEF04F03F5009E1040E0A
:100908003E5CD8A08AEF04F08CEF04F071EF04F09D
:10091800000E0001A46F140E1B6EAE0E1C6E230E8B
:100928001D6E410E1E6E040E8FEC12F001C009F010
:1009380002C00AF00B6A0C6A000E78EC0CF009C0D1
:1009480017F00AC018F00BC019F00CC01AF0FCEC34
:1009580007F017C030F018C031F019C032F01AC0D3
:1009680033F05DEC0FF030C0B4F031C0B5F0B4C076
:1009780008F0B5C009F03EEC13F0E8EC10F0860E74
:10098800066E000E076EE0EC0FF0020E5A18D8B48F
:10099800D0EF04F0D2EF04F0E4EF04F0030E5A189D
:1009A800D8B4D9EF04F0DBEF04F0E4EF04F0040E60
:1009B8005A18D8A4E2EF04F0E4EF04F0EAEF04F0E8
:1009C800000E63EC11F0426EEEEF04F0010E63ECE2
:1009D80011F0426E0A0E4218D8A4F5EF04F0F7EFB2
:1009E80004F0C2EF05F05A50D8A4FDEF04F0FFEF71
:1009F80004F0C2EF05F0650E036E2F0E046EC00EF4
:100A0800056E9CEC11F0010E5A6E000E546E000E2D
:100A1800536EC2EF05F0425033EC12F0EFEF05F0E1
:100A28004250C9EC09F0020E5A18D8A41EEF05F07E
:100A380020EF05F0EFEF05F0000E546E000E536E38
:100A4800EFEF05F042505BEC02F0070E5A18D8A4FD
:100A580030EF05F032EF05F03CEF05F0650E036E60
:100A68002F0E046EC00E056E9CEC11F020EF05F001
:100A7800040E5A18D8A443EF05F045EF05F0EFEF40
:100A880005F0760E036E2F0E046E800E056E9CEC3C
:100A980011F0650E036E2F0E046EC00E056E9CECF1
:100AA80011F0000E416E000E406E860E4024D96E85
:100AB800000E4120DA6E970E4024E16E000E4120B0
:100AC800E26EDFCFE7FF404A412A41BE75EF05F0ED
:100AD800415009E1080E405CD8A075EF05F077EFAA
:100AE80005F059EF05F00D0E3B6EAF0E3A6EB60EDF
:100AF800E82EFED73A2EFCD73B2EFAD700D0EFEFE0
:100B080005F0425038EC0BF0020E5A18D8A48FEFBB
:100B180005F091EF05F0EFEF05F020EF05F04250FA
:100B280027EC06F0020E5A18D8A49DEF05F09FEFA7
:100B380005F0EFEF05F020EF05F01BEC0EF0020ECC
:100B48005A18D8A4AAEF05F0ACEF05F0EFEF05F0BE
:100B580020EF05F062EC12F0020E5A6E20EF05F05D
:100B6800425009EC00F0020E5A18D8A4BEEF05F066
:100B7800C0EF05F0EFEF05F020EF05F05A503A6EA0
:100B88003B6A3B50000AD8B4CCEF05F0EFEF05F014
:100B98003A50000AD8B40FEF05F0010AD8B414EFA0
:100BA80005F0030AD8B426EF05F0010AD8B485EF9A
:100BB80005F0070AD8B493EF05F0010AD8B4A1EFFD
:100BC80005F0030AD8B4AEEF05F0010AD8B4B4EFC3
:100BD80005F0EFEF05F0E8EC10F0140E1B6EAE0E0A
:100BE8001C6E230E1D6E410E1E6E040E8FEC12F04D
:100BF80001C009F002C00AF00B6A0C6A000E78EC1A
:100C08000CF009C017F00AC018F00BC019F00CC09E
:100C18001AF0FCEC07F017C030F018C031F019C01A
:100C280032F01AC033F05DEC0FF030C0B4F031C0D0
:100C3800B5F0B4C008F0B5C009F03EEC13F0C9EF48
:100C480004F007EF00F0096E0B0E0918D8A42FEF77
:100C580006F031EF06F096EF06F009C04BF04C6A4B
:100C68004550066E4650076E454A462A910E065C68
:100C7800010E0758D8A043EF06F045EF06F0CAEF7B
:100C880007F0000E466E000E456E020E5A6E000EFC
:100C9800506E000E4F6E000E546E000E536EEE0E28
:100CA800036E2E0E046EC00E056E9CEC11F09DC0F6
:100CB80006F0063AF00E061600019E51D00F0610F7
:100CC800086E08C002F0000EA4EC13F09AC006F0FB
:100CD800063AF00E061600019B51D00F0610086E5A
:100CE80008C002F0010EA4EC13F097C006F0063A13
:100CF800F00E061600019851D00F0610086E08C0B5
:100D080002F0020EA4EC13F01A0E076E5E0E066EC9
:100D18006E0EE82EFED7062EFCD7072EFAD700D087
:100D2800FBEF07F045504610D8B49DEF06F09FEF53
:100D380006F04EEF07F0900E455C010E4658D8B00D
:100D4800A8EF06F0AAEF06F04EEF07F00B0E4B18CF
:100D58004C10D8A4B2EF06F0B4EF06F04EEF07F04F
:100D68000928D8A4BAEF06F0BCEF06F04EEF07F05A
:100D78004F505010D8A4C3EF06F0C5EF06F0EEEFC1
:100D880006F0320E00019719D8B4CDEF06F0CFEF78
:100D980006F0DEEF06F0982B3A0E9819D8A4D7EF94
:100DA80006F0D9EF06F048EF07F0300E986F972B52
:100DB80048EF07F0982B340E9819D8A4E6EF06F000
:100DC800E8EF06F048EF07F0300E976F300E986F97
:100DD80048EF07F0030E4F185010D8A4F6EF06F0AE
:100DE800F8EF06F021EF07F0350E00019A19D8B494
:100DF80000EF07F002EF07F011EF07F09B2B3A0E18
:100E08009B19D8A40AEF07F00CEF07F048EF07F09A
:100E1800300E9B6F9A2B48EF07F09B2B3A0E9B19CD
:100E2800D8A419EF07F01BEF07F048EF07F0300ED2
:100E38009B6F300E9A6F48EF07F0350E00019D1931
:100E4800D8B429EF07F02BEF07F03AEF07F09E2B05
:100E58003A0E9E19D8A433EF07F035EF07F048EFA4
:100E680007F0300E9E6F9D2B48EF07F09E2B3A0E31
:100E78009E19D8A442EF07F044EF07F048EF07F0B7
:100E8800300E9E6F300E9D6F000E466E000E456E42
:100E9800CAEF07F00C0E0918D8A455EF07F057EF62
:100EA80007F08FEF07F009C04BF04C6A4550066E0B
:100EB8004650076E454A462A910E065C010E0758B1
:100EC800D8A069EF07F06BEF07F0CAEF07F0000E44
:100ED800466E000E456E020E5A6E000E506E000EE3
:100EE8004F6E000E546E000E536EFF0E036E2E0EE4
:100EF800046EC00E056E9CEC11F00D0E076EAF0E61
:100F0800066EB60EE82EFED7062EFCD7072EFAD7A9
:100F180000D0FBEF07F045504610D8B496EF07F025
:100F280098EF07F0CAEF07F0900E455C010E46589F
:100F3800D8B0A1EF07F0A3EF07F0CAEF07F00C0E47
:100F48004B184C10D8A4ABEF07F0ADEF07F0CAEF81
:100F580007F00928D8A4B3EF07F0B5EF07F0CAEFF8
:100F680007F0030E4F5E000E505AFD0E4F1806E1B3
:100F78005028D8A4C2EF07F0C4EF07F048EF07F0F5
:100F8800000E506E060E4F6E48EF07F0562A5604B4
:100F9800066E640E0660D3EF07F0D5EF07F0DFEFBB
:100FA80007F0970E036E000E046EC00E056E9CECE3
:100FB80011F0FBEF07F0640E5664E5EF07F0E7EF7A
:100FC80007F0FBEF07F0730E036E2F0E046E4F5001
:100FD800C00F056E9CEC11F0C80E5618D8A4F7EF98
:100FE80007F0F9EF07F0FBEF07F0000E566E12005E
:100FF8001A50800B276E1A501A242E6E19AE07EF5E
:1010080008F009EF08F00AEF08F02E802E50D8B447
:1010180010EF08F012EF08F027EF08F02E28D8A4F8
:1010280018EF08F01AEF08F022EF08F0000E176E1C
:10103800000E186E000E196E000E1A6E198E000E34
:101048001A6E2FEF08F0000E176E000E186E000EC5
:10105800196E000E1A6E1E50800B271A1E501E2481
:101068002F6E1DAE3AEF08F03CEF08F03DEF08F0A8
:101078002F802F50D8B443EF08F045EF08F05AEF0F
:1010880008F02F28D8A44BEF08F04DEF08F055EFE3
:1010980008F0000E1B6E000E1C6E000E1D6E000E7A
:1010A8001E6E1D8E000E1E6E62EF08F0000E1B6E87
:1010B800000E1C6E000E1D6E000E1E6E1B501C10C6
:1010C8001D101E10D8A46BEF08F06DEF08F085EF27
:1010D80008F0000E176E000E186E000E196E000E46
:1010E8001A6E800E19127F0E1A1227501A1217C084
:1010F80017F018C018F019C019F01AC01AF0C8EF84
:1011080009F02E50D8A48BEF08F08DEF08F097EF78
:1011180008F0000E176E000E186E000E196E000E05
:101128001A6EC8EF09F02F502EC01FF0206A1F5EFC
:10113800000E205A7F0E1F24286E000E2020296ED4
:1011480017C023F018C024F019C025F01AC026F0E3
:10115800000E176E000E186E000E196E000E1A6E35
:10116800000E2A6E000E2B6E000E2C6E000E2D6ED9
:10117800000E2F6EF8EF08F02F50D8B4C6EF08F025
:10118800C8EF08F0DFEF08F0D8902336243625366C
:101198002636D8901736183619361A362DAED7EFA8
:1011A80008F0D9EF08F0DAEF08F01780D8902A365F
:1011B8002B362C362D361B50235C1C5024581D50C2
:1011C80025581E502658D8A0ECEF08F0EEEF08F08E
:1011D800F7EF08F02D8C1B50235E1C50245A1D502D
:1011E800255A1E50265A2F2A190E2F64FEEF08F092
:1011F80000EF09F0C0EF08F0235024102510261046
:10120800D8B409EF09F00BEF09F023EF09F02A80B1
:1012180023EF09F0D8901736183619361A362DAE3E
:1012280018EF09F01AEF09F01BEF09F01780D890B2
:101238002A362B362C362D362806D8A0290619AE84
:1012480028EF09F02AEF09F00EEF09F0000E2F6ED3
:101258002DAE31EF09F033EF09F057EF09F0FF0E2B
:101268002A141F6EFF0E2B14206EFF0E2C14216EF5
:101278007F0E2D14226E1F50201021102210D8B47A
:1012880048EF09F04AEF09F04EEF09F0010E2F6E12
:1012980057EF09F017A053EF09F055EF09F057EF92
:1012A80009F04AEF09F02F50D8B45DEF09F05FEF6D
:1012B80009F083EF09F0010E1726000E18221922F3
:1012C8001A221AA06AEF09F06CEF09F083EF09F00F
:1012D80017C01FF018C020F019C021F01AC022F062
:1012E80022342232213220321F321FC017F020C090
:1012F80018F021C019F022C01AF0284A292A29BE5C
:101308008EEF09F0295008E12828D8A08EEF09F0BF
:1013180090EF09F09BEF09F0000E296E2868000E87
:10132800176E000E186E000E196E000E1A6E29BE8A
:10133800A8EF09F0295006E12804D8B0A6EF09F073
:10134800A8EF09F0B6EF09F0000E296E000E286E1E
:10135800000E176E000E186E000E196E000E1A6E33
:10136800000E276E28C02EF02EA0BDEF09F0BFEFAB
:1013780009F0C2EF09F0198EC3EF09F0199ED89051
:101388002E301A6E79EF08F012000C6EDD0E036E27
:101398002E0E046E800E056E9CEC11F00B0E0C18D0
:1013A800D8A4D9EF09F0DBEF09F0F1EF09F0CC0E82
:1013B8004F24D96E000E5020DA6E310EDF6E4F507A
:1013C800C30F086E2A0EDCEC13F0000E546E000EEC
:1013D800536E4F4A502A0AEF0AF00C0E0C18D8A484
:1013E800F8EF09F0FAEF09F00AEF0AF0CC0E4F24F3
:1013F800D96E000E5020DA6E300EDF6E4F50C30FDC
:10140800086E2A0EDCEC13F0E9EF09F0050E53180C
:101418005410D8A412EF0AF014EF0AF01EEF0AF0E5
:10142800000E5A6E000E506E000E4F6E330E5C6E3C
:1014380037EF0BF04D500A6E4E500B6E4D4A4E2A48
:10144800200E0A5C030E0B58D8B02DEF0AF02FEFD0
:101458000AF037EF0AF04F50C30F086E5F0EDCEC4E
:1014680013F058EF0AF0210E4D5C030E4E58D8A029
:1014780040EF0AF042EF0AF058EF0AF04F50C30F5E
:10148800086E200EDCEC13F0400E4D1807E1060E36
:101498004E18D8A452EF0AF054EF0AF058EF0AF0A9
:1014A800000E4E6E000E4D6E040E4F185010D8A44C
:1014B80060EF0AF062EF0AF037EF0BF0080E0B6EE0
:1014C8009D0E0A6E060EE82EFED70A2EFCD70B2EAE
:1014D800FAD75C06000E506E000E4F6EA00E016E1D
:1014E800000E026ECC0E036E000E046E99EC10F026
:1014F80001500210D8B483EF0AF085EF0AF0BCEF70
:101508000AF00D0E0B6EAF0E0A6EB60EE82EFED761
:101518000A2EFCD70B2EFAD700D0A70E036E2F0E7B
:10152800046E800E056E9CEC11F0C00E086E5C50C7
:10153800DCEC13F0B70E036E2F0E046EC10E056EB1
:101548009CEC11F00D0E0B6EAF0E0A6EB60EE82E67
:10155800FED70A2EFCD70B2EFAD700D0650E036EE5
:101568002F0E046EC00E056E9CEC11F0E2EF0AF02F
:10157800000E506E000E4F6E330E5C6E540E036EEE
:101588002F0E046E800E056E9CEC11F0660E036E35
:101598002E0E046EC00E056E9CEC11F0120E0B6E32
:1015A800C20E0A6E660EE82EFED70A2EFCD70B2E48
:1015B800FAD700D0020E5A6E37EF0BF0300E5C18D7
:1015C800D8A4E9EF0AF0EBEF0AF037EF0BF0990E29
:1015D800036E2E0E046E800E056E9CEC11F0210E2B
:1015E800036E2F0E046EC00E056E9CEC11F0000EFB
:1015F800546E000E536E29EF0BF0CA0E086E53504E
:101608003B08016E5450D8A0E82A0008026E000E6C
:10161800046E0A0E036E29EC11F00150300FDCEC59
:1016280013F0CB0E086E53503B08016E5450D8A0EF
:10163800E82A0008026E000E046E0A0E036ED2EC51
:1016480011F00150300FDCEC13F03C0E531854101D
:10165800D8A431EF0BF033EF0BF001EF0BF0000ED5
:101668005A6E330E5C6E12000E6ED10E036E2F0E84
:10167800046E800E056E9CEC11F0890E086EACC0ED
:1016880001F0ADC002F058C003F0046AD2EC11F0CA
:101698000150300FDCEC13F0C70E036E2F0E046EF2
:1016A8008A0E056E9CEC11F08E0E086E4350300FBA
:1016B800DCEC13F00B0E0E18D8A465EF0BF067EFF7
:1016C8000BF06EEF0BF00EC04BF04C6A454A462A01
:1016D80036EF0CF045504610D8B475EF0BF077EFA5
:1016E8000BF0BFEF0BF0900E455C010E4658D8B0DA
:1016F80080EF0BF082EF0BF0BFEF0BF00B0E4B18E7
:101708004C10D8A48AEF0BF08CEF0BF0BFEF0BF066
:101718000E28D8A492EF0BF094EF0BF0BFEF0BF06C
:101728000001AC07D8A0AD074306D8A0440643285B
:1017380006E14428D8A4A3EF0BF0A5EF0BF0ABEF1C
:101748000BF0FF0E5824436E446AFF0E4422AC2966
:1017580006E1AD29D8A4B3EF0BF0B5EF0BF0B9EF64
:101768000BF0000EAD6F090EAC6F000E466E000E4A
:10177800456E36EF0CF00C0E0E18D8A4C6EF0BF021
:10178800C8EF0BF0EDEF0BF00EC04BF04C6A455074
:101798000A6E46500B6E454A462A2D0E0A5C010E0B
:1017A8000B58D8A0DAEF0BF0DCEF0BF036EF0CF0AB
:1017B800000E466E000E456E020E5A6E000E0001B7
:1017C800AD6F000EAC6F000E546E000E536E77EFC7
:1017D8000CF045504610D8B4F4EF0BF0F6EF0BF0D0
:1017E800B9EF0BF02C0E455C010E4658D8B0FFEF50
:1017F8000BF001EF0CF0B9EF0BF00C0E4B184C107E
:10180800D8A409EF0CF00BEF0CF0B9EF0BF00E2891
:10181800D8A411EF0CF013EF0CF0B9EF0BF00001A6
:10182800AC4BAD2B434A442A0A0E43184410D8A4A3
:1018380020EF0CF022EF0CF026EF0CF0000E446EB7
:10184800000E436E0A0EAC19AD11D8A42EEF0CF0A1
:1018580030EF0CF0B9EF0BF0000EAD6F000EAC6F6F
:10186800B9EF0BF043C001F044C002F058C003F0D8
:10187800046AD2EC11F0013A023AF00E0216015055
:101888000F0B0212F00E011601C0AAF002C0ABF055
:10189800000E0D6E000E0C6EB60E0C24D96E000EE6
:1018A8000D20DA6E0C500001AA258FEC13F0DF6EC4
:1018B8000C4A0D2A0DBE6AEF0CF00D5009E1100E0E
:1018C8000C5CD8A06AEF0CF06CEF0CF050EF0CF049
:1018D800000E0001C66FB60E036E000E046EC00E39
:1018E800056E9CEC11F01200116E1150D8B47FEF08
:1018F8000CF081EF0CF0A3EF0CF00CBE88EF0CF0AD
:1019080086EF0CF0A3EF0CF009C00DF00AC00EF042
:101918000BC00FF00CC010F00D1E0E1E0F1E101E77
:101928000D2A000E0E220F2210220DC013F00EC039
:1019380014F00FC015F010C016F0ABEF0CF009C092
:1019480013F00AC014F00BC015F00CC016F00950C3
:101958000A100B100C10D8A4B4EF0CF0B6EF0CF072
:10196800C0EF0CF0000E096E000E0A6E000E0B6E32
:10197800000E0C6E51EF0DF0960E126ECAEF0CF0C1
:10198800122AD8901632153214321332000E13145C
:101998000D6E000E14140E6E000E15140F6EFE0E52
:1019A8001614106E0D500E100F101010D8A4DFEF83
:1019B8000CF0E1EF0CF0C4EF0CF0EFEF0CF0122A92
:1019C800010E1326000E142215221622D890163264
:1019D800153214321332000E13140D6E000E141447
:1019E8000E6E000E15140F6EFF0E1614106E0D50AD
:1019F8000E100F101010D8A404EF0DF006EF0DF024
:101A0800E3EF0CF00EEF0DF01206D89013361436F3
:101A18001536163615BE13EF0DF015EF0DF01DEF48
:101A28000DF0020E12601BEF0DF01DEF0DF008EF28
:101A38000DF012B022EF0DF024EF0DF025EF0DF0B0
:101A4800159ED890123212C00DF00E6A0F6A106AF5
:101A58000DC010F00F6A0E6A0D6A0D5013120E5069
:101A680014120F501512105016121150D8B43FEF1F
:101A78000DF041EF0DF049EF0DF00CBE48EF0DF001
:101A880046EF0DF049EF0DF0168E13C009F014C0A3
:101A98000AF015C00BF016C00CF01200106E1004FE
:101AA800D8A459EF0DF05BEF0DF06CEF0DF04B047F
:101AB8004C10D8B462EF0DF064EF0DF06CEF0DF040
:101AC800010E576E000E526E070E516EDFEF0DF0CD
:101AD800020E1018D8B473EF0DF075EF0DF07EEF0D
:101AE8000DF0030E1018D8A47CEF0DF07EEF0DF06A
:101AF800DFEF0DF0070E51185210D8A486EF0DF045
:101B080088EF0DF0A1EF0DF0020E1018D8A48FEF9A
:101B18000DF091EF0DF0A1EF0DF0020E4B184C10E7
:101B2800D8B499EF0DF09BEF0DF0A1EF0DF0010E79
:101B3800576E000E526E000E516E020E1018D8A489
:101B4800A8EF0DF0AAEF0DF0BBEF0DF0525007E132
:101B5800060E515CD8B0B3EF0DF0B5EF0DF0BBEF4A
:101B68000DF0514A522A010E576EDFEF0DF0030EA9
:101B78001018D8A4C2EF0DF0C4EF0DF0DFEF0DF090
:101B8800525009E1020E515CD8A0CDEF0DF0CFEF15
:101B98000DF0DFEF0DF0525007E1070E515CD8B0A1
:101BA800D8EF0DF0DAEF0DF0DFEF0DF05106D8A009
:101BB8005206B7EF0DF05704D8A4E5EF0DF0E7EFA4
:101BC8000DF017EF0EF0000E576ED8905134D96E05
:101BD8005234DA6E600ED926000EDA22DECFF6FF16
:101BE800DDCFF7FF0800F5CF90F0D8905134D96ECB
:101BF8005234DA6E600ED926000EDA22DECF0EF0ED
:101C0800DDCF0FF0010E0E26000E0F220EC0F6FFDC
:101C18000FC0F7FF0800F5CF91F0860E066E000E94
:101C2800076EE0EC0FF010C04BF04C6A1200100E7B
:101C3800036E2E0E046E800E056E9CEC11F0870E5E
:101C4800036E2F0E046EC00E056E9CEC11F0CE0EC6
:101C5800086E4350300FDCEC13F0660E0B6E760EF8
:101C68000A6EC10EE82EFED70A2EFCD70B2EFAD725
:101C780000F0D90E036E2D0E046EC00E056E9CEC9E
:101C880011F0330E0B6EBB0E0A6EE00EE82EFED777
:101C98000A2EFCD70B2EFAD7000E0E6E000E0D6E14
:101CA800B5EF0EF043C001F044C002F058C003F095
:101CB800046AD2EC11F0013A023AF00E0216015011
:101CC8000F0B0212F00E011601C0AAF002C0ABF011
:101CD800000E106E000E0F6EB60E0F24D96E000E99
:101CE8001020DA6E0F500001AA258FEC13F0DF6E7A
:101CF8000F4A102A10BE8AEF0EF0105009E1100E9C
:101D08000F5CD8A08AEF0EF08CEF0EF070EF0EF09B
:101D1800000E0001C66FB60E036E000E046EC00EF4
:101D2800056E9CEC11F04D0E0B6E190E0A6E500EDE
:101D3800E82EFED70A2EFCD70B2EFAD7434A442AA0
:101D4800445009E10A0E435CD8A0ADEF0EF0AFEFA6
:101D58000EF0B3EF0EF0000E446E000E436E0D4A07
:101D68000E2A58500A6E0B6A0A500D5C0E50800AF3
:101D78000C6E0B50800A0C58D8A0C5EF0EF0C7EFB8
:101D88000EF056EF0EF0330E0B6EBB0E0A6EE00E21
:101D9800E82EFED70A2EFCD70B2EFAD7020E5A6E63
:101DA800000E466E000E456E1200819A818C818E5F
:101DB80081B2E1EF0EF0E3EF0EF0E6EF0EF0010E68
:101DC8005CEF0FF081B4EBEF0EF0EDEF0EF0F0EFFB
:101DD8000EF0040E5CEF0FF081B6F5EF0EF0F7EFA2
:101DE8000EF0FAEF0EF0070E5CEF0FF081B8FFEF80
:101DF8000EF001EF0FF004EF0FF00A0E5CEF0FF09A
:101E0800818A819C818E81B20CEF0FF00EEF0FF06A
:101E180011EF0FF0020E5CEF0FF081B416EF0FF028
:101E280018EF0FF01BEF0FF0050E5CEF0FF081B607
:101E380020EF0FF022EF0FF025EF0FF0080E5CEF08
:101E48000FF081B82AEF0FF02CEF0FF02FEF0FF003
:101E58000B0E5CEF0FF0818A818C819E819E81B28E
:101E680038EF0FF03AEF0FF03DEF0FF0030E5CEF95
:101E78000FF081B442EF0FF044EF0FF047EF0FF08F
:101E8800060E5CEF0FF081B64CEF0FF04EEF0FF03F
:101E980051EF0FF0090E5CEF0FF081B856EF0FF01D
:101EA80058EF0FF05BEF0FF00C0E5CEF0FF0FF0E2A
:101EB800120032343334396E3950D8A466EF0FF03B
:101EC80068EF0FF072EF0FF0000E306E000E316EFB
:101ED800000E326E000E336EDFEF0FF030C034F0BC
:101EE80031C035F032C036F033C037F0200E82EF03
:101EF8000FF0D8903732363235323432E82E7DEF53
:101F08000FF03450386E328EFF0E3016FF0E311639
:101F1800FF0E3216000E3316960E395E39BE99EF53
:101F28000FF097EF0FF0AFEF0FF03950800A970FCF
:101F3800D8B0A1EF0FF0A3EF0FF0A5EF0FF068EF07
:101F48000FF0D8903332323231323032393EA5EF89
:101F58000FF0C7EF0FF01F0E3964B5EF0FF0B7EFB2
:101F68000FF0BFEF0FF068EF0FF0D8903036313632
:101F78003236333639063950D8A4C5EF0FF0C7EFDB
:101F88000FF0B9EF0FF03850D8B4CDEF0FF0CFEF16
:101F98000FF0D7EF0FF0331E321E311E306C000EDB
:101FA80031223222332230C030F031C031F032C019
:101FB80032F033C033F01200B2C008F0B3C009F0F9
:101FC800083A093AF00E091608500F0B0912F00EDC
:101FD800081608C00AF009C00BF0000E0D6E000EBE
:101FE8000C6E0C500624D96E0D500720DA6EDF50A7
:101FF800026E0A500C241EEC13F00C4A0D2A0DBE7A
:102008000FEF10F00D5009E1100E0C5CD8A00FEF87
:1020180010F011EF10F0F5EF0FF00001B24BB32BF9
:102028000A0E58601AEF10F01CEF10F01FEF10F0B6
:10203800582A32EF10F0AF5107E1090EAE5DD8B063
:1020480028EF10F02AEF10F02EEF10F0AE4BAF2B68
:1020580032EF10F0000EAF6F000EAE6F0A0EB2191D
:10206800B311D8A43AEF10F03CEF10F040EF10F0A5
:10207800000EB36F000EB26F1200000E956E9450F2
:10208800F80B946E8290020E046E040E036EBA0E64
:10209800E82EFED7032EFCD7042EFAD700D0000E68
:1020A800016E330E5DEC13F01B0E036E9E0EE82ED0
:1020B800FED7032EFCD700D0000E016E330E5DEC68
:1020C80013F0A60EE82EFED700D0000E016E330ED8
:1020D8005DEC13F000D000D000F0000E016E020E8F
:1020E8005DEC13F0A60EE82EFED700D0000E016EB0
:1020F800380E5DEC13F0A60EE82EFED700D0000EC9
:10210800016E010E5DEC13F0040E036E3E0EE82E18
:10211800FED7032EFCD7000E016E0C0E5DEC13F0FB
:10212800A60EE82EFED700D01200000E096E000E93
:10213800086ED7EF10F008500124D96E095002201C
:10214800DA6EDF50056E066A08500324D96E09500E
:102158000420DA6EDF50076E0750055E000E065A3F
:1021680005500610D8B4BBEF10F0BDEF10F0D5EF56
:1021780010F008500124D96E09500220DA6EDF50A1
:10218800056E08500324D96E09500420DA6EDF501A
:10219800066E0650055C016E026AD8A00206E7EFDB
:1021A80010F0084A092A08500124D96E0950022063
:1021B800DA6EDF50D8A4E3EF10F0E5EF10F09FEFF0
:1021C80010F0BDEF10F01200020E7AEC13F00001CF
:1021D800A56F010E7AEC13F00001A66F000E7AECE1
:1021E80013F00001A76FA5ADFCEF10F0FEEF10F0A3
:1021F80009EF11F0A5390F0B010B300F866FA551B0
:102208000F0B300F876F12EF11F0A5390F0B030B6F
:10221800300F866FA5510F0B300F876F3A0E886FFE
:10222800A6390F0B0F0B300F896FA6510F0B300F0C
:102238008A6F3A0E8B6FA7390F0B0F0B300F8C6F0D
:10224800A7510F0B300F8D6F1200000E066E000E97
:10225800056E03500410D8B434EF11F036EF11F0C6
:102268005EEF11F0010E076E3EEF11F0D8900336C5
:102278000436072A04AE43EF11F045EF11F03AEFA8
:1022880011F0D890053606360350015C0450025808
:10229800D8A051EF11F053EF11F058EF11F003509F
:1022A800015E0450025A0580D89004320332072E8A
:1022B80045EF11F005C001F006C002F01200016EF2
:1022C8000150D8A46AEF11F06CEF11F070EF11F023
:1022D800D9EC0EF09BEF11F00104D8A476EF11F0C1
:1022E80078EF11F09BEF11F0D9EC0EF0026E022896
:1022F800D8B481EF11F083EF11F090EF11F05B503B
:10230800D8B489EF11F08BEF11F090EF11F0000EB7
:102318005B6E02509BEF11F00228D8A496EF11F0E3
:1023280098EF11F09AEF11F0010E5B6EFF0E12009C
:10233800000E016E05505DEC13F0B9EF11F0010EBF
:10234800016E03C0F6FF04C0F7FFF86A050EF764D4
:1023580003D00800F55005D0F6CFE1FFF7CFE2FF34
:10236800E7505DEC13F0034A042A03C0F6FF04C0EB
:10237800F7FFF86A050EF76403D00800F55005D09A
:10238800F6CFE1FFF7CFE2FFE7500009D8A4CFEF7F
:1023980011F0D1EF11F0A3EF11F012000350041067
:1023A800D8B4D9EF11F0DBEF11F0FFEF11F0010E07
:1023B800056EE3EF11F0D89003360436052A04AE13
:1023C800E8EF11F0EAEF11F0DFEF11F00350015CD4
:1023D80004500258D8A0F3EF11F0F5EF11F0F9EF1F
:1023E80011F00350015E0450025AD89004320332AF
:1023F800052EEAEF11F001C001F002C002F0120050
:10240800F60EF66E250EF76E000EF86E00EE60F012
:1024180010EE45F00900F5CFEEFFE550E150FAE186
:102428003E0EF66E280EF76E000EF86E0900F5CF18
:102438005BF00900F5CF5CF000EEA5F02C0EEE6A1B
:10244800E806FDE100EE43F0180EEE6AE806FDE14D
:102458005D905D92000EF86E00014BEF04F0116E76
:10246800100E036E2F0E046E800E056E9CEC11F09C
:102478001104D8B442EF12F044EF12F056EF12F004
:10248800020E1118D8B44BEF12F04DEF12F056EFC0
:1024980012F0030E1118D8A454EF12F056EF12F0F0
:1024A80059EF12F0115052EC0DF0860E036E000E2B
:1024B800046EC00E056E9CEC11F01200FE0E036E49
:1024C8002D0E046E800E056E9CEC11F0AA0E036EA4
:1024D8002E0E046EC00E056E9CEC11F0000E00016D
:1024E800B36F000EB26F000E446E000E436E000E06
:1024F800586E860E066E000E076EE0EC0FF07F0E2B
:102508000F6ED40E0E6E320EE82EFED70E2EFCD7AE
:102518000F2EFAD71200086E08C003F0D8900336C1
:10252800D8900336C250C30B0310C26EC282C2B227
:10253800A0EF12F0A2EF12F09BEF12F0C4CF03F05D
:10254800030E03160350056E046AC350066E076A2D
:1025580004500610016E05500710026E1200000E9E
:102568007AEC13F0046E04508009026E000EA4EC9D
:1025780013F0020E7AEC13F0046E0450BF0B026ED7
:10258800020EA4EC13F0930E026E070EA4EC13F0E7
:10259800000E7AEC13F0046E04507F0B026E000EEE
:1025A800A4EC13F012000600DE0ED624D66E0B0E35
:1025B800D720D76EF2A4E3EF12F0E5EF12F0F9EFAF
:1025C80012F00001A84BA92B510EA819A911D8A4E3
:1025D800F0EF12F0F2EF12F0F8EF12F0000EA96F20
:1025E800000EA86F534A542AF2945D921100F32FFB
:1025F800F02FDE2FE12FE42FE72FF92FDB2F332EDB
:10260800222E772E442E972FFC2FED2FEA2FF62F10
:1026180001000100202020202020202020204F4ED3
:10262800202020202030303A30303A30300031310C
:032638003030003F
:10263C00056E18EC14F0A00E02EC14F0055002EC30
:10264C0014F0025002EC14F014EC14F00B0E046EA7
:10265C00B80E036E0306D8A00406032806E104286E
:10266C00D8A43BEF13F03DEF13F030EF13F0120052
:10267C0008C001F009C002F0000E046E0A0E036ED1
:10268C0029EC11F00150300F0001946F08C001F0DB
:10269C0009C002F0000E046E0A0E036ED2EC11F0AB
:1026AC000150300F0001956F000E966F1200026EF4
:1026BC0001B063EF13F066EF13F0828267EF13F053
:1026CC00829202C083FF82848294958E8280829251
:1026DC008284829483BE75EF13F077EF13F06EEF64
:1026EC0013F08290959E1200026E18EC14F0D00E2E
:1026FC0002EC14F0025002EC14F00CEC14F0D10EBD
:10270C0002EC14F0FCEC13F0036E14EC14F0035018
:10271C001200026E18EC14F0A00E02EC14F0025031
:10272C0002EC14F00CEC14F0A10E02EC14F0FCEC26
:10273C0013F0036E14EC14F003501200036E18EC3B
:10274C0014F0D00E02EC14F0035002EC14F0025012
:10275C0002EC14F014EC14F01200C280C19AC1986F
:10276C00C186C194C182C190C08AC098C096C094E1
:10277C00C082C090C08E120008EC14F041EC10F036
:10278C00B3EC13F0CFEC13F0E8EC13F0B3EC12F065
:10279C001200F28EF28CF28AF2940B0ED76EDC0ED3
:1027AC00D66ED58ED59CD59AD5861200096E000EA4
:1027BC00016E08505DEC13F0010E016E09505DECDA
:1027CC0013F0120094869488280EC66E310EC86ED3
:1027DC00C79CC78E9E96A19612009EA6F8EF13F08A
:1027EC00FAEF13F0F3EF13F09E96120010EC14F0C6
:1027FC001CEC14F0C9501200016E01C0C9FFF3ECBF
:10280C0013F012001E0E936EF19E1200C582F3ECB3
:10281C0013F01200C586F3EC13F01200C584F3EC30
:10282C0013F01200C580F3EC13F01200C58AC588B2
:04283C001200013352
:102DD800002320202054696D65202020204556209E
:102DE800205350002020204E6F74204D617463687A
:102DF8006564202020002020204C6F6720436C65EC
:102E08006172656420202000446F776E6C6F616486
:102E18005F6C6F67203A2D20200053657420546939
:102E28006D6520202020202020200056696577200D
:102E38004C6F67202020202020202000436C6561F3
:102E480072206C6F67202020202020200020202066
:102E58002050617373776F72642020202000202037
:102E6800204D656E75205061676520202020004444
:102E78006F776E6C6F6164204C6F67202020200094
:102E880020204E65772050617373776F726420201D
:102E9800002020417474656D7074204F766572202F
:102EA800200020205375636365737366756C6C79B5
:102EB8002020002057726F6E672050617373776F00
:102EC8007264200020456E746572205061737377B8
:102ED8006F7264200020456E746572207061737390
:102EE800776F726420005570646174696E6720544E
:102EF800696D652E2E2E0054696D65204E6F742005
:102F08005570646174652E00202054494D45202079
:102F180020204556202053500020576169742046D0
:102F28006F72202020205365630050617373776FA0
:102F38007264206368616E67656400436F6E6669DA
:102F4800726D2050617373776F726400436F727291
:102F58006563742050617373776F7264002020205A
:102F68002020202020202020202020202000202079
:102F78005365742054696D6520202020202000446A
:102F88006F776E6C6F6164696E672E2E2E2000520B
:102F9800657365742050617373776F7264200020C5
:102FA80057726F6E672050617373776F7264002D6C
:102FB800417474656D70742052656D61696E005D51
:102FC8002020202020202020004C6F67733A2D2DD0
:102FD8003E5B00432000473100473200473300473B
:102FE8003400434C00444C00474E004F4E004350C1
:082FF800004752005354000091
:020000040020DA
:08000000FFFFFFFFFFFFFFFF00
:020000040030CA
:0E000000FF071F1FFF8285FF0FC00FE00F409C
:00000001FF
