:020000040000FA
:0400000007EF00F016
:100008004F8291ED08F040EF08F0000E4E6E000EA2
:100018004D6E330E2C6E000E346E000E336E000ED5
:100028002E6E000E2D6E000E2A6E000E296EE20E48
:10003800276E2F0E286E000E246EF90E036E2E0EFC
:10004800046EC00E056EB4EC08F029502A10D8A42E
:1000580030EF00F032EF00F0D6EF01F0010ED5ECF2
:1000680007F02B6E0B0E2B18D8A43DEF00F03FEFD6
:1000780000F04FEF00F0200E3324D96E000E34202C
:10008800DA6E310EDF6E000E4E6E000E4D6E334A84
:10009800342A62EF00F00C0E2B18D8A456EF00F0AB
:1000A80058EF00F062EF00F0200E3324D96E000EF6
:1000B8003420DA6E300EDF6E47EF00F0050E4D1873
:1000C8004E10D8A46AEF00F06CEF00F06EEF00F06D
:1000D800F5EF01F0000E326E000E316E7CEF00F08D
:1000E8003150C30F086E2A0E48EC09F0314A322A03
:1000F8003350315C34503258D8A085EF00F087EF88
:1001080000F074EF00F02D501D6E2E501E6E2D4A1B
:100118002E2A200E1D5C030E1E58D8B096EF00F054
:1001280098EF00F0A0EF00F03150C30F086E5F0E9B
:1001380048EC09F0C1EF00F0210E2D5C030E2E589B
:10014800D8A0A9EF00F0ABEF00F0C1EF00F03150FC
:10015800C30F086E200E48EC09F0400E2D1807E179
:10016800060E2E18D8A4BBEF00F0BDEF00F0C1EFCB
:1001780000F0000E2E6E000E2D6E6F0E036E2F0E09
:10018800046E800E056EB4EC08F0040E33183410BB
:10019800D8A4D1EF00F0D3EF00F029EF00F0080E5B
:1001A8001E6E9D0E1D6E060EE82EFED71D2EFCD768
:1001B8001E2EFAD72C06000E306E000E2F6E000E83
:1001C800266E000E256E44EF01F0200E2F24D96E06
:1001D800000E3020DA6E2F5027241E6E3050282053
:1001E8001F6E1EC0F6FF1FC0F7FFDE500900F5188E
:1001F800D8B401EF01F003EF01F042EF01F0000E77
:10020800346E000E336E000E266E010E256E0D0E36
:100218001E6EAF0E1D6EB60EE82EFED71D2EFCD735
:100228001E2EFAD700D05F0E036E2F0E046E800EBE
:10023800056EB4EC08F0C00E086E2C5048EC09F0BE
:100248007F0E036E2F0E046EC10E056EB4EC08F01F
:100258000D0E1E6EAF0E1D6EB60EE82EFED71D2EAD
:10026800FCD71E2EFAD700D0F90E036E2E0E046EA0
:10027800C00E056EB4EC08F058EF01F02F4A302A92
:100288002F5027241D6E305028201E6E1DC0F6FFEB
:100298001EC0F7FF0800F5500009D8A456EF01F07A
:1002A80058EF01F0E9EF00F025502610D8A45FEFD1
:1002B80001F061EF01F083EF01F0000E2A6E010EEC
:1002C800296E0D0E1E6EAF0E1D6EB60EE82EFED7F1
:1002D8001D2EFCD71E2EFAD700D04E0E036E2F0E01
:1002E800046E800E056EB4EC08F00A0E036E2F0E35
:1002F800046EC00E056EB4EC08F029EF00F0300E65
:100308002C18D8A48AEF01F08CEF01F0F3EF01F07C
:100318001B0E036E2F0E046E800E056EB4EC08F0F3
:100328003D0E036E2F0E046EC00E056EB4EC08F081
:10033800000E4E6E000E4D6ECAEF01F0CA0E086E2A
:100348004D503B08016E4E50D8A0E82A0008026EB6
:10035800000E046E0A0E036E9BEC07F00150300F7E
:1003680048EC09F0CB0E086E4D503B08016E4E501C
:10037800D8A0E82A0008026E000E046E0A0E036E6A
:100388000EEC08F00150300F48EC09F03C0E4D1807
:100398004E10D8A4D2EF01F0D4EF01F0A2EF01F093
:1003A800F5EF01F029042A10D8A4DDEF01F0DFEF02
:1003B80001F029EF00F0F90E036E2E0E046E800E88
:1003C800056EB4EC08F0F90E036E2E0E046EC00E26
:1003D800056EB4EC08F09DEC04F0F5EF01F029EFA0
:1003E80000F012001A50800B276E1A501A242E6E35
:1003F80019AE01EF02F003EF02F004EF02F02E80D5
:100408002E50D8B40AEF02F00CEF02F021EF02F000
:100418002E28D8A412EF02F014EF02F01CEF02F01D
:10042800000E176E000E186E000E196E000E1A6E72
:10043800198E000E1A6E29EF02F0000E176E000ECC
:10044800186E000E196E000E1A6E1E50800B271AB9
:100458001E501E242F6E1DAE34EF02F036EF02F050
:1004680037EF02F02F802F50D8B43DEF02F03FEF66
:1004780002F054EF02F02F28D8A445EF02F047EF1E
:1004880002F04FEF02F0000E1B6E000E1C6E000E05
:100498001D6E000E1E6E1D8E000E1E6E5CEF02F0AD
:1004A800000E1B6E000E1C6E000E1D6E000E1E6EE2
:1004B8001B501C101D101E10D8A465EF02F067EF2A
:1004C80002F07FEF02F0000E176E000E186E000E9D
:1004D800196E000E1A6E800E19127F0E1A1227500E
:1004E8001A1217C017F018C018F019C019F01AC05E
:1004F8001AF0C2EF03F02E50D8A485EF02F087EF70
:1005080002F091EF02F0000E176E000E186E000E4A
:10051800196E000E1A6EC2EF03F02F502EC01FF096
:10052800206A1F5E000E205A7F0E1F24286E000EC0
:100538002020296E17C023F018C024F019C025F018
:100548001AC026F0000E176E000E186E000E196EF7
:10055800000E1A6E000E2A6E000E2B6E000E2C6E08
:10056800000E2D6E000E2F6EF2EF02F02F50D8B451
:10057800C0EF02F0C2EF02F0D9EF02F0D8902336B4
:10058800243625362636D8901736183619361A36B0
:100598002DAED1EF02F0D3EF02F0D4EF02F01780C6
:1005A800D8902A362B362C362D361B50235C1C50FF
:1005B80024581D5025581E502658D8A0E6EF02F0A2
:1005C800E8EF02F0F1EF02F02D8C1B50235E1C5077
:1005D800245A1D50255A1E50265A2F2A190E2F64A8
:1005E800F8EF02F0FAEF02F0BAEF02F0235024100D
:1005F80025102610D8B403EF03F005EF03F01DEF24
:1006080003F02A801DEF03F0D890173618361936F4
:100618001A362DAE12EF03F014EF03F015EF03F0C6
:100628001780D8902A362B362C362D362806D8A097
:10063800290619AE22EF03F024EF03F008EF03F0C8
:10064800000E2F6E2DAE2BEF03F02DEF03F051EFC0
:1006580003F0FF0E2A141F6EFF0E2B14206EFF0EE0
:100668002C14216E7F0E2D14226E1F502010211085
:100678002210D8B442EF03F044EF03F048EF03F040
:10068800010E2F6E51EF03F017A04DEF03F04FEF5F
:1006980003F051EF03F044EF03F02F50D8B457EFB5
:1006A80003F059EF03F07DEF03F0010E1726000E5B
:1006B800182219221A221AA064EF03F066EF03F039
:1006C8007DEF03F017C01FF018C020F019C021F00B
:1006D8001AC022F022342232213220321F321FC0A7
:1006E80017F020C018F021C019F022C01AF0284ACB
:1006F800292A29BE88EF03F0295008E12828D8A024
:1007080088EF03F08AEF03F095EF03F0000E296EEF
:100718002868000E176E000E186E000E196E000E77
:100728001A6E29BEA2EF03F0295006E12804D8B0BA
:10073800A0EF03F0A2EF03F0B0EF03F0000E296E74
:10074800000E286E000E176E000E186E000E196E41
:10075800000E1A6E000E276E28C02EF02EA0B7EFDE
:1007680003F0B9EF03F0BCEF03F0198EBDEF03F00F
:10077800199ED8902E301A6E73EF02F01200116E87
:100788001150D8B4CAEF03F0CCEF03F0EEEF03F04A
:100798000CBED3EF03F0D1EF03F0EEEF03F009C086
:1007A8000DF00AC00EF00BC00FF00CC010F00D1EBB
:1007B8000E1E0F1E101E0D2A000E0E220F221022D2
:1007C8000DC013F00EC014F00FC015F010C016F0D5
:1007D800F6EF03F009C013F00AC014F00BC015F0CF
:1007E8000CC016F009500A100B100C10D8A4FFEF1B
:1007F80003F001EF04F00BEF04F0000E096E000E99
:100808000A6E000E0B6E000E0C6E9CEF04F0960E36
:10081800126E15EF04F0122AD890163215321432DF
:100828001332000E13140D6E000E14140E6E000E0B
:1008380015140F6EFE0E1614106E0D500E100F10BC
:100848001010D8A42AEF04F02CEF04F00FEF04F0F6
:100858003AEF04F0122A010E1326000E1422152274
:100868001622D8901632153214321332000E131491
:100878000D6E000E14140E6E000E15140F6EFF0E82
:100888001614106E0D500E100F101010D8A44FEF44
:1008980004F051EF04F02EEF04F059EF04F01206C3
:1008A800D890133614361536163615BE5EEF04F09A
:1008B80060EF04F068EF04F0020E126066EF04F0D7
:1008C80068EF04F053EF04F012B06DEF04F06FEF2F
:1008D80004F070EF04F0159ED890123212C00DF09B
:1008E8000E6A0F6A106A0DC010F00F6A0E6A0D6A60
:1008F8000D5013120E5014120F50151210501612DC
:100908001150D8B48AEF04F08CEF04F094EF04F09F
:100918000CBE93EF04F091EF04F094EF04F0168E00
:1009280013C009F014C00AF015C00BF016C00CF083
:10093800120020EE3CF010EE0BF0090EDBCFE3FFC7
:10094800E806FCE2000E1A6E000E196E000E1C6E10
:10095800010E1B6E000E186E010E176E0BC003F011
:100968000CC004F0810E056EB4EC08F00DC003F065
:100978000EC004F0C10E056EB4EC08F0010ED5EC03
:1009880007F00A6E0A50156E166A0C0E1518161026
:10099800D8A4D1EF04F0D3EF04F0FEEF04F01A501E
:1009A80007E1040E195CD8B0DCEF04F0DEEF04F0C8
:1009B800FEEF04F017041810D8A4E5EF04F0E7EFF1
:1009C80004F0EDEF04F0000E186E000E176E31EF14
:1009D80005F01A5007E1030E195CD8B0F6EF04F0E1
:1009E800F8EF04F031EF05F0194A1A2A1B4A1C2ABD
:1009F80031EF05F00B0E15181610D8A406EF05F008
:100A080008EF05F031EF05F01B501C10D8B40FEFBC
:100A180005F011EF05F031EF05F017501810D8A4C4
:100A280018EF05F01AEF05F020EF05F0000E186E2C
:100A3800010E176E31EF05F01C5009E1020E1B5C28
:100A4800D8A029EF05F02BEF05F031EF05F01906D6
:100A5800D8A01A061B06D8A01C0617041810D8A47C
:100A680038EF05F03AEF05F046EF05F0800E086E16
:100A78002A0E48EC09F0C00E086E200E48EC09F06A
:100A880050EF05F0800E086E200E48EC09F0C00EFD
:100A9800086E2A0E48EC09F0D8901934D96E1A3429
:100AA800DA6E0B0ED926000EDA22DECF03F0DDCF88
:100AB80004F0810E056EB4EC08F0D8901B34D96EA2
:100AC8001C34DA6E0B0ED926000EDA22DECF03F0C4
:100AD800DDCF04F0C10E056EB4EC08F0C2EF04F0EF
:100AE8001200066E0604D8A47CEF05F07EEF05F030
:100AF80084EF05F0000E4C6E070E4B6EE9EF05F023
:100B0800020E0618D8B48BEF05F08DEF05F096EFBE
:100B180005F0030E0618D8A494EF05F096EF05F03B
:100B2800E9EF05F0070E4B184C10D8A49EEF05F01E
:100B3800A0EF05F0ADEF05F0020E0618D8A4A7EF58
:100B480005F0A9EF05F0ADEF05F0000E4C6E000EB4
:100B58004B6E020E0618D8A4B4EF05F0B6EF05F0F8
:100B6800C5EF05F04C5007E1060E4B5CD8B0BFEF5F
:100B780005F0C1EF05F0C5EF05F04B4A4C2AE9EF47
:100B880005F0030E0618D8A4CCEF05F0CEEF05F05B
:100B9800E9EF05F04C5009E1020E4B5CD8A0D7EF05
:100BA80005F0D9EF05F0E9EF05F04C5007E1070E25
:100BB8004B5CD8B0E2EF05F0E4EF05F0E9EF05F0A3
:100BC8004B06D8A04C06E9EF05F0D8904B34D96E07
:100BD8004C34DA6E600ED926000EDA22DECF03F02E
:100BE800DDCF04F0CA0E056EB4EC08F01200819A4D
:100BF800818C818E81B203EF06F005EF06F008EFD5
:100C080006F0010E7EEF06F081B40DEF06F00FEF4F
:100C180006F012EF06F0040E7EEF06F081B617EF2D
:100C280006F019EF06F01CEF06F0070E7EEF06F04F
:100C380081B821EF06F023EF06F026EF06F00A0E42
:100C48007EEF06F0818A819C818E81B22EEF06F0BC
:100C580030EF06F033EF06F0020E7EEF06F081B4B7
:100C680038EF06F03AEF06F03DEF06F0050E7EEF9E
:100C780006F081B642EF06F044EF06F047EF06F0C3
:100C8800080E7EEF06F081B84CEF06F04EEF06F046
:100C980051EF06F00B0E7EEF06F0818A818C819E63
:100CA800819E81B25AEF06F05CEF06F05FEF06F026
:100CB800030E7EEF06F081B464EF06F066EF06F0EF
:100CC80069EF06F0060E7EEF06F081B66EEF06F0CD
:100CD80070EF06F073EF06F0090E7EEF06F081B8AC
:100CE80078EF06F07AEF06F07DEF06F00C0E7EEF57
:100CF80006F0FF0E120032343334396E3950D8A45E
:100D080088EF06F08AEF06F094EF06F0000E306EDA
:100D1800000E316E000E326E000E336E01EF07F0DA
:100D280030C034F031C035F032C036F033C037F05F
:100D3800200EA4EF06F0D8903732363235323432EE
:100D4800E82E9FEF06F03450386E328EFF0E3016C4
:100D5800FF0E3116FF0E3216000E3316960E395E50
:100D680039BEBBEF06F0B9EF06F0D1EF06F0395007
:100D7800800A970FD8B0C3EF06F0C5EF06F0C7EFAB
:100D880006F08AEF06F0D890333232323132303200
:100D9800393EC7EF06F0E9EF06F01F0E3964D7EFCA
:100DA80006F0D9EF06F0E1EF06F08AEF06F0D890EA
:100DB800303631363236333639063950D8A4E7EF73
:100DC80006F0E9EF06F0DBEF06F03850D8B4EFEFA5
:100DD80006F0F1EF06F0F9EF06F0331E321E311E71
:100DE800306C000E31223222332230C030F031C054
:100DF80031F032C032F033C033F01200000E956E7D
:100E08009450F80B946E8290020E046E040E036EDA
:100E1800BA0EE82EFED7032EFCD7042EFAD700D040
:100E2800000E016E330EF7EC08F01B0E036E9E0EDB
:100E3800E82EFED7032EFCD700D0000E016E330E2D
:100E4800F7EC08F0A60EE82EFED700D0000E016ED3
:100E5800330EF7EC08F000D000D000F0000E016E61
:100E6800020EF7EC08F0A60EE82EFED700D0000E12
:100E7800016E380EF7EC08F0A60EE82EFED700D06B
:100E8800000E016E010EF7EC08F0040E036E3E0E24
:100E9800E82EFED7032EFCD7000E016E0C0EF7ECE1
:100EA80008F0A60EE82EFED700D012003A6E2C0EDF
:100EB800036E2F0E046E800E056EB4EC08F05DEC28
:100EC80009F03A5075EC05F0140E1B6EAE0E1C6E50
:100ED800230E1D6E410E1E6E040E6DEC08F001C04F
:100EE80009F002C00AF00B6A0C6A000EC3EC03F0AA
:100EF80009C017F00AC018F00BC019F00CC01AF09E
:100F0800F6EC01F017C030F018C031F019C032F01B
:100F18001AC033F07FEC06F030C049F031C04AF017
:100F280049C00AF04AC00BF0D6EC08F01200000ED7
:100F3800066E000E056E03500410D8B4A6EF07F035
:100F4800A8EF07F0D0EF07F0010E076EB0EF07F03B
:100F5800D89003360436072A04AEB5EF07F0B7EF8A
:100F680007F0ACEF07F0D890053606360350015C61
:100F780004500258D8A0C3EF07F0C5EF07F0CAEF36
:100F880007F00350015E0450025A0580D8900432DD
:100F98000332072EB7EF07F005C001F006C002F0D4
:100FA8001200016E0150D8A4DCEF07F0DEEF07F065
:100FB800E2EF07F0FBEC05F00DEF08F00104D8A410
:100FC800E8EF07F0EAEF07F00DEF08F0FBEC05F0AB
:100FD800026E0228D8B4F3EF07F0F5EF07F002EF3E
:100FE80008F04650D8B4FBEF07F0FDEF07F002EF2A
:100FF80008F0000E466E02500DEF08F00228D8A443
:1010080008EF08F00AEF08F00CEF08F0010E466E42
:10101800FF0E120003500410D8B415EF08F017EFB4
:1010280008F03BEF08F0010E056E1FEF08F0D890AE
:1010380003360436052A04AE24EF08F026EF08F03C
:101048001BEF08F00350015C04500258D8A02FEFA2
:1010580008F031EF08F035EF08F00350015E045056
:10106800025AD89004320332052E26EF08F001C048
:1010780001F002C002F01200CC0EF66E120EF76EEE
:10108800000EF86E00EE60F010EE10F00900F5CFDB
:10109800EEFFE550E150FAE1DC0EF66E120EF76E47
:1010A800000EF86E00EE3CF010EE0BF00900F5CFE4
:1010B800EEFFE550E150FAE100EE47F0080EEE6A67
:1010C800E806FDE14F904F92000EF86E000114EF14
:1010D80009F0086E08C003F0D8900336D89003369C
:1010E800C250C30B0310C26EC282C2B27EEF08F0B8
:1010F80080EF08F079EF08F0C4CF03F0030E031671
:101108000350056E046AC350066E076A0450061041
:10111800016E05500710026E12000600DE0ED6247E
:10112800D66E0B0ED720D76EF2A49DEF08F09FEF76
:1011380008F0B2EF08F0474A482A510E47184810FD
:10114800D8A4A9EF08F0ABEF08F0B1EF08F0000E53
:10115800486E000E476E4D4A4E2AF2944F92110087
:10116800000E016E0550F7EC08F0C7EF08F0010E0D
:10117800016E03C0F6FF04C0F7FF0800F550F7EC56
:1011880008F0034A042A03C0F6FF04C0F7FF08006A
:10119800F5500009D8A4D3EF08F0D5EF08F0BBEF5D
:1011A80008F01200CD0E086E0AC001F00BC002F064
:1011B800000E046E0A0E036E9BEC07F00150300F10
:1011C80048EC09F0CE0E086E0AC001F00BC002F020
:1011D800000E046E0A0E036E0EEC08F00150300F7C
:1011E80048EC09F01200026E01B0FDEF08F000EFC4
:1011F80009F0828201EF09F0829202C083FF8284A3
:101208008294958E828082928284829483BE0FEF2C
:1012180009F011EF09F008EF09F08290959E12008D
:1012280054EC09F0010ED5EC07F03B6E0A0E3B18A2
:10123800D8A421EF09F023EF09F025EF09F009EC14
:1012480000F03B505AEC07F016EF09F007EF00F0FA
:10125800C280C19AC198C186C194C182C190C08A16
:10126800C098C096C094C082C090C08E1200F28E02
:10127800F28CF28AF2940B0ED76EDC0ED66ED58EF7
:10128800D59CD59AD5861200096E000E016E0850BD
:10129800F7EC08F0010E016E0950F7EC08F01200A7
:1012A80074EC09F002EC07F02CEC09F03BEC09F0C7
:1012B8001200D80E036E2F0E046EC00E056EB4EC2D
:1012C80008F01200F92FF62FEA2FED2FF02FF32F49
:0F12D800FC2FE72F9E2FCB2FAD2F8F2FBC2F0179
:0812E8001E0E936EF19E120030
:102EF80000202020202020202020202020202020EA
:102F080020002020204D656E7520506167652020C7
:102F18002020002020417474656D7074204F766500
:102F280072202000202054494D452020202045565D
:102F38002053502000205761697420466F7220206A
:102F4800202053656300436F72726563742050617B
:102F58007373776F7264002057726F6E67205061C9
:102F68007373776F72640020456E746572207061A8
:102F78007373776F7264002D417474656D7074207B
:102F880052656D61696E005365742054696D6520E2
:102F980020202020200056696577204C6F6720206C
:102FA8002020202000436C656172206C6F67202010
:102FB8002020200052657365742050617373776F09
:102FC800726400446F776E6C6F6164206C6F670089
:102FD80031303A30303A303020003030313100432F
:102FE8002000473100473200473300473400474E3E
:082FF800004F4E00475200009B
:020000040020DA
:08000000FFFFFFFFFFFFFFFF00
:020000040030CA
:0E000000FF071F1FFF8285FF0FC00FE00F409C
:00000001FF
