:020000040000FA
:0400000007EF00F016
:0A000800558206ED0BF06CEF0BF0D3
:10060000002020202020202020202020202020200A
:1006100020002020204D656E7520506167652020E8
:100620002020002020202056696577204C6F67200D
:100630002020200020202020436C656172204C6F18
:1006400067202020002020417474656D7074204F55
:10065000766572202000202054494D45202020201E
:1006600045562053502000205761697420466F7210
:100670002020202053656300436F727265637420ED
:1006800050617373776F7264002057726F6E6720CA
:1006900050617373776F72640020456E74657220C9
:1006A00070617373776F7264002D417474656D703F
:1006B000742052656D61696E0031303A30303A30E5
:1006C00030200030303131004320004731004732C4
:1006D00000473300473400474E004F4E004752005A
:0106E0000019
:1006E200000E546E000E536E330E196E000E216E04
:1006F200000E206E000E1B6E000E1A6E000E176E9C
:10070200000E166EC30E146E060E156E000E116EDE
:10071200010E036E060E046EC00E056E29EC0BF080
:1007220016501710D8A498EF03F09AEF03F03EEF9B
:1007320005F0010E77EC0AF0186E0B0E1818D8A40B
:10074200A5EF03F0A7EF03F0B7EF03F00D0E20249F
:10075200D96E000E2120DA6E310EDF6E000E546E5D
:10076200000E536E204A212ACAEF03F00C0E18180D
:10077200D8A4BEEF03F0C0EF03F0CAEF03F00D0EF2
:100782002024D96E000E2120DA6E300EDF6EAFEF1C
:1007920003F0050E53185410D8A4D2EF03F0D4EF8F
:1007A20003F0D6EF03F067EF05F0000E1F6E000EA8
:1007B2001E6EE4EF03F01E50C30F086E2A0EDCEC2F
:1007C2000BF01E4A1F2A20501E5C21501F58D8A031
:1007D200EDEF03F0EFEF03F0DCEF03F01A500A6ED7
:1007E2001B500B6E1A4A1B2A200E0A5C030E0B5872
:1007F200D8B0FEEF03F000EF04F008EF04F01E5053
:10080200C30F086E5F0EDCEC0BF029EF04F0210E33
:100812001A5C030E1B58D8A011EF04F013EF04F07A
:1008220029EF04F01E50C30F086E200EDCEC0BF013
:10083200400E1A1807E1060E1B18D8A423EF04F085
:1008420025EF04F029EF04F0000E1B6E000E1A6E65
:10085200990E036E060E046E800E056E29EC0BF0E7
:10086200040E20182110D8A439EF04F03BEF04F055
:1008720091EF03F0100E0B6E390E0A6E0E0EE82E7B
:10088200FED70A2EFCD70B2EFAD71906000E1D6EC4
:10089200000E1C6E000E136E000E126EACEF04F012
:1008A2000D0E1C24D96E000E1D20DA6E1C5014246D
:1008B2000B6E1D5015200C6E0BC0F6FF0CC0F7FF1F
:1008C200DE500900F518D8B469EF04F06BEF04F0BC
:1008D200AAEF04F0000E216E000E206E000E136EC1
:1008E200010E126E0D0E0B6EAF0E0A6EB60EE82ED4
:1008F200FED70A2EFCD70B2EFAD700D0890E036E34
:10090200060E046E800E056E29EC0BF0C00E086E0A
:100912001950DCEC0BF0A90E036E060E046EC10E2C
:10092200056E29EC0BF00D0E0B6EAF0E0A6EB60EB5
:10093200E82EFED70A2EFCD70B2EFAD700D0010ED6
:10094200036E060E046EC00E056E29EC0BF0C0EFAE
:1009520004F01C4A1D2A1C5014240A6E1D50152036
:100962000B6E0AC0F6FF0BC0F7FF0800F550000936
:10097200D8A4BEEF04F0C0EF04F051EF04F012501F
:100982001310D8A4C7EF04F0C9EF04F0EBEF04F0A2
:10099200000E176E010E166E0D0E0B6EAF0E0A6E66
:1009A200B60EE82EFED70A2EFCD70B2EFAD700D0B1
:1009B200780E036E060E046E800E056E29EC0BF0A7
:1009C200120E036E060E046EC00E056E29EC0BF0BD
:1009D20091EF03F0300E1918D8A4F2EF04F0F4EFFF
:1009E20004F065EF05F0450E036E060E046E800EF0
:1009F200056E29EC0BF0670E036E060E046EC00E38
:100A0200056E29EC0BF0000E546E000E536E32EFA1
:100A120005F0CA0E086E53503B08016E5450D8A020
:100A2200E82A0008026E000E046E0A0E036E3DEC08
:100A32000AF00150300FDCEC0BF0CB0E086E535075
:100A42003B08016E5450D8A0E82A0008026E000E3E
:100A5200046E0A0E036EB0EC0AF00150300FDCECAB
:100A62000BF03C0E53185410D8A43AEF05F03CEFAB
:100A720005F00AEF05F067EF05F016041710D8A489
:100A820045EF05F047EF05F091EF03F01A0E0B6EFC
:100A92005E0E0A6E6E0EE82EFED70A2EFCD70B2EC5
:100AA200FAD700D0230E036E060E046E800E056E7A
:100AB20029EC0BF0340E036E060E046EC00E056EAA
:100AC20029EC0BF091EF03F091EF03F012001A50B2
:100AD200800B276E1A501A242E6E19AE73EF05F092
:100AE20075EF05F076EF05F02E802E50D8B47CEF2E
:100AF20005F07EEF05F093EF05F02E28D8A484EFE1
:100B020005F086EF05F08EEF05F0000E176E000E71
:100B1200186E000E196E000E1A6E198E000E1A6EE5
:100B22009BEF05F0000E176E000E186E000E196E88
:100B3200000E1A6E1E50800B271A1E501E242F6E96
:100B42001DAEA6EF05F0A8EF05F0A9EF05F02F8086
:100B52002F50D8B4AFEF05F0B1EF05F0C6EF05F0B6
:100B62002F28D8A4B7EF05F0B9EF05F0C1EF05F0D3
:100B7200000E1B6E000E1C6E000E1D6E000E1E6E11
:100B82001D8E000E1E6ECEEF05F0000E1B6E000EC7
:100B92001C6E000E1D6E000E1E6E1B501C101D10D2
:100BA2001E10D8A4D7EF05F0D9EF05F0F1EF05F04C
:100BB200000E176E000E186E000E196E000E1A6EE1
:100BC200800E19127F0E1A1227501A1217C017F030
:100BD20018C018F019C019F01AC01AF034EF07F053
:100BE2002E50D8A4F7EF05F0F9EF05F003EF06F069
:100BF200000E176E000E186E000E196E000E1A6EA1
:100C020034EF07F02F502EC01FF0206A1F5E000E37
:100C1200205A7F0E1F24286E000E2020296E17C036
:100C220023F018C024F019C025F01AC026F0000ED7
:100C3200176E000E186E000E196E000E1A6E000E60
:100C42002A6E000E2B6E000E2C6E000E2D6E000E04
:100C52002F6E64EF06F02F50D8B432EF06F034EF67
:100C620006F04BEF06F0D89023362436253626368A
:100C7200D8901736183619361A362DAE43EF06F0CD
:100C820045EF06F046EF06F01780D8902A362B364D
:100C92002C362D361B50235C1C5024581D502558D1
:100CA2001E502658D8A058EF06F05AEF06F063EF10
:100CB20006F02D8C1B50235E1C50245A1D50255AC1
:100CC2001E50265A2F2A190E2F646AEF06F06CEF77
:100CD20006F02CEF06F02350241025102610D8B46D
:100CE20075EF06F077EF06F08FEF06F02A808FEFB0
:100CF20006F0D8901736183619361A362DAE84EF0C
:100D020006F086EF06F087EF06F01780D8902A36B5
:100D12002B362C362D362806D8A0290619AE94EF8C
:100D220006F096EF06F07AEF06F0000E2F6E2DAE6B
:100D32009DEF06F09FEF06F0C3EF06F0FF0E2A14B8
:100D42001F6EFF0E2B14206EFF0E2C14216E7F0ED1
:100D52002D14226E1F50201021102210D8B4B4EF8F
:100D620006F0B6EF06F0BAEF06F0010E2F6EC3EFF3
:100D720006F017A0BFEF06F0C1EF06F0C3EF06F0D2
:100D8200B6EF06F02F50D8B4C9EF06F0CBEF06F05D
:100D9200EFEF06F0010E1726000E182219221A2272
:100DA2001AA0D6EF06F0D8EF06F0EFEF06F017C064
:100DB2001FF018C020F019C021F01AC022F022340E
:100DC2002232213220321F321FC017F020C018F009
:100DD20021C019F022C01AF0284A292A29BEFAEFA6
:100DE20006F0295008E12828D8A0FAEF06F0FCEF17
:100DF20006F007EF07F0000E296E2868000E176E46
:100E0200000E186E000E196E000E1A6E29BE14EF37
:100E120007F0295006E12804D8B012EF07F014EFCA
:100E220007F022EF07F0000E296E000E286E000E6A
:100E3200176E000E186E000E196E000E1A6E000E5E
:100E4200276E28C02EF02EA029EF07F02BEF07F017
:100E52002EEF07F0198E2FEF07F0199ED8902E3043
:100E62001A6EE5EF05F01200116E1150D8B43CEF86
:100E720007F03EEF07F060EF07F00CBE45EF07F01A
:100E820043EF07F060EF07F009C00DF00AC00EF063
:100E92000BC00FF00CC010F00D1E0E1E0F1E101E08
:100EA2000D2A000E0E220F2210220DC013F00EC0CA
:100EB20014F00FC015F010C016F068EF07F009C06B
:100EC20013F00AC014F00BC015F00CC016F0095054
:100ED2000A100B100C10D8A471EF07F073EF07F093
:100EE2007DEF07F0000E096E000E0A6E000E0B6E0B
:100EF200000E0C6E0EEF08F0960E126E87EF07F0E2
:100F0200122AD8901632153214321332000E1314EC
:100F12000D6E000E14140E6E000E15140F6EFE0EE2
:100F22001614106E0D500E100F101010D8A49CEF56
:100F320007F09EEF07F081EF07F0ACEF07F0122AFF
:100F4200010E1326000E142215221622D8901632F4
:100F5200153214321332000E13140D6E000E1414D7
:100F62000E6E000E15140F6EFF0E1614106E0D503D
:100F72000E100F101010D8A4C1EF07F0C3EF07F046
:100F8200A0EF07F0CBEF07F01206D8901336143615
:100F92001536163615BED0EF07F0D2EF07F0DAEFAE
:100FA20007F0020E1260D8EF07F0DAEF07F0C5EF94
:100FB20007F012B0DFEF07F0E1EF07F0E2EF07F022
:100FC200159ED890123212C00DF00E6A0F6A106A86
:100FD2000DC010F00F6A0E6A0D6A0D5013120E50FA
:100FE20014120F501512105016121150D8B4FCEFF3
:100FF20007F0FEEF07F006EF08F00CBE05EF08F071
:1010020003EF08F006EF08F0168E13C009F014C0C3
:101012000AF015C00BF016C00CF01200066E0604A2
:10102200D8A416EF08F018EF08F01EEF08F0000E33
:10103200526E070E516E83EF08F0020E0618D8B4F6
:1010420025EF08F027EF08F030EF08F0030E06183E
:10105200D8A42EEF08F030EF08F083EF08F0070E67
:1010620051185210D8A438EF08F03AEF08F047EFC1
:1010720008F0020E0618D8A441EF08F043EF08F07A
:1010820047EF08F0000E526E000E516E020E061867
:10109200D8A44EEF08F050EF08F05FEF08F052507E
:1010A20007E1060E515CD8B059EF08F05BEF08F08B
:1010B2005FEF08F0514A522A83EF08F0030E061838
:1010C200D8A466EF08F068EF08F083EF08F05250FA
:1010D20009E1020E515CD8A071EF08F073EF08F03D
:1010E20083EF08F0525007E1070E515CD8B07CEF55
:1010F20008F07EEF08F083EF08F05106D8A0520600
:1011020083EF08F0D8905134D96E5234DA6E3C0E27
:10111200D926000EDA22DECF03F0DDCF04F0CA0EAC
:10112200056E29EC0BF01200819A818C818E81B2BE
:101132009DEF08F09FEF08F0A2EF08F0010E18EF04
:1011420009F081B4A7EF08F0A9EF08F0ACEF08F0BE
:10115200040E18EF09F081B6B1EF08F0B3EF08F012
:10116200B6EF08F0070E18EF09F081B8BBEF08F0F0
:10117200BDEF08F0C0EF08F00A0E18EF09F0818AFF
:10118200819C818E81B2C8EF08F0CAEF08F0CDEFE2
:1011920008F0020E18EF09F081B4D2EF08F0D4EF94
:1011A20008F0D7EF08F0050E18EF09F081B6DCEF72
:1011B20008F0DEEF08F0E1EF08F0080E18EF09F092
:1011C20081B8E6EF08F0E8EF08F0EBEF08F00B0E5D
:1011D20018EF09F0818A818C819E819E81B2F4EFA1
:1011E20008F0F6EF08F0F9EF08F0030E18EF09F037
:1011F20081B4FEEF08F000EF09F003EF09F0060EEC
:1012020018EF09F081B608EF09F00AEF09F00DEFC7
:1012120009F0090E18EF09F081B812EF09F014EF86
:1012220009F017EF09F00C0E18EF09F0FF0E12008B
:1012320032343334396E3950D8A422EF09F024EF16
:1012420009F02EEF09F0000E306E000E316E000E26
:10125200326E000E336E9BEF09F030C034F031C0B5
:1012620035F032C036F033C037F0200E3EEF09F0D1
:10127200D8903732363235323432E82E39EF09F02F
:101282003450386E328EFF0E3016FF0E3116FF0EBE
:101292003216000E3316960E395E39BE55EF09F03E
:1012A20053EF09F06BEF09F03950800A970FD8B06D
:1012B2005DEF09F05FEF09F061EF09F024EF09F04B
:1012C200D8903332323231323032393E61EF09F066
:1012D20083EF09F01F0E396471EF09F073EF09F023
:1012E2007BEF09F024EF09F0D890303631363236F0
:1012F200333639063950D8A481EF09F083EF09F06B
:1013020075EF09F03850D8B489EF09F08BEF09F086
:1013120093EF09F0331E321E311E306C000E312263
:101322003222332230C030F031C031F032C032F0DC
:1013320033C033F01200000E956E9450F80B946E89
:101342008290020E046E040E036EBA0EE82EFED7D1
:10135200032EFCD7042EFAD700D0000E016E330EF6
:101362008BEC0BF01B0E036E9E0EE82EFED7032EA7
:10137200FCD700D0000E016E330E8BEC0BF0A60EE4
:10138200E82EFED700D0000E016E330E8BEC0BF070
:1013920000D000D000F0000E016E020E8BEC0BF0BC
:1013A200A60EE82EFED700D0000E016E380E8BEC92
:1013B2000BF0A60EE82EFED700D0000E016E010E35
:1013C2008BEC0BF0040E036E3E0EE82EFED7032EBE
:1013D200FCD7000E016E0C0E8BEC0BF0A60EE82E65
:1013E200FED700D012003A6E560E036E060E046E41
:1013F200800E056E29EC0BF0010E036E060E046ED4
:10140200C00E056E29EC0BF0F1EC0BF03A500FEC2C
:1014120008F0140E1B6EAE0E1C6E230E1D6E410ED6
:101422001E6E040EE2EC0AF001C009F002C00AF0DE
:101432000B6A0C6A000E35EC07F009C017F00AC0FF
:1014420018F00BC019F00CC01AF068EC05F017C0C8
:1014520030F018C031F019C032F01AC033F019EC74
:1014620009F030C04FF031C050F04FC00AF050C008
:101472000BF04BEC0BF01200000E066E000E056E28
:1014820003500410D8B448EF0AF04AEF0AF072EFA2
:101492000AF0010E076E52EF0AF0D89003360436B6
:1014A200072A04AE57EF0AF059EF0AF04EEF0AF09E
:1014B200D890053606360350015C04500258D8A075
:1014C20065EF0AF067EF0AF06CEF0AF00350015E75
:1014D2000450025A0580D89004320332072E59EF85
:1014E2000AF005C001F006C002F01200016E0150C0
:1014F200D8A47EEF0AF080EF0AF084EF0AF095ECB0
:1015020008F0AFEF0AF00104D8A48AEF0AF08CEFDA
:101512000AF0AFEF0AF095EC08F0026E0228D8B498
:1015220095EF0AF097EF0AF0A4EF0AF04C50D8B406
:101532009DEF0AF09FEF0AF0A4EF0AF0000E4C6E46
:101542000250AFEF0AF00228D8A4AAEF0AF0ACEFDB
:101552000AF0AEEF0AF0010E4C6EFF0E12000350BD
:101562000410D8B4B7EF0AF0B9EF0AF0DDEF0AF0D1
:10157200010E056EC1EF0AF0D89003360436052A33
:1015820004AEC6EF0AF0C8EF0AF0BDEF0AF003504E
:10159200015C04500258D8A0D1EF0AF0D3EF0AF050
:1015A200D7EF0AF00350015E0450025AD890043279
:1015B2000332052EC8EF0AF001C001F002C002F0AA
:1015C2001200086E08C003F0D8900336D890033694
:1015D200C250C30B0310C26EC282C2B2F3EF0AF052
:1015E200F5EF0AF0EEEF0AF0C4CF03F0030E031694
:1015F2000350056E046AC350066E076A0450061053
:10160200016E05500710026E12000600DE0ED6248F
:10161200D66E0B0ED720D76EF2A412EF0BF014EF9A
:101622000BF027EF0BF04D4A4E2A510E4D184E107B
:10163200D8A41EEF0BF020EF0BF026EF0BF0000EFC
:101642004E6E000E4D6E534A542AF294559211007A
:10165200000E016E05508BEC0BF03CEF0BF0010E0F
:10166200016E03C0F6FF04C0F7FF0800F5508BECD3
:101672000BF0034A042A03C0F6FF04C0F7FF080078
:10168200F5500009D8A448EF0BF04AEF0BF030EF09
:101692000BF01200CD0E086E0AC001F00BC002F072
:1016A200000E046E0A0E036E3DEC0AF00150300F7C
:1016B200DCEC0BF0CE0E086E0AC001F00BC002F09B
:1016C200000E046E0A0E036EB0EC0AF00150300FE9
:1016D200DCEC0BF01200F40EF66E170EF76E000E35
:1016E200F86E00EE3CF010EE11F00900F5CFEEFFBF
:1016F200E550E150FAE100EE4DF0080EEE6AE80620
:10170200FDE155905592000EF86E060EF76E00013F
:10171200A8EF0BF0026E01B091EF0BF094EF0BF01B
:10172200828295EF0BF0829202C083FF82848294C0
:10173200958E828082928284829483BEA3EF0BF084
:10174200A5EF0BF09CEF0BF08290959E1200E8EC57
:101752000BF0010E77EC0AF03B6E0A0E3B18D8A490
:10176200B5EF0BF0B7EF0BF0B9EF0BF071EC03F044
:101772003B50F4EC09F0AAEF0BF007EF00F0C28047
:10178200C19AC198C186C194C182C190C08AC098D1
:10179200C096C094C082C090C08E1200F28EF28CAD
:1017A200F28AF2940B0ED76EDC0ED66ED58ED59CD5
:1017B200D59AD5861200096E000E016E08508BEC88
:1017C2000BF0010E016E09508BEC0BF0120003ECD2
:1017D2000CF09CEC09F0C0EC0BF0CFEC0BF012001B
:1017E200B90E036E060E046EC00E056E29EC0BF0E8
:1017F2001200DA06D706CB06CE06D106D406DD06DF
:03180200C8060114
:081806001E0E936EF19E12000C
:020000040020DA
:08000000FFFFFFFFFFFFFFFF00
:020000040030CA
:0E000000FF071F1FFF8285FF0FC00FE00F409C
:00000001FF
