:020000040000FA
:0400000007EF00F016
:100008005C82BCED0DF00FEF0DF01A50800B276EDF
:100018001A501A242E6E19AE14EF00F016EF00F0E5
:1000280017EF00F02E802E50D8B41DEF00F01FEF10
:1000380000F034EF00F02E28D8A425EF00F027EFC9
:1000480000F02FEF00F0000E176E000E186E000E75
:10005800196E000E1A6E198E000E1A6E3CEF00F023
:10006800000E176E000E186E000E196E000E1A6E36
:100078001E50800B271A1E501E242F6E1DAE47EFF0
:1000880000F049EF00F04AEF00F02F802F50D8B46D
:1000980050EF00F052EF00F067EF00F02F28D8A4DF
:1000A80058EF00F05AEF00F062EF00F0000E1B6E00
:1000B800000E1C6E000E1D6E000E1E6E1D8E000EB4
:1000C8001E6E6FEF00F0000E1B6E000E1C6E000E11
:1000D8001D6E000E1E6E1B501C101D101E10D8A485
:1000E80078EF00F07AEF00F092EF00F0000E176E54
:1000F800000E186E000E196E000E1A6E800E191280
:100108007F0E1A1227501A1217C017F018C018F0CD
:1001180019C019F01AC01AF0D5EF01F02E50D8A462
:1001280098EF00F09AEF00F0A4EF00F0000E176EC1
:10013800000E186E000E196E000E1A6ED5EF01F043
:100148002F502EC01FF0206A1F5E000E205A7F0E0F
:100158001F24286E000E2020296E17C023F018C017
:1001680024F019C025F01AC026F0000E176E000EF4
:10017800186E000E196E000E1A6E000E2A6E000E12
:100188002B6E000E2C6E000E2D6E000E2F6E05EFDE
:1001980001F02F50D8B4D3EF00F0D5EF00F0ECEF1A
:1001A80000F0D8902336243625362636D8901736D0
:1001B800183619361A362DAEE4EF00F0E6EF00F0E7
:1001C800E7EF00F01780D8902A362B362C362D36DC
:1001D8001B50235C1C5024581D5025581E5026586F
:1001E800D8A0F9EF00F0FBEF00F004EF01F02D8C40
:1001F8001B50235E1C50245A1D50255A1E50265A47
:100208002F2A190E2F640BEF01F00DEF01F0CDEF3F
:1002180000F02350241025102610D8B416EF01F052
:1002280018EF01F030EF01F02A8030EF01F0D8909C
:100238001736183619361A362DAE25EF01F027EF86
:1002480001F028EF01F01780D8902A362B362C368B
:100258002D362806D8A0290619AE35EF01F037EF5C
:1002680001F01BEF01F0000E2F6E2DAE3EEF01F0F6
:1002780040EF01F064EF01F0FF0E2A141F6EFF0E2D
:100288002B14206EFF0E2C14216E7F0E2D14226E5F
:100298001F50201021102210D8B455EF01F057EF4D
:1002A80001F05BEF01F0010E2F6E64EF01F017A073
:1002B80060EF01F062EF01F064EF01F057EF01F039
:1002C8002F50D8B46AEF01F06CEF01F090EF01F015
:1002D800010E1726000E182219221A221AA077EFEB
:1002E80001F079EF01F090EF01F017C01FF018C08E
:1002F80020F019C021F01AC022F022342232213213
:1003080020321F321FC017F020C018F021C019F08A
:1003180022C01AF0284A292A29BE9BEF01F0295049
:1003280008E12828D8A09BEF01F09DEF01F0A8EF85
:1003380001F0000E296E2868000E176E000E186E68
:10034800000E196E000E1A6E29BEB5EF01F0295085
:1003580006E12804D8B0B3EF01F0B5EF01F0C3EF20
:1003680001F0000E296E000E286E000E176E000EAA
:10037800186E000E196E000E1A6E000E276E28C039
:100388002EF02EA0CAEF01F0CCEF01F0CFEF01F074
:10039800198ED0EF01F0199ED8902E301A6E86EF84
:1003A80000F012000C6E5350D8A4DDEF01F0DFEF1F
:1003B80001F04FEF02F0210E036E2F0E046E800E37
:1003C800056ED9EC0CF00B0E0C18D8A4EEEF01F06A
:1003D800F0EF01F006EF02F0B80E4B24D96E000ED4
:1003E8004C20DA6E310EDF6E4B50C30F086E2A0EAA
:1003F800BBEC0EF0000E526E000E516E4B4A4C2AAA
:100408001FEF02F00C0E0C18D8A40DEF02F00FEF3E
:1004180002F01FEF02F0B80E4B24D96E000E4C20EC
:10042800DA6E300EDF6E4B50C30F086E2A0EBBEC2F
:100438000EF0FEEF01F0040E4B184C10D8A427EF75
:1004480002F029EF02F038EF03F0000E0001BC6F54
:10045800950E016E000E026EB80E036E000E046E4D
:100468008FEC0BF001500210D8A43DEF02F03FEFE3
:1004780002F047EF02F0010E536E000E4C6E000EB4
:100488004B6E7EEF03F0020E556E000E4C6E000EA2
:100498004B6E7EEF03F05304D8A455EF02F057EFEC
:1004A80002F0A9EF02F0FF0E036E2E0E046E800E0E
:1004B800056ED9EC0CF00B0E0C18D8A466EF02F000
:1004C80068EF02F07EEF02F0B80E4B24D96E000EF2
:1004D8004C20DA6E310EDF6E4B50C30F086E2A0EB9
:1004E800BBEC0EF0000E526E000E516E4B4A4C2AB9
:1004F80097EF02F00C0E0C18D8A485EF02F087EFE6
:1005080002F097EF02F0B80E4B24D96E000E4C2083
:10051800DA6E300EDF6E4B50C30F086E2A0EBBEC3E
:100528000EF076EF02F0040E4B184C10D8A49FEF93
:1005380002F0A1EF02F038EF03F0020E536E000E46
:100548004C6E000E4B6E7EEF03F0020E5318D8A4CB
:10055800B0EF02F0B2EF02F038EF03F0650E036E71
:100568002F0E046E800E056ED9EC0CF00B0E0C18D5
:10057800D8A4C1EF02F0C3EF02F0D9EF02F0B30E36
:100588004B24D96E000E4C20DA6E310EDF6E4B50C4
:10059800C30F086E2A0EBBEC0EF0000E526E000E52
:1005A800516E4B4A4C2AF2EF02F00C0E0C18D8A4EC
:1005B800E0EF02F0E2EF02F0F2EF02F0B30E4B24AC
:1005C800D96E000E4C20DA6E300EDF6E4B50C30F22
:1005D800086E2A0EBBEC0EF0D1EF02F0040E4B1899
:1005E8004C10D8A4FAEF02F0FCEF02F038EF03F059
:1005F800000E0001B76FB80E016E000E026EB30E4A
:10060800036E000E046E8FEC0BF001500210D8A49C
:1006180010EF03F012EF03F047EF02F0000E4C6EFC
:10062800000E4B6E28EF03F0B30E4B24D96E000E6C
:100638004C20DA6E950E4B24E16E000E4C20E26ED3
:10064800DFCFE7FF4B4A4C2AB30E4B24D96E000E7E
:100658004C20DA6EDF50D8A434EF03F036EF03F005
:1006680018EF03F047EF02F0050E51185210D8A406
:1006780040EF03F042EF03F044EF03F047EF02F0DE
:1006880049500A6E4A500B6E494A4A2A200E0A5CA3
:10069800030E0B58D8B053EF03F055EF03F05DEF9E
:1006A80003F04B50C30F086E5F0EBBEC0EF07EEFED
:1006B80003F0210E495C030E4A58D8A066EF03F0F8
:1006C80068EF03F07EEF03F04B50C30F086E200E67
:1006D800BBEC0EF0400E491807E1060E4A18D8A4E4
:1006E80078EF03F07AEF03F07EEF03F0000E4A6E26
:1006F800000E496E12000E6E0B0E0E18D8A487EF6E
:1007080003F089EF03F0D4EF03F0000E526E000EF1
:10071800516E0EC047F0486A41500C6E42500D6E43
:10072800414A422A910E0C5C010E0D58D8A09FEF49
:1007380003F0A1EF03F033EF04F04350030F556EBD
:10074800D8904334D96E4434DA6E700ED926000E30
:10075800DA22DECFF6FFDDCFF7FF0800F5CF8EF007
:10076800D8904334D96E4434DA6E700ED926000E10
:10077800DA22DECF0CF0DDCF0DF0010E0C26000ED4
:100788000D220CC0F6FF0DC0F7FF0800F5CF8FF063
:10079800840E066E000E076EDEEC0BF019EF05F006
:1007A80041504210D8B4DBEF03F0DDEF03F033EF34
:1007B80004F0900E415C010E4258D8B0E6EF03F009
:1007C800E8EF03F033EF04F00B0E47184810D8A4F5
:1007D800F0EF03F0F2EF03F033EF04F00E28D8A4A3
:1007E800F8EF03F0FAEF03F033EF04F05850591024
:1007F800D8B401EF04F003EF04F033EF04F05650DF
:100808005710D8A40AEF04F00CEF04F012EF04F02C
:10081800000E576E010E566E23EF04F0595009E191
:10082800020E585CD8A01BEF04F01DEF04F023EF74
:1008380004F04506D8A046065806D8A059064350E5
:100848004410D8B42AEF04F02CEF04F02FEF04F092
:100858004306D8A04406000E426E000E416E0C0EF0
:100868000E18D8A43AEF04F03CEF04F06CEF04F053
:10087800000E526E000E516E0EC047F0486A41508D
:100888000C6E42500D6E414A422A910E0C5C010ECC
:100898000D58D8A052EF04F054EF04F0CCEF04F058
:1008A800000E466E000E456E000E596E010E586E13
:1008B800000E576E010E566E000E446E000E436E0B
:1008C800000E556E000E426E000E416E19EF05F0D7
:1008D80041504210D8B473EF04F075EF04F0CCEF38
:1008E80004F0900E415C010E4258D8B07EEF04F03F
:1008F80080EF04F0CCEF04F00C0E47184810D8A491
:1009080088EF04F08AEF04F0CCEF04F00E28D8A4A6
:1009180090EF04F092EF04F0CCEF04F0465007E1BA
:10092800040E455CD8B09BEF04F09DEF04F0CCEFCB
:1009380004F056045710D8A4A4EF04F0A6EF04F06E
:10094800ACEF04F0000E576E000E566EBBEF04F0CD
:10095800465007E1030E455CD8B0B5EF04F0B7EF99
:1009680004F0BBEF04F0454A462A584A592A445035
:1009780007E1040E435CD8B0C4EF04F0C6EF04F0FE
:10098800C8EF04F0434A442A000E426E000E416E3E
:10099800050E51185210D8A4D4EF04F0D6EF04F085
:1009A800D8EF04F054EF04F056045710D8A4DFEF42
:1009B80004F0E1EF04F0EDEF04F0800E086E2A0E6B
:1009C800BBEC0EF0C00E086E200EBBEC0EF0F7EF7D
:1009D80004F0800E086E200EBBEC0EF0C00E086E00
:1009E8002A0EBBEC0EF0D8904534D96E4634DA6E38
:1009F8007A0ED926000EDA22DECF03F0DDCF04F01E
:100A0800810E056ED9EC0CF0D8905834D96E593453
:100A1800DA6E7A0ED926000EDA22DECF03F0DDCFA9
:100A280004F0C10E056ED9EC0CF012000C6E320EFB
:100A3800036E2F0E046E800E056ED9EC0CF00B0EB3
:100A48000C18D8A42AEF05F02CEF05F042EF05F0BA
:100A5800B80E4B24D96E000E4C20DA6E310EDF6EC4
:100A68004B50C30F086E2A0EBBEC0EF0000E526EF0
:100A7800000E516E4B4A4C2A5BEF05F00C0E0C1819
:100A8800D8A449EF05F04BEF05F05BEF05F0B80E81
:100A98004B24D96E000E4C20DA6E300EDF6E4B50B0
:100AA800C30F086E2A0EBBEC0EF03AEF05F0050EE8
:100AB80051185210D8A463EF05F065EF05F06FEFF9
:100AC80005F0000E556E000E4C6E000E4B6E330E88
:100AD8005B6E88EF06F049500A6E4A500B6E494A21
:100AE8004A2A200E0A5C030E0B58D8B07EEF05F098
:100AF80080EF05F088EF05F04B50C30F086E5F0ECE
:100B0800BBEC0EF0A9EF05F0210E495C030E4A5824
:100B1800D8A091EF05F093EF05F0A9EF05F04B5041
:100B2800C30F086E200EBBEC0EF0400E491807E10B
:100B3800060E4A18D8A4A3EF05F0A5EF05F0A9EF13
:100B480005F0000E4A6E000E496E040E4B184C104C
:100B5800D8A4B1EF05F0B3EF05F088EF06F0080E62
:100B68000B6E9D0E0A6E060EE82EFED70A2EFCD7D7
:100B78000B2EFAD75B06000E4C6E000E4B6E950ED0
:100B8800016E000E026EB80E036E000E046E8FEC3E
:100B98000BF001500210D8B4D4EF05F0D6EF05F0F1
:100BA8000DEF06F00D0E0B6EAF0E0A6EB60EE82EA8
:100BB800FED70A2EFCD70B2EFAD700D0A80E036E4C
:100BC8002F0E046E800E056ED9EC0CF0C00E086E68
:100BD8005B50BBEC0EF0B80E036E2F0E046EC10E08
:100BE800056ED9EC0CF00D0E0B6EAF0E0A6EB60E3C
:100BF800E82EFED70A2EFCD70B2EFAD700D0870E88
:100C0800036E2F0E046EC00E056ED9EC0CF033EF98
:100C180006F0000E4C6E000E4B6E330E5B6E760EB9
:100C2800036E2F0E046E800E056ED9EC0CF0DD0EEF
:100C3800036E2E0E046EC00E056ED9EC0CF0120E6B
:100C48000B6EC20E0A6E660EE82EFED70A2EFCD771
:100C58000B2EFAD700D0020E556E88EF06F0300E34
:100C68005B18D8A43AEF06F03CEF06F088EF06F0E0
:100C7800100E036E2F0E046E800E056ED9EC0CF06C
:100C8800540E036E2F0E046EC00E056ED9EC0CF0D8
:100C9800000E526E000E516E7AEF06F0CA0E086E04
:100CA80051503B08016E5250D8A0E82A0008026E45
:100CB800000E046E0A0E036E66EC0CF00150300F45
:100CC800BBEC0EF0CB0E086E51503B08016E525033
:100CD800D8A0E82A0008026E000E046E0A0E036E01
:100CE80042EC0DF00150300FBBEC0EF03C0E5118E9
:100CF8005210D8A482EF06F084EF06F052EF06F007
:100D0800000E556E330E5B6E12000E6E990E036E5A
:100D18002E0E046E800E056ED9EC0CF00B0E0E181C
:100D2800D8A499EF06F09BEF06F0A2EF06F00EC0EC
:100D380047F0486A414A422A40EF07F041504210C2
:100D4800D8B4A9EF06F0ABEF06F0DFEF06F0900E8F
:100D5800415C010E4258D8B0B4EF06F0B6EF06F089
:100D6800DFEF06F00B0E47184810D8A4BEEF06F0C8
:100D7800C0EF06F0DFEF06F00E28D8A4C6EF06F0A5
:100D8800C8EF06F0DFEF06F03F06D8A040063F2880
:100D980006E14028D8A4D3EF06F0D5EF06F0D9EF46
:100DA80006F0000E406E090E3F6E000E426E000EF9
:100DB800416E40EF07F00C0E0E18D8A4E6EF06F0CF
:100DC800E8EF06F008EF07F00EC047F0486A415018
:100DD8000A6E42500B6E414A422A910E0A5C010E7D
:100DE8000B58D8A0FAEF06F0FCEF06F040EF07F03A
:100DF800020E556E000E406E000E3F6E000E526ED3
:100E0800000E516E88EF07F041504210D8B40FEF32
:100E180007F011EF07F0D9EF06F0900E415C010ED4
:100E28004258D8B01AEF07F01CEF07F0D9EF06F0D8
:100E38000C0E47184810D8A424EF07F026EF07F047
:100E4800D9EF06F00E28D8A42CEF07F02EEF07F004
:100E5800D9EF06F03F4A402A0A0E3F184010D8A49E
:100E680038EF07F03AEF07F0D9EF06F0000E406EC2
:100E7800000E3F6ED9EF06F03FC001F040C002F00F
:100E8800000E046E0A0E036E42EC0DF0013A023AAF
:100E9800F00E021601500F0B0212F00E011601C0DF
:100EA8009CF002C09DF0860E086E3F50300FBBECE0
:100EB8000EF0000E0D6E000E0C6EA20E0C24D96EF4
:100EC800000E0D20DA6E0C5000019C2559EC0EF036
:100ED800DF6E0C4A0D2A0DBE7BEF07F00D5009E1BD
:100EE800100E0C5CD8A07BEF07F07DEF07F061EFE8
:100EF80007F0000E0001B26FA20E036E000E046E22
:100F0800C00E056ED9EC0CF01200116E1150D8B459
:100F180090EF07F092EF07F0B4EF07F00CBE99EFEF
:100F280007F097EF07F0B4EF07F009C00DF00AC01B
:100F38000EF00BC00FF00CC010F00D1E0E1E0F1E91
:100F4800101E0D2A000E0E220F2210220DC013F0C3
:100F58000EC014F00FC015F010C016F0BCEF07F06B
:100F680009C013F00AC014F00BC015F00CC016F03D
:100F780009500A100B100C10D8A4C5EF07F0C7EFE2
:100F880007F0D1EF07F0000E096E000E0A6E000E92
:100F98000B6E000E0C6E62EF08F0960E126EDBEF11
:100FA80007F0122AD8901632153214321332000E76
:100FB80013140D6E000E14140E6E000E15140F6E21
:100FC800FE0E1614106E0D500E100F101010D8A42F
:100FD800F0EF07F0F2EF07F0D5EF07F000EF08F0B9
:100FE800122A010E1326000E142215221622D8905A
:100FF8001632153214321332000E13140D6E000E11
:1010080014140E6E000E15140F6EFF0E1614106ECB
:101018000D500E100F101010D8A415EF08F017EF90
:1010280008F0F4EF07F01FEF08F01206D890133617
:1010380014361536163615BE24EF08F026EF08F0DC
:101048002EEF08F0020E12602CEF08F02EEF08F0D9
:1010580019EF08F012B033EF08F035EF08F036EF6B
:1010680008F0159ED890123212C00DF00E6A0F6A61
:10107800106A0DC010F00F6A0E6A0D6A0D50131237
:101088000E5014120F501512105016121150D8B4D9
:1010980050EF08F052EF08F05AEF08F00CBE59EF85
:1010A80008F057EF08F05AEF08F0168E13C009F051
:1010B80014C00AF015C00BF016C00CF01200056E33
:1010C8000504D8A46AEF08F06CEF08F072EF08F096
:1010D800000E4E6E070E4D6ED7EF08F0020E051883
:1010E800D8B479EF08F07BEF08F084EF08F0030E2E
:1010F8000518D8A482EF08F084EF08F0D7EF08F0BD
:10110800070E4D184E10D8A48CEF08F08EEF08F09B
:101118009BEF08F0020E0518D8A495EF08F097EF9A
:1011280008F09BEF08F0000E4E6E000E4D6E020E9A
:101138000518D8A4A2EF08F0A4EF08F0B3EF08F060
:101148004E5007E1060E4D5CD8B0ADEF08F0AFEF9A
:1011580008F0B3EF08F04D4A4E2AD7EF08F0030E17
:101168000518D8A4BAEF08F0BCEF08F0D7EF08F0DC
:101178004E5009E1020E4D5CD8A0C5EF08F0C7EF4C
:1011880008F0D7EF08F04E5007E1070E4D5CD8B0D5
:10119800D0EF08F0D2EF08F0D7EF08F04D06D8A04E
:1011A8004E06D7EF08F0200E00018C6F000E046E7B
:1011B800000E036E00EF09F0D8904D34D96E4E340E
:1011C800DA6E600ED926000EDA22DECF01F0DDCF0E
:1011D80002F0035001260450022201C0F6FF02C0AB
:1011E800F7FF8D0E0324D96E000E0420DA6E080076
:1011F800F5CFDFFF034A042AD8904D34D96E4E3418
:10120800DA6E600ED926000EDA22DECF01F0DDCFCD
:1012180002F0035001260450022201C0F6FF02C06A
:10122800F7FF0800F5500009D8A41DEF09F01FEFDB
:1012380009F0E0EF08F04F50300F0001916F1200F5
:10124800A1EC0EF0020E5518D8B42DEF09F02FEFCF
:1012580009F038EF09F0030E5518D8A436EF09F055
:1012680038EF09F03EEF09F0000EA0EC0CF03B6EF1
:1012780042EF09F0010EA0EC0CF03B6E0A0E3B1891
:10128800D8A449EF09F04BEF09F062EF09F0020E1C
:101298005518D8B452EF09F054EF09F062EF09F08D
:1012A800870E036E2F0E046EC00E056ED9EC0CF07F
:1012B800010E556E000E526E000E516E5504D8A4E4
:1012C80068EF09F06AEF09F07CEF09F03B501AEC7F
:1012D80005F0020E5518D8A474EF09F076EF09F05E
:1012E80026EF09F0000E526E000E516E26EF09F03F
:1012F800020E5518D8A483EF09F085EF09F093EF93
:1013080009F03B507FEC03F0070E5518D8A48FEF77
:1013180009F091EF09F026EF09F076EF09F0030ED6
:101328005518D8A49AEF09F09CEF09F0B2EF09F02C
:101338003B5089EC06F0020E5518D8A4A6EF09F028
:10134800A8EF09F026EF09F0870E036E2F0E046E42
:10135800C00E056ED9EC0CF076EF09F0070E5518A3
:10136800D8A4B9EF09F0BBEF09F0C0EF09F03B5082
:10137800D6EC01F026EF09F03B50CEEC0AF026EF50
:1013880009F007EF00F0819A818C818E81B2CFEF4E
:1013980009F0D1EF09F0D4EF09F0010E4AEF0AF095
:1013A80081B4D9EF09F0DBEF09F0DEEF09F0040EA4
:1013B8004AEF0AF081B6E3EF09F0E5EF09F0E8EF4C
:1013C80009F0070E4AEF0AF081B8EDEF09F0EFEFE8
:1013D80009F0F2EF09F00A0E4AEF0AF0818A819CBF
:1013E800818E81B2FAEF09F0FCEF09F0FFEF09F006
:1013F800020E4AEF0AF081B404EF0AF006EF0AF091
:1014080009EF0AF0050E4AEF0AF081B60EEF0AF06E
:1014180010EF0AF013EF0AF0080E4AEF0AF081B84D
:1014280018EF0AF01AEF0AF01DEF0AF00B0E4AEF58
:101438000AF0818A818C819E819E81B226EF0AF012
:1014480028EF0AF02BEF0AF0030E4AEF0AF081B4F6
:1014580030EF0AF032EF0AF035EF0AF0060E4AEFE5
:101468000AF081B63AEF0AF03CEF0AF03FEF0AF0D3
:10147800090E4AEF0AF081B844EF0AF046EF0AF085
:1014880049EF0AF00C0E4AEF0AF0FF0E1200323450
:101498003334396E3950D8A454EF0AF056EF0AF0B5
:1014A80060EF0AF0000E306E000E316E000E326EE4
:1014B800000E336ECDEF0AF030C034F031C035F095
:1014C80032C036F033C037F0200E70EF0AF0D890F3
:1014D8003732363235323432E82E6BEF0AF0345078
:1014E800386E328EFF0E3016FF0E3116FF0E321692
:1014F800000E3316960E395E39BE87EF0AF085EF77
:101508000AF09DEF0AF03950800A970FD8B08FEF94
:101518000AF091EF0AF093EF0AF056EF0AF0D8902C
:101528003332323231323032393E93EF0AF0B5EF8E
:101538000AF01F0E3964A3EF0AF0A5EF0AF0ADEF29
:101548000AF056EF0AF0D890303631363236333654
:1015580039063950D8A4B3EF0AF0B5EF0AF0A7EF6F
:101568000AF03850D8B4BBEF0AF0BDEF0AF0C5EF67
:101578000AF0331E321E311E306C000E3122322228
:10158800332230C030F031C031F032C032F033C0D5
:1015980033F012003A6E430E036E2F0E046E800E67
:1015A800056ED9EC0CF026EC0CF03A04D8B4DFEF59
:1015B8000AF0E1EF0AF0F3EF0AF0020E3A18D8B495
:1015C800E8EF0AF0EAEF0AF0F3EF0AF0030E3A1830
:1015D800D8A4F1EF0AF0F3EF0AF0FCEF0AF03A5062
:1015E80063EC08F0840E066E000E076EDEEC0BF05E
:1015F800140E1B6EAE0E1C6E230E1D6E410E1E6E5B
:10160800040E98EC0DF001C009F002C00AF00B6A54
:101618000C6A000E89EC07F009C017F00AC018F030
:101628000BC019F00CC01AF009EC00F017C030F02C
:1016380018C031F019C032F01AC033F04BEC0AF080
:1016480030C0A0F031C0A1F0A0C008F0A1C009F0DE
:1016580000EC0EF0840E036E000E046EC00E056ED4
:10166800D9EC0CF01200000E956E9450F80B946EA5
:101678008290020E046E040E036EBA0EE82EFED798
:10168800032EFCD7042EFAD700D0000E016E330EBD
:101698003CEC0EF01B0E036E9E0EE82EFED7032EBA
:1016A800FCD700D0000E016E330E3CEC0EF0A60EF7
:1016B800E82EFED700D0000E016E330E3CEC0EF083
:1016C80000D000D000F0000E016E020E3CEC0EF0CF
:1016D800A60EE82EFED700D0000E016E380E3CECA8
:1016E8000EF0A60EE82EFED700D0000E016E010EF9
:1016F8003CEC0EF0040E036E3E0EE82EFED7032ED1
:10170800FCD7000E016E0C0E3CEC0EF0A60EE82E77
:10171800FED700D01200000E096E000E086ECDEF45
:101728000BF008500124D96E09500220DA6EDF5000
:10173800056E066A08500324D96E09500420DA6E33
:10174800DF50076E0750055E000E065A055006105A
:10175800D8B4B1EF0BF0B3EF0BF0CBEF0BF00850B0
:101768000124D96E09500220DA6EDF50056E085048
:101778000324D96E09500420DA6EDF50066E065035
:10178800055C016E026AD8A00206DDEF0BF0084A7C
:10179800092A08500124D96E09500220DA6EDF5058
:1017A800D8A4D9EF0BF0DBEF0BF095EF0BF0B3EF0C
:1017B8000BF012004FC001F050C002F0000E046E92
:1017C8000A0E036E42EC0DF0013A023AF00E0216D0
:1017D80001500F0B0212F00E011601C008F002C0F2
:1017E80009F0000E0B6E000E0A6E0A500624D96E20
:1017F8000B500720DA6EDF50026E08500A24E0EC26
:101808000DF00A4A0B2A0BBE13EF0CF00B5009E13E
:10181800100E0A5CD8A013EF0CF015EF0CF0F9EFDE
:101828000BF04F4A502A0A0E4F185010D8A41FEF39
:101838000CF021EF0CF025EF0CF0000E506E000EAE
:101848004F6E1200020E6EEC0EF03C6E010E6EEC46
:101858000EF03D6E000E6EEC0EF03E6E3CAC37EFB7
:101868000CF039EF0CF045EF0CF03C380F0B010B86
:10187800300F0001846F3C500F0B300F856F4FEF16
:101888000CF03C380F0B030B300F0001846F3C50F9
:101898000F0B300F856F3A0E866F3D380F0B0F0B0D
:1018A800300F876F3D500F0B300F886F3A0E896FDE
:1018B8003E380F0B0F0B300F8A6F3E500F0B300F57
:1018C8008B6F1200000E066E000E056E035004109A
:1018D800D8B471EF0CF073EF0CF09BEF0CF0010E25
:1018E800076E7BEF0CF0D89003360436072A04AE57
:1018F80080EF0CF082EF0CF077EF0CF0D890053603
:1019080006360350015C04500258D8A08EEF0CF044
:1019180090EF0CF095EF0CF00350015E0450025A62
:101928000580D89004320332072E82EF0CF005C0F0
:1019380001F006C002F01200016E0150D8A4A7EF12
:101948000CF0A9EF0CF0ADEF0CF0C7EC09F0D8EFF4
:101958000CF00104D8A4B3EF0CF0B5EF0CF0D8EFFD
:101968000CF0C7EC09F0026E0228D8B4BEEF0CF0F8
:10197800C0EF0CF0CDEF0CF05A50D8B4C6EF0CF015
:10198800C8EF0CF0CDEF0CF0000E5A6E0250D8EFF5
:101998000CF00228D8A4D3EF0CF0D5EF0CF0D7EF59
:1019A8000CF0010E5A6EFF0E1200000E016E05506B
:1019B8003CEC0EF0F6EF0CF0010E016E03C0F6FFE2
:1019C80004C0F7FFF86A050EF76403D00800F55065
:1019D80005D0F6CFE9FFF7CFEAFFEF503CEC0EF069
:1019E800034A042A03C0F6FF04C0F7FFF86A050E8D
:1019F800F76403D00800F55005D0F6CFE9FFF7CF1C
:101A0800EAFFEF500009D8A40CEF0DF00EEF0DF02F
:101A1800E0EF0CF012003E0EF66E1C0EF76E000E94
:101A2800F86E00EE60F010EE3AF00900F5CFEEFF28
:101A3800E550E150FAE1F60EF66E1D0EF76E000E57
:101A4800F86E00EE56F010EE06F00900F5CFEEFF46
:101A5800E550E150FAE100EE9AF0230EEE6AE8064E
:101A6800FDE100EE3CF01A0EEE6AE806FDE15C903E
:101A78005C92000EF86E000124EF09F00350041088
:101A8800D8B449EF0DF04BEF0DF06FEF0DF0010EEC
:101A9800056E53EF0DF0D89003360436052A04AED0
:101AA80058EF0DF05AEF0DF04FEF0DF00350015CB9
:101AB80004500258D8A063EF0DF065EF0DF069EF00
:101AC8000DF00350015E0450025AD89004320332DC
:101AD800052E5AEF0DF001C001F002C002F012000D
:101AE800000E6EEC0EF0046E04508009026E000EBB
:101AF80083EC0EF0020E6EEC0EF0046E04504009FA
:101B0800026E020E83EC0EF0930E026E070E83EC4B
:101B18000EF0000E6EEC0EF0046E04507F0B026E99
:101B2800000E83EC0EF01200086E08C003F0D89087
:101B38000336D8900336C250C30B0310C26EC2825C
:101B4800C2B2A9EF0DF0ABEF0DF0A4EF0DF0C4CFCA
:101B580003F0030E03160350056E046AC350066EA5
:101B6800076A04500610016E05500710026E120035
:101B78000600DE0ED624D66E0B0ED720D76EF2A442
:101B8800C8EF0DF0CAEF0DF0DEEF0DF000019A4B33
:101B98009B2B510E9A199B11D8A4D5EF0DF0D7EFB6
:101BA8000DF0DDEF0DF0000E9B6F000E9A6F514A9D
:101BB800522AF2945C921100056EF7EC0EF0A00E1A
:101BC800E1EC0EF00550E1EC0EF00250E1EC0EF005
:101BD800F3EC0EF00B0E046EB80E036E0306D8A0DD
:101BE8000406032806E10428D8A4FDEF0DF0FFEF52
:101BF8000DF0F2EF0DF0120008C001F009C002F07C
:101C0800000E046E0A0E036E66EC0CF00150300FE5
:101C18000001926F08C001F009C002F0000E046EC6
:101C28000A0E036E42EC0DF00150300F0001936F65
:101C3800000E946F1200E62FE12FCD2FD22FD72F51
:101C4800DC2FEB2FC82FF62FFC2FF32FF02FF92FB7
:101C5800BB2EAA2EEE2ECC2E982F2020202020201E
:101C6800202020204F4E20202020203030313100ED
:101C7800026E01B042EF0EF045EF0EF0828246EFA1
:101C88000EF0829202C083FF82848294958E8280B5
:101C980082928284829483BE54EF0EF056EF0EF047
:101CA8004DEF0EF08290959E1200026EF7EC0EF04A
:101CB800A00EE1EC0EF00250E1EC0EF0EBEC0EF0B1
:101CC800A10EE1EC0EF0DBEC0EF0036EF3EC0EF07F
:101CD80003501200026EF7EC0EF0D00EE1EC0EF09D
:101CE8000250E1EC0EF0EBEC0EF0D10EE1EC0EF050
:101CF800DBEC0EF0036EF3EC0EF003501200036EF3
:101D0800F7EC0EF0D00EE1EC0EF00350E1EC0EF023
:101D18000250E1EC0EF0F3EC0EF01200C280C19A12
:101D2800C198C186C194C182C190C08AC098C0962A
:101D3800C094C082C090C08E1200E7EC0EF037EC61
:101D48000BF092EC0EF0AEEC0EF0C7EC0EF074EC6B
:101D58000DF01200F28EF28CF28AF2940B0ED76E0E
:101D6800DC0ED66ED58ED59CD59AD5861200096E16
:101D7800000E016E08503CEC0EF0010E016E095089
:101D88003CEC0EF0120094869488280EC66E310E34
:101D9800C86EC79CC78E9E96A19612009EA6D7EFC6
:101DA8000EF0D9EF0EF0D2EF0EF09E961200EFEC87
:101DB8000EF0FEEC0EF0C9501200016E01C0C9FF12
:101DC800D2EC0EF012001E0E936EF19E1200C58228
:101DD800D2EC0EF01200C586D2EC0EF01200C584CB
:101DE800D2EC0EF01200C580D2EC0EF01200010009
:0A1DF80001000133C58AC5881200FE
:102E9800004C6F67733A2D2020202020202020200E
:102EA80020005365742054696D652020202020205F
:102EB80020200056696577204C6F6720202020204D
:102EC80020202000436C656172206C6F67202020F1
:102ED80020202020002020204D656E75205061673D
:102EE800652020202000446F776E6C6F6164204C51
:102EF8006F67202020200020204E657720506173C6
:102F080073776F72642020002020417474656D709F
:102F180074204F76657220200020456E74657220FB
:102F280050617373776F7264200020456E74657208
:102F38002070617373776F72642000202054494DAC
:102F480045202020204556202053500020576169F5
:102F58007420466F722020202053656300436F6EF3
:102F68006669726D2050617373776F726400436F86
:102F780072726563742050617373776F7264002096
:102F88002020202020202020202020202020200059
:102F980052657365742050617373776F7264200093
:102FA8002057726F6E672050617373776F72640079
:102FB8002D417474656D70742052656D61696E0081
:102FC80020432020002047312000204732200020C5
:102FD80047332000204734200020474E2000204F50
:102FE8004E20002047522000434C00444C00564CD1
:082FF800004350005354000097
:020000040020DA
:08000000FFFFFFFFFFFFFFFF00
:020000040030CA
:0E000000FF071F1FFF8285FF0FC00FE00F409C
:00000001FF
