:020000040000FA
:0400000007EF00F016
:100008005D8291ED0AF0E4EF09F01A50800B276E3B
:100018001A501A242E6E19AE14EF00F016EF00F0E5
:1000280017EF00F02E802E50D8B41DEF00F01FEF10
:1000380000F034EF00F02E28D8A425EF00F027EFC9
:1000480000F02FEF00F0000E176E000E186E000E75
:10005800196E000E1A6E198E000E1A6E3CEF00F023
:10006800000E176E000E186E000E196E000E1A6E36
:100078001E50800B271A1E501E242F6E1DAE47EFF0
:1000880000F049EF00F04AEF00F02F802F50D8B46D
:1000980050EF00F052EF00F067EF00F02F28D8A4DF
:1000A80058EF00F05AEF00F062EF00F0000E1B6E00
:1000B800000E1C6E000E1D6E000E1E6E1D8E000EB4
:1000C8001E6E6FEF00F0000E1B6E000E1C6E000E11
:1000D8001D6E000E1E6E1B501C101D101E10D8A485
:1000E80078EF00F07AEF00F092EF00F0000E176E54
:1000F800000E186E000E196E000E1A6E800E191280
:100108007F0E1A1227501A1217C017F018C018F0CD
:1001180019C019F01AC01AF0D5EF01F02E50D8A462
:1001280098EF00F09AEF00F0A4EF00F0000E176EC1
:10013800000E186E000E196E000E1A6ED5EF01F043
:100148002F502EC01FF0206A1F5E000E205A7F0E0F
:100158001F24286E000E2020296E17C023F018C017
:1001680024F019C025F01AC026F0000E176E000EF4
:10017800186E000E196E000E1A6E000E2A6E000E12
:100188002B6E000E2C6E000E2D6E000E2F6E05EFDE
:1001980001F02F50D8B4D3EF00F0D5EF00F0ECEF1A
:1001A80000F0D8902336243625362636D8901736D0
:1001B800183619361A362DAEE4EF00F0E6EF00F0E7
:1001C800E7EF00F01780D8902A362B362C362D36DC
:1001D8001B50235C1C5024581D5025581E5026586F
:1001E800D8A0F9EF00F0FBEF00F004EF01F02D8C40
:1001F8001B50235E1C50245A1D50255A1E50265A47
:100208002F2A190E2F640BEF01F00DEF01F0CDEF3F
:1002180000F02350241025102610D8B416EF01F052
:1002280018EF01F030EF01F02A8030EF01F0D8909C
:100238001736183619361A362DAE25EF01F027EF86
:1002480001F028EF01F01780D8902A362B362C368B
:100258002D362806D8A0290619AE35EF01F037EF5C
:1002680001F01BEF01F0000E2F6E2DAE3EEF01F0F6
:1002780040EF01F064EF01F0FF0E2A141F6EFF0E2D
:100288002B14206EFF0E2C14216E7F0E2D14226E5F
:100298001F50201021102210D8B455EF01F057EF4D
:1002A80001F05BEF01F0010E2F6E64EF01F017A073
:1002B80060EF01F062EF01F064EF01F057EF01F039
:1002C8002F50D8B46AEF01F06CEF01F090EF01F015
:1002D800010E1726000E182219221A221AA077EFEB
:1002E80001F079EF01F090EF01F017C01FF018C08E
:1002F80020F019C021F01AC022F022342232213213
:1003080020321F321FC017F020C018F021C019F08A
:1003180022C01AF0284A292A29BE9BEF01F0295049
:1003280008E12828D8A09BEF01F09DEF01F0A8EF85
:1003380001F0000E296E2868000E176E000E186E68
:10034800000E196E000E1A6E29BEB5EF01F0295085
:1003580006E12804D8B0B3EF01F0B5EF01F0C3EF20
:1003680001F0000E296E000E286E000E176E000EAA
:10037800186E000E196E000E1A6E000E276E28C039
:100388002EF02EA0CAEF01F0CCEF01F0CFEF01F074
:10039800198ED0EF01F0199ED8902E301A6E86EF84
:1003A80000F012000E6E49504A10D8A4DEEF01F09A
:1003B800E0EF01F07FEF03F00B0E0E18D8A4E7EF83
:1003C80001F0E9EF01F0FFEF01F08D0E4D24D96E39
:1003D800000E4E20DA6E310EDF6E4D50C30F086EE0
:1003E8002A0E54EC0BF0000E546E000E536E4D4A5C
:1003F8004E2A18EF02F00C0E0E18D8A406EF02F0E1
:1004080008EF02F018EF02F08D0E4D24D96E000EA1
:100418004E20DA6E300EDF6E4D50C30F086E2A0E76
:1004280054EC0BF0F7EF01F0050E53185410D8A454
:1004380020EF02F022EF02F02EEF02F0000E566ECF
:10044800000E4E6E000E4D6E330E5C6E8EEF03F096
:100458008EEF03F04B500A6E4C500B6E4B4A4C2AF1
:10046800200E0A5C030E0B58D8B03DEF02F03FEFA8
:1004780002F047EF02F04D50C30F086E5F0E54ECC8
:100488000BF068EF02F0210E4B5C030E4C58D8A01D
:1004980050EF02F052EF02F068EF02F04D50C30F38
:1004A800086E200E54EC0BF0400E4B1807E1060EB8
:1004B8004C18D8A462EF02F064EF02F068EF02F083
:1004C800000E4C6E000E4B6EB10E036E2F0E046EB6
:1004D800800E056EAEEC09F0040E4D184E10D8A42F
:1004E80078EF02F07AEF02F08EEF03F0080E0B6E51
:1004F8009D0E0A6E060EE82EFED70A2EFCD70B2E8E
:10050800FAD75C06000E4E6E000E4D6E000E106E91
:10051800000E0F6E000E0D6E000E0C6EE7EF02F06F
:100528008D0E0F24D96E000E1020DA6EF90E0F24EE
:10053800F66E2F0E1020F76EDE500900F518D8B4AD
:10054800A8EF02F0AAEF02F0E5EF02F0000E0D6E40
:10055800010E0C6E0D0E0B6EAF0E0A6EB60EE82E67
:10056800FED70A2EFCD70B2EFAD700D0A10E036EA9
:100578002F0E046E800E056EAEEC09F0C00E086EEC
:100588005C5054EC0BF0C10E036E2F0E046EC10EBE
:10059800056EAEEC09F00D0E0B6EAF0E0A6EB60EC0
:1005A800E82EFED70A2EFCD70B2EFAD700D0D70E8E
:1005B800036E2E0E046EC00E056EAEEC09F0F7EF5A
:1005C80002F00F4A102AF90E0F24F66E2F0E102093
:1005D800F76E0800F5500009D8A4F5EF02F0F7EF20
:1005E80002F094EF02F00C500D10D8A4FEEF02F0C8
:1005F80000EF03F028EF03F0000E4A6E010E496E7B
:10060800000E4E6E000E4D6E330E5C6E700E036E55
:100618002F0E046E800E056EAEEC09F01B0E036EF5
:100628002F0E046EC00E056EAEEC09F0120E0B6EA6
:10063800C20E0A6E660EE82EFED70A2EFCD70B2EC7
:10064800FAD700D08EEF03F0300E5C18D8A42FEF45
:1006580003F031EF03F02CEF02F03D0E036E2F0E86
:10066800046E800E056EAEEC09F05F0E036E2F0E61
:10067800046EC00E056EAEEC09F0000E546E000E4E
:10068800536E6FEF03F0CA0E086E53503B08016EAD
:100698005450D8A0E82A0008026E000E046E0A0E14
:1006A800036E3BEC09F00150300F54EC0BF0CB0E0D
:1006B800086E53503B08016E5450D8A0E82A000831
:1006C800026E000E046E0A0E036E17EC0AF001505B
:1006D800300F54EC0BF03C0E53185410D8A477EF9D
:1006E80003F079EF03F047EF03F0000E566E330E78
:1006F8005C6E8EEF03F049044A10D8A486EF03F02D
:1007080088EF03F08EEF03F0000E4A6E000E496E7C
:10071800020E566E12000C6E49504A10D8A497EF7C
:1007280003F099EF03F066EF04F00B0E0C18D8A451
:10073800A0EF03F0A2EF03F0C4EF03F0000E546E35
:10074800000E536E0CC047F0486A41500A6E425082
:100758000B6E414A422A910E0A5C010E0B58D8A032
:10076800B8EF03F0BAEF03F023EF04F0000E4A6E7F
:10077800010E496E000E426E000E416E23EF04F02A
:1007880041504210D8B4CBEF03F0CDEF03F023EF84
:1007980004F0900E415C010E4258D8B0D6EF03F039
:1007A800D8EF03F023EF04F00B0E47184810D8A435
:1007B800E0EF03F0E2EF03F023EF04F00C28D8A4F5
:1007C800E8EF03F0EAEF03F023EF04F059505A1072
:1007D800D8B4F1EF03F0F3EF03F023EF04F0575030
:1007E8005810D8A4FAEF03F0FCEF03F002EF04F07E
:1007F800000E586E010E576E13EF04F05A5009E1BF
:10080800020E595CD8A00BEF04F00DEF04F013EFC3
:1008180004F04506D8A046065906D8A05A06435003
:100828004410D8B41AEF04F01CEF04F01FEF04F0E2
:100838004306D8A04406000E426E000E416E5704CF
:100848005810D8A42AEF04F02CEF04F038EF04F085
:10085800800E086E2A0E54EC0BF0C00E086E200EA7
:1008680054EC0BF042EF04F0800E086E200E54ECAE
:100878000BF0C00E086E2A0E54EC0BF0D8904534DD
:10088800D96E4634DA6E700ED926000EDA22DECF23
:1008980003F0DDCF04F0810E056EAEEC09F0D890C0
:1008A8005934D96E5A34DA6E700ED926000EDA220F
:1008B800DECF03F0DDCF04F0C10E056EAEEC09F01B
:1008C8007FEF04F0810E036E2F0E046E800E056E0E
:1008D800AEEC09F0D8904334D96E4434DA6E700E19
:1008E800D926000EDA22DECF03F0DDCF04F0C00EE9
:1008F800056EAEEC09F0050E53185410D8A487EF16
:1009080004F089EF04F0A1EF04F0000E466E000E2B
:10091800456E000E5A6E010E596E000E586E010E8D
:10092800576E000E446E000E436E000E426E000EAF
:10093800416E000E566E43EF05F00C0E0C18D8A44D
:10094800A8EF04F0AAEF04F0DAEF04F0000E546EFA
:10095800000E536E0CC047F0486A41500A6E425070
:100968000B6E414A422A910E0A5C010E0B58D8A020
:10097800C0EF04F0C2EF04F043EF05F0000E466E3E
:10098800000E456E000E5A6E010E596E000E586E1E
:10099800010E576E000E446E000E436E000E566E2A
:1009A800000E426E000E416E43EF05F041504210BA
:1009B800D8B4E1EF04F0E3EF04F043EF05F0900E54
:1009C800415C010E4258D8B0ECEF04F0EEEF04F0B1
:1009D80043EF05F00C0E47184810D8A4F6EF04F0C2
:1009E800F8EF04F043EF05F00C28D8A4FEEF04F06C
:1009F80000EF05F043EF05F0465007E1040E455CB3
:100A0800D8B009EF05F00BEF05F043EF05F04950BA
:100A18004A10D8A412EF05F014EF05F03FEF05F0E7
:100A280057045810D8A41BEF05F01DEF05F023EF6D
:100A380005F0000E586E000E576E32EF05F0465066
:100A480007E1030E455CD8B02CEF05F02EEF05F05A
:100A580032EF05F0454A462A594A5A2A445007E1D6
:100A6800040E435CD8B03BEF05F03DEF05F03FEFD7
:100A780005F0434A442A000E426E000E416E1200F1
:100A8800116E1150D8B44BEF05F04DEF05F06FEF34
:100A980005F00CBE54EF05F052EF05F06FEF05F0CE
:100AA80009C00DF00AC00EF00BC00FF00CC010F01A
:100AB8000D1E0E1E0F1E101E0D2A000E0E220F22D6
:100AC80010220DC013F00EC014F00FC015F010C0A6
:100AD80016F077EF05F009C013F00AC014F00BC048
:100AE80015F00CC016F009500A100B100C10D8A401
:100AF80080EF05F082EF05F08CEF05F0000E096E2F
:100B0800000E0A6E000E0B6E000E0C6E1DEF06F046
:100B1800960E126E96EF05F0122AD89016321532FC
:100B280014321332000E13140D6E000E14140E6ED0
:100B3800000E15140F6EFE0E1614106E0D500E10CA
:100B48000F101010D8A4ABEF05F0ADEF05F090EF43
:100B580005F0BBEF05F0122A010E1326000E142231
:100B680015221622D8901632153214321332000E7E
:100B780013140D6E000E14140E6E000E15140F6E65
:100B8800FF0E1614106E0D500E100F101010D8A472
:100B9800D0EF05F0D2EF05F0AFEF05F0DAEF05F092
:100BA8001206D890133614361536163615BEDFEFF2
:100BB80005F0E1EF05F0E9EF05F0020E1260E7EF4E
:100BC80005F0E9EF05F0D4EF05F012B0EEEF05F00F
:100BD800F0EF05F0F1EF05F0159ED890123212C033
:100BE8000DF00E6A0F6A106A0DC010F00F6A0E6AD7
:100BF8000D6A0D5013120E5014120F50151210508A
:100C080016121150D8B40BEF06F00DEF06F015EFE1
:100C180006F00CBE14EF06F012EF06F015EF06F022
:100C2800168E13C009F014C00AF015C00BF016C0D8
:100C38000CF01200056E0504D8A425EF06F027EF86
:100C480006F02DEF06F0000E526E070E516E92EF71
:100C580006F0020E0518D8B434EF06F036EF06F0A9
:100C68003FEF06F0030E0518D8A43DEF06F03FEF5E
:100C780006F092EF06F0070E51185210D8A447EF6D
:100C880006F049EF06F056EF06F0020E0518D8A454
:100C980050EF06F052EF06F056EF06F0000E526ED7
:100CA800000E516E020E0518D8A45DEF06F05FEF36
:100CB80006F06EEF06F0525007E1060E515CD8B010
:100CC80068EF06F06AEF06F06EEF06F0514A522A16
:100CD80092EF06F0030E0518D8A475EF06F077EF2B
:100CE80006F092EF06F0525009E1020E515CD8A0CE
:100CF80080EF06F082EF06F092EF06F0525007E11F
:100D0800070E515CD8B08BEF06F08DEF06F092EF2E
:100D180006F05106D8A0520692EF06F0200E000108
:100D2800846F000E046E000E036EBBEF06F0D890C1
:100D38005134D96E5234DA6E600ED926000EDA229A
:100D4800DECF01F0DDCF02F003500126045002226D
:100D580001C0F6FF02C0F7FF850E0324D96E000E0E
:100D68000420DA6E0800F5CFDFFF034A042AD89082
:100D78005134D96E5234DA6E600ED926000EDA225A
:100D8800DECF01F0DDCF02F003500126045002222D
:100D980001C0F6FF02C0F7FF0800F5500009D8A40B
:100DA800D8EF06F0DAEF06F09BEF06F0200E000110
:100DB800896F1200819A818C818E81B2E6EF06F0EC
:100DC800E8EF06F0EBEF06F0010E61EF07F081B4F3
:100DD800F0EF06F0F2EF06F0F5EF06F0040E61EF23
:100DE80007F081B6FAEF06F0FCEF06F0FFEF06F029
:100DF800070E61EF07F081B804EF07F006EF07F080
:100E080009EF07F00A0E61EF07F0818A819C818E55
:100E180081B211EF07F013EF07F016EF07F0020E9B
:100E280061EF07F081B41BEF07F01DEF07F020EF2B
:100E380007F0050E61EF07F081B625EF07F027EF01
:100E480007F02AEF07F0080E61EF07F081B82FEFDF
:100E580007F031EF07F034EF07F00B0E61EF07F002
:100E6800818A818C819E819E81B23DEF07F03FEFA0
:100E780007F042EF07F0030E61EF07F081B447EF88
:100E880007F049EF07F04CEF07F0060E61EF07F0A7
:100E980081B651EF07F053EF07F056EF07F0090E50
:100EA80061EF07F081B85BEF07F05DEF07F060EFE7
:100EB80007F00C0E61EF07F0FF0E120032343334E6
:100EC800396E3950D8A46BEF07F06DEF07F077EF64
:100ED80007F0000E306E000E316E000E326E000EFE
:100EE800336EE4EF07F030C034F031C035F032C073
:100EF80036F033C037F0200E87EF07F0D89037323E
:100F0800363235323432E82E82EF07F03450386EFC
:100F1800328EFF0E3016FF0E3116FF0E3216000EFF
:100F28003316960E395E39BE9EEF07F09CEF07F038
:100F3800B4EF07F03950800A970FD8B0A6EF07F042
:100F4800A8EF07F0AAEF07F06DEF07F0D89033325B
:100F5800323231323032393EAAEF07F0CCEF07F0A7
:100F68001F0E3964BAEF07F0BCEF07F0C4EF07F0C3
:100F78006DEF07F0D89030363136323633363906D1
:100F88003950D8A4CAEF07F0CCEF07F0BEEF07F04E
:100F98003850D8B4D2EF07F0D4EF07F0DCEF07F001
:100FA800331E321E311E306C000E312232223322A3
:100FB80030C030F031C031F032C032F033C033F0DD
:100FC80012003A6E4E0E036E2F0E046E800E056EE2
:100FD800AEEC09F0FBEC08F03A04D8B4F6EF07F0F1
:100FE800F8EF07F00AEF08F0020E3A18D8B4FFEF4E
:100FF80007F001EF08F00AEF08F0030E3A18D8A43A
:1010080008EF08F00AEF08F00DEF08F03A501EEC70
:1010180006F0140E1B6EAE0E1C6E230E1D6E410ED6
:101028001E6E040E6DEC0AF001C009F002C00AF051
:101038000B6A0C6A000E44EC05F009C017F00AC0F0
:1010480018F00BC019F00CC01AF009EC00F017C02A
:1010580030F018C031F019C032F01AC033F062EC29
:1010680007F030C04FF031C050F04FC008F050C00A
:1010780009F0B4EC0AF07C0E036E000E046EC00E8C
:10108800056EAEEC09F012003AEC0BF0020E5618A1
:10109800D8A451EF08F053EF08F059EF08F0000E0C
:1010A80075EC09F03B6E5DEF08F0010E75EC09F088
:1010B8003B6E0A0E3B18D8A464EF08F066EF08F000
:1010C80074EF08F0D80E036E2E0E046EC00E056E77
:1010D800AEEC09F0010E566E000E546E000E536E03
:1010E8005604D8A47AEF08F07CEF08F08EEF08F0E9
:1010F8003B50D6EC01F0020E5618D8A486EF08F043
:1011080088EF08F04AEF08F0000E546E000E536E98
:101118004AEF08F0020E5618D8A495EF08F097EF9A
:1011280008F09CEF08F03B508FEC03F04AEF08F012
:101138003B50E5EC07F04AEF08F007EF00F0000E2F
:10114800956E9450F80B946E8290020E046E040E05
:10115800036EBA0EE82EFED7032EFCD7042EFAD75C
:1011680000D0000E016E330ED3EC0AF01B0E036E96
:101178009E0EE82EFED7032EFCD700D0000E016E7F
:10118800330ED3EC0AF0A60EE82EFED700D0000EE0
:10119800016E330ED3EC0AF000D000D000F0000E40
:1011A800016E020ED3EC0AF0A60EE82EFED700D090
:1011B800000E016E380ED3EC0AF0A60EE82EFED70C
:1011C80000D0000E016E010ED3EC0AF0040E036E7F
:1011D8003E0EE82EFED7032EFCD7000E016E0C0E35
:1011E800D3EC0AF0A60EE82EFED700D01200020EAD
:1011F80007EC0BF03C6E010E07EC0BF03D6E000E99
:1012080007EC0BF03E6E3CAC0CEF09F00EEF09F06A
:101218001AEF09F03C380F0B010B300F00017C6FFF
:101228003C500F0B300F7D6F24EF09F03C380F0B4B
:10123800030B300F00017C6F3C500F0B300F7D6F9C
:101248003A0E7E6F3D380F0B0F0B300F7F6F3D50FE
:101258000F0B300F806F3A0E816F3E380F0B0F0B5C
:10126800300F826F3E500F0B300F836F1200000E4D
:10127800066E000E056E03500410D8B446EF09F050
:1012880048EF09F070EF09F0010E076E50EF09F012
:10129800D89003360436072A04AE55EF09F057EF05
:1012A80009F04CEF09F0D890053606360350015C7A
:1012B80004500258D8A063EF09F065EF09F06AEF0F
:1012C80009F00350015E0450025A0580D890043298
:1012D8000332072E57EF09F005C001F006C002F0EF
:1012E8001200016E0150D8A47CEF09F07EEF09F0DE
:1012F80082EF09F0DEEC06F0ADEF09F00104D8A4A6
:1013080088EF09F08AEF09F0ADEF09F0DEEC06F09E
:10131800026E0228D8B493EF09F095EF09F0A2EF16
:1013280009F05B50D8B49BEF09F09DEF09F0A2EFEC
:1013380009F0000E5B6E0250ADEF09F00228D8A448
:10134800A8EF09F0AAEF09F0ACEF09F0010E5B6E07
:10135800FF0E1200000E016E0550D3EC0AF0CBEF21
:1013680009F0010E016E03C0F6FF04C0F7FFF86A2A
:10137800050EF76403D00800F55005D0F6CFE9FF55
:10138800F7CFEAFFEF50D3EC0AF0034A042A03C070
:10139800F6FF04C0F7FFF86A050EF76403D00800EB
:1013A800F55005D0F6CFE9FFF7CFEAFFEF50000977
:1013B800D8A4E1EF09F0E3EF09F0B5EF09F0120066
:1013C800E00EF66E150EF76E000EF86E00EE60F089
:1013D80010EE2DF00900F5CFEEFFE550E150FAE1EF
:1013E800280EF66E170EF76E000EF86E00EE57F028
:1013F80010EE06F00900F5CFEEFFE550E150FAE1F6
:1014080000EE8DF0070EEE6AE806FDE100EE3CF016
:101418001B0EEE6AE806FDE15D905D92000EF86E27
:10142800000148EF08F003500410D8B41EEF0AF08A
:1014380020EF0AF044EF0AF0010E056E28EF0AF0DB
:10144800D89003360436052A04AE2DEF0AF02FEFA4
:101458000AF024EF0AF00350015C04500258D8A0A7
:1014680038EF0AF03AEF0AF03EEF0AF00350015E57
:101478000450025AD89004320332052E2FEF0AF096
:1014880001C001F002C002F01200000E07EC0BF0E0
:10149800046E04508009026E000E1CEC0BF0020E64
:1014A80007EC0BF0046E04504009026E020E1CECAF
:1014B8000BF0930E026E070E1CEC0BF0000E07ECFF
:1014C8000BF0046E04507F0B026E000E1CEC0BF048
:1014D8001200086E08C003F0D8900336D89003367F
:1014E800C250C30B0310C26EC282C2B27EEF0AF0B2
:1014F80080EF0AF079EF0AF0C4CF03F0030E031669
:101508000350056E046AC350066E076A045006103D
:10151800016E05500710026E12000600DE0ED6247A
:10152800D66E0B0ED720D76EF2A49DEF0AF09FEF70
:101538000AF0B2EF0AF03F4A402A510E3F18401015
:10154800D8A4A9EF0AF0ABEF0AF0B1EF0AF0000E49
:10155800406E000E3F6E534A542AF2945D92110079
:1015680008C001F009C002F0000E046E0A0E036EF6
:101578003BEC09F00150300F00018A6F08C001F000
:1015880009C002F0000E046E0A0E036E17EC0AF092
:101598000150300F00018B6F000E8C6F1200026E2D
:1015A80001B0D9EF0AF0DCEF0AF08282DDEF0AF031
:1015B800829202C083FF82848294958E8280829276
:1015C8008284829483BEEBEF0AF0EDEF0AF0E4EF39
:1015D8000AF08290959E1200EF2FEA2FD62FDB2F6C
:1015E800E02FE52FF42FD12FF92EE82E2C2F0A2FDC
:1015F800912FF92F202020202020202020204F4E1E
:0516080020202020203D
:10160E00026E88EC0BF0D00E74EC0BF0025074EC02
:10161E000BF08CEC0BF0D10E74EC0BF07AEC0BF0B3
:10162E00036E84EC0BF003501200036E88EC0BF08B
:10163E00D00E74EC0BF0035074EC0BF0025074EC03
:10164E000BF084EC0BF01200C280C19AC198C186D7
:10165E00C194C182C190C08AC098C096C094C08205
:10166E00C090C08E120080EC0BF0A3EC08F02BECB7
:10167E000BF047EC0BF060EC0BF049EC0AF01200AB
:10168E00F28EF28CF28AF2940B0ED76EDC0ED66EC0
:10169E00D58ED59CD59AD5861200096E000E016E98
:1016AE000850D3EC0AF0010E016E0950D3EC0AF08B
:1016BE00120094869488280EC66E310EC86EC79C92
:1016CE00C78E9E96A19612009EA670EF0BF072EF3B
:1016DE000BF06BEF0BF09E961200016E01C0C9FF6E
:1016EE006BEC0BF0120090EC0BF097EC0BF0C9507A
:1016FE0012001E0E936EF19E1200C5846BEC0BF061
:10170E001200C5806BEC0BF01200C5826BEC0BF077
:10171E001200C5866BEC0BF01200010001000133C4
:06172E00C58AC588120007
:102ED600002020202020202020202020202020200C
:102EE60020005365742054696D6520202020202021
:102EF60020200056696577204C6F6720202020200F
:102F060020202000436C656172206C6F67202020B2
:102F160020202020002020204D656E7520506167FE
:102F2600652020202000446F776E6C6F6164204C12
:102F36006F6720202020002020417474656D707416
:102F4600204F766572202000202054494D452020D0
:102F56002020455620205350002057616974204692
:102F66006F722020202053656300436F7272656381
:102F7600742050617373776F726400456E74657266
:102F86006564204D454E55203A20005265736574A0
:102F96002050617373776F726420002057726F6ED2
:102FA600672050617373776F72640020456E746595
:102FB600722070617373776F7264002D417474654B
:102FC6006D70742052656D61696E0020432020008B
:102FD60020473120002047322000204733200020A0
:102FE6004734200020474E2000204F4E2000204727
:092FF6005220003030313100009E
:020000040020DA
:08000000FFFFFFFFFFFFFFFF00
:020000040030CA
:0E000000FF071F1FFF8285FF0FC00FE00F409C
:00000001FF
