:020000040000FA
:04000000BFEF08F056
:1006000000202054494D4520202020204520205303
:100610005000202031303A30303A30302000432032
:1006200000473100473200473300473400474E004F
:070630004F4E00475200008D
:100638001A50800B276E1A501A242E6E19AE27EF07
:1006480003F029EF03F02AEF03F02E802E50D8B4E0
:1006580030EF03F032EF03F047EF03F02E28D8A471
:1006680038EF03F03AEF03F042EF03F0000E176E95
:10067800000E186E000E196E000E1A6E198E000EFE
:100688001A6E4FEF03F0000E176E000E186E000E74
:10069800196E000E1A6E1E50800B271A1E501E244B
:1006A8002F6E1DAE5AEF03F05CEF03F05DEF03F021
:1006B8002F802F50D8B463EF03F065EF03F07AEF83
:1006C80003F02F28D8A46BEF03F06DEF03F075EF5C
:1006D80003F0000E1B6E000E1C6E000E1D6E000E49
:1006E8001E6E1D8E000E1E6E82EF03F0000E1B6E36
:1006F800000E1C6E000E1D6E000E1E6E1B501C1090
:100708001D101E10D8A48BEF03F08DEF03F0A5EF9A
:1007180003F0000E176E000E186E000E196E000E14
:100728001A6E800E19127F0E1A1227501A1217C04D
:1007380017F018C018F019C019F01AC01AF0E8EF2D
:1007480004F02E50D8A4ABEF03F0ADEF03F0B7EFF1
:1007580003F0000E176E000E186E000E196E000ED4
:100768001A6EE8EF04F02F502EC01FF0206A1F5EAB
:10077800000E205A7F0E1F24286E000E2020296E9E
:1007880017C023F018C024F019C025F01AC026F0AD
:10079800000E176E000E186E000E196E000E1A6EFF
:1007A800000E2A6E000E2B6E000E2C6E000E2D6EA3
:1007B800000E2F6E18EF04F02F50D8B4E6EF03F0B8
:1007C800E8EF03F0FFEF03F0D89023362436253600
:1007D8002636D8901736183619361A362DAEF7EF52
:1007E80003F0F9EF03F0FAEF03F01780D8902A36F8
:1007F8002B362C362D361B50235C1C5024581D508C
:1008080025581E502658D8A00CEF04F00EEF04F01F
:1008180017EF04F02D8C1B50235E1C50245A1D50DA
:10082800255A1E50265A2F2A190E2F641EEF04F03F
:1008380020EF04F0E0EF03F02350241025102610D9
:10084800D8B429EF04F02BEF04F043EF04F02A802A
:1008580043EF04F0D8901736183619361A362DAEED
:1008680038EF04F03AEF04F03BEF04F01780D8902B
:100878002A362B362C362D362806D8A0290619AE4E
:1008880048EF04F04AEF04F02EEF04F0000E2F6E4C
:100898002DAE51EF04F053EF04F077EF04F0FF0EA4
:1008A8002A141F6EFF0E2B14206EFF0E2C14216EBF
:1008B8007F0E2D14226E1F50201021102210D8B444
:1008C80068EF04F06AEF04F06EEF04F0010E2F6E8B
:1008D80077EF04F017A073EF04F075EF04F077EFEB
:1008E80004F06AEF04F02F50D8B47DEF04F07FEFE6
:1008F80004F0A3EF04F0010E1726000E18221922A7
:100908001A221AA08AEF04F08CEF04F0A3EF04F087
:1009180017C01FF018C020F019C021F01AC022F02B
:1009280022342232213220321F321FC017F020C059
:1009380018F021C019F022C01AF0284A292A29BE25
:10094800AEEF04F0295008E12828D8A0AEEF04F053
:10095800B0EF04F0BBEF04F0000E296E2868000E1B
:10096800176E000E186E000E196E000E1A6E29BE54
:10097800C8EF04F0295006E12804D8B0C6EF04F007
:10098800C8EF04F0D6EF04F0000E296E000E286EB2
:10099800000E176E000E186E000E196E000E1A6EFD
:1009A800000E276E28C02EF02EA0DDEF04F0DFEF3A
:1009B80004F0E2EF04F0198EE3EF04F0199ED890EA
:1009C8002E301A6E99EF03F01200116E1150D8B440
:1009D800F0EF04F0F2EF04F014EF05F00CBEF9EFBD
:1009E80004F0F7EF04F014EF05F009C00DF00AC0A9
:1009F8000EF00BC00FF00CC010F00D1E0E1E0F1ED7
:100A0800101E0D2A000E0E220F2210220DC013F008
:100A18000EC014F00FC015F010C016F01CEF05F052
:100A280009C013F00AC014F00BC015F00CC016F082
:100A380009500A100B100C10D8A425EF05F027EF69
:100A480005F031EF05F0000E096E000E0A6E000E7B
:100A58000B6E000E0C6EC2EF05F0960E126E3BEF99
:100A680005F0122AD8901632153214321332000EBD
:100A780013140D6E000E14140E6E000E15140F6E66
:100A8800FE0E1614106E0D500E100F101010D8A474
:100A980050EF05F052EF05F035EF05F060EF05F087
:100AA800122A010E1326000E142215221622D8909F
:100AB8001632153214321332000E13140D6E000E56
:100AC80014140E6E000E15140F6EFF0E1614106E11
:100AD8000D500E100F101010D8A475EF05F077EF19
:100AE80005F054EF05F07FEF05F01206D8901336A5
:100AF80014361536163615BE84EF05F086EF05F068
:100B08008EEF05F0020E12608CEF05F08EEF05F007
:100B180079EF05F012B093EF05F095EF05F096EF39
:100B280005F0159ED890123212C00DF00E6A0F6AA9
:100B3800106A0DC010F00F6A0E6A0D6A0D5013127C
:100B48000E5014120F501512105016121150D8B41E
:100B5800B0EF05F0B2EF05F0BAEF05F00CBEB9EF53
:100B680005F0B7EF05F0BAEF05F0168E13C009F0DF
:100B780014C00AF015C00BF016C00CF01200819AD0
:100B8800818C818E81B2CBEF05F0CDEF05F0D0EFEF
:100B980005F0010E46EF06F081B4D5EF05F0D7EF6A
:100BA80005F0DAEF05F0040E46EF06F081B6DFEF48
:100BB80005F0E1EF05F0E4EF05F0070E46EF06F06B
:100BC80081B8E9EF05F0EBEF05F0EEEF05F00A0E5E
:100BD80046EF06F0818A819C818E81B2F6EF05F09E
:100BE800F8EF05F0FBEF05F0020E46EF06F081B4D2
:100BF80000EF06F002EF06F005EF06F0050E46EFEF
:100C080006F081B60AEF06F00CEF06F00FEF06F0DB
:100C1800080E46EF06F081B814EF06F016EF06F05E
:100C280019EF06F00B0E46EF06F0818A818C819E43
:100C3800819E81B222EF06F024EF06F027EF06F03E
:100C4800030E46EF06F081B42CEF06F02EEF06F007
:100C580031EF06F0060E46EF06F081B636EF06F0E5
:100C680038EF06F03BEF06F0090E46EF06F081B8C4
:100C780040EF06F042EF06F045EF06F00C0E46EFA7
:100C880006F0FF0E120032343334396E3950D8A4CE
:100C980050EF06F052EF06F05CEF06F0000E306EF3
:100CA800000E316E000E326E000E336EC9EF06F084
:100CB80030C034F031C035F032C036F033C037F0D0
:100CC800200E6CEF06F0D890373236323532343297
:100CD800E82E67EF06F03450386E328EFF0E30166D
:100CE800FF0E3116FF0E3216000E3316960E395EC1
:100CF80039BE83EF06F081EF06F099EF06F0395020
:100D0800800A970FD8B08BEF06F08DEF06F08FEFC3
:100D180006F052EF06F0D8903332323231323032A8
:100D2800393E8FEF06F0B1EF06F01F0E39649FEFE2
:100D380006F0A1EF06F0A9EF06F052EF06F0D89002
:100D4800303631363236333639063950D8A4AFEF1B
:100D580006F0B1EF06F0A3EF06F03850D8B4B7EFBD
:100D680006F0B9EF06F0C1EF06F0331E321E311E51
:100D7800306C000E31223222332230C030F031C0C4
:100D880031F032C032F033C033F01200000E956EED
:100D98009450F80B946E8290020E046E040E036E4B
:100DA800BA0EE82EFED7032EFCD7042EFAD700D0B1
:100DB800000E016E330EDCEC08F01B0E036E9E0E67
:100DC800E82EFED7032EFCD700D0000E016E330E9E
:100DD800DCEC08F0A60EE82EFED700D0000E016E5F
:100DE800330EDCEC08F000D000D000F0000E016EED
:100DF800020EDCEC08F0A60EE82EFED700D0000E9E
:100E0800016E380EDCEC08F0A60EE82EFED700D0F6
:100E1800000E016E010EDCEC08F0040E036E3E0EAF
:100E2800E82EFED7032EFCD7000E016E0C0EDCEC6C
:100E380008F0A60EE82EFED700D01200066E0604B3
:100E4800D8A429EF07F02BEF07F031EF07F0000ED9
:100E5800506E070E4F6E60EF07F0020E0618D8A40A
:100E680038EF07F03AEF07F049EF07F0505007E185
:100E7800060E4F5CD8B043EF07F045EF07F049EF97
:100E880007F04F4A502A60EF07F0030E0618D8A45F
:100E980050EF07F052EF07F060EF07F0505009E10C
:100EA800020E4F5CD8A05BEF07F05DEF07F060EF34
:100EB80007F04F06D8A05006D8904F34D96E50345A
:100EC800DA6E3C0ED926000EDA22DECF03F0DDCF33
:100ED80004F0CB0E056E7CEC08F012003A6E010EA1
:100EE800036E060E046E800E056E7CEC08F025EC91
:100EF80009F03A5022EC07F0140E1B6EAE0E1C6E71
:100F0800230E1D6E410E1E6E040E58EC08F001C033
:100F180009F002C00AF00B6A0C6A000EE9EC04F052
:100F280009C017F00AC018F00BC019F00CC01AF06D
:100F38001CEC03F017C030F018C031F019C032F0C3
:100F48001AC033F047EC06F030C04DF031C04EF017
:100F58004DC00AF04EC00BF09EEC08F01200000ED7
:100F6800066E000E056E03500410D8B4BEEF07F0ED
:100F7800C0EF07F0E8EF07F0010E076EC8EF07F0C3
:100F8800D89003360436072A04AECDEF07F0CFEF2A
:100F980007F0C4EF07F0D890053606360350015C19
:100FA80004500258D8A0DBEF07F0DDEF07F0E2EFBE
:100FB80007F00350015E0450025A0580D8900432AD
:100FC8000332072ECFEF07F005C001F006C002F08C
:100FD8001200016E0150D8A4F4EF07F0F6EF07F005
:100FE800FAEF07F0C3EC05F025EF08F00104D8A4E8
:100FF80000EF08F002EF08F025EF08F0C3EC05F069
:10100800026E0228D8B40BEF08F00DEF08F01AEFC3
:1010180008F04C50D8B413EF08F015EF08F01AEFA9
:1010280008F0000E4C6E025025EF08F00228D8A4F4
:1010380020EF08F022EF08F024EF08F0010E4C6EC4
:10104800FF0E120003500410D8B42DEF08F02FEF54
:1010580008F053EF08F0010E056E37EF08F0D8904E
:1010680003360436052A04AE3CEF08F03EEF08F0DC
:1010780033EF08F00350015C04500258D8A047EF42
:1010880008F049EF08F04DEF08F00350015E0450F6
:10109800025AD89004320332052E3EEF08F001C000
:1010A80001F002C002F01200086E08C003F0D890E8
:1010B8000336D8900336C250C30B0310C26EC282E7
:1010C800C2B269EF08F06BEF08F064EF08F0C4CF24
:1010D80003F0030E03160350056E046AC350066E30
:1010E800076A04500610016E05500710026E1200C0
:1010F800000E016E0550DCEC08F08FEF08F0010ED1
:10110800016E03C0F6FF04C0F7FF0800F550DCECE1
:1011180008F0034A042A03C0F6FF04C0F7FF0800DA
:10112800F5500009D8A49BEF08F09DEF08F083EF75
:1011380008F01200CE0E086E0AC001F00BC002F0D3
:10114800000E046E0A0E036EB3EC07F00150300F68
:1011580019EC09F0CF0E086E0AC001F00BC002F0BE
:10116800000E046E0A0E036E26EC08F00150300FD4
:1011780019EC09F012005C0EF66E120EF76E000EF6
:10118800F86E00EE3CF010EE11F00900F5CFEEFF1E
:10119800E550E150FAE1526A516A506A4F6A4E6A64
:1011A8004D6A000EF86E060EF76E0001F9EF08F0B2
:1011B800026E01B0E2EF08F0E5EF08F08282E6EF98
:1011C80008F0829202C083FF82848294958E828086
:1011D80082928284829483BEF4EF08F0F6EF08F0DE
:1011E800EDEF08F08290959E120037EC09F0010EA1
:1011F800EDEC07F03B6E000E526E000E516E3B5048
:1012080072EC07F0FBEF08F000EF00F0C280C19A23
:10121800C198C186C194C182C190C08AC098C09645
:10122800C094C082C090C08E1200096E000E016E7C
:101238000850DCEC08F0010E016E0950DCEC08F0F7
:101248001200120E036E060E046EC00E056E7CECC4
:1012580008F0120030062D062106240627062A0665
:0512680033061E060123
:10126E003EEC09F0CAEC06F00AEC09F012001E0E74
:06127E00936EF19E1200C8
:020000040020DA
:08000000FFFFFFFFFFFFFFFF00
:020000040030CA
:0E000000FF071F1FFF8285FF0FC00FE00F409C
:00000001FF
