:020000040000FA
:0400000007EF00F016
:100008005D8217ED13F015EF12F00E6E5550D8A45F
:1000180010EF00F012EF00F0BDEF00F0CC0E036E11
:100028002E0E046E800E056EADEC11F00B0E0E1840
:10003800D8A421EF00F023EF00F039EF00F0CC0E48
:100048004F24D96E000E5020DA6E310EDF6E4F50FD
:10005800C30F086E2A0E21EC14F0000E546E000E29
:10006800536E4F4A502A52EF00F00C0E0E18D8A4C7
:1000780040EF00F042EF00F052EF00F0CC0E4F24BA
:10008800D96E000E5020DA6E300EDF6E4F50C30F5F
:10009800086E2A0E21EC14F031EF00F0040E4F1810
:1000A8005010D8A45AEF00F05CEF00F010EF02F007
:1000B8005C06000E506E000E4F6E000E0001D06FF1
:1000C800A00E016E000E026ECC0E036E000E046EC2
:1000D800AAEC10F001500210D8B475EF00F077EFD9
:1000E80000F0A2EF00F0BB0E036E2E0E046E800E21
:1000F800056EADEC11F0C00E086E5C5021EC14F0EA
:10010800B70E036E2F0E046EC10E056EADEC11F026
:100118001A0E0B6E5E0E0A6E6E0EE82EFED70A2EB3
:10012800FCD70B2EFAD700D0650E036E2F0E046E87
:10013800C00E056EADEC11F0ACEF00F0650E036E6D
:100148002F0E046EC00E056EADEC11F0010E556E4B
:10015800300E5C18D8A4B3EF00F0B5EF00F010EF44
:1001680002F0330E5C6E000E556E020E5A6E5EEF94
:1001780002F05504D8A4C3EF00F0C5EF00F02BEF50
:1001880001F0880E036E2E0E046E800E056EADEC27
:1001980011F00B0E0E18D8A4D4EF00F0D6EF00F033
:1001A800ECEF00F0CC0E4F24D96E000E5020DA6E22
:1001B800310EDF6E4F50C30F086E2A0E21EC14F07B
:1001C800000E546E000E536E4F4A502A05EF01F090
:1001D8000C0E0E18D8A4F3EF00F0F5EF00F005EFC1
:1001E80001F0CC0E4F24D96E000E5020DA6E300E7E
:1001F800DF6E4F50C30F086E2A0E21EC14F0E4EFA7
:1002080000F0040E4F185010D8A40DEF01F00FEFB6
:1002180001F010EF02F0650E036E2F0E046EC00E93
:10022800056EADEC11F0020E556E000E506E000E0C
:100238004F6E0D0E0B6EAF0E0A6EB60EE82EFED781
:100248000A2EFCD70B2EFAD700D010EF02F0020EC0
:100258005518D8A432EF01F034EF01F010EF02F096
:10026800430E036E2F0E046E800E056EADEC11F07A
:100278000B0E0E18D8A443EF01F045EF01F05BEF29
:1002880001F0C70E4F24D96E000E5020DA6E310EE1
:10029800DF6E4F50C30F086E2A0E21EC14F0000ECB
:1002A800546E000E536E4F4A502A74EF01F00C0E34
:1002B8000E18D8A462EF01F064EF01F074EF01F0BA
:1002C800C70E4F24D96E000E5020DA6E300EDF6E46
:1002D8004F50C30F086E2A0E21EC14F053EF01F0B3
:1002E800040E4F185010D8A47CEF01F07EEF01F0F7
:1002F80010EF02F0000E506E000E4F6E000E00015F
:10030800CB6FCC0E016E000E026EC70E036E000E90
:10031800046EAAEC10F001500210D8A496EF01F078
:1003280098EF01F0EAEF01F0320E036E2F0E046E23
:10033800800E056EADEC11F0AA0E036E2E0E046E43
:10034800C00E056EADEC11F0BAEF01F0C70E4F24E8
:10035800D96E000E5020DA6EA00E4F24E16E000E0A
:100368005020E26EDFCFE7FF4F4A502AC70E4F24D6
:10037800D96E000E5020DA6EDF50D8A4C6EF01F017
:10038800C8EF01F0AAEF01F0000E0D6E000E0C6E22
:10039800C70E0C24D96E000E0D20DA6EDF50026EE7
:1003A8000C50460F5EEC13F00C4A0D2A0DBEE6EF1A
:1003B80001F00D5009E1040E0C5CD8A0E6EF01F045
:1003C800E8EF01F0CCEF01F0FAEF01F0550E036E03
:1003D8002E0E046E800E056EADEC11F0EC0E036E61
:1003E8002D0E046EC00E056EADEC11F0000E556EAC
:1003F800020E5A6E000E506E000E4F6E330E5C6E7B
:100408001A0E0B6E5E0E0A6E6E0EE82EFED70A2EC0
:10041800FCD70B2EFAD700D0050E53185410D8A4C9
:1004280018EF02F01AEF02F024EF02F0000E556EFA
:10043800020E5A6E000E506E000E4F6E5EEF02F006
:100448004D500A6E4E500B6E4D4A4E2A200E0A5CD5
:10045800030E0B58D8B033EF02F035EF02F03DEF42
:1004680002F04F50C30F086E5F0E21EC14F05EEFE0
:1004780002F0210E4D5C030E4E58D8A046EF02F054
:1004880048EF02F05EEF02F04F50C30F086E200EE7
:1004980021EC14F0400E4D1807E1060E4E18D8A4B2
:1004A80058EF02F05AEF02F05EEF02F0000E4E6EC7
:1004B800000E4D6E1200106E0B0E1018D8A467EFC8
:1004C80002F069EF02F004EF03F0000E546E000E24
:1004D800536E10C04BF04C6A45500E6E46500F6E6E
:1004E800454A462A910E0E5C010E0F58D8A07FEFA0
:1004F80002F081EF02F064EF03F0040E4718481091
:10050800D8B489EF02F08BEF02F09EEF02F0030EF1
:1005180047184810D8B493EF02F095EF02F09EEF19
:1005280002F047044810D8A49CEF02F09EEF02F0B6
:10053800A2EF02F0000E466E000E456E4750030F04
:100548005A6E47504810D8B4ACEF02F0AEEF02F044
:10055800DCEF02F0D8904734D96E4834DA6E780E62
:10056800D926000EDA22DECFF6FFDDCFF7FF08002E
:10057800F5CF90F0D8904734D96E4834DA6E780EBB
:10058800D926000EDA22DECF0EF0DDCF0FF0010EF5
:100598000E26000E0F220EC0F6FF0FC0F7FF080050
:1005A800F5CF91F0860E066E000E076EF1EC0FF097
:1005B80047044810D8A4E3EF02F0E5EF02F0EBEFB0
:1005C80002F0000E506E060E4F6E4EEF04F04750CC
:1005D8004810D8B4F2EF02F0F4EF02F0FEEF02F0A8
:1005E800020E47184810D8A4FCEF02F0FEEF02F004
:1005F8004EEF04F0AEC043F0AFC044F04EEF04F04D
:1006080045504610D8B40BEF03F00DEF03F064EF3C
:1006180003F0900E455C010E4658D8B016EF03F073
:1006280018EF03F064EF03F00B0E4B184C10D8A42E
:1006380020EF03F022EF03F064EF03F01028D8A4B2
:1006480028EF03F02AEF03F064EF03F00001845170
:100658008511D8B432EF03F034EF03F064EF03F000
:1006680082518311D8A43BEF03F03DEF03F043EF31
:1006780003F0000E836F010E826F54EF03F0855173
:1006880009E1020E845DD8A04CEF03F04EEF03F0B1
:1006980054EF03F04906D8A04A068407D8A0850776
:1006A80047504810D8B45BEF03F05DEF03F060EFFC
:1006B80003F04706D8A04806000E466E000E456EA9
:1006C8000C0E1018D8A46BEF03F06DEF03F09EEF3B
:1006D80003F0000E546E000E536E10C04BF04C6ABF
:1006E80045500E6E46500F6E454A462A910E0E5CD6
:1006F800010E0F58D8A083EF03F085EF03F0FFEF4A
:1007080003F0000E4A6E000E496E000E0001856F60
:10071800010E846F000E836F010E826F000E486E0B
:10072800000E476E000E5A6E000E466E000E456EA5
:100738004EEF04F045504610D8B4A5EF03F0A7EFEC
:1007480003F0FFEF03F0900E455C010E4658D8B059
:10075800B0EF03F0B2EF03F0FFEF03F00C0E4B180D
:100768004C10D8A4BAEF03F0BCEF03F0FFEF03F08E
:100778001028D8A4C2EF03F0C4EF03F0FFEF03F092
:100788004A5007E1040E495CD8B0CDEF03F0CFEF33
:1007980003F0FFEF03F0000182058311D8A4D7EF1F
:1007A80003F0D9EF03F0DFEF03F0000E836F000EC4
:1007B800826FEEEF03F04A5007E1030E495CD8B0B0
:1007C800E8EF03F0EAEF03F0EEEF03F0494A4A2AB4
:1007D800844B852B485007E1040E475CD8B0F7EFEF
:1007E80003F0F9EF03F0FBEF03F0474A482A000E45
:1007F800466E000E456E050E53185410D8A407EF28
:1008080004F009EF04F00BEF04F085EF03F00001AA
:1008180082058311D8A413EF04F015EF04F021EF3B
:1008280004F0800E086E2A0E21EC14F0C00E086E3B
:10083800200E21EC14F02BEF04F0800E086E200E31
:1008480021EC14F0C00E086E2A0E21EC14F0D8909A
:100858004934D96E4A34DA6E700ED926000EDA227F
:10086800DECF03F0DDCF04F0810E056EADEC11F0A4
:10087800D89000018435D96E8535DA6E700ED92688
:10088800000EDA22DECF03F0DDCF04F0C10E056ED4
:10089800ADEC11F012002DEC14F0000E3D6E000EC0
:1008A8003C6EA00E3C24D96E000E3D20DA6EDF505F
:1008B800026E3C50460F5EEC13F03C4A3D2A3DBEAA
:1008C8006FEF04F03D5009E1040E3C5CD8A06FEFD7
:1008D80004F071EF04F055EF04F0000E3F6E000EC7
:1008E8003E6EA00E3E24D96E000E3F20DA6E3E50BA
:1008F800460FEEEC13F0DF6E3E4A3F2A3FBE8EEF06
:1009080004F03F5009E1040E3E5CD8A08EEF04F0DD
:1009180090EF04F075EF04F0000E0001A46F140EC0
:100928001B6EAE0E1C6E230E1D6E410E1E6E040E47
:10093800CFEC12F001C009F002C00AF00B6A0C6A91
:10094800000E88EC0CF009C017F00AC018F00BC0B4
:1009580019F00CC01AF000EC08F017C030F018C0FD
:1009680031F019C032F01AC033F06EEC0FF030C01D
:10097800B4F031C0B5F0B4C008F0B5C009F09DECD2
:1009880013F0F9EC10F0860E066E000E076EF1EC0F
:100998000FF0020E5A18D8B4D4EF04F0D6EF04F0D2
:1009A800E8EF04F0030E5A18D8B4DDEF04F0DFEFD7
:1009B80004F0E8EF04F0040E5A18D8A4E6EF04F0A7
:1009C800E8EF04F0EEEF04F0000E74EC11F0426E64
:1009D800F2EF04F0010E74EC11F0426E0A0E4218A8
:1009E800D8A4F9EF04F0FBEF04F0C6EF05F05A5075
:1009F800D8A401EF05F003EF05F0C6EF05F0650E8A
:100A0800036E2F0E046EC00E056EADEC11F0010ED4
:100A18005A6E000E546E000E536EC6EF05F042502B
:100A280073EC12F0F3EF05F04250CDEC09F0020E32
:100A38005A18D8A422EF05F024EF05F0F3EF05F0DB
:100A4800000E546E000E536EF3EF05F042505FEC4B
:100A580002F0070E5A18D8A434EF05F036EF05F067
:100A680040EF05F0650E036E2F0E046EC00E056E86
:100A7800ADEC11F024EF05F0040E5A18D8A447EF96
:100A880005F049EF05F0F3EF05F0760E036E2F0E33
:100A9800046E800E056EADEC11F0650E036E2F0E20
:100AA800046EC00E056EADEC11F0000E416E000E26
:100AB800406E860E4024D96E000E4120DA6E970EE5
:100AC8004024E16E000E4120E26EDFCFE7FF404A8E
:100AD800412A41BE79EF05F0415009E1080E405C1A
:100AE800D8A079EF05F07BEF05F05DEF05F00D0E6E
:100AF8003B6EAF0E3A6EB60EE82EFED73A2EFCD7F6
:100B08003B2EFAD700D0F3EF05F042503CEC0BF047
:100B1800020E5A18D8A493EF05F095EF05F0F3EFFD
:100B280005F024EF05F042502BEC06F0020E5A189F
:100B3800D8A4A1EF05F0A3EF05F0F3EF05F024EF3B
:100B480005F02BEC0EF0020E5A18D8A4AEEF05F003
:100B5800B0EF05F0F3EF05F024EF05F0A2EC12F08A
:100B6800020E5A6E24EF05F0425009EC00F0020E16
:100B78005A18D8A4C2EF05F0C4EF05F0F3EF05F05A
:100B880024EF05F05A503A6E3B6A3B50000AD8B43D
:100B9800D0EF05F0F3EF05F03A50000AD8B413EFA0
:100BA80005F0010AD8B418EF05F0030AD8B42AEF03
:100BB80005F0010AD8B489EF05F0070AD8B497EF11
:100BC80005F0010AD8B4A5EF05F0030AD8B4B2EFCE
:100BD80005F0010AD8B4B8EF05F0F3EF05F0F9EC29
:100BE80010F0140E1B6EAE0E1C6E230E1D6E410E01
:100BF8001E6E040ECFEC12F001C009F002C00AF01C
:100C08000B6A0C6A000E88EC0CF009C017F00AC0D9
:100C180018F00BC019F00CC01AF000EC08F017C05F
:100C280030F018C031F019C032F01AC033F06EEC51
:100C38000FF030C0B4F031C0B5F0B4C008F0B5C0A2
:100C480009F09DEC13F0CDEF04F007EF00F0096E0A
:100C58000B0E0918D8A433EF06F035EF06F09AEF1B
:100C680006F009C04BF04C6A4550066E4650076EB8
:100C7800454A462A910E065C010E0758D8A047EF50
:100C880006F049EF06F0CEEF07F0000E466E000EB4
:100C9800456E020E5A6E000E506E000E4F6E000E1C
:100CA800546E000E536EEE0E036E2E0E046EC00EC2
:100CB800056EADEC11F09DC006F0063AF00E061672
:100CC80000019E51D00F0610086E08C002F0000EF9
:100CD80003EC14F09AC006F0063AF00E061600016E
:100CE8009B51D00F0610086E08C002F0010E03ECED
:100CF80014F097C006F0063AF00E06160001985157
:100D0800D00F0610086E08C002F0020E03EC14F0B3
:100D18001A0E076E5E0E066E6E0EE82EFED7062EB3
:100D2800FCD7072EFAD700D0FFEF07F04550461042
:100D3800D8B4A1EF06F0A3EF06F052EF07F0900E3B
:100D4800455C010E4658D8B0ACEF06F0AEEF06F0A1
:100D580052EF07F00B0E4B184C10D8A4B6EF06F064
:100D6800B8EF06F052EF07F00928D8A4BEEF06F056
:100D7800C0EF06F052EF07F04F505010D8A4C7EF5D
:100D880006F0C9EF06F0F2EF06F0320E00019719EF
:100D9800D8B4D1EF06F0D3EF06F0E2EF06F0982BC7
:100DA8003A0E9819D8A4DBEF06F0DDEF06F04CEF09
:100DB80007F0300E986F972B4CEF07F0982B340EF6
:100DC8009819D8A4EAEF06F0ECEF06F04CEF07F01C
:100DD800300E976F300E986F4CEF07F0030E4F18D8
:100DE8005010D8A4FAEF06F0FCEF06F025EF07F054
:100DF800350E00019A19D8B404EF07F006EF07F092
:100E080015EF07F09B2B3A0E9B19D8A40EEF07F0AD
:100E180010EF07F04CEF07F0300E9B6F9A2B4CEF5A
:100E280007F09B2B3A0E9B19D8A41DEF07F01FEF74
:100E380007F04CEF07F0300E9B6F300E9A6F4CEFB7
:100E480007F0350E00019D19D8B42DEF07F02FEFEC
:100E580007F03EEF07F09E2B3A0E9E19D8A437EF05
:100E680007F039EF07F04CEF07F0300E9E6F9D2B1F
:100E78004CEF07F09E2B3A0E9E19D8A446EF07F0C8
:100E880048EF07F04CEF07F0300E9E6F300E9D6F65
:100E9800000E466E000E456ECEEF07F00C0E0918D8
:100EA800D8A459EF07F05BEF07F093EF07F009C0FC
:100EB8004BF04C6A4550066E4650076E454A462A26
:100EC800910E065C010E0758D8A06DEF07F06FEF82
:100ED80007F0CEEF07F0000E466E000E456E020ECC
:100EE8005A6E000E506E000E4F6E000E546E000EBD
:100EF800536EFF0E036E2E0E046EC00E056EADEC23
:100F080011F00D0E076EAF0E066EB60EE82EFED768
:100F1800062EFCD7072EFAD700D0FFEF07F0455072
:100F28004610D8B49AEF07F09CEF07F0CEEF07F021
:100F3800900E455C010E4658D8B0A5EF07F0A7EF14
:100F480007F0CEEF07F00C0E4B184C10D8A4AFEFFB
:100F580007F0B1EF07F0CEEF07F00928D8A4B7EFF4
:100F680007F0B9EF07F0CEEF07F0030E4F5E000E63
:100F7800505AFD0E4F1806E15028D8A4C6EF07F0C6
:100F8800C8EF07F04CEF07F0000E506E060E4F6EDC
:100F98004CEF07F0562A5604066E640E0660D7EF2B
:100FA80007F0D9EF07F0E3EF07F0970E036E000E96
:100FB800046EC00E056EADEC11F0FFEF07F0640E85
:100FC8005664E9EF07F0EBEF07F0FFEF07F0730E59
:100FD800036E2F0E046E4F50C00F056EADEC11F06E
:100FE800C80E5618D8A4FBEF07F0FDEF07F0FFEF87
:100FF80007F0000E566E12001A50800B276E1A501A
:101008001A242E6E19AE0BEF08F00DEF08F00EEF54
:1010180008F02E802E50D8B414EF08F016EF08F020
:101028002BEF08F02E28D8A41CEF08F01EEF08F0CC
:1010380026EF08F0000E176E000E186E000E196EDF
:10104800000E1A6E198E000E1A6E33EF08F0000E9D
:10105800176E000E186E000E196E000E1A6E1E50D6
:10106800800B271A1E501E242F6E1DAE3EEF08F06F
:1010780040EF08F041EF08F02F802F50D8B447EF29
:1010880008F049EF08F05EEF08F02F28D8A44FEFDA
:1010980008F051EF08F059EF08F0000E1B6E000E33
:1010A8001C6E000E1D6E000E1E6E1D8E000E1E6E36
:1010B80066EF08F0000E1B6E000E1C6E000E1D6E13
:1010C800000E1E6E1B501C101D101E10D8A46FEFB2
:1010D80008F071EF08F089EF08F0000E176E000EA7
:1010E800186E000E196E000E1A6E800E19127F0E01
:1010F8001A1227501A1217C017F018C018F019C082
:1011080019F01AC01AF0CCEF09F02E50D8A48FEFBE
:1011180008F091EF08F09BEF08F0000E176E000E34
:10112800186E000E196E000E1A6ECCEF09F02F50D3
:101138002EC01FF0206A1F5E000E205A7F0E1F244B
:10114800286E000E2020296E17C023F018C024F046
:1011580019C025F01AC026F0000E176E000E186E82
:10116800000E196E000E1A6E000E2A6E000E2B6EFF
:10117800000E2C6E000E2D6E000E2F6EFCEF08F088
:101188002F50D8B4CAEF08F0CCEF08F0E3EF08F01E
:10119800D8902336243625362636D8901736183672
:1011A80019361A362DAEDBEF08F0DDEF08F0DEEF6A
:1011B80008F01780D8902A362B362C362D361B503F
:1011C800235C1C5024581D5025581E502658D8A062
:1011D800F0EF08F0F2EF08F0FBEF08F02D8C1B5051
:1011E800235E1C50245A1D50255A1E50265A2F2A59
:1011F800190E2F6402EF09F004EF09F0C4EF08F0AC
:101208002350241025102610D8B40DEF09F00FEF45
:1012180009F027EF09F02A8027EF09F0D890173650
:10122800183619361A362DAE1CEF09F01EEF09F0E4
:101238001FEF09F01780D8902A362B362C362D361A
:101248002806D8A0290619AE2CEF09F02EEF09F0D0
:1012580012EF09F0000E2F6E2DAE35EF09F037EFC3
:1012680009F05BEF09F0FF0E2A141F6EFF0E2B1416
:10127800206EFF0E2C14216E7F0E2D14226E1F502F
:10128800201021102210D8B44CEF09F04EEF09F0CD
:1012980052EF09F0010E2F6E5BEF09F017A057EF20
:1012A80009F059EF09F05BEF09F04EEF09F02F5004
:1012B800D8B461EF09F063EF09F087EF09F0010E88
:1012C8001726000E182219221A221AA06EEF09F00A
:1012D80070EF09F087EF09F017C01FF018C020F071
:1012E80019C021F01AC022F02234223221322032D1
:1012F8001F321FC017F020C018F021C019F022C0FB
:101308001AF0284A292A29BE92EF09F0295008E143
:101318002828D8A092EF09F094EF09F09FEF09F080
:10132800000E296E2868000E176E000E186E000E4B
:10133800196E000E1A6E29BEACEF09F0295006E1AD
:101348002804D8B0AAEF09F0ACEF09F0BAEF09F019
:10135800000E296E000E286E000E176E000E186E15
:10136800000E196E000E1A6E000E276E28C02EF0A1
:101378002EA0C1EF09F0C3EF09F0C6EF09F0198EEE
:10138800C7EF09F0199ED8902E301A6E7DEF08F03D
:1013980012000C6EDD0E036E2E0E046E800E056EAE
:1013A800ADEC11F00B0E0C18D8A4DDEF09F0DFEF4F
:1013B80009F0F5EF09F0CC0E4F24D96E000E50203D
:1013C800DA6E310EDF6E4F50C30F086E2A0E21EC15
:1013D80014F0000E546E000E536E4F4A502A0EEF52
:1013E8000AF00C0E0C18D8A4FCEF09F0FEEF09F077
:1013F8000EEF0AF0CC0E4F24D96E000E5020DA6E94
:10140800300EDF6E4F50C30F086E2A0E21EC14F019
:10141800EDEF09F0050E53185410D8A416EF0AF092
:1014280018EF0AF022EF0AF0000E5A6E000E506E06
:10143800000E4F6E330E5C6E3BEF0BF04D500A6E94
:101448004E500B6E4D4A4E2A200E0A5C030E0B5866
:10145800D8B031EF0AF033EF0AF03BEF0AF04F5003
:10146800C30F086E5F0E21EC14F05CEF0AF0210E3A
:101478004D5C030E4E58D8A044EF0AF046EF0AF030
:101488005CEF0AF04F50C30F086E200E21EC14F0E9
:10149800400E4D1807E1060E4E18D8A456EF0AF074
:1014A80058EF0AF05CEF0AF0000E4E6E000E4D6E1B
:1014B800040E4F185010D8A464EF0AF066EF0AF033
:1014C8003BEF0BF0080E0B6E9D0E0A6E060EE82E13
:1014D800FED70A2EFCD70B2EFAD75C06000E506EEC
:1014E800000E4F6EA00E016E000E026ECC0E036E43
:1014F800000E046EAAEC10F001500210D8B487EF69
:101508000AF089EF0AF0C0EF0AF00D0E0B6EAF0E6D
:101518000A6EB60EE82EFED70A2EFCD70B2EFAD787
:1015280000D0A70E036E2F0E046E800E056EADEC74
:1015380011F0C00E086E5C5021EC14F0B70E036E6B
:101548002F0E046EC10E056EADEC11F00D0E0B6E74
:10155800AF0E0A6EB60EE82EFED70A2EFCD70B2E5B
:10156800FAD700D0650E036E2F0E046EC00E056EFE
:10157800ADEC11F0E6EF0AF0000E506E000E4F6E63
:10158800330E5C6E540E036E2F0E046E800E056EC5
:10159800ADEC11F0660E036E2E0E046EC00E056ED5
:1015A800ADEC11F0120E0B6EC20E0A6E660EE82E2E
:1015B800FED70A2EFCD70B2EFAD700D0020E5A6E91
:1015C8003BEF0BF0300E5C18D8A4EDEF0AF0EFEF0C
:1015D8000AF03BEF0BF0990E036E2E0E046E800E90
:1015E800056EADEC11F0210E036E2F0E046EC00EC9
:1015F800056EADEC11F0000E546E000E536E2DEF1B
:101608000BF0CA0E086E53503B08016E5450D8A018
:10161800E82A0008026E000E046E0A0E036E3AEC09
:1016280011F00150300F21EC14F0CB0E086E53501E
:101638003B08016E5450D8A0E82A0008026E000E3C
:10164800046E0A0E036EE3EC11F00150300F21EC2A
:1016580014F03C0E53185410D8A435EF0BF037EFA4
:101668000BF005EF0BF0000E5A6E330E5C6E120095
:101678000E6ED10E036E2F0E046E800E056EADEC4D
:1016880011F0890E086EACC001F0ADC002F058C070
:1016980003F0046AE3EC11F00150300F21EC14F070
:1016A800C70E036E2F0E046E8A0E056EADEC11F098
:1016B8008E0E086E4350300F21EC14F00B0E0E18EE
:1016C800D8A469EF0BF06BEF0BF072EF0BF00EC0C4
:1016D8004BF04C6A454A462A46EF0CF045504610F6
:1016E800D8B479EF0BF07BEF0BF0C5EF0BF0900E51
:1016F800455C010E4658D8B084EF0BF086EF0BF02E
:10170800C5EF0BF00B0E4B184C10D8A48EEF0BF056
:1017180090EF0BF0C5EF0BF00E28D8A496EF0BF066
:1017280098EF0BF0C5EF0BF00001AC07D8A0AD07A0
:101738004306D8A04406432806E14428D8A4A7EFC6
:101748000BF0A9EF0BF0AFEF0BF0FF0E5824436E30
:10175800446AFF0E4422AC2906E1AD29D8A4B7EFAC
:101768000BF0B9EF0BF0BFEF0BF0FF0E5824AC6F86
:10177800AD6BFF0EAD23000E466E000E456E46EFB4
:101788000CF00C0E0E18D8A4CCEF0BF0CEEF0BF02B
:10179800F3EF0BF00EC04BF04C6A45500A6E465002
:1017A8000B6E454A462A2D0E0A5C010E0B58D8A02E
:1017B800E0EF0BF0E2EF0BF046EF0CF0000E466E98
:1017C800000E456E020E5A6E000E0001AD6F000E3F
:1017D800AC6F000E546E000E536E87EF0CF0455040
:1017E8004610D8B4FAEF0BF0FCEF0BF0BFEF0BF09C
:1017F8002C0E455C010E4658D8B005EF0CF007EFEB
:101808000CF0BFEF0BF00C0E4B184C10D8A40FEFD8
:101818000CF011EF0CF0BFEF0BF00E28D8A417EF67
:101828000CF019EF0CF0BFEF0BF00001AC4BAD2B37
:10183800434A442A58500A6E0B6A43500A1807E173
:1018480044500B18D8A42BEF0CF02DEF0CF031EF0F
:101858000CF0000E446E000E436E58500A6E0B6A70
:10186800AC510A1807E1AD510B18D8A43EEF0CF0A3
:1018780040EF0CF0BFEF0BF0000EAD6F000EAC6F39
:10188800BFEF0BF043C001F044C002F058C003F0B2
:10189800046AE3EC11F0013A023AF00E0216015024
:1018A8000F0B0212F00E011601C0AAF002C0ABF035
:1018B800000E0D6E000E0C6EB60E0C24D96E000EC6
:1018C8000D20DA6E0C500001AA25EEEC13F0DF6E45
:1018D8000C4A0D2A0DBE7AEF0CF00D5009E1100EDE
:1018E8000C5CD8A07AEF0CF07CEF0CF060EF0CF0F9
:1018F800000E0001C66FB60E036E000E046EC00E19
:10190800056EADEC11F01200116E1150D8B48FEFC6
:101918000CF091EF0CF0B3EF0CF00CBE98EF0CF05C
:1019280096EF0CF0B3EF0CF009C00DF00AC00EF002
:101938000BC00FF00CC010F00D1E0E1E0F1E101E57
:101948000D2A000E0E220F2210220DC013F00EC019
:1019580014F00FC015F010C016F0BBEF0CF009C062
:1019680013F00AC014F00BC015F00CC016F00950A3
:101978000A100B100C10D8A4C4EF0CF0C6EF0CF032
:10198800D0EF0CF0000E096E000E0A6E000E0B6E02
:10199800000E0C6E61EF0DF0960E126EDAEF0CF081
:1019A800122AD8901632153214321332000E13143C
:1019B8000D6E000E14140E6E000E15140F6EFE0E32
:1019C8001614106E0D500E100F101010D8A4EFEF53
:1019D8000CF0F1EF0CF0D4EF0CF0FFEF0CF0122A42
:1019E800010E1326000E142215221622D890163244
:1019F800153214321332000E13140D6E000E141427
:101A08000E6E000E15140F6EFF0E1614106E0D508C
:101A18000E100F101010D8A414EF0DF016EF0DF0E3
:101A2800F3EF0CF01EEF0DF01206D89013361436B3
:101A38001536163615BE23EF0DF025EF0DF02DEFF8
:101A48000DF0020E12602BEF0DF02DEF0DF018EFD8
:101A58000DF012B032EF0DF034EF0DF035EF0DF060
:101A6800159ED890123212C00DF00E6A0F6A106AD5
:101A78000DC010F00F6A0E6A0D6A0D5013120E5049
:101A880014120F501512105016121150D8B44FEFEF
:101A98000DF051EF0DF059EF0DF00CBE58EF0DF0B1
:101AA80056EF0DF059EF0DF0168E13C009F014C063
:101AB8000AF015C00BF016C00CF01200106E1004DE
:101AC800D8A469EF0DF06BEF0DF07CEF0DF04B042F
:101AD8004C10D8B472EF0DF074EF0DF07CEF0DF0F0
:101AE800010E576E000E526E070E516EEFEF0DF09D
:101AF800020E1018D8B483EF0DF085EF0DF08EEFBD
:101B08000DF0030E1018D8A48CEF0DF08EEF0DF029
:101B1800EFEF0DF0070E51185210D8A496EF0DF004
:101B280098EF0DF0B1EF0DF0020E1018D8A49FEF4A
:101B38000DF0A1EF0DF0B1EF0DF0020E4B184C10A7
:101B4800D8B4A9EF0DF0ABEF0DF0B1EF0DF0010E29
:101B5800576E000E526E000E516E020E1018D8A469
:101B6800B8EF0DF0BAEF0DF0CBEF0DF0525007E1E2
:101B7800060E515CD8B0C3EF0DF0C5EF0DF0CBEFFA
:101B88000DF0514A522A010E576EEFEF0DF0030E79
:101B98001018D8A4D2EF0DF0D4EF0DF0EFEF0DF040
:101BA800525009E1020E515CD8A0DDEF0DF0DFEFD5
:101BB8000DF0EFEF0DF0525007E1070E515CD8B071
:101BC800E8EF0DF0EAEF0DF0EFEF0DF05106D8A0B9
:101BD8005206C7EF0DF05704D8A4F5EF0DF0F7EF54
:101BE8000DF027EF0EF0000E576ED8905134D96ED5
:101BF8005234DA6E600ED926000EDA22DECFF6FFF6
:101C0800DDCFF7FF0800F5CF90F0D8905134D96EAA
:101C18005234DA6E600ED926000EDA22DECF0EF0CC
:101C2800DDCF0FF0010E0E26000E0F220EC0F6FFBC
:101C38000FC0F7FF0800F5CF91F0860E066E000E74
:101C4800076EF1EC0FF010C04BF04C6A1200100E4A
:101C5800036E2E0E046E800E056EADEC11F0870E2D
:101C6800036E2F0E046EC00E056EADEC11F0CE0E95
:101C7800086E4350300F21EC14F0660E0B6E760E92
:101C88000A6EC10EE82EFED70A2EFCD70B2EFAD705
:101C980000F0F29EF29CF29AF2847EEC13F0D70EDA
:101CA800026E2D0E036E44EC12F0330E0B6EBB0E5B
:101CB8000A6EE00EE82EFED70A2EFCD70B2EFAD7B6
:101CC800000E0E6E000E0D6EC2EF0EF043C001F056
:101CD80044C002F058C003F0046AE3EC11F0013A82
:101CE800023AF00E021601500F0B0212F00E011606
:101CF80001C0AAF002C0ABF0000E106E000E0F6E0D
:101D0800B60E0F24D96E000E1020DA6E0F500001A7
:101D1800AA25EEEC13F0DF6E0F4A102A10BE9EEFD4
:101D28000EF0105009E1100E0F5CD8A09EEF0EF0D7
:101D3800A0EF0EF084EF0EF0000E0001C66FB60E95
:101D4800026E000E036E44EC12F0E90E026E2D0EC8
:101D5800036E44EC12F0434A442A445009E10A0E47
:101D6800435CD8A0BAEF0EF0BCEF0EF0C0EF0EF057
:101D7800000E446E000E436E0D4A0E2A58500A6E2D
:101D88000B6A0A500D5C0E50800A0C6E0B50800ACC
:101D98000C58D8A0D2EF0EF0D4EF0EF06AEF0EF088
:101DA800330E0B6EBB0E0A6EE00EE82EFED70A2E1F
:101DB800FCD70B2EFAD7020E5A6E000E466E000E96
:101DC800456EF28EF28CF28AF2941200819A818C1E
:101DD800818E81B2F2EF0EF0F4EF0EF0F7EF0EF015
:101DE800010E6DEF0FF081B4FCEF0EF0FEEF0EF078
:101DF80001EF0FF0040E6DEF0FF081B606EF0FF054
:101E080008EF0FF00BEF0FF0070E6DEF0FF081B832
:101E180010EF0FF012EF0FF015EF0FF00A0E6DEF45
:101E28000FF0818A819C818E81B21DEF0FF01FEF28
:101E38000FF022EF0FF0020E6DEF0FF081B427EFD5
:101E48000FF029EF0FF02CEF0FF0050E6DEF0FF0EC
:101E580081B631EF0FF033EF0FF036EF0FF0080EC9
:101E68006DEF0FF081B83BEF0FF03DEF0FF040EF53
:101E78000FF00B0E6DEF0FF0818A818C819E819E91
:101E880081B249EF0FF04BEF0FF04EEF0FF0030E5A
:101E98006DEF0FF081B453EF0FF055EF0FF058EFDF
:101EA8000FF0060E6DEF0FF081B65DEF0FF05FEFEC
:101EB8000FF062EF0FF0090E6DEF0FF081B867EFCA
:101EC8000FF069EF0FF06CEF0FF00C0E6DEF0FF0E5
:101ED800FF0E120032343334396E3950D8A477EFFC
:101EE8000FF079EF0FF083EF0FF0000E306E000E59
:101EF800316E000E326E000E336EF0EF0FF030C010
:101F080034F031C035F032C036F033C037F0200E2F
:101F180093EF0FF0D8903732363235323432E82E1C
:101F28008EEF0FF03450386E328EFF0E3016FF0EE3
:101F38003116FF0E3216000E3316960E395E39BE74
:101F4800AAEF0FF0A8EF0FF0C0EF0FF03950800A9A
:101F5800970FD8B0B2EF0FF0B4EF0FF0B6EF0FF065
:101F680079EF0FF0D8903332323231323032393E95
:101F7800B6EF0FF0D8EF0FF01F0E3964C6EF0FF071
:101F8800C8EF0FF0D0EF0FF079EF0FF0D8903036A0
:101F980031363236333639063950D8A4D6EF0FF0F9
:101FA800D8EF0FF0CAEF0FF03850D8B4DEEF0FF0CB
:101FB800E0EF0FF0E8EF0FF0331E321E311E306CE9
:101FC800000E31223222332230C030F031C031F0DD
:101FD80032C032F033C033F01200B2C008F0B3C0E0
:101FE80009F0083A093AF00E091608500F0B0912C1
:101FF800F00E081608C00AF009C00BF0000E0D6EAE
:10200800000E0C6E0C500624D96E0D500720DA6EA7
:10201800DF50026E0A500C245EEC13F00C4A0D2AB5
:102028000DBE20EF10F00D5009E1100E0C5CD8A089
:1020380020EF10F022EF10F006EF10F00001B24B85
:10204800B32B0A0E58602BEF10F02DEF10F030EF85
:1020580010F0582A43EF10F0AF5107E1090EAE5DBA
:10206800D8B039EF10F03BEF10F03FEF10F0AE4B67
:10207800AF2B43EF10F0000EAF6F000EAE6F0A0EDD
:10208800B219B311D8A44BEF10F04DEF10F051EF87
:1020980010F0000EB36F000EB26F1200000E956EB6
:1020A8009450F80B946E8290020E046E040E036E28
:1020B800BA0EE82EFED7032EFCD7042EFAD700D08E
:1020C800000E016E330EBCEC13F01B0E036E9E0E59
:1020D800E82EFED7032EFCD700D0000E016E330E7B
:1020E800BCEC13F0A60EE82EFED700D0000E016E51
:1020F800330EBCEC13F000D000D000F0000E016EDF
:10210800020EBCEC13F0A60EE82EFED700D0000E8F
:10211800016E380EBCEC13F0A60EE82EFED700D0E8
:10212800000E016E010EBCEC13F0040E036E3E0EA1
:10213800E82EFED7032EFCD7000E016E0C0EBCEC69
:1021480013F0A60EE82EFED700D01200000E096E7E
:10215800000E086EE8EF10F008500124D96E0950FF
:102168000220DA6EDF50056E066A08500324D96E25
:1021780009500420DA6EDF50076E0750055E000E26
:10218800065A05500610D8B4CCEF10F0CEEF10F078
:10219800E6EF10F008500124D96E09500220DA6EDB
:1021A800DF50056E08500324D96E09500420DA6EFA
:1021B800DF50066E0650055C016E026AD8A0020662
:1021C800F8EF10F0084A092A08500124D96E09507E
:1021D8000220DA6EDF50D8A4F4EF10F0F6EF10F01A
:1021E800B0EF10F0CEEF10F01200020ED9EC13F0A1
:1021F8000001A56F010ED9EC13F00001A66F000EC7
:10220800D9EC13F00001A76FA5AD0DEF11F00FEF9A
:1022180011F01AEF11F0A5390F0B010B300F866F73
:10222800A5510F0B300F876F23EF11F0A5390F0B56
:10223800030B300F866FA5510F0B300F876F3A0EC7
:10224800886FA6390F0B0F0B300F896FA6510F0B34
:10225800300F8A6F3A0E8B6FA7390F0B0F0B300FA9
:102268008C6FA7510F0B300F8D6F1200000E066E8A
:10227800000E056E03500410D8B445EF11F047EF77
:1022880011F06FEF11F0010E076E4FEF11F0D890BB
:1022980003360436072A04AE54EF11F056EF11F056
:1022A8004BEF11F0D890053606360350015C045008
:1022B8000258D8A062EF11F064EF11F069EF11F045
:1022C8000350015E0450025A0580D890043203324C
:1022D800072E56EF11F005C001F006C002F01200FB
:1022E800016E0150D8A47BEF11F07DEF11F081EF62
:1022F80011F0EAEC0EF0ACEF11F00104D8A487EF6E
:1023080011F089EF11F0ACEF11F0EAEC0EF0026E6B
:102318000228D8B492EF11F094EF11F0A1EF11F068
:102328005B50D8B49AEF11F09CEF11F0A1EF11F0C7
:10233800000E5B6E0250ACEF11F00228D8A4A7EF94
:1023480011F0A9EF11F0ABEF11F0010E5B6EFF0E6B
:102358001200000E016E0550BCEC13F0CAEF11F02C
:10236800010E016E03C0F6FF04C0F7FFF86A050E00
:10237800F76403D00800F55005D0F6CFE1FFF7CF9A
:10238800E2FFE750BCEC13F0034A042A03C0F6FF4F
:1023980004C0F7FFF86A050EF76403D00800F5508B
:1023A80005D0F6CFE1FFF7CFE2FFE7500009D8A448
:1023B800E0EF11F0E2EF11F0B4EF11F0120003506A
:1023C8000410D8B4EAEF11F0ECEF11F010EF12F0AE
:1023D800010E056EF4EF11F0D89003360436052A85
:1023E80004AEF9EF11F0FBEF11F0F0EF11F003502C
:1023F800015C04500258D8A004EF12F006EF12F066
:102408000AEF12F00350015E0450025AD8900432C9
:102418000332052EFBEF11F001C001F002C002F0FB
:102428001200760EF66E260EF76E000EF86E00EEAF
:1024380060F010EE45F00900F5CFEEFFE550E150F1
:10244800FAE1F40EF66E280EF76E000EF86E09002B
:10245800F5CF5BF00900F5CF5CF000EEA5F02C0E8F
:10246800EE6AE806FDE100EE43F0180EEE6AE806B3
:10247800FDE15D905D92000EF86E00014FEF04F0F3
:102488005AEF12F002C0F6FF03C0F7FFF86A050E14
:10249800F76403D00800F55005D0F6CFE1FFF7CF79
:1024A800E2FFE75043EC14F0024A032A02C0F6FFA9
:1024B80003C0F7FFF86A050EF76403D00800F5506B
:1024C80005D0F6CFE1FFF7CFE2FFE7500009D8A427
:1024D80070EF12F072EF12F046EF12F01200116E68
:1024E800100E036E2F0E046E800E056EADEC11F00B
:1024F8001104D8B482EF12F084EF12F096EF12F0C4
:10250800020E1118D8B48BEF12F08DEF12F096EF7F
:1025180012F0030E1118D8A494EF12F096EF12F0EF
:1025280099EF12F0115062EC0DF0860E036E000E5A
:10253800046EC00E056EADEC11F01200FE0E036EB7
:102548002D0E046E800E056EADEC11F0AA0E036E12
:102558002E0E046EC00E056EADEC11F0000E0001DB
:10256800B36F000EB26F000E446E000E436E000E85
:10257800586E860E066E000E076EF1EC0FF07F0E99
:102588000F6ED40E0E6E320EE82EFED70E2EFCD72E
:102598000F2EFAD71200086E08C003F0D890033641
:1025A800D8900336C250C30B0310C26EC282C2B2A7
:1025B800E0EF12F0E2EF12F0DBEF12F0C4CF03F01D
:1025C800030E03160350056E046AC350066E076AAD
:1025D80004500610016E05500710026E1200000E1E
:1025E800D9EC13F0046E04508009026E000E03EC5F
:1025F80014F0020ED9EC13F0046E0450BF0B026EF7
:10260800020E03EC14F0930E026E070E03EC14F0A6
:10261800000ED9EC13F0046E04507F0B026E000E0E
:1026280003EC14F012000600DE0ED624D66E0B0E54
:10263800D720D76EF2A423EF13F025EF13F039EF6C
:1026480013F00001A84BA92B510EA819A911D8A461
:1026580030EF13F032EF13F038EF13F0000EA96FDC
:10266800000EA86F534A542AF2945D921100F32F7A
:10267800F02FDE2FE12FE42FE72FF92FDB2F332E5A
:10268800222E772E442E972FFC2FED2FEA2FF62F90
:1026980001000100202020202020202020204F4E53
:1026A800202020202030303A30303A30300031318C
:0326B800303000BF
:1026BC00056E73EC14F0A00E5DEC14F005505DEC9F
:1026CC0014F002505DEC14F06FEC14F00B0E046E71
:1026DC00B80E036E0306D8A00406032806E10428EE
:1026EC00D8A47BEF13F07DEF13F070EF13F0120012
:1026FC00948E949CAC9EAC9CAC8AAC98AC96AC84FE
:10270C00AC92AC90AB8EAB9CAB9AAB88AB96AB94CB
:10271C00AB92AB90B89EB88CB898B896B892B8906B
:10272C00400EAF6E9D889E989D8A9E9A120008C09E
:10273C0001F009C002F0000E046E0A0E036E3AECB2
:10274C0011F00150300F0001946F08C001F009C066
:10275C0002F0000E046E0A0E036EE3EC11F0015051
:10276C00300F0001956F000E966F1200026E01B0D3
:10277C00C2EF13F0C5EF13F08282C6EF13F0829212
:10278C0002C083FF82848294958E8280829282849E
:10279C00829483BED4EF13F0D6EF13F0CDEF13F089
:1027AC008290959E1200026E73EC14F0D00E5DECCC
:1027BC0014F002505DEC14F067EC14F0D10E5DECEB
:1027CC0014F057EC14F0036E6FEC14F0035012007D
:1027DC00026E73EC14F0A00E5DEC14F002505DEC84
:1027EC0014F067EC14F0A10E5DEC14F057EC14F03F
:1027FC00036E6FEC14F003501200036E73EC14F0C4
:10280C00D00E5DEC14F003505DEC14F002505DEC56
:10281C0014F06FEC14F01200C280C19AC198C186FA
:10282C00C194C182C190C08AC098C096C094C08225
:10283C00C090C08E1200096E000E016E0850BCECE8
:10284C0013F0010E016E0950BCEC13F0120063EC96
:10285C0014F052EC10F012EC14F038EC14F0F3EC21
:10286C0012F0120094869488280EC66E310EC86E33
:10287C00C79CC78E9E96A1961200016E9EA849EF2A
:10288C0014F04BEF14F044EF14F001C0ADFF120044
:10289C009EA653EF14F055EF14F04EEF14F09E96E5
:1028AC0012006BEC14F077EC14F0C9501200016EAE
:1028BC0001C0C9FF4EEC14F012001E0E936EF19E77
:1028CC001200C5824EEC14F01200C5864EEC14F0CA
:1028DC001200C5844EEC14F01200C5804EEC14F0BE
:0A28EC001200C58AC58812000133EE
:102DD600002320202054696D6520202020455620A0
:102DE6002053500A0D002020204E6F74204D617430
:102DF60063686564202020002020204C6F672043F4
:102E06006C656172656420202000446F776E6C6F7C
:102E160061645F6C6F67203A2D2020005365742033
:102E260054696D65202020202020202000566965E9
:102E360077204C6F67202020202020202000436C24
:102E4600656172206C6F67202020202020200020E2
:102E560020202050617373776F7264202020200039
:102E66002020204D656E752050616765202020204A
:102E760000446F776E6C6F6164204C6F6720202072
:102E8600200020204E65772050617373776F72643F
:102E96002020002020417474656D7074204F766583
:102EA6007220200020205375636365737366756C0A
:102EB6006C792020002057726F6E67205061737303
:102EC600776F7264200020456E74657220506173BE
:102ED60073776F7264200020456E7465722070618E
:102EE6007373776F726420005570646174696E67DE
:102EF6002054696D652E2E2E0054696D65204E6F27
:102F060074205570646174652E00202054494D4527
:102F160020202020455620205350002057616974F8
:102F260020466F7220202020536563005061737322
:102F3600776F7264206368616E67656400436F6EC5
:102F46006669726D2050617373776F726400436FA8
:102F560072726563742050617373776F72640020B8
:102F6600202020202020202020202020202020007B
:102F760020205365742054696D6520202020202070
:102F860000446F776E6C6F6164696E672E2E2E201B
:102F96000052657365742050617373776F72642095
:102FA600002057726F6E672050617373776F72647B
:102FB600002D417474656D70742052656D61696E83
:102FC600005D2020202020202020004C6F67733ACF
:102FD6002D2D3E5B0043200047310047320047332A
:102FE60000473400434C00444C00474E004F4E000F
:0A2FF60043500047520053540000FE
:020000040020DA
:08000000FFFFFFFFFFFFFFFF00
:020000040030CA
:0E000000FF071F1FFF8285FF0FC00FE00F409C
:00000001FF
