:020000040000FA
:040000001CEF0BF0F6
:10060000002020202020202020202020202020200A
:1006100020002020204D656E7520506167652020E8
:100620002020002020202056696577204C6F67200D
:100630002020200020202020436C656172204C6F18
:1006400067202020002020417474656D7074204F55
:10065000766572202000202054494D45202020201E
:1006600045202053502000436F7272656374205000
:10067000617373776F7264002057726F6E672050DA
:10068000617373776F72640020456E7465722070B9
:10069000617373776F7264002D417474656D70744B
:1006A0002052656D61696E0031303A30303A303039
:1006B0002000303031310043200047310047320004
:1006C000473300473400474E004F4E00475200006A
:1006D0001A50800B276E1A501A242E6E19AE73EF23
:1006E00003F075EF03F076EF03F02E802E50D8B4B0
:1006F0007CEF03F07EEF03F093EF03F02E28D8A4F5
:1007000084EF03F086EF03F08EEF03F0000E176E18
:10071000000E186E000E196E000E1A6E198E000E65
:100720001A6E9BEF03F0000E176E000E186E000E8F
:10073000196E000E1A6E1E50800B271A1E501E24B2
:100740002F6E1DAEA6EF03F0A8EF03F0A9EF03F0A4
:100750002F802F50D8B4AFEF03F0B1EF03F0C6EF06
:1007600003F02F28D8A4B7EF03F0B9EF03F0C1EFDF
:1007700003F0000E1B6E000E1C6E000E1D6E000EB0
:100780001E6E1D8E000E1E6ECEEF03F0000E1B6E51
:10079000000E1C6E000E1D6E000E1E6E1B501C10F7
:1007A0001D101E10D8A4D7EF03F0D9EF03F0F1EF1E
:1007B00003F0000E176E000E186E000E196E000E7C
:1007C0001A6E800E19127F0E1A1227501A1217C0B5
:1007D00017F018C018F019C019F01AC01AF034EF49
:1007E00005F02E50D8A4F7EF03F0F9EF03F003EF74
:1007F00004F0000E176E000E186E000E196E000E3B
:100800001A6E34EF05F02F502EC01FF0206A1F5EC5
:10081000000E205A7F0E1F24286E000E2020296E05
:1008200017C023F018C024F019C025F01AC026F014
:10083000000E176E000E186E000E196E000E1A6E66
:10084000000E2A6E000E2B6E000E2C6E000E2D6E0A
:10085000000E2F6E64EF04F02F50D8B432EF04F086
:1008600034EF04F04BEF04F0D890233624362536CD
:100870002636D8901736183619361A362DAE43EF6D
:1008800004F045EF04F046EF04F01780D8902A36C4
:100890002B362C362D361B50235C1C5024581D50F3
:1008A00025581E502658D8A058EF04F05AEF04F0EF
:1008B00063EF04F02D8C1B50235E1C50245A1D50F6
:1008C000255A1E50265A2F2A190E2F646AEF04F05B
:1008D0006CEF04F02CEF04F02350241025102610A8
:1008E000D8B475EF04F077EF04F08FEF04F02A80AE
:1008F0008FEF04F0D8901736183619361A362DAE09
:1009000084EF04F086EF04F087EF04F01780D890AE
:100910002A362B362C362D362806D8A0290619AEB5
:1009200094EF04F096EF04F07AEF04F0000E2F6ECF
:100930002DAE9DEF04F09FEF04F0C3EF04F0FF0E27
:100940002A141F6EFF0E2B14206EFF0E2C14216E26
:100950007F0E2D14226E1F50201021102210D8B4AB
:10096000B4EF04F0B6EF04F0BAEF04F0010E2F6E0E
:10097000C3EF04F017A0BFEF04F0C1EF04F0C3EF22
:1009800004F0B6EF04F02F50D8B4C9EF04F0CBEF69
:1009900004F0EFEF04F0010E1726000E18221922C2
:1009A0001A221AA0D6EF04F0D8EF04F0EFEF04F00B
:1009B00017C01FF018C020F019C021F01AC022F093
:1009C00022342232213220321F321FC017F020C0C1
:1009D00018F021C019F022C01AF0284A292A29BE8D
:1009E000FAEF04F0295008E12828D8A0FAEF04F023
:1009F000FCEF04F007EF05F0000E296E2868000EEA
:100A0000176E000E186E000E196E000E1A6E29BEBB
:100A100014EF05F0295006E12804D8B012EF05F0D4
:100A200014EF05F022EF05F0000E296E000E286E7F
:100A3000000E176E000E186E000E196E000E1A6E64
:100A4000000E276E28C02EF02EA029EF05F02BEF08
:100A500005F02EEF05F0198E2FEF05F0199ED890B6
:100A60002E301A6EE5EF03F01200330E196E000EF1
:100A7000216E000E206E000E1B6E000E1A6E000E10
:100A8000176E000E166EB20E146E060E156E000E68
:100A9000116E010E036E060E046EC00E056EBCECE8
:100AA0000AF016501710D8A458EF05F05AEF05F0C9
:100AB000C9EF06F0010E2DEC0AF0186E0B0E181897
:100AC000D8A465EF05F067EF05F073EF05F00D0EA4
:100AD0002024D96E000E2120DA6E310EDF6E204AFE
:100AE000212A86EF05F00C0E1818D8A47AEF05F02D
:100AF0007CEF05F086EF05F00D0E2024D96E000E78
:100B00002120DA6E300EDF6E6FEF05F0000E1F6EE3
:100B1000000E1E6E94EF05F01E50C30F086E2A0ED5
:100B20005EEC0BF01E4A1F2A20501E5C21501F58FD
:100B3000D8A09DEF05F09FEF05F08CEF05F01A505F
:100B40000A6E1B500B6E1A4A1B2A200E0A5C030EFB
:100B50000B58D8B0AEEF05F0B0EF05F0B8EF05F0E8
:100B60001E50C30F086E5F0E5EEC0BF0D9EF05F060
:100B7000210E1A5C030E1B58D8A0C1EF05F0C3EF7D
:100B800005F0D9EF05F01E50C30F086E200E5EEC85
:100B90000BF0400E1A1807E1060E1B18D8A4D3EF6D
:100BA00005F0D5EF05F0D9EF05F0000E1B6E000E35
:100BB0001A6E880E036E060E046E800E056EBCEC77
:100BC0000AF0040E20182110D8A4E9EF05F0EBEF8D
:100BD00005F051EF05F0100E0B6E390E0A6E0E0E79
:100BE000E82EFED70A2EFCD70B2EFAD71906000ED8
:100BF0001D6E000E1C6E000E136E000E126E64EF62
:100C000006F00D0E1C24D96E000E1D20DA6E1C504D
:100C100014240B6E1D5015200C6E0BC0F6FF0CC07B
:100C2000F7FFDE500900F518D8B419EF06F01BEFF6
:100C300006F062EF06F0000E216E000E206E000E30
:100C4000136E010E126E0D0E0B6EAF0E0A6EB60E07
:100C5000E82EFED70A2EFCD70B2EFAD700D0780E3E
:100C6000036E060E046E800E056EBCEC0AF0010EDB
:100C7000036E060E046EC00E056EBCEC0AF0C00ECC
:100C8000086E19505EEC0BF0980E036E060E046EA3
:100C9000C10E056EBCEC0AF00D0E0B6EAF0E0A6EA7
:100CA000B60EE82EFED70A2EFCD70B2EFAD700D0B0
:100CB000010E036E060E046EC00E056EBCEC0AF04B
:100CC00078EF06F01C4A1D2A1C5014240A6E1D5091
:100CD00015200B6E0AC0F6FF0BC0F7FF0800F55099
:100CE0000009D8A476EF06F078EF06F001EF06F0E1
:100CF000300E1918D8A47FEF06F081EF06F09EEFB2
:100D000006F0450E036E060E046E800E056EBCECFA
:100D10000AF0010E036E060E046EC00E056EBCECEA
:100D20000AF0330E0B6EBB0E0A6EE00EE82EFED7F5
:100D30000A2EFCD70B2EFAD7F2EF06F01250131042
:100D4000D8A4A5EF06F0A7EF06F0F0EF06F0000E2E
:100D5000176E010E166E0D0E0B6EAF0E0A6EB60EEE
:100D6000E82EFED70A2EFCD70B2EFAD700D0670E3E
:100D7000036E060E046E800E056EBCEC0AF0120EB9
:100D8000036E060E046EC00E056EBCEC0AF051EF49
:100D900005F016041710D8A4D0EF06F0D2EF06F035
:100DA00051EF05F01A0E0B6E5E0E0A6E6E0EE82EF7
:100DB000FED70A2EFCD70B2EFAD700D0230E036ED7
:100DC000060E046E800E056EBCEC0AF0340E036E47
:100DD000060E046EC00E056EBCEC0AF051EF05F075
:100DE00051EF05F01200116E1150D8B4FAEF06F071
:100DF000FCEF06F01EEF07F00CBE03EF07F001EF6B
:100E000007F01EEF07F009C00DF00AC00EF00BC08E
:100E10000FF00CC010F00D1E0E1E0F1E101E0D2A1E
:100E2000000E0E220F2210220DC013F00EC014F07F
:100E30000FC015F010C016F026EF07F009C013F030
:100E40000AC014F00BC015F00CC016F009500A10BF
:100E50000B100C10D8A42FEF07F031EF07F03BEF89
:100E600007F0000E096E000E0A6E000E0B6E000EEB
:100E70000C6ECCEF07F0960E126E45EF07F0122ABB
:100E8000D8901632153214321332000E13140D6E30
:100E9000000E14140E6E000E15140F6EFE0E1614B6
:100EA000106E0D500E100F101010D8A45AEF07F04E
:100EB0005CEF07F03FEF07F06AEF07F0122A010E30
:100EC0001326000E142215221622D890163215323F
:100ED00014321332000E13140D6E000E14140E6E25
:100EE000000E15140F6EFF0E1614106E0D500E101E
:100EF0000F101010D8A47FEF07F081EF07F05EEF1E
:100F000007F089EF07F01206D8901336143615361D
:100F1000163615BE8EEF07F090EF07F098EF07F04A
:100F2000020E126096EF07F098EF07F083EF07F0DC
:100F300012B09DEF07F09FEF07F0A0EF07F0159EAE
:100F4000D890123212C00DF00E6A0F6A106A0DC0EE
:100F500010F00F6A0E6A0D6A0D5013120E50141223
:100F60000F501512105016121150D8B4BAEF07F0E6
:100F7000BCEF07F0C4EF07F00CBEC3EF07F0C1EF02
:100F800007F0C4EF07F0168E13C009F014C00AF082
:100F900015C00BF016C00CF01200066E0604D8A4A3
:100FA000D4EF07F0D6EF07F0DCEF07F0000E506E3D
:100FB000070E4F6E41EF08F0020E0618D8B4E3EFAB
:100FC00007F0E5EF07F0EEEF07F0030E0618D8A4E0
:100FD000ECEF07F0EEEF07F041EF08F0070E4F18C7
:100FE0005010D8A4F6EF07F0F8EF07F005EF08F07F
:100FF000020E0618D8A4FFEF07F001EF08F005EF86
:1010000008F0000E506E000E4F6E020E0618D8A4A7
:101010000CEF08F00EEF08F01DEF08F0505007E15C
:10102000060E4F5CD8B017EF08F019EF08F01DEF6F
:1010300008F04F4A502A41EF08F0030E0618D8A4D2
:1010400024EF08F026EF08F041EF08F0505009E1D6
:10105000020E4F5CD8A02FEF08F031EF08F041EFFF
:1010600008F0505007E1070E4F5CD8B03AEF08F097
:101070003CEF08F041EF08F04F06D8A0500641EFD2
:1010800008F0D8904F34D96E5034DA6E3C0ED92621
:10109000000EDA22DECF03F0DDCF04F0CA0E056EBB
:1010A000BCEC0AF01200819A818C818E81B25BEFD8
:1010B00008F05DEF08F060EF08F0010ED6EF08F0E1
:1010C00081B465EF08F067EF08F06AEF08F0040EEE
:1010D000D6EF08F081B66FEF08F071EF08F074EF0B
:1010E00008F0070ED6EF08F081B879EF08F07BEF33
:1010F00008F07EEF08F00A0ED6EF08F0818A819C96
:10110000818E81B286EF08F088EF08F08BEF08F04F
:10111000020ED6EF08F081B490EF08F092EF08F0DD
:1011200095EF08F0050ED6EF08F081B69AEF08F0BB
:101130009CEF08F09FEF08F0080ED6EF08F081B89A
:10114000A4EF08F0A6EF08F0A9EF08F00B0ED6EF19
:1011500008F0818A818C819E819E81B2B2EF08F075
:10116000B4EF08F0B7EF08F0030ED6EF08F081B443
:10117000BCEF08F0BEEF08F0C1EF08F0060ED6EFA6
:1011800008F081B6C6EF08F0C8EF08F0CBEF08F022
:10119000090ED6EF08F081B8D0EF08F0D2EF08F0D2
:1011A000D5EF08F00C0ED6EF08F0FF0E1200323427
:1011B0003334396E3950D8A4E0EF08F0E2EF08F08C
:1011C000ECEF08F0000E306E000E316E000E326E45
:1011D000000E336E59EF09F030C034F031C035F0F5
:1011E00032C036F033C037F0200EFCEF08F0D89054
:1011F0003732363235323432E82EF7EF08F03450D9
:10120000386E328EFF0E3016FF0E3116FF0E32167C
:10121000000E3316960E395E39BE13EF09F011EF4A
:1012200009F029EF09F03950800A970FD8B01BEF69
:1012300009F01DEF09F01FEF09F0E2EF08F0D89078
:101240003332323231323032393E1FEF09F041EF62
:1012500009F01F0E39642FEF09F031EF09F039EF73
:1012600009F0E2EF08F0D8903036313632363336B6
:1012700039063950D8A43FEF09F041EF09F033EFB8
:1012800009F03850D8B447EF09F049EF09F051EFB1
:1012900009F0331E321E311E306C000E3122322214
:1012A000332230C030F031C031F032C032F033C0C0
:1012B00033F01200000E956E9450F80B946E8290ED
:1012C000020E046E040E036EBA0EE82EFED7032E35
:1012D000FCD7042EFAD700D0000E016E330EFFECBF
:1012E0000AF01B0E036E9E0EE82EFED7032EFCD7CF
:1012F00000D0000E016E330EFFEC0AF0A60EE82EB1
:10130000FED700D0000E016E330EFFEC0AF000D0C5
:1013100000D000F0000E016E020EFFEC0AF0A60EE7
:10132000E82EFED700D0000E016E380EFFEC0AF05A
:10133000A60EE82EFED700D0000E016E010EFFECC7
:101340000AF0040E036E3E0EE82EFED7032EFCD7E5
:10135000000E016E0C0EFFEC0AF0A60EE82EFED772
:1013600000D012003A6E560E036E060E046E800E0A
:10137000056EBCEC0AF06AEC0BF03A50CDEC07F0CD
:10138000140E1B6EAE0E1C6E230E1D6E410E1E6ED5
:10139000040E98EC0AF001C009F002C00AF00B6AD2
:1013A0000C6A000EF3EC06F009C017F00AC018F042
:1013B0000BC019F00CC01AF068EC03F017C030F045
:1013C00018C031F019C032F01AC033F0D7EC08F071
:1013D00030C04DF031C04EF04DC00AF04EC00BF0A1
:1013E000DEEC0AF01200000E066E000E056E0350D1
:1013F0000410D8B4FEEF09F000EF0AF028EF0AF06D
:10140000010E076E08EF0AF0D89003360436072A5B
:1014100004AE0DEF0AF00FEF0AF004EF0AF0D890D7
:10142000053606360350015C04500258D8A01BEF65
:101430000AF01DEF0AF022EF0AF00350015E04509B
:10144000025A0580D89004320332072E0FEF0AF0BB
:1014500005C001F006C002F01200016E0150D8A4D0
:1014600034EF0AF036EF0AF03AEF0AF053EC08F0E6
:1014700065EF0AF00104D8A440EF0AF042EF0AF049
:1014800065EF0AF053EC08F0026E0228D8B44BEF77
:101490000AF04DEF0AF05AEF0AF04C50D8B453EF6F
:1014A0000AF055EF0AF05AEF0AF0000E4C6E0250A7
:1014B00065EF0AF00228D8A460EF0AF062EF0AF0A4
:1014C00064EF0AF0010E4C6EFF0E12000350041080
:1014D000D8B46DEF0AF06FEF0AF093EF0AF0010E47
:1014E000056E77EF0AF0D89003360436052A04AE6D
:1014F0007CEF0AF07EEF0AF073EF0AF00350015C14
:1015000004500258D8A087EF0AF089EF0AF08DEF57
:101510000AF00350015E0450025AD890043203329C
:10152000052E7EEF0AF001C001F002C002F01200A9
:10153000086E08C003F0D8900336D8900336C25026
:10154000C30B0310C26EC282C2B2A9EF0AF0ABEFA6
:101550000AF0A4EF0AF0C4CF03F0030E0316035001
:10156000056E046AC350066E076A04500610016EC9
:1015700005500710026E1200000E016E0550FFECC0
:101580000AF0CFEF0AF0010E016E03C0F6FF04C0AF
:10159000F7FF0800F550FFEC0AF0034A042A03C0E5
:1015A000F6FF04C0F7FF0800F5500009D8A4DBEFF0
:1015B0000AF0DDEF0AF0C3EF0AF01200CD0E086E5C
:1015C0000AC001F00BC002F0000E046E0A0E036E9A
:1015D000F3EC09F00150300F5EEC0BF0CE0E086E0C
:1015E0000AC001F00BC002F0000E046E0A0E036E7A
:1015F00066EC0AF00150300F5EEC0BF01200026E48
:1016000001B005EF0BF008EF0BF0828209EF0BF051
:10161000829202C083FF82848294958E828082921D
:101620008284829483BE17EF0BF019EF0BF010EF5A
:101630000BF08290959E1200E60EF66E160EF76E77
:10164000000EF86E00EE3CF010EE11F00900F5CF40
:10165000EEFFE550E150FAE1506A4F6A4E6A4D6A7A
:10166000000EF86E060EF76E000137EF0BF07CEC03
:101670000BF0010E2DEC0AF03B6E0A0E3B18D8A4BD
:1016800044EF0BF046EF0BF048EF0BF035EC05F0B4
:101690003B50B2EC09F039EF0BF000EF00F0C280E4
:1016A000C19AC198C186C194C182C190C08AC098B4
:1016B000C096C094C082C090C08E1200096E000E09
:1016C000016E0850FFEC0AF0010E016E0950FFECAC
:1016D0000AF01200A80E036E060E046EC00E056E10
:1016E000BCEC0AF01200C906C606BA06BD06C00662
:0716F000C306CC06B706019A
:1016F80083EC0BF05AEC09F04FEC0BF012001E0EC5
:06170800936EF19E120039
:020000040020DA
:08000000FFFFFFFFFFFFFFFF00
:020000040030CA
:0E000000FF071F1FFF8285FF0FC00FE00F409C
:00000001FF
