:020000040000FA
:0400000007EF00F016
:100008005D827DED0FF074EF0EF00E6E5350D8A4A4
:1000180010EF00F012EF00F0A4EF00F0FB0E036EFB
:100028002E0E046E800E056E3EEC0EF00B0E0E18B2
:10003800D8A421EF00F023EF00F039EF00F0B70E5D
:100048004D24D96E000E4E20DA6E310EDF6E4D5003
:10005800C30F086E2A0E79EC10F0000E526E000ED7
:10006800516E4D4A4E2A52EF00F00C0E0E18D8A4CD
:1000780040EF00F042EF00F052EF00F0B70E4D24D1
:10008800D96E000E4E20DA6E300EDF6E4D50C30F63
:10009800086E2A0E79EC10F031EF00F0040E4D18BE
:1000A8004E10D8A45AEF00F05CEF00F0F5EF01F025
:1000B800000E4E6E000E4D6E000E0001BB6FBC0EA2
:1000C800016E000E026EB70E036E000E046E3BEC5E
:1000D8000DF001500210D8B474EF00F076EF00F084
:1000E80098EF00F0EA0E036E2E0E046E800E056E79
:1000F8003EEC0EF0720E036E2F0E046EC00E056EEF
:100108003EEC0EF0000E536E020E566E1A0E0B6E7B
:100118005E0E0A6E6E0EE82EFED70A2EFCD70B2E48
:10012800FAD700D043EF02F0720E036E2F0E046E62
:10013800C00E056E3EEC0EF0010E536EF5EF01F0A9
:100148005304D8A4AAEF00F0ACEF00F012EF01F0CE
:10015800B70E036E2E0E046E800E056E3EEC0EF08A
:100168000B0E0E18D8A4BBEF00F0BDEF00F0D3EFD4
:1001780000F0B70E4D24D96E000E4E20DA6E310E07
:10018800DF6E4D50C30F086E2A0E79EC10F0000E8A
:10019800526E000E516E4D4A4E2AECEF00F00C0ED6
:1001A8000E18D8A4DAEF00F0DCEF00F0ECEF00F066
:1001B800B70E4D24D96E000E4E20DA6E300EDF6E6B
:1001C8004D50C30F086E2A0E79EC10F0CBEF00F0FB
:1001D800040E4D184E10D8A4F4EF00F0F6EF00F01E
:1001E800F5EF01F0720E036E2F0E046EC00E056E51
:1001F8003EEC0EF0020E536E000E4E6E000E4D6E6B
:100208000D0E0B6EAF0E0A6EB60EE82EFED70A2E36
:10021800FCD70B2EFAD700D0F5EF01F0020E5318D9
:10022800D8A419EF01F01BEF01F0F5EF01F0500E23
:10023800036E2F0E046E800E056E3EEC0EF00B0E54
:100248000E18D8A42AEF01F02CEF01F042EF01F0CC
:10025800B20E4D24D96E000E4E20DA6E310EDF6ECE
:100268004D50C30F086E2A0E79EC10F0000E526E36
:10027800000E516E4D4A4E2A5BEF01F00C0E0E181F
:10028800D8A449EF01F04BEF01F05BEF01F0B20E9B
:100298004D24D96E000E4E20DA6E300EDF6E4D50B2
:1002A800C30F086E2A0E79EC10F03AEF01F0040E35
:1002B8004D184E10D8A463EF01F065EF01F0F5EF8B
:1002C80001F0000E4E6E000E4D6E000E0001B66F6E
:1002D800B70E016E000E026EB20E036E000E046EB3
:1002E8003BEC0DF001500210D8A47DEF01F07FEF38
:1002F80001F0D1EF01F03F0E036E2F0E046E800E59
:10030800056E3EEC0EF0D90E036E2E0E046EC00E76
:10031800056E3EEC0EF0A1EF01F0B20E4D24D96E41
:10032800000E4E20DA6EBC0E4D24E16E000E4E20FB
:10033800E26EDFCFE7FF4D4A4E2AB20E4D24D96E4A
:10034800000E4E20DA6EDF50D8A4ADEF01F0AFEF0B
:1003580001F091EF01F0000E0D6E000E0C6EB20E62
:100368000C24D96E000E0D20DA6EDF50026E0C5090
:10037800460FA1EC0FF00C4A0D2A0DBECDEF01F08F
:100388000D5009E1040E0C5CD8A0CDEF01F0CFEFC1
:1003980001F0B3EF01F0E1EF01F0840E036E2E0ED1
:1003A800046E800E056E3EEC0EF02D0E036E2E0EC2
:1003B800046EC00E056E3EEC0EF0000E536E020E7B
:1003C800566E000E4E6E000E4D6E1A0E0B6E5E0EC1
:1003D8000A6E6E0EE82EFED70A2EFCD70B2EFAD721
:1003E80000D0050E51185210D8A4FDEF01F0FFEF10
:1003F80001F009EF02F0000E536E020E566E000E69
:100408004E6E000E4D6E43EF02F04B500A6E4C508C
:100418000B6E4B4A4C2A200E0A5C030E0B58D8B0C0
:1004280018EF02F01AEF02F022EF02F04D50C30F5E
:10043800086E5F0E79EC10F043EF02F0210E4B5C72
:10044800030E4C58D8A02BEF02F02DEF02F043EF2B
:1004580002F04D50C30F086E200E79EC10F0400EDC
:100468004B1807E1060E4C18D8A43DEF02F03FEFF9
:1004780002F043EF02F0000E4C6E000E4B6E1200BD
:100488001A50800B276E1A501A242E6E19AE4FEF91
:1004980002F051EF02F052EF02F02E802E50D8B445
:1004A80058EF02F05AEF02F06FEF02F02E28D8A4AE
:1004B80060EF02F062EF02F06AEF02F0000E176ED2
:1004C800000E186E000E196E000E1A6E198E000EB0
:1004D8001A6E77EF02F0000E176E000E186E000EFF
:1004E800196E000E1A6E1E50800B271A1E501E24FD
:1004F8002F6E1DAE82EF02F084EF02F085EF02F05E
:100508002F802F50D8B48BEF02F08DEF02F0A2EFBE
:1005180002F02F28D8A493EF02F095EF02F09DEF98
:1005280002F0000E1B6E000E1C6E000E1D6E000EFB
:100538001E6E1D8E000E1E6EAAEF02F0000E1B6EC0
:10054800000E1C6E000E1D6E000E1E6E1B501C1041
:100558001D101E10D8A4B3EF02F0B5EF02F0CDEFD6
:1005680002F0000E176E000E186E000E196E000EC7
:100578001A6E800E19127F0E1A1227501A1217C0FF
:1005880017F018C018F019C019F01AC01AF010EFB7
:1005980004F02E50D8A4D3EF02F0D5EF02F0DFEF2D
:1005A80002F0000E176E000E186E000E196E000E87
:1005B8001A6E10EF04F02F502EC01FF0206A1F5E35
:1005C800000E205A7F0E1F24286E000E2020296E50
:1005D80017C023F018C024F019C025F01AC026F05F
:1005E800000E176E000E186E000E196E000E1A6EB1
:1005F800000E2A6E000E2B6E000E2C6E000E2D6E55
:10060800000E2F6E40EF03F02F50D8B40EEF03F01A
:1006180010EF03F027EF03F0D89023362436253661
:100628002636D8901736183619361A362DAE1FEFDB
:1006380003F021EF03F022EF03F01780D8902A3659
:100648002B362C362D361B50235C1C5024581D503D
:1006580025581E502658D8A034EF03F036EF03F083
:100668003FEF03F02D8C1B50235E1C50245A1D5065
:10067800255A1E50265A2F2A190E2F6446EF03F0CA
:1006880048EF03F008EF03F023502410251026103C
:10069800D8B451EF03F053EF03F06BEF03F02A8067
:1006A8006BEF03F0D8901736183619361A362DAE78
:1006B80060EF03F062EF03F063EF03F01780D89068
:1006C8002A362B362C362D362806D8A0290619AE00
:1006D80070EF03F072EF03F056EF03F0000E2F6E89
:1006E8002DAE79EF03F07BEF03F09FEF03F0FF0EE1
:1006F8002A141F6EFF0E2B14206EFF0E2C14216E71
:100708007F0E2D14226E1F50201021102210D8B4F5
:1007180090EF03F092EF03F096EF03F0010E2F6EC7
:100728009FEF03F017A09BEF03F09DEF03F09FEFFF
:1007380003F092EF03F02F50D8B4A5EF03F0A7EF22
:1007480003F0CBEF03F0010E1726000E1822192232
:100758001A221AA0B2EF03F0B4EF03F0CBEF03F0C4
:1007680017C01FF018C020F019C021F01AC022F0DD
:1007780022342232213220321F321FC017F020C00B
:1007880018F021C019F022C01AF0284A292A29BED7
:10079800D6EF03F0295008E12828D8A0D6EF03F0B7
:1007A800D8EF03F0E3EF03F0000E296E2868000E7F
:1007B800176E000E186E000E196E000E1A6E29BE06
:1007C800F0EF03F0295006E12804D8B0EEEF03F06B
:1007D800F0EF03F0FEEF03F0000E296E000E286E16
:1007E800000E176E000E186E000E196E000E1A6EAF
:1007F800000E276E28C02EF02EA005EF04F007EF9C
:1008080004F00AEF04F0198E0BEF04F0199ED8904B
:100818002E301A6EC1EF02F01200106E0B0E101877
:10082800D8A419EF04F01BEF04F087EF04F0000ED2
:10083800526E000E516E10C049F04A6A43500E6E57
:1008480044500F6E434A442A910E0E5C010E0F5815
:10085800D8A031EF04F033EF04F0E6EF04F0040E13
:1008680045184610D8B43BEF04F03DEF04F047EFCD
:1008780004F0030E45184610D8A445EF04F047EFDE
:1008880004F04BEF04F0000E446E000E436E45502A
:10089800030F566E45504610D8B455EF04F057EF85
:1008A80004F0CCEF05F0D8904534D96E4634DA6EB2
:1008B800780ED926000EDA22DECFF6FFDDCFF7FF5D
:1008C8000800F5CF8CF0D8904534D96E4634DA6EEE
:1008D800780ED926000EDA22DECF0EF0DDCF0FF02B
:1008E800010E0E26000E0F220EC0F6FF0FC0F7FFF6
:1008F8000800F5CF8DF0820E066E000E076E82ECB2
:100908000CF0CCEF05F043504410D8B48EEF04F04F
:1009180090EF04F0E6EF04F0900E435C010E4458AB
:10092800D8B099EF04F09BEF04F0E6EF04F00B0E5B
:1009380049184A10D8A4A3EF04F0A5EF04F0E6EF95
:1009480004F01028D8A4ABEF04F0ADEF04F0E6EF04
:1009580004F059505A10D8B4B4EF04F0B6EF04F0CC
:10096800E6EF04F057505810D8A4BDEF04F0BFEFDD
:1009780004F0C5EF04F0000E586E010E576ED6EF66
:1009880004F05A5009E1020E595CD8A0CEEF04F0E9
:10099800D0EF04F0D6EF04F04706D8A04806590671
:1009A800D8A05A0645504610D8B4DDEF04F0DFEF62
:1009B80004F0E2EF04F04506D8A04606000E446EA7
:1009C800000E436E0C0E1018D8A4EDEF04F0EFEFF4
:1009D80004F01FEF05F0000E526E000E516E10C0AD
:1009E80049F04A6A43500E6E44500F6E434A442AF7
:1009F800910E0E5C010E0F58D8A005EF05F007EF19
:100A080005F07FEF05F0000E486E000E476E000EF1
:100A18005A6E010E596E000E586E010E576E000E7A
:100A2800466E000E456E000E566E000E446E000EA9
:100A3800436ECCEF05F043504410D8B426EF05F0D0
:100A480028EF05F07FEF05F0900E435C010E445847
:100A5800D8B031EF05F033EF05F07FEF05F00C0E5D
:100A680049184A10D8A43BEF05F03DEF05F07FEF99
:100A780005F01028D8A443EF05F045EF05F07FEF07
:100A880005F0485007E1040E475CD8B04EEF05F07A
:100A980050EF05F07FEF05F057045810D8A457EF32
:100AA80005F059EF05F05FEF05F0000E586E000EE7
:100AB800576E6EEF05F0485007E1030E475CD8B05B
:100AC80068EF05F06AEF05F06EEF05F0474A482A2F
:100AD800594A5A2A465007E1040E455CD8B077EFC8
:100AE80005F079EF05F07BEF05F0454A462A000E40
:100AF800446E000E436E050E51185210D8A487EFAD
:100B080005F089EF05F08BEF05F007EF05F05704C6
:100B18005810D8A492EF05F094EF05F0A0EF05F077
:100B2800800E086E2A0E79EC10F0C00E086E200EAA
:100B380079EC10F0AAEF05F0800E086E200E79EC23
:100B480010F0C00E086E2A0E79EC10F0D8904734D9
:100B5800D96E4834DA6E700ED926000EDA22DECF4E
:100B680003F0DDCF04F0810E056E3EEC0EF0D89058
:100B78005934D96E5A34DA6E700ED926000EDA223C
:100B8800DECF03F0DDCF04F0C10E056E3EEC0EF0B3
:100B980012000C6E0C0E036E2F0E046E800E056E86
:100BA8003EEC0EF00B0E0C18D8A4DDEF05F0DFEFCD
:100BB80005F0F5EF05F0B70E4D24D96E000E4E2066
:100BC800DA6E310EDF6E4D50C30F086E2A0E79ECC7
:100BD80010F0000E526E000E516E4D4A4E2A0EEF66
:100BE80006F00C0E0C18D8A4FCEF05F0FEEF05F08B
:100BF8000EEF06F0B70E4D24D96E000E4E20DA6EB9
:100C0800300EDF6E4D50C30F086E2A0E79EC10F0CF
:100C1800EDEF05F0050E51185210D8A416EF06F0A6
:100C280018EF06F022EF06F0000E566E000E4E6E1C
:100C3800000E4D6E330E5C6E3BEF07F04B500A6EA4
:100C48004C500B6E4B4A4C2A200E0A5C030E0B5874
:100C5800D8B031EF06F033EF06F03BEF06F04D5019
:100C6800C30F086E5F0E79EC10F05CEF06F0210EF2
:100C78004B5C030E4C58D8A044EF06F046EF06F044
:100C88005CEF06F04D50C30F086E200E79EC10F0A3
:100C9800400E4B1807E1060E4C18D8A456EF06F084
:100CA80058EF06F05CEF06F0000E4C6E000E4B6E2F
:100CB800040E4D184E10D8A464EF06F066EF06F047
:100CC8003BEF07F0080E0B6E9D0E0A6E060EE82E1F
:100CD800FED70A2EFCD70B2EFAD75C06000E4E6EF6
:100CE800000E4D6EBC0E016E000E026EB70E036E46
:100CF800000E046E3BEC0DF001500210D8B487EFE3
:100D080006F089EF06F0C0EF06F00D0E0B6EAF0E81
:100D18000A6EB60EE82EFED70A2EFCD70B2EFAD78F
:100D280000D0A40E036E2F0E046E800E056E3EECEE
:100D38000EF0C00E086E5C5079EC10F0B40E036E25
:100D48002F0E046EC10E056E3EEC0EF00D0E0B6EEE
:100D5800AF0E0A6EB60EE82EFED70A2EFCD70B2E63
:100D6800FAD700D0720E036E2F0E046EC00E056EF9
:100D78003EEC0EF0E6EF06F0000E4E6E000E4D6EE5
:100D8800330E5C6E610E036E2F0E046E800E056EC0
:100D98003EEC0EF0950E036E2E0E046EC00E056E20
:100DA8003EEC0EF0120E0B6EC20E0A6E660EE82EA8
:100DB800FED70A2EFCD70B2EFAD700D0020E566E9D
:100DC8003BEF07F0300E5C18D8A4EDEF06F0EFEF1C
:100DD80006F03BEF07F0C80E036E2E0E046E800E71
:100DE800056E3EEC0EF02E0E036E2F0E046EC00E36
:100DF800056E3EEC0EF0000E526E000E516E2DEF99
:100E080007F0CA0E086E51503B08016E5250D8A028
:100E1800E82A0008026E000E046E0A0E036ECBEC80
:100E28000DF00150300F79EC10F0CB0E086E5150D8
:100E38003B08016E5250D8A0E82A0008026E000E46
:100E4800046E0A0E036EA7EC0EF00150300F79EC19
:100E580010F03C0E51185210D8A435EF07F037EFB8
:100E680007F005EF07F0000E566E330E5C6E1200A9
:100E78005FEC10F0000E3D6E000E3C6EBC0E3C2484
:100E8800D96E000E3D20DA6E3C50460F17EC10F07C
:100E9800DF6E3C4A3D2A3DBE5BEF07F03D5009E15D
:100EA800040E3C5CD8A05BEF07F05DEF07F042EF63
:100EB80007F0000E0001C06F140E1B6EAE0E1C6E04
:100EC800230E1D6E410E1E6E040E35EC0FF001C090
:100ED80009F002C00AF00B6A0C6A000ED8EC09F09F
:100EE80009C017F00AC018F00BC019F00CC01AF0AE
:100EF80044EC02F017C030F018C031F019C032F0DD
:100F08001AC033F0FFEC0BF030C09EF031C09FF0F8
:100F18009EC008F09FC009F0C1EC0FF08AEC0DF0FC
:100F2800820E066E000E076E82EC0CF0020E56184A
:100F3800D8B4A1EF07F0A3EF07F0ACEF07F0030E6A
:100F48005618D8A4AAEF07F0ACEF07F0B2EF07F0F5
:100F5800000E05EC0EF03E6EB6EF07F0010E05EC44
:100F68000EF03E6E0A0E3E18D8A4BDEF07F0BFEF94
:100F780007F046EF08F05650D8A4C5EF07F0C7EFC2
:100F880007F046EF08F0720E036E2F0E046EC00EC7
:100F9800056E3EEC0EF0010E566E000E526E000EFF
:100FA800516E46EF08F03E50D9EC0EF06BEF08F0AA
:100FB8003E50CDEC05F0020E5618D8A4E6EF07F027
:100FC800E8EF07F06BEF08F0000E526E000E516E5E
:100FD8006BEF08F03E5011EC04F0070E5618D8A439
:100FE800F8EF07F0FAEF07F06BEF08F0720E036EF8
:100FF8002F0E046EC00E056E3EEC0EF0E8EF07F003
:101008003E50A3EC08F0020E5618D8A40EEF08F0D4
:1010180010EF08F06BEF08F0E8EF07F008EC0FF0BE
:10102800020E566EE8EF07F03E5009EC00F0020E93
:101038005618D8A422EF08F024EF08F06BEF08F058
:10104800E8EF07F0720E036E2F0E046E800E056E29
:101058003EEC0EF0830E036E2F0E046EC00E056E6E
:101068003EEC0EF0660E3B6E760E3A6EC10EE82E22
:10107800FED73A2EFCD73B2EFAD700F0020E566E5A
:101088006BEF08F056503A6E3B6A3B50000AD8B4F2
:1010980050EF08F026EF08F03A50000AD8B4D7EF1E
:1010A80007F0010AD8B4DCEF07F0030AD8B4EEEF72
:1010B80007F0010AD8B404EF08F0050AD8B412EF13
:1010C80008F0010AD8B418EF08F026EF08F08AEC07
:1010D8000DF0140E1B6EAE0E1C6E230E1D6E410E0F
:1010E8001E6E040E35EC0FF001C009F002C00AF0C4
:1010F8000B6A0C6A000ED8EC09F009C017F00AC098
:1011080018F00BC019F00CC01AF044EC02F017C02C
:1011180030F018C031F019C032F01AC033F0FFECCB
:101128000BF030C09EF031C09FF09EC008F09FC009
:1011380009F0C1EC0FF09AEF07F007EF00F00E6E20
:10114800D00E036E2F0E046E800E056E3EEC0EF070
:10115800890E086E3FC001F040C002F055C003F090
:10116800046AA7EC0EF00150300F79EC10F0C40EB1
:10117800036E2F0E046E8A0E056E3EEC0EF00B0EFB
:101188000E18D8A4CAEF08F0CCEF08F0D3EF08F097
:101198000EC049F04A6A434A442A96EF09F0435080
:1011A8004410D8B4DAEF08F0DCEF08F021EF09F0CA
:1011B800900E435C010E4458D8B0E5EF08F0E7EF15
:1011C80008F021EF09F00B0E49184A10D8A4EFEFE8
:1011D80008F0F1EF08F021EF09F00E28D8A4F7EF96
:1011E80008F0F9EF08F021EF09F03F06D8A0400613
:1011F8004106D8A04206412806E14228D8A407EFB4
:1012080009F009EF09F00DEF09F0000E426E090E22
:10121800416E3F2806E14028D8A415EF09F017EFE2
:1012280009F01BEF09F0000E406E090E3F6E000E2C
:10123800446E000E436E96EF09F00C0E0E18D8A4FB
:1012480028EF09F02AEF09F04EEF09F00EC049F037
:101258004A6A43500A6E44500B6E434A442A2D0E84
:101268000A5C010E0B58D8A03CEF09F03EEF09F0DC
:1012780096EF09F0000E446E000E436E020E566E95
:10128800000E406E000E3F6E000E526E000E516E44
:10129800D7EF09F043504410D8B455EF09F057EF91
:1012A80009F01BEF09F02C0E435C010E4458D8B02E
:1012B80060EF09F062EF09F01BEF09F00C0E491816
:1012C8004A10D8A46AEF09F06CEF09F01BEF09F097
:1012D8000E28D8A472EF09F074EF09F01BEF09F09B
:1012E8003F4A402A414A422A0A0E41184210D8A4CD
:1012F80080EF09F082EF09F086EF09F0000E426EE8
:10130800000E416E0A0E3F184010D8A48EEF09F067
:1013180090EF09F01BEF09F0000E406E000E3F6ED3
:101328001BEF09F041C001F042C002F055C003F0C4
:10133800046AA7EC0EF0013A023AF00E02160150C8
:101348000F0B0212F00E011601C098F002C099F0BE
:10135800000E0D6E000E0C6EA10E0C24D96E000E40
:101368000D20DA6E0C500001982517EC10F0DF6E96
:101378000C4A0D2A0DBECAEF09F00D5009E1100EF6
:101388000C5CD8A0CAEF09F0CCEF09F0B0EF09F077
:10139800000E0001B16FA10E036E000E046EC00EA8
:1013A800056E3EEC0EF01200116E1150D8B4DFEF4E
:1013B80009F0E1EF09F003EF0AF00CBEE8EF09F0DD
:1013C800E6EF09F003EF0AF009C00DF00AC00EF0CD
:1013D8000BC00FF00CC010F00D1E0E1E0F1E101EBD
:1013E8000D2A000E0E220F2210220DC013F00EC07F
:1013F80014F00FC015F010C016F00BEF0AF009C07A
:1014080013F00AC014F00BC015F00CC016F0095008
:101418000A100B100C10D8A414EF0AF016EF0AF0FB
:1014280020EF0AF0000E096E000E0A6E000E0B6E19
:10143800000E0C6EB1EF0AF0960E126E2AEF0AF04B
:10144800122AD8901632153214321332000E1314A1
:101458000D6E000E14140E6E000E15140F6EFE0E97
:101468001614106E0D500E100F101010D8A43FEF68
:101478000AF041EF0AF024EF0AF04FEF0AF0122ABF
:10148800010E1326000E142215221622D8901632A9
:10149800153214321332000E13140D6E000E14148C
:1014A8000E6E000E15140F6EFF0E1614106E0D50F2
:1014B8000E100F101010D8A464EF0AF066EF0AF0AF
:1014C80043EF0AF06EEF0AF01206D890133614367E
:1014D8001536163615BE73EF0AF075EF0AF07DEF74
:1014E8000AF0020E12607BEF0AF07DEF0AF068EF57
:1014F8000AF012B082EF0AF084EF0AF085EF0AF0E2
:10150800159ED890123212C00DF00E6A0F6A106A3A
:101518000DC010F00F6A0E6A0D6A0D5013120E50AE
:1015280014120F501512105016121150D8B49FEF04
:101538000AF0A1EF0AF0A9EF0AF00CBEA8EF0AF032
:10154800A6EF0AF0A9EF0AF0168E13C009F014C02E
:101558000AF015C00BF016C00CF01200106E100443
:10156800D8A4B9EF0AF0BBEF0AF0CCEF0AF04904AF
:101578004A10D8B4C2EF0AF0C4EF0AF0CCEF0AF070
:10158800010E546E000E506E070E4F6E3FEF0BF0BB
:10159800020E1018D8B4D3EF0AF0D5EF0AF0DEEF38
:1015A8000AF0030E1018D8A4DCEF0AF0DEEF0AF0F8
:1015B8003FEF0BF0070E4F185010D8A4E6EF0AF0D3
:1015C800E8EF0AF001EF0BF0020E1018D8A4EFEFC5
:1015D8000AF0F1EF0AF001EF0BF0020E49184A1079
:1015E800D8B4F9EF0AF0FBEF0AF001EF0BF0010EA7
:1015F800546E000E506E000E4F6E020E1018D8A4D6
:1016080008EF0BF00AEF0BF01BEF0BF0505007E15F
:10161800060E4F5CD8B013EF0BF015EF0BF01BEF75
:101628000BF04F4A502A010E546E3FEF0BF0030E99
:101638001018D8A422EF0BF024EF0BF03FEF0BF0BB
:10164800505009E1020E4F5CD8A02DEF0BF02FEFA0
:101658000BF03FEF0BF0505007E1070E4F5CD8B08E
:1016680038EF0BF03AEF0BF03FEF0BF04F06D8A036
:10167800500617EF0BF05404D8A445EF0BF047EFD2
:101688000BF077EF0BF0000E546ED8904F34D96EF4
:101698005034DA6E600ED926000EDA22DECFF6FF5D
:1016A800DDCFF7FF0800F5CF8CF0D8904F34D96E16
:1016B8005034DA6E600ED926000EDA22DECF0EF034
:1016C800DDCF0FF0010E0E26000E0F220EC0F6FF22
:1016D8000FC0F7FF0800F5CF8DF0820E066E000EE2
:1016E800076E82EC0CF010C049F04A6A1200819A29
:1016F800818C818E81B283EF0BF085EF0BF088EF40
:101708000BF0010EFEEF0BF081B48DEF0BF08FEFB5
:101718000BF092EF0BF0040EFEEF0BF081B697EF93
:101728000BF099EF0BF09CEF0BF0070EFEEF0BF0B0
:1017380081B8A1EF0BF0A3EF0BF0A6EF0BF00A0EA8
:10174800FEEF0BF0818A819C818E81B2AEEF0BF0A7
:10175800B0EF0BF0B3EF0BF0020EFEEF0BF081B41D
:10176800B8EF0BF0BAEF0BF0BDEF0BF0050EFEEF84
:101778000BF081B6C2EF0BF0C4EF0BF0C7EF0BF024
:10178800080EFEEF0BF081B8CCEF0BF0CEEF0BF0AC
:10179800D1EF0BF00B0EFEEF0BF0818A818C819E4E
:1017A800819E81B2DAEF0BF0DCEF0BF0DFEF0BF08C
:1017B800030EFEEF0BF081B4E4EF0BF0E6EF0BF055
:1017C800E9EF0BF0060EFEEF0BF081B6EEEF0BF033
:1017D800F0EF0BF0F3EF0BF0090EFEEF0BF081B812
:1017E800F8EF0BF0FAEF0BF0FDEF0BF00C0EFEEF3D
:1017F8000BF0FF0E120032343334396E3950D8A44E
:1018080008EF0CF00AEF0CF014EF0CF0000E306E3D
:10181800000E316E000E326E000E336E81EF0CF04A
:1018280030C034F031C035F032C036F033C037F054
:10183800200E24EF0CF0D89037323632353234325D
:10184800E82E1FEF0CF03450386E328EFF0E301633
:10185800FF0E3116FF0E3216000E3316960E395E45
:1018680039BE3BEF0CF039EF0CF051EF0CF039506A
:10187800800A970FD8B043EF0CF045EF0CF047EF14
:101888000CF00AEF0CF0D890333232323132303269
:10189800393E47EF0CF069EF0CF01F0E396457EF33
:1018A8000CF059EF0CF061EF0CF00AEF0CF0D89047
:1018B800303631363236333639063950D8A467EFE8
:1018C8000CF069EF0CF05BEF0CF03850D8B46FEF08
:1018D8000CF071EF0CF079EF0CF0331E321E311E54
:1018E800306C000E31223222332230C030F031C049
:1018F80031F032C032F033C033F012009CC008F02F
:101908009DC009F0083A093AF00E091608500F0B65
:101918000912F00E081608C00AF009C00BF0000EF4
:101928000D6E000E0C6E0C500624D96E0D5007205B
:10193800DA6EDF50026E0A500C24A1EC0FF00C4A4C
:101948000D2A0DBEB1EF0CF00D5009E1100E0C5C24
:10195800D8A0B1EF0CF0B3EF0CF097EF0CF000014A
:101968009C4B9D2B0A0E5560BCEF0CF0BEEF0CF0A3
:10197800C1EF0CF0552AD4EF0CF0425007E1090EE4
:10198800415CD8B0CAEF0CF0CCEF0CF0D0EF0CF003
:10199800414A422AD4EF0CF0000E426E000E416E0E
:1019A8000A0E9C199D11D8A4DCEF0CF0DEEF0CF0A8
:1019B800E2EF0CF0000E9D6F000E9C6F1200000EFF
:1019C800956E9450F80B946E8290020E046E040E7D
:1019D800036EBA0EE82EFED7032EFCD7042EFAD7D4
:1019E80000D0000E016E330EE0EC0FF01B0E036EFC
:1019F8009E0EE82EFED7032EFCD700D0000E016EF7
:101A0800330EE0EC0FF0A60EE82EFED700D0000E45
:101A1800016E330EE0EC0FF000D000D000F0000EA5
:101A2800016E020EE0EC0FF0A60EE82EFED700D0F5
:101A3800000E016E380EE0EC0FF0A60EE82EFED771
:101A480000D0000E016E010EE0EC0FF0040E036EE4
:101A58003E0EE82EFED7032EFCD7000E016E0C0EAC
:101A6800E0EC0FF0A60EE82EFED700D01200000E14
:101A7800096E000E086E79EF0DF008500124D96E3A
:101A880009500220DA6EDF50056E066A08500324FA
:101A9800D96E09500420DA6EDF50076E0750055ED4
:101AA800000E065A05500610D8B45DEF0DF05FEF32
:101AB8000DF077EF0DF008500124D96E095002207F
:101AC800DA6EDF50056E08500324D96E09500420E1
:101AD800DA6EDF50066E0650055C016E026AD8A009
:101AE800020689EF0DF0084A092A08500124D96E28
:101AF80009500220DA6EDF50D8A485EF0DF087EF89
:101B08000DF041EF0DF05FEF0DF01200020E2CEC1E
:101B180010F00001936F010E2CEC10F00001946F8F
:101B2800000E2CEC10F00001956F93AD9EEF0DF0B8
:101B3800A0EF0DF0ABEF0DF093390F0B010B300F49
:101B4800826F93510F0B300F836FB4EF0DF0933901
:101B58000F0B030B300F826F93510F0B300F836FF6
:101B68003A0E846F94390F0B0F0B300F856F945119
:101B78000F0B300F866F3A0E876F95390F0B0F0BCF
:101B8800300F886F95510F0B300F896F1200000EC0
:101B9800066E000E056E03500410D8B4D6EF0DF093
:101BA800D8EF0DF000EF0EF0010E076EE0EF0DF02C
:101BB800D89003360436072A04AEE5EF0DF0E7EFB8
:101BC8000DF0DCEF0DF0D890053606360350015CB9
:101BD80004500258D8A0F3EF0DF0F5EF0DF0FAEF2E
:101BE8000DF00350015E0450025A0580D89004326B
:101BF8000332072EE7EF0DF005C001F006C002F032
:101C08001200016E0150D8A40CEF0EF00EEF0EF08A
:101C180012EF0EF07BEC0BF03DEF0EF00104D8A4B0
:101C280018EF0EF01AEF0EF03DEF0EF07BEC0BF014
:101C3800026E0228D8B423EF0EF025EF0EF032EF33
:101C48000EF05B50D8B42BEF0EF02DEF0EF032EF04
:101C58000EF0000E5B6E02503DEF0EF00228D8A485
:101C680038EF0EF03AEF0EF03CEF0EF0010E5B6E1F
:101C7800FF0E1200000E016E0550E0EC0FF05BEF56
:101C88000EF0010E016E03C0F6FF04C0F7FFF86AFC
:101C9800050EF76403D00800F55005D0F6CFE1FF34
:101CA800F7CFE2FFE750E0EC0FF0034A042A03C045
:101CB800F6FF04C0F7FFF86A050EF76403D00800C2
:101CC800F55005D0F6CFE1FFF7CFE2FFE750000966
:101CD800D8A471EF0EF073EF0EF045EF0EF012007E
:101CE800FA0EF66E1F0EF76E000EF86E00EE60F03C
:101CF80010EE33F00900F5CFEEFFE550E150FAE1C0
:101D0800720EF66E210EF76E000EF86E00EE57F0AA
:101D180010EE06F00900F5CFEEFFE550E150FAE1CC
:101D280000EE93F02E0EEE6AE806FDE100EE3FF0BD
:101D3800180EEE6AE806FDE15D905D92000EF86E01
:101D480000013CEF07F003500410D8B4AEEF0EF0DA
:101D5800B0EF0EF0D4EF0EF0010E056EB8EF0EF0F6
:101D6800D89003360436052A04AEBDEF0EF0BFEF57
:101D78000EF0B4EF0EF00350015C04500258D8A0E6
:101D8800C8EF0EF0CAEF0EF0CEEF0EF00350015E72
:101D98000450025AD89004320332052EBFEF0EF0D9
:101DA80001C001F002C002F01200116E1D0E036E98
:101DB8002F0E046E800E056E3EEC0EF01104D8B4A2
:101DC800E8EF0EF0EAEF0EF0FCEF0EF0020E11183D
:101DD800D8B4F1EF0EF0F3EF0EF0FCEF0EF0030EB7
:101DE8001118D8A4FAEF0EF0FCEF0EF0FFEF0EF08A
:101DF8001150B2EC0AF0820E036E000E046EC00E93
:101E0800056E3EEC0EF012003F0E036E2E0E046EB1
:101E1800800E056E3EEC0EF0D90E036E2E0E046E8B
:101E2800C00E056E3EEC0EF0000E00019D6F000E18
:101E38009C6F000E426E000E416E000E556E820EB3
:101E4800066E000E076E82EC0CF07F0E0F6ED40E3D
:101E58000E6E320EE82EFED70E2EFCD70F2EFAD7B6
:101E68001200086E08C003F0D8900336D8900336E5
:101E7800C250C30B0310C26EC282C2B246EF0FF04B
:101E880048EF0FF041EF0FF0C4CF03F0030E031635
:101E98000350056E046AC350066E076A04500610A4
:101EA800016E05500710026E1200000E2CEC10F0A7
:101EB800046E04508009026E000E41EC10F0020E10
:101EC8002CEC10F0046E04504009026E020E41EC36
:101ED80010F0930E026E070E41EC10F0000E2CEC81
:101EE80010F0046E04507F0B026E000E41EC10F0EF
:101EF80012000600DE0ED624D66E0B0ED720D76E43
:101F0800F2A489EF0FF08BEF0FF09FEF0FF00001B5
:101F1800964B972B510E96199711D8A496EF0FF060
:101F280098EF0FF09EEF0FF0000E976F000E966F70
:101F3800514A522AF2945D921100056EB5EC10F0E8
:101F4800A00E9FEC10F005509FEC10F002509FEC93
:101F580010F0B1EC10F00B0E046EB80E036E030611
:101F6800D8A00406032806E10428D8A4BEEF0FF081
:101F7800C0EF0FF0B3EF0FF0120008C001F009C076
:101F880002F0000E046E0A0E036ECBEC0DF0015049
:101F9800300F0001906F08C001F009C002F0000E78
:101FA800046E0A0E036EA7EC0EF00150300F00010C
:101FB800916F000E926F1200026E01B0E6EF0FF003
:101FC800E9EF0FF08282EAEF0FF0829202C083FFFE
:101FD80082848294958E828082928284829483BE47
:101FE800F8EF0FF0FAEF0FF0F1EF0FF08290959EF7
:101FF8001200F22FEF2FDD2FE02FE32FE62FF82F1F
:10200800DA2F622E512EA62E732E942FFB2FEC2F33
:10201800E92FF52F202020202020202020204F4E9F
:05202800202020202013
:10202E00026EB5EC10F0A00E9FEC10F002509FEC7B
:10203E0010F0A9EC10F0A10E9FEC10F099EC10F03E
:10204E00036EB1EC10F003501200026EB5EC10F0FE
:10205E00D00E9FEC10F002509FEC10F0A9EC10F097
:10206E00D10E9FEC10F099EC10F0036EB1EC10F065
:10207E0003501200036EB5EC10F0D00E9FEC10F072
:10208E0003509FEC10F002509FEC10F0B1EC10F0EA
:10209E001200C280C19AC198C186C194C182C190FA
:1020AE00C08AC098C096C094C082C090C08E1200E4
:1020BE00A5EC10F0E3EC0CF050EC10F06CEC10F022
:1020CE0085EC10F059EC0FF01200F28EF28CF28AC1
:1020DE00F2940B0ED76EDC0ED66ED58ED59CD59A9D
:1020EE00D5861200096E000E016E0850E0EC0FF05E
:1020FE00010E016E0950E0EC0FF0120094869488E8
:10210E00280EC66E310EC86EC79CC78E9E96A196BF
:10211E0012009EA695EF10F097EF10F090EF10F0D2
:10212E009E961200ADEC10F0BCEC10F0C9501200EF
:10213E00016E01C0C9FF90EC10F012001E0E936EDE
:10214E00F19E1200C58290EC10F01200C58690EC44
:10215E0010F01200C58490EC10F01200C58090ECC7
:10216E0010F01200010001000133C58AC58812006B
:102E2C00002020204E6F74204D617463686564200F
:102E3C002020002020204C6F6720436C6561726558
:102E4C0064202020005365742054696D6520202077
:102E5C0020202020200056696577204C6F672020A9
:102E6C0020202020202000436C656172206C6F674D
:102E7C00202020202020200020202020506173734F
:102E8C00776F726420202020002020204D656E7505
:102E9C0020506167652020202000446F776E6C6F96
:102EAC006164204C6F67202020200020204E657725
:102EBC002050617373776F7264202000202041745E
:102ECC0074656D7074204F7665722020002020533D
:102EDC0075636365737366756C6C7920200020577D
:102EEC00726F6E672050617373776F72642000206D
:102EFC00456E7465722050617373776F7264200035
:102F0C0020456E7465722070617373776F726420E4
:102F1C0000202054494D4520202020455620205388
:102F2C005000205761697420466F72202020205376
:102F3C0065630050617373776F7264206368616EB0
:102F4C0067656400436F6E6669726D2050617373C0
:102F5C00776F726400436F72726563742050617393
:102F6C0073776F72640020202020202020202020E6
:102F7C002020202020200020202068656C6C6F2DE4
:102F8C006D656E752020200052657365742050614C
:102F9C007373776F726420002057726F6E672050C6
:102FAC00617373776F7264002D417474656D707406
:102FBC002052656D61696E005D202020202020204C
:102FCC00202020004C6F67733A2D2D3E5B00432070
:102FDC0000473100473200473300473400434C0070
:102FEC00444C00474E004F4E004350004752005394
:032FFC005400007E
:020000040020DA
:08000000FFFFFFFFFFFFFFFF00
:020000040030CA
:0E000000FF071F1FFF8285FF0FC00FE00F409C
:00000001FF
