:020000040000FA
:0400000007EF00F016
:100008005D829DED0EF0F0EF0DF00C6E5250D8A40D
:1000180010EF00F012EF00F0A4EF00F0FB0E036EFB
:100028002E0E046E800E056E85EC0DF00B0E0C186E
:10003800D8A421EF00F023EF00F039EF00F0B80E5C
:100048004C24D96E000E4D20DA6E310EDF6E4C5006
:10005800C30F086E2A0E9BEC0FF0000E516E000EB7
:10006800506E4C4A4D2A52EF00F00C0E0C18D8A4D2
:1000780040EF00F042EF00F052EF00F0B80E4C24D1
:10008800D96E000E4D20DA6E300EDF6E4C50C30F65
:10009800086E2A0E9BEC0FF031EF00F0040E4C189E
:1000A8004D10D8A45AEF00F05CEF00F0D5EF01F046
:1000B800000E4D6E000E4C6E000E0001BC6F930ECC
:1000C800016E000E026EB80E036E000E046E37EC61
:1000D8000CF001500210D8B474EF00F076EF00F085
:1000E80098EF00F0EA0E036E2E0E046E800E056E79
:1000F80085EC0DF0720E036E2F0E046EC00E056EA9
:1001080085EC0DF0000E526E020E566E1A0E0B6E36
:100118005E0E0A6E6E0EE82EFED70A2EFCD70B2E48
:10012800FAD700D023EF02F0720E036E2F0E046E82
:10013800C00E056E85EC0DF0010E526ED5EF01F084
:100148005204D8A4AAEF00F0ACEF00F012EF01F0CF
:10015800B70E036E2E0E046E800E056E85EC0DF044
:100168000B0E0C18D8A4BBEF00F0BDEF00F0D3EFD6
:1001780000F0B80E4C24D96E000E4D20DA6E310E08
:10018800DF6E4C50C30F086E2A0E9BEC0FF0000E6A
:10019800516E000E506E4C4A4D2AECEF00F00C0EDA
:1001A8000C18D8A4DAEF00F0DCEF00F0ECEF00F068
:1001B800B80E4C24D96E000E4D20DA6E300EDF6E6C
:1001C8004C50C30F086E2A0E9BEC0FF0CBEF00F0DB
:1001D800040E4C184D10D8A4F4EF00F0F6EF00F020
:1001E800D5EF01F0720E036E2F0E046EC00E056E71
:1001F80085EC0DF0020E526E000E4D6E000E4C6E28
:100208000D0E0B6EAF0E0A6EB60EE82EFED70A2E36
:10021800FCD70B2EFAD700D0D5EF01F0020E5218FA
:10022800D8A419EF01F01BEF01F0D5EF01F0500E43
:10023800036E2F0E046E800E056E85EC0DF00B0E0E
:100248000C18D8A42AEF01F02CEF01F042EF01F0CE
:10025800B30E4C24D96E000E4D20DA6E310EDF6ECF
:100268004C50C30F086E2A0E9BEC0FF0000E516E17
:10027800000E506E4C4A4D2A5BEF01F00C0E0C1824
:10028800D8A449EF01F04BEF01F05BEF01F0B30E9A
:100298004C24D96E000E4D20DA6E300EDF6E4C50B5
:1002A800C30F086E2A0E9BEC0FF03AEF01F0040E14
:1002B8004C184D10D8A463EF01F065EF01F0D5EFAD
:1002C80001F0000E4D6E000E4C6E000E0001B76F6F
:1002D800B80E016E000E026EB30E036E000E046EB1
:1002E80037EC0CF001500210D8A47DEF01F07FEF3D
:1002F80001F0B1EF01F03F0E036E2F0E046E800E79
:10030800056E85EC0DF0D90E036E2E0E046EC00E30
:10031800056E85EC0DF0A1EF01F0B30E4C24D96EFB
:10032800000E4D20DA6E930E4C24E16E000E4D2027
:10033800E26EDFCFE7FF4C4A4D2AB30E4C24D96E4C
:10034800000E4D20DA6EDF50D8A4ADEF01F0AFEF0C
:1003580001F091EF01F0C1EF01F0840E036E2E0E53
:10036800046E800E056E85EC0DF03F0E036E2E0EAA
:10037800046EC00E056E85EC0DF0000E526E020E76
:10038800566E000E4D6E000E4C6E1A0E0B6E5E0E03
:100398000A6E6E0EE82EFED70A2EFCD70B2EFAD761
:1003A80000D0050E50185110D8A4DDEF01F0DFEF92
:1003B80001F0E9EF01F0000E526E020E566E000ECB
:1003C8004D6E000E4C6E23EF02F04A500A6E4B50F1
:1003D8000B6E4A4A4B2A200E0A5C030E0B58D8B003
:1003E800F8EF01F0FAEF01F002EF02F04C50C30F02
:1003F800086E5F0E9BEC0FF023EF02F0210E4A5CB3
:10040800030E4B58D8A00BEF02F00DEF02F023EFCC
:1004180002F04C50C30F086E200E9BEC0FF0400EFC
:100428004A1807E1060E4B18D8A41DEF02F01FEF7B
:1004380002F023EF02F0000E4B6E000E4A6E12001F
:100448001A50800B276E1A501A242E6E19AE2FEFF1
:1004580002F031EF02F032EF02F02E802E50D8B4C5
:1004680038EF02F03AEF02F04FEF02F02E28D8A44E
:1004780040EF02F042EF02F04AEF02F0000E176E72
:10048800000E186E000E196E000E1A6E198E000EF0
:100498001A6E57EF02F0000E176E000E186E000E5F
:1004A800196E000E1A6E1E50800B271A1E501E243D
:1004B8002F6E1DAE62EF02F064EF02F065EF02F0FE
:1004C8002F802F50D8B46BEF02F06DEF02F082EF5F
:1004D80002F02F28D8A473EF02F075EF02F07DEF39
:1004E80002F0000E1B6E000E1C6E000E1D6E000E3C
:1004F8001E6E1D8E000E1E6E8AEF02F0000E1B6E21
:10050800000E1C6E000E1D6E000E1E6E1B501C1081
:100518001D101E10D8A493EF02F095EF02F0ADEF76
:1005280002F0000E176E000E186E000E196E000E07
:100538001A6E800E19127F0E1A1227501A1217C03F
:1005480017F018C018F019C019F01AC01AF0F0EF17
:1005580003F02E50D8A4B3EF02F0B5EF02F0BFEFCE
:1005680002F0000E176E000E186E000E196E000EC7
:100578001A6EF0EF03F02F502EC01FF0206A1F5E96
:10058800000E205A7F0E1F24286E000E2020296E90
:1005980017C023F018C024F019C025F01AC026F09F
:1005A800000E176E000E186E000E196E000E1A6EF1
:1005B800000E2A6E000E2B6E000E2C6E000E2D6E95
:1005C800000E2F6E20EF03F02F50D8B4EEEF02F09C
:1005D800F0EF02F007EF03F0D890233624362536E3
:1005E8002636D8901736183619361A362DAEFFEF3C
:1005F80002F001EF03F002EF03F01780D8902A36DB
:100608002B362C362D361B50235C1C5024581D507D
:1006180025581E502658D8A014EF03F016EF03F003
:100628001FEF03F02D8C1B50235E1C50245A1D50C5
:10063800255A1E50265A2F2A190E2F6426EF03F02A
:1006480028EF03F0E8EF02F02350241025102610BD
:10065800D8B431EF03F033EF03F04BEF03F02A8007
:100668004BEF03F0D8901736183619361A362DAED8
:1006780040EF03F042EF03F043EF03F01780D89008
:100688002A362B362C362D362806D8A0290619AE40
:1006980050EF03F052EF03F036EF03F0000E2F6E29
:1006A8002DAE59EF03F05BEF03F07FEF03F0FF0E81
:1006B8002A141F6EFF0E2B14206EFF0E2C14216EB1
:1006C8007F0E2D14226E1F50201021102210D8B436
:1006D80070EF03F072EF03F076EF03F0010E2F6E68
:1006E8007FEF03F017A07BEF03F07DEF03F07FEFC0
:1006F80003F072EF03F02F50D8B485EF03F087EFC3
:1007080003F0ABEF03F0010E1726000E1822192292
:100718001A221AA092EF03F094EF03F0ABEF03F064
:1007280017C01FF018C020F019C021F01AC022F01D
:1007380022342232213220321F321FC017F020C04B
:1007480018F021C019F022C01AF0284A292A29BE17
:10075800B6EF03F0295008E12828D8A0B6EF03F037
:10076800B8EF03F0C3EF03F0000E296E2868000EFF
:10077800176E000E186E000E196E000E1A6E29BE46
:10078800D0EF03F0295006E12804D8B0CEEF03F0EB
:10079800D0EF03F0DEEF03F0000E296E000E286E96
:1007A800000E176E000E186E000E196E000E1A6EEF
:1007B800000E276E28C02EF02EA0E5EF03F0E7EF1D
:1007C80003F0EAEF03F0198EEBEF03F0199ED890CF
:1007D8002E301A6EA1EF02F01200106E0B0E1018D8
:1007E800D8A4F9EF03F0FBEF03F05DEF04F0000E7F
:1007F800516E000E506E10C048F0496A42500E6E9D
:1008080043500F6E424A432A910E0E5C010E0F5858
:10081800D8A011EF04F013EF04F0BCEF04F0040EBD
:1008280044184510D8A41BEF04F01DEF04F021EF85
:1008380004F0000E436E000E426E4450030F566ED5
:1008480044504510D8B42BEF04F02DEF04F0A2EF7C
:1008580005F0D8904434D96E4534DA6E780ED9262E
:10086800000EDA22DECFF6FFDDCFF7FF0800F5CF66
:100878008CF0D8904434D96E4534DA6E780ED92687
:10088800000EDA22DECF0EF0DDCF0FF0010E0E26BD
:10089800000E0F220EC0F6FF0FC0F7FF0800F5CFBD
:1008A8008DF0820E066E000E076E86EC0CF0A2EF3D
:1008B80005F042504310D8B464EF04F066EF04F03A
:1008C800BCEF04F0900E425C010E4358D8B06FEFB5
:1008D80004F071EF04F0BCEF04F00B0E4818491057
:1008E800D8A479EF04F07BEF04F0BCEF04F01028F3
:1008F800D8A481EF04F083EF04F0BCEF04F0595062
:100908005A10D8B48AEF04F08CEF04F0BCEF04F06E
:1009180057505810D8A493EF04F095EF04F09BEFCC
:1009280004F0000E586E010E576EACEF04F05A50EA
:1009380009E1020E595CD8A0A4EF04F0A6EF04F078
:10094800ACEF04F04606D8A047065906D8A05A06C8
:1009580044504510D8B4B3EF04F0B5EF04F0B8EF45
:1009680004F04406D8A04506000E436E000E426E01
:100978000C0E1018D8A4C3EF04F0C5EF04F0F5EF7F
:1009880004F0000E516E000E506E10C048F0496A17
:1009980042500E6E43500F6E424A432A910E0E5C2F
:1009A800010E0F58D8A0DBEF04F0DDEF04F055EF8F
:1009B80005F0000E476E000E466E000E5A6E010ED0
:1009C800596E000E586E010E576E000E456E000EE1
:1009D800446E000E566E000E436E000E426EA2EF7D
:1009E80005F042504310D8B4FCEF04F0FEEF04F0D9
:1009F80055EF05F0900E425C010E4358D8B007EF52
:100A080005F009EF05F055EF05F00C0E48184910F0
:100A1800D8A411EF05F013EF05F055EF05F01028F5
:100A2800D8A419EF05F01BEF05F055EF05F0475076
:100A380007E1040E465CD8B024EF05F026EF05F078
:100A480055EF05F057045810D8A42DEF05F02FEFF7
:100A580005F035EF05F0000E586E000E576E44EFA6
:100A680005F0475007E1030E465CD8B03EEF05F0AD
:100A780040EF05F044EF05F0464A472A594A5A2AFA
:100A8800455007E1040E445CD8B04DEF05F04FEF38
:100A980005F051EF05F0444A452A000E436E000E5A
:100AA800426E050E50185110D8A45DEF05F05FEFA7
:100AB80005F061EF05F0DDEF04F057045810D8A4F5
:100AC80068EF05F06AEF05F076EF05F0800E086E26
:100AD8002A0E9BEC0FF0C00E086E200E9BEC0FF058
:100AE80080EF05F0800E086E200E9BEC0FF0C00E14
:100AF800086E2A0E9BEC0FF0D8904634D96E473416
:100B0800DA6E700ED926000EDA22DECF03F0DDCFC2
:100B180004F0810E056E85EC0DF0D8905934D96E2D
:100B28005A34DA6E700ED926000EDA22DECF03F0C0
:100B3800DDCF04F0C10E056E85EC0DF012000C6ED1
:100B48000C0E036E2F0E046E800E056E85EC0DF0F4
:100B58000B0E0C18D8A4B3EF05F0B5EF05F0CBEFEA
:100B680005F0B80E4C24D96E000E4D20DA6E310E09
:100B7800DF6E4C50C30F086E2A0E9BEC0FF0000E70
:100B8800516E000E506E4C4A4D2AE4EF05F00C0EE3
:100B98000C18D8A4D2EF05F0D4EF05F0E4EF05F077
:100BA800B80E4C24D96E000E4D20DA6E300EDF6E72
:100BB8004C50C30F086E2A0E9BEC0FF0C3EF05F0E4
:100BC800050E50185110D8A4ECEF05F0EEEF05F023
:100BD800F8EF05F0000E566E000E4D6E000E4C6ECE
:100BE800330E5C6E11EF07F04A500A6E4B500B6ED5
:100BF8004A4A4B2A200E0A5C030E0B58D8B007EF5E
:100C080006F009EF06F011EF06F04C50C30F086E1E
:100C18005F0E9BEC0FF032EF06F0210E4A5C030EDC
:100C28004B58D8A01AEF06F01CEF06F032EF06F08A
:100C38004C50C30F086E200E9BEC0FF0400E4A1864
:100C480007E1060E4B18D8A42CEF06F02EEF06F09D
:100C580032EF06F0000E4B6E000E4A6E040E4C1872
:100C68004D10D8A43AEF06F03CEF06F011EF07F06C
:100C7800080E0B6E9D0E0A6E060EE82EFED70A2E83
:100C8800FCD70B2EFAD75C06000E4D6E000E4C6E8C
:100C9800930E016E000E026EB80E036E000E046E07
:100CA80037EC0CF001500210D8B45DEF06F05FEF9E
:100CB80006F096EF06F00D0E0B6EAF0E0A6EB60E2E
:100CC800E82EFED70A2EFCD70B2EFAD700D0A40E9A
:100CD800036E2F0E046E800E056E85EC0DF0C00EAF
:100CE800086E5C509BEC0FF0B40E036E2F0E046E72
:100CF800C10E056E85EC0DF00D0E0B6EAF0E0A6E73
:100D0800B60EE82EFED70A2EFCD70B2EFAD700D047
:100D1800720E036E2F0E046EC00E056E85EC0DF07C
:100D2800BCEF06F0000E4D6E000E4C6E330E5C6E7E
:100D3800610E036E2F0E046E800E056E85EC0DF0AD
:100D4800950E036E2E0E046EC00E056E85EC0DF02A
:100D5800120E0B6EC20E0A6E660EE82EFED70A2E13
:100D6800FCD70B2EFAD700D0020E566E11EF07F003
:100D7800300E5C18D8A4C3EF06F0C5EF06F011EFEB
:100D880007F0C80E036E2E0E046E800E056E85ECFD
:100D98000DF02E0E036E2F0E046EC00E056E85EC40
:100DA8000DF0000E516E000E506E03EF07F0CA0EE4
:100DB800086E50503B08016E5150D8A0E82A000830
:100DC800026E000E046E0A0E036E12EC0DF0015056
:100DD800300F9BEC0FF0CB0E086E50503B08016EA5
:100DE8005150D8A0E82A0008026E000E046E0A0EC0
:100DF800036E23EC0EF00150300F9BEC0FF03C0E0D
:100E080050185110D8A40BEF07F00DEF07F0DBEFE7
:100E180006F0000E566E330E5C6E120081EC0FF079
:100E2800140E1B6EAE0E1C6E230E1D6E410E1E6E32
:100E3800040E55EC0EF001C009F002C00AF00B6A6E
:100E48000C6A000E61EC09F009C017F00AC018F02E
:100E58000BC019F00CC01AF024EC02F017C030F0E7
:100E680018C031F019C032F01AC033F05CEC0BF046
:100E780030C0A0F031C0A1F0A0C008F0A1C009F0B6
:100E8800E1EC0EF0D2EC0CF0820E066E000E076E4E
:100E980086EC0CF0020E5618D8B455EF07F057EF51
:100EA80007F060EF07F0030E5618D8A45EEF07F0BE
:100EB80060EF07F066EF07F0000E4CEC0DF03C6EAB
:100EC8006AEF07F0010E4CEC0DF03C6E0A0E3C1870
:100ED800D8A471EF07F073EF07F0F4EF07F056505E
:100EE800D8A479EF07F07BEF07F0F4EF07F0720E64
:100EF800036E2F0E046EC00E056E85EC0DF0010E0C
:100F0800566E000E516E000E506EF4EF07F03C5016
:100F1800BBEC0DF015EF08F03C50A3EC05F0020E09
:100F28005618D8A49AEF07F09CEF07F015EF08F0D1
:100F3800000E516E000E506E15EF08F03C50F1ECAB
:100F480003F0070E5618D8A4ACEF07F0AEEF07F081
:100F580015EF08F0720E036E2F0E046EC00E056EAC
:100F680085EC0DF09CEF07F03C504DEC08F0020EBC
:100F78005618D8A4C2EF07F0C4EF07F015EF08F031
:100F88009CEF07F03C5009EC00F0020E5618D8A46C
:100F9800D0EF07F0D2EF07F015EF08F09CEF07F05D
:100FA800720E036E2F0E046E800E056E85EC0DF02A
:100FB800830E036E2F0E046EC00E056E85EC0DF0C9
:100FC800660E3B6E760E3A6EC10EE82EFED73A2EAE
:100FD800FCD73B2EFAD700F0020E566E15EF08F03C
:100FE80056503A6E3B6A3B50000AD8B4FEEF07F001
:100FF800D4EF07F03A50000AD8B48BEF07F0010A93
:10100800D8B490EF07F0030AD8B4A2EF07F0010AAA
:10101800D8B4B8EF07F0040AD8B4C6EF07F0D4EF95
:1010280007F0D2EC0CF0140E1B6EAE0E1C6E230EE5
:101038001D6E410E1E6E040E55EC0EF001C009F037
:1010480002C00AF00B6A0C6A000E61EC09F009C0D4
:1010580017F00AC018F00BC019F00CC01AF024ECF5
:1010680002F017C030F018C031F019C032F01AC0C1
:1010780033F05CEC0BF030C0A0F031C0A1F0A0C0A0
:1010880008F0A1C009F0E1EC0EF04EEF07F007EF11
:1010980000F00E6ED00E036E2F0E046E800E056EDD
:1010A80085EC0DF0890E086E40C001F041C002F0D9
:1010B80054C003F0046A23EC0EF00150300F9BEC8F
:1010C8000FF0C40E036E2F0E046E8A0E056E85ECAB
:1010D8000DF00B0E0E18D8A474EF08F076EF08F098
:1010E8007DEF08F00EC048F0496A424A432A1FEFD4
:1010F80009F042504310D8B484EF08F086EF08F0A6
:10110800BCEF08F0900E425C010E4358D8B08FEF48
:1011180008F091EF08F0BCEF08F00B0E48184910E2
:10112800D8A499EF08F09BEF08F0BCEF08F00E2860
:10113800D8A4A1EF08F0A3EF08F0BCEF08F0010E67
:10114800536E4006D8A04106402806E14128D8A49D
:10115800B0EF08F0B2EF08F0B6EF08F0000E416EFD
:10116800090E406E000E436E000E426E1FEF09F02E
:101178000C0E0E18D8A4C3EF08F0C5EF08F0E5EF81
:1011880008F00EC048F0496A42500A6E43500B6E90
:10119800424A432A910E0A5C010E0B58D8A0D7EF99
:1011A80008F0D9EF08F01FEF09F0020E566E000E96
:1011B800416E000E406E000E516E000E506E60EFD4
:1011C80009F042504310D8B4ECEF08F0EEEF08F005
:1011D800B6EF08F0900E425C010E4358D8B0F7EF16
:1011E80008F0F9EF08F0B6EF08F00C0E48184910AF
:1011F800D8A401EF09F003EF09F0B6EF08F00E28C4
:10120800D8A409EF09F00BEF09F0B6EF08F0010ECA
:10121800536E404A412A0A0E40184110D8A417EFCD
:1012280009F019EF09F0B6EF08F0000E416E000E54
:10123800406EB6EF08F040C001F041C002F054C063
:1012480003F0046A23EC0EF0013A023AF00E02169B
:1012580001500F0B0212F00E011601C09AF002C0E5
:101268009BF0000E0D6E000E0C6EA20E0C24D96EB3
:10127800000E0D20DA6E0C5000019A2539EC0FF0A3
:10128800DF6E0C4A0D2A0DBE53EF09F00D5009E12F
:10129800100E0C5CD8A053EF09F055EF09F039EFA8
:1012A80009F0000E0001B26FA20E036E000E046E6C
:1012B800C00E056E85EC0DF01200116E1150D8B4F9
:1012C80068EF09F06AEF09F08CEF09F00CBE71EFD6
:1012D80009F06FEF09F08CEF09F009C00DF00AC0B2
:1012E8000EF00BC00FF00CC010F00D1E0E1E0F1EDE
:1012F800101E0D2A000E0E220F2210220DC013F010
:101308000EC014F00FC015F010C016F094EF09F0DD
:1013180009C013F00AC014F00BC015F00CC016F089
:1013280009500A100B100C10D8A49DEF09F09FEF7C
:1013380009F0A9EF09F0000E096E000E0A6E000E02
:101348000B6E000E0C6E3AEF0AF0960E126EB3EFAB
:1013580009F0122AD8901632153214321332000EC0
:1013680013140D6E000E14140E6E000E15140F6E6D
:10137800FE0E1614106E0D500E100F101010D8A47B
:10138800C8EF09F0CAEF09F0ADEF09F0D8EF09F09E
:10139800122A010E1326000E142215221622D890A6
:1013A8001632153214321332000E13140D6E000E5D
:1013B80014140E6E000E15140F6EFF0E1614106E18
:1013C8000D500E100F101010D8A4EDEF09F0EFEF2C
:1013D80009F0CCEF09F0F7EF09F01206D8901336B0
:1013E80014361536163615BEFCEF09F0FEEF09F077
:1013F80006EF0AF0020E126004EF0AF006EF0AF098
:10140800F1EF09F012B00BEF0AF00DEF0AF00EEF52
:101418000AF0159ED890123212C00DF00E6A0F6AAB
:10142800106A0DC010F00F6A0E6A0D6A0D50131283
:101438000E5014120F501512105016121150D8B425
:1014480028EF0AF02AEF0AF032EF0AF00CBE31EF6B
:101458000AF02FEF0AF032EF0AF0168E13C009F0E7
:1014680014C00AF015C00BF016C00CF01200036E81
:101478000304D8A442EF0AF044EF0AF04AEF0AF056
:10148800000E4F6E070E4E6EAFEF0AF0020E0318F5
:10149800D8B451EF0AF053EF0AF05CEF0AF0030EEC
:1014A8000318D8A45AEF0AF05CEF0AF0AFEF0AF07D
:1014B800070E4E184F10D8A464EF0AF066EF0AF032
:1014C80073EF0AF0020E0318D8A46DEF0AF06FEF5D
:1014D8000AF073EF0AF0000E4F6E000E4E6E020E09
:1014E8000318D8A47AEF0AF07CEF0AF08BEF0AF021
:1014F8004F5007E1060E4E5CD8B085EF0AF087EF33
:101508000AF08BEF0AF04E4A4F2AAFEF0AF0030EAB
:101518000318D8A492EF0AF094EF0AF0AFEF0AF09C
:101528004F5009E1020E4E5CD8A09DEF0AF09FEFE4
:101538000AF0AFEF0AF04F5007E1070E4E5CD8B043
:10154800A8EF0AF0AAEF0AF0AFEF0AF04E06D8A00B
:101558004F06AFEF0AF0D8904E34D96E4F34DA6E9A
:10156800600ED926000EDA22DECFF6FFDDCFF7FFB8
:101578000800F5CF8CF0D8904E34D96E4F34DA6E1F
:10158800600ED926000EDA22DECF01F0DDCF02F0A0
:10159800010E0126000E022201C0F6FF02C0F7FF6D
:1015A8000800F5CF8DF01200819A818C818E81B26E
:1015B800E0EF0AF0E2EF0AF0E5EF0AF0010E5BEF68
:1015C8000BF081B4EAEF0AF0ECEF0AF0EFEF0AF063
:1015D800040E5BEF0BF081B6F4EF0AF0F6EF0AF0B9
:1015E800F9EF0AF0070E5BEF0BF081B8FEEF0AF097
:1015F80000EF0BF003EF0BF00A0E5BEF0BF0818AA4
:10160800819C818E81B20BEF0BF00DEF0BF010EF88
:101618000BF0020E5BEF0BF081B415EF0BF017EF38
:101628000BF01AEF0BF0050E5BEF0BF081B61FEF16
:101638000BF021EF0BF024EF0BF0080E5BEF0BF033
:1016480081B829EF0BF02BEF0BF02EEF0BF00B0E00
:101658005BEF0BF0818A818C819E819E81B237EF8E
:101668000BF039EF0BF03CEF0BF0030E5BEF0BF0D8
:1016780081B441EF0BF043EF0BF046EF0BF0060E91
:101688005BEF0BF081B64BEF0BF04DEF0BF050EF2B
:101698000BF0090E5BEF0BF081B855EF0BF057EF2D
:1016A8000BF05AEF0BF00C0E5BEF0BF0FF0E120075
:1016B80032343334396E3950D8A465EF0BF067EF04
:1016C8000BF071EF0BF0000E306E000E316E000E55
:1016D800326E000E336EDEEF0BF030C034F031C0E6
:1016E80035F032C036F033C037F0200E81EF0BF002
:1016F800D8903732363235323432E82E7CEF0BF060
:101708003450386E328EFF0E3016FF0E3116FF0E33
:101718003216000E3316960E395E39BE98EF0BF06E
:1017280096EF0BF0AEEF0BF03950800A970FD8B058
:10173800A0EF0BF0A2EF0BF0A4EF0BF067EF0BF0AC
:10174800D8903332323231323032393EA4EF0BF096
:10175800C6EF0BF01F0E3964B4EF0BF0B6EF0BF0C9
:10176800BEEF0BF067EF0BF0D890303631363236DB
:10177800333639063950D8A4C4EF0BF0C6EF0BF056
:10178800B8EF0BF03850D8B4CCEF0BF0CEEF0BF02D
:10179800D6EF0BF0331E321E311E306C000E312294
:1017A8003222332230C030F031C031F032C032F052
:1017B80033C033F01200000E956E9450F80B946EFF
:1017C8008290020E046E040E036EBA0EE82EFED747
:1017D800032EFCD7042EFAD700D0000E016E330E6C
:1017E80000EC0FF01B0E036E9E0EE82EFED7032EA4
:1017F800FCD700D0000E016E330E00EC0FF0A60EE1
:10180800E82EFED700D0000E016E330E00EC0FF06C
:1018180000D000D000F0000E016E020E00EC0FF0B8
:10182800A60EE82EFED700D0000E016E380E00EC92
:101838000FF0A60EE82EFED700D0000E016E010EA6
:1018480000EC0FF0040E036E3E0EE82EFED7032EBA
:10185800FCD7000E016E0C0E00EC0FF0A60EE82E61
:10186800FED700D01200000E096E000E086E75EF4C
:101878000CF008500124D96E09500220DA6EDF50AE
:10188800056E066A08500324D96E09500420DA6EE2
:10189800DF50076E0750055E000E065A0550061009
:1018A800D8B459EF0CF05BEF0CF073EF0CF0085064
:1018B8000124D96E09500220DA6EDF50056E0850F7
:1018C8000324D96E09500420DA6EDF50066E0650E4
:1018D800055C016E026AD8A0020685EF0CF0084A82
:1018E800092A08500124D96E09500220DA6EDF5007
:1018F800D8A481EF0CF083EF0CF03DEF0CF05BEF18
:101908000CF012009EC008F09FC009F0083A093A8E
:10191800F00E091608500F0B0912F00E081608C031
:101928000AF009C00BF0000E0D6E000E0C6E0C5084
:101938000624D96E0D500720DA6EDF50026E0A5069
:101948000C24C1EC0EF00C4A0D2A0DBEB5EF0CF0BC
:101958000D5009E1100E0C5CD8A0B5EF0CF0B7EFF4
:101968000CF09BEF0CF000019E4B9F2B0A0E54606D
:10197800C0EF0CF0C2EF0CF0C3EF0CF0542A0A0EC3
:101988009E199F11D8A4CBEF0CF0CDEF0CF0D1EF3E
:101998000CF0000E9F6F000E9E6F1200020E4EECB0
:1019A8000FF03D6E010E4EEC0FF03E6E000E4EEC49
:1019B8000FF03F6E3DACE3EF0CF0E5EF0CF0F1EF0C
:1019C8000CF03D380F0B010B300F0001826F3D50BA
:1019D8000F0B300F836FFBEF0CF03D380F0B030B31
:1019E800300F0001826F3D500F0B300F836F3A0E9E
:1019F800846F3E380F0B0F0B300F856F3E500F0B67
:101A0800300F866F3A0E876F3F380F0B0F0B300F72
:101A1800886F3F500F0B300F896F1200000E066E53
:101A2800000E056E03500410D8B41DEF0DF01FEF23
:101A38000DF047EF0DF0010E076E27EF0DF0D8906F
:101A480003360436072A04AE2CEF0DF02EEF0DF006
:101A580023EF0DF0D890053606360350015C04508C
:101A68000258D8A03AEF0DF03CEF0DF041EF0DF021
:101A78000350015E0450025A0580D89004320332A4
:101A8800072E2EEF0DF005C001F006C002F012007F
:101A9800016E0150D8A453EF0DF055EF0DF059EF3A
:101AA8000DF0D8EC0AF084EF0DF00104D8A45FEF34
:101AB8000DF061EF0DF084EF0DF0D8EC0AF0026E36
:101AC8000228D8B46AEF0DF06CEF0DF079EF0DF045
:101AD8005B50D8B472EF0DF074EF0DF079EF0DF0A4
:101AE800000E5B6E025084EF0DF00228D8A47FEF41
:101AF8000DF081EF0DF083EF0DF0010E5B6EFF0E20
:101B08001200000E016E055000EC0FF0A2EF0DF070
:101B1800010E016E03C0F6FF04C0F7FFF86A050E58
:101B2800F76403D00800F55005D0F6CFE1FFF7CFF2
:101B3800E2FFE75000EC0FF0034A042A03C0F6FF67
:101B480004C0F7FFF86A050EF76403D00800F550E3
:101B580005D0F6CFE1FFF7CFE2FFE7500009D8A4A0
:101B6800B8EF0DF0BAEF0DF08CEF0DF012000E6E1D
:101B78001D0E036E2F0E046E800E056E85EC0DF0A3
:101B88000E04D8B4CAEF0DF0CCEF0DF0DEEF0DF077
:101B9800020E0E18D8B4D3EF0DF0D5EF0DF0DEEF2E
:101BA8000DF0030E0E18D8A4DCEF0DF0DEEF0DF0EB
:101BB800E7EF0DF00E503BEC0AF0820E066E000EB9
:101BC800076E86EC0CF0820E036E000E046EC00EDB
:101BD800056E85EC0DF012003A0EF66E1E0EF76ECD
:101BE800000EF86E00EE60F010EE38F00900F5CF48
:101BF800EEFFE550E150FAE1B60EF66E1F0EF76EF5
:101C0800000EF86E00EE57F010EE06F00900F5CF62
:101C1800EEFFE550E150FAE100EE98F0250EEE6A8D
:101C2800E806FDE100EE3DF01A0EEE6AE806FDE179
:101C38005D905D92000EF86E000112EF07F0035000
:101C48000410D8B42AEF0EF02CEF0EF050EF0EF07F
:101C5800010E056E34EF0EF0D89003360436052ACF
:101C680004AE39EF0EF03BEF0EF030EF0EF00350FC
:101C7800015C04500258D8A044EF0EF046EF0EF075
:101C88004AEF0EF00350015E0450025AD890043215
:101C98000332052E3BEF0EF001C001F002C002F046
:101CA8001200086E08C003F0D8900336D8900336A7
:101CB800C250C30B0310C26EC282C2B266EF0EF0EE
:101CC80068EF0EF061EF0EF0C4CF03F0030E0316B9
:101CD8000350056E046AC350066E076A0450061066
:101CE800016E05500710026E1200000E4EEC0FF048
:101CF800046E04508009026E000E63EC0FF0020EB1
:101D08004EEC0FF0046E04504009026E020E63ECB4
:101D18000FF0930E026E070E63EC0FF0000E4EEC00
:101D28000FF0046E04507F0B026E000E63EC0FF090
:101D380012000600DE0ED624D66E0B0ED720D76E04
:101D4800F2A4A9EF0EF0ABEF0EF0BFEF0EF000011A
:101D5800984B992B510E98199911D8A4B6EF0EF0FB
:101D6800B8EF0EF0BEEF0EF0000E996F000E986FF0
:101D7800504A512AF2945D921100056ED7EC0FF08B
:101D8800A00EC1EC0FF00550C1EC0FF00250C1ECF1
:101D98000FF0D3EC0FF00B0E046EB80E036E0306B3
:101DA800D8A00406032806E10428D8A4DEEF0EF024
:101DB800E0EF0EF0D3EF0EF0120008C001F009C0FA
:101DC80002F0000E046E0A0E036E12EC0DF00150C4
:101DD800300F0001906F08C001F009C002F0000E3A
:101DE800046E0A0E036E23EC0EF00150300F000152
:101DF800916F000E926F1200026E01B006EF0FF0A5
:101E080009EF0FF082820AEF0FF0829202C083FF7F
:101E180082848294958E828082928284829483BE08
:101E280018EF0FF01AEF0FF011EF0FF08290959E58
:101E38001200F22FEF2FDD2FE02FE32FE62FF82FE0
:101E4800DA2F622E512EA62E732E942FFB2FEC2FF5
:101E5800E92FF52F202020202020202020204F4E61
:101E680020202020203131303000026ED7EC0FF0D6
:101E7800A00EC1EC0FF00250C1EC0FF0CBEC0FF04C
:101E8800A10EC1EC0FF0BBEC0FF0036ED3EC0FF01A
:101E980003501200026ED7EC0FF0D00EC1EC0FF019
:101EA8000250C1EC0FF0CBEC0FF0D10EC1EC0FF0EB
:101EB800BBEC0FF0036ED3EC0FF003501200036E6F
:101EC800D7EC0FF0D00EC1EC0FF00350C1EC0FF0BF
:101ED8000250C1EC0FF0D3EC0FF01200C280C19A8F
:101EE800C198C186C194C182C190C08AC098C09669
:101EF800C094C082C090C08E1200C7EC0FF0DFEC17
:101F08000BF072EC0FF08EEC0FF0A7EC0FF079EC01
:101F18000EF01200F28EF28CF28AF2940B0ED76E4B
:101F2800DC0ED66ED58ED59CD59AD5861200096E54
:101F3800000E016E085000EC0FF0010E016E095002
:101F480000EC0FF0120094869488280EC66E310EAD
:101F5800C86EC79CC78E9E96A19612009EA6B7EF24
:101F68000FF0B9EF0FF0B2EF0FF09E961200CFEC22
:101F78000FF0DEEC0FF0C9501200016E01C0C9FF6E
:101F8800B2EC0FF012001E0E936EF19E1200C58285
:101F9800B2EC0FF01200C586B2EC0FF01200C58447
:101FA800B2EC0FF01200C580B2EC0FF01200010085
:0A1FB80001000133C58AC58812003C
:102E3E00002020204E6F74204D61746368656420FD
:102E4E002020005365742054696D652020202020B9
:102E5E002020200056696577204C6F6720202020A7
:102E6E002020202000436C656172206C6F6720204B
:102E7E002020202020002020202050617373776FA7
:102E8E00726420202020002020204D656E75205079
:102E9E006167652020202000446F776E6C6F61643F
:102EAE00204C6F67202020200020204E6577205078
:102EBE00617373776F7264202000202041747465F3
:102ECE006D7074204F76657220200020205375633C
:102EDE006365737366756C6C792020002057726F72
:102EEE006E672050617373776F7264200020456E99
:102EFE007465722050617373776F72642000204581
:102F0E006E7465722070617373776F726420002027
:102F1E002054494D45202020204556202053500056
:102F2E00205761697420466F7220202020536563FC
:102F3E000050617373776F7264206368616E6765AA
:102F4E006400436F6E6669726D2050617373776FA4
:102F5E00726400436F72726563742050617373778D
:102F6E006F7264002020202020202020202020208E
:102F7E00202020200020202068656C6C6F2D6D6550
:102F8E006E75202020005265736574205061737336
:102F9E00776F726420002057726F6E6720506173D6
:102FAE0073776F7264002D417474656D7074205266
:102FBE00656D61696E005D2020202020202020207C
:102FCE0020004C6F67733A2D2D3E5B004320004767
:102FDE003100473200473300473400434C00444C25
:102FEE0000474E004F4E00435000475200535400CE
:012FFE0000D2
:020000040020DA
:08000000FFFFFFFFFFFFFFFF00
:020000040030CA
:0E000000FF071F1FFF8285FF0FC00FE00F409C
:00000001FF
