:020000040000FA
:0400000007EF00F016
:100008005D82C9ED0EF0EDEF0DF00C6E5250D8A4E4
:1000180010EF00F012EF00F0A4EF00F0FB0E036EFB
:100028002E0E046E800E056EB7EC0DF00B0E0C183C
:10003800D8A421EF00F023EF00F039EF00F0B90E5B
:100048004C24D96E000E4D20DA6E310EDF6E4C5006
:10005800C30F086E2A0EC7EC0FF0000E516E000E8B
:10006800506E4C4A4D2A52EF00F00C0E0C18D8A4D2
:1000780040EF00F042EF00F052EF00F0B90E4C24D0
:10008800D96E000E4D20DA6E300EDF6E4C50C30F65
:10009800086E2A0EC7EC0FF031EF00F0040E4C1872
:1000A8004D10D8A45AEF00F05CEF00F0D5EF01F046
:1000B800000E4D6E000E4C6E000E0001BD6F930ECB
:1000C800016E000E026EB90E036E000E046E69EC2E
:1000D8000CF001500210D8B474EF00F076EF00F085
:1000E80098EF00F0EA0E036E2E0E046E800E056E79
:1000F800B7EC0DF0720E036E2F0E046EC00E056E77
:10010800B7EC0DF0000E526E020E566E1A0E0B6E04
:100118005E0E0A6E6E0EE82EFED70A2EFCD70B2E48
:10012800FAD700D023EF02F0720E036E2F0E046E82
:10013800C00E056EB7EC0DF0010E526ED5EF01F052
:100148005204D8A4AAEF00F0ACEF00F012EF01F0CF
:10015800B70E036E2E0E046E800E056EB7EC0DF012
:100168000B0E0C18D8A4BBEF00F0BDEF00F0D3EFD6
:1001780000F0B90E4C24D96E000E4D20DA6E310E07
:10018800DF6E4C50C30F086E2A0EC7EC0FF0000E3E
:10019800516E000E506E4C4A4D2AECEF00F00C0EDA
:1001A8000C18D8A4DAEF00F0DCEF00F0ECEF00F068
:1001B800B90E4C24D96E000E4D20DA6E300EDF6E6B
:1001C8004C50C30F086E2A0EC7EC0FF0CBEF00F0AF
:1001D800040E4C184D10D8A4F4EF00F0F6EF00F020
:1001E800D5EF01F0720E036E2F0E046EC00E056E71
:1001F800B7EC0DF0020E526E000E4D6E000E4C6EF6
:100208000D0E0B6EAF0E0A6EB60EE82EFED70A2E36
:10021800FCD70B2EFAD700D0D5EF01F0020E5218FA
:10022800D8A419EF01F01BEF01F0D5EF01F0500E43
:10023800036E2F0E046E800E056EB7EC0DF00B0EDC
:100248000C18D8A42AEF01F02CEF01F042EF01F0CE
:10025800B40E4C24D96E000E4D20DA6E310EDF6ECE
:100268004C50C30F086E2A0EC7EC0FF0000E516EEB
:10027800000E506E4C4A4D2A5BEF01F00C0E0C1824
:10028800D8A449EF01F04BEF01F05BEF01F0B40E99
:100298004C24D96E000E4D20DA6E300EDF6E4C50B5
:1002A800C30F086E2A0EC7EC0FF03AEF01F0040EE8
:1002B8004C184D10D8A463EF01F065EF01F0D5EFAD
:1002C80001F0000E4D6E000E4C6E000E0001B86F6E
:1002D800B90E016E000E026EB40E036E000E046EAF
:1002E80069EC0CF001500210D8A47DEF01F07FEF0B
:1002F80001F0B1EF01F03F0E036E2F0E046E800E79
:10030800056EB7EC0DF0D90E036E2E0E046EC00EFE
:10031800056EB7EC0DF0A1EF01F0B40E4C24D96EC8
:10032800000E4D20DA6E930E4C24E16E000E4D2027
:10033800E26EDFCFE7FF4C4A4D2AB40E4C24D96E4B
:10034800000E4D20DA6EDF50D8A4ADEF01F0AFEF0C
:1003580001F091EF01F0C1EF01F0840E036E2E0E53
:10036800046E800E056EB7EC0DF03F0E036E2E0E78
:10037800046EC00E056EB7EC0DF0000E526E020E44
:10038800566E000E4D6E000E4C6E1A0E0B6E5E0E03
:100398000A6E6E0EE82EFED70A2EFCD70B2EFAD761
:1003A80000D0050E50185110D8A4DDEF01F0DFEF92
:1003B80001F0E9EF01F0000E526E020E566E000ECB
:1003C8004D6E000E4C6E23EF02F04A500A6E4B50F1
:1003D8000B6E4A4A4B2A200E0A5C030E0B58D8B003
:1003E800F8EF01F0FAEF01F002EF02F04C50C30F02
:1003F800086E5F0EC7EC0FF023EF02F0210E4A5C87
:10040800030E4B58D8A00BEF02F00DEF02F023EFCC
:1004180002F04C50C30F086E200EC7EC0FF0400ED0
:100428004A1807E1060E4B18D8A41DEF02F01FEF7B
:1004380002F023EF02F0000E4B6E000E4A6E12001F
:100448001A50800B276E1A501A242E6E19AE2FEFF1
:1004580002F031EF02F032EF02F02E802E50D8B4C5
:1004680038EF02F03AEF02F04FEF02F02E28D8A44E
:1004780040EF02F042EF02F04AEF02F0000E176E72
:10048800000E186E000E196E000E1A6E198E000EF0
:100498001A6E57EF02F0000E176E000E186E000E5F
:1004A800196E000E1A6E1E50800B271A1E501E243D
:1004B8002F6E1DAE62EF02F064EF02F065EF02F0FE
:1004C8002F802F50D8B46BEF02F06DEF02F082EF5F
:1004D80002F02F28D8A473EF02F075EF02F07DEF39
:1004E80002F0000E1B6E000E1C6E000E1D6E000E3C
:1004F8001E6E1D8E000E1E6E8AEF02F0000E1B6E21
:10050800000E1C6E000E1D6E000E1E6E1B501C1081
:100518001D101E10D8A493EF02F095EF02F0ADEF76
:1005280002F0000E176E000E186E000E196E000E07
:100538001A6E800E19127F0E1A1227501A1217C03F
:1005480017F018C018F019C019F01AC01AF0F0EF17
:1005580003F02E50D8A4B3EF02F0B5EF02F0BFEFCE
:1005680002F0000E176E000E186E000E196E000EC7
:100578001A6EF0EF03F02F502EC01FF0206A1F5E96
:10058800000E205A7F0E1F24286E000E2020296E90
:1005980017C023F018C024F019C025F01AC026F09F
:1005A800000E176E000E186E000E196E000E1A6EF1
:1005B800000E2A6E000E2B6E000E2C6E000E2D6E95
:1005C800000E2F6E20EF03F02F50D8B4EEEF02F09C
:1005D800F0EF02F007EF03F0D890233624362536E3
:1005E8002636D8901736183619361A362DAEFFEF3C
:1005F80002F001EF03F002EF03F01780D8902A36DB
:100608002B362C362D361B50235C1C5024581D507D
:1006180025581E502658D8A014EF03F016EF03F003
:100628001FEF03F02D8C1B50235E1C50245A1D50C5
:10063800255A1E50265A2F2A190E2F6426EF03F02A
:1006480028EF03F0E8EF02F02350241025102610BD
:10065800D8B431EF03F033EF03F04BEF03F02A8007
:100668004BEF03F0D8901736183619361A362DAED8
:1006780040EF03F042EF03F043EF03F01780D89008
:100688002A362B362C362D362806D8A0290619AE40
:1006980050EF03F052EF03F036EF03F0000E2F6E29
:1006A8002DAE59EF03F05BEF03F07FEF03F0FF0E81
:1006B8002A141F6EFF0E2B14206EFF0E2C14216EB1
:1006C8007F0E2D14226E1F50201021102210D8B436
:1006D80070EF03F072EF03F076EF03F0010E2F6E68
:1006E8007FEF03F017A07BEF03F07DEF03F07FEFC0
:1006F80003F072EF03F02F50D8B485EF03F087EFC3
:1007080003F0ABEF03F0010E1726000E1822192292
:100718001A221AA092EF03F094EF03F0ABEF03F064
:1007280017C01FF018C020F019C021F01AC022F01D
:1007380022342232213220321F321FC017F020C04B
:1007480018F021C019F022C01AF0284A292A29BE17
:10075800B6EF03F0295008E12828D8A0B6EF03F037
:10076800B8EF03F0C3EF03F0000E296E2868000EFF
:10077800176E000E186E000E196E000E1A6E29BE46
:10078800D0EF03F0295006E12804D8B0CEEF03F0EB
:10079800D0EF03F0DEEF03F0000E296E000E286E96
:1007A800000E176E000E186E000E196E000E1A6EEF
:1007B800000E276E28C02EF02EA0E5EF03F0E7EF1D
:1007C80003F0EAEF03F0198EEBEF03F0199ED890CF
:1007D8002E301A6EA1EF02F01200106E0B0E1018D8
:1007E800D8A4F9EF03F0FBEF03F05DEF04F0000E7F
:1007F800516E000E506E10C048F0496A42500E6E9D
:1008080043500F6E424A432A910E0E5C010E0F5858
:10081800D8A011EF04F013EF04F0BCEF04F0040EBD
:1008280044184510D8A41BEF04F01DEF04F021EF85
:1008380004F0000E436E000E426E4450030F566ED5
:1008480044504510D8B42BEF04F02DEF04F0A2EF7C
:1008580005F0D8904434D96E4534DA6E780ED9262E
:10086800000EDA22DECFF6FFDDCFF7FF0800F5CF66
:100878008CF0D8904434D96E4534DA6E780ED92687
:10088800000EDA22DECF0EF0DDCF0FF0010E0E26BD
:10089800000E0F220EC0F6FF0FC0F7FF0800F5CFBD
:1008A8008DF0820E066E000E076EB8EC0CF0A2EF0B
:1008B80005F042504310D8B464EF04F066EF04F03A
:1008C800BCEF04F0900E425C010E4358D8B06FEFB5
:1008D80004F071EF04F0BCEF04F00B0E4818491057
:1008E800D8A479EF04F07BEF04F0BCEF04F01028F3
:1008F800D8A481EF04F083EF04F0BCEF04F0595062
:100908005A10D8B48AEF04F08CEF04F0BCEF04F06E
:1009180057505810D8A493EF04F095EF04F09BEFCC
:1009280004F0000E586E010E576EACEF04F05A50EA
:1009380009E1020E595CD8A0A4EF04F0A6EF04F078
:10094800ACEF04F04606D8A047065906D8A05A06C8
:1009580044504510D8B4B3EF04F0B5EF04F0B8EF45
:1009680004F04406D8A04506000E436E000E426E01
:100978000C0E1018D8A4C3EF04F0C5EF04F0F5EF7F
:1009880004F0000E516E000E506E10C048F0496A17
:1009980042500E6E43500F6E424A432A910E0E5C2F
:1009A800010E0F58D8A0DBEF04F0DDEF04F055EF8F
:1009B80005F0000E476E000E466E000E5A6E010ED0
:1009C800596E000E586E010E576E000E456E000EE1
:1009D800446E000E566E000E436E000E426EA2EF7D
:1009E80005F042504310D8B4FCEF04F0FEEF04F0D9
:1009F80055EF05F0900E425C010E4358D8B007EF52
:100A080005F009EF05F055EF05F00C0E48184910F0
:100A1800D8A411EF05F013EF05F055EF05F01028F5
:100A2800D8A419EF05F01BEF05F055EF05F0475076
:100A380007E1040E465CD8B024EF05F026EF05F078
:100A480055EF05F057045810D8A42DEF05F02FEFF7
:100A580005F035EF05F0000E586E000E576E44EFA6
:100A680005F0475007E1030E465CD8B03EEF05F0AD
:100A780040EF05F044EF05F0464A472A594A5A2AFA
:100A8800455007E1040E445CD8B04DEF05F04FEF38
:100A980005F051EF05F0444A452A000E436E000E5A
:100AA800426E050E50185110D8A45DEF05F05FEFA7
:100AB80005F061EF05F0DDEF04F057045810D8A4F5
:100AC80068EF05F06AEF05F076EF05F0800E086E26
:100AD8002A0EC7EC0FF0C00E086E200EC7EC0FF000
:100AE80080EF05F0800E086E200EC7EC0FF0C00EE8
:100AF800086E2A0EC7EC0FF0D8904634D96E4734EA
:100B0800DA6E700ED926000EDA22DECF03F0DDCFC2
:100B180004F0810E056EB7EC0DF0D8905934D96EFB
:100B28005A34DA6E700ED926000EDA22DECF03F0C0
:100B3800DDCF04F0C10E056EB7EC0DF012000C6E9F
:100B48000C0E036E2F0E046E800E056EB7EC0DF0C2
:100B58000B0E0C18D8A4B3EF05F0B5EF05F0CBEFEA
:100B680005F0B90E4C24D96E000E4D20DA6E310E08
:100B7800DF6E4C50C30F086E2A0EC7EC0FF0000E44
:100B8800516E000E506E4C4A4D2AE4EF05F00C0EE3
:100B98000C18D8A4D2EF05F0D4EF05F0E4EF05F077
:100BA800B90E4C24D96E000E4D20DA6E300EDF6E71
:100BB8004C50C30F086E2A0EC7EC0FF0C3EF05F0B8
:100BC800050E50185110D8A4ECEF05F0EEEF05F023
:100BD800F8EF05F0000E566E000E4D6E000E4C6ECE
:100BE800330E5C6E11EF07F04A500A6E4B500B6ED5
:100BF8004A4A4B2A200E0A5C030E0B58D8B007EF5E
:100C080006F009EF06F011EF06F04C50C30F086E1E
:100C18005F0EC7EC0FF032EF06F0210E4A5C030EB0
:100C28004B58D8A01AEF06F01CEF06F032EF06F08A
:100C38004C50C30F086E200EC7EC0FF0400E4A1838
:100C480007E1060E4B18D8A42CEF06F02EEF06F09D
:100C580032EF06F0000E4B6E000E4A6E040E4C1872
:100C68004D10D8A43AEF06F03CEF06F011EF07F06C
:100C7800080E0B6E9D0E0A6E060EE82EFED70A2E83
:100C8800FCD70B2EFAD75C06000E4D6E000E4C6E8C
:100C9800930E016E000E026EB90E036E000E046E06
:100CA80069EC0CF001500210D8B45DEF06F05FEF6C
:100CB80006F096EF06F00D0E0B6EAF0E0A6EB60E2E
:100CC800E82EFED70A2EFCD70B2EFAD700D0A40E9A
:100CD800036E2F0E046E800E056EB7EC0DF0C00E7D
:100CE800086E5C50C7EC0FF0B40E036E2F0E046E46
:100CF800C10E056EB7EC0DF00D0E0B6EAF0E0A6E41
:100D0800B60EE82EFED70A2EFCD70B2EFAD700D047
:100D1800720E036E2F0E046EC00E056EB7EC0DF04A
:100D2800BCEF06F0000E4D6E000E4C6E330E5C6E7E
:100D3800610E036E2F0E046E800E056EB7EC0DF07B
:100D4800950E036E2E0E046EC00E056EB7EC0DF0F8
:100D5800120E0B6EC20E0A6E660EE82EFED70A2E13
:100D6800FCD70B2EFAD700D0020E566E11EF07F003
:100D7800300E5C18D8A4C3EF06F0C5EF06F011EFEB
:100D880007F0C80E036E2E0E046E800E056EB7ECCB
:100D98000DF02E0E036E2F0E046EC00E056EB7EC0E
:100DA8000DF0000E516E000E506E03EF07F0CA0EE4
:100DB800086E50503B08016E5150D8A0E82A000830
:100DC800026E000E046E0A0E036E44EC0DF0015024
:100DD800300FC7EC0FF0CB0E086E50503B08016E79
:100DE8005150D8A0E82A0008026E000E046E0A0EC0
:100DF800036E20EC0EF00150300FC7EC0FF03C0EE4
:100E080050185110D8A40BEF07F00DEF07F0DBEFE7
:100E180006F0000E566E330E5C6E1200ADEC0FF04D
:100E2800140E1B6EAE0E1C6E230E1D6E410E1E6E32
:100E3800040E81EC0EF001C009F002C00AF00B6A42
:100E48000C6A000E67EC09F009C017F00AC018F028
:100E58000BC019F00CC01AF024EC02F017C030F0E7
:100E680018C031F019C032F01AC033F08EEC0BF014
:100E780030C0A0F031C0A1F0A0C008F0A1C009F0B6
:100E88000DEC0FF004EC0DF0820E066E000E076EEE
:100E9800B8EC0CF0020E5618D8B455EF07F057EF1F
:100EA80007F060EF07F0030E5618D8A45EEF07F0BE
:100EB80060EF07F066EF07F0000E7EEC0DF03C6E79
:100EC8006AEF07F0010E7EEC0DF03C6E0A0E3C183E
:100ED800D8A471EF07F073EF07F0F4EF07F056505E
:100EE800D8A479EF07F07BEF07F0F4EF07F0720E64
:100EF800036E2F0E046EC00E056EB7EC0DF0010EDA
:100F0800566E000E516E000E506EF4EF07F03C5016
:100F180052EC0EF015EF08F03C50A3EC05F0020E71
:100F28005618D8A49AEF07F09CEF07F015EF08F0D1
:100F3800000E516E000E506E15EF08F03C50F1ECAB
:100F480003F0070E5618D8A4ACEF07F0AEEF07F081
:100F580015EF08F0720E036E2F0E046EC00E056EAC
:100F6800B7EC0DF09CEF07F03C504DEC08F0020E8A
:100F78005618D8A4C2EF07F0C4EF07F015EF08F031
:100F88009CEF07F03C5009EC00F0020E5618D8A46C
:100F9800D0EF07F0D2EF07F015EF08F09CEF07F05D
:100FA800720E036E2F0E046E800E056EB7EC0DF0F8
:100FB800830E036E2F0E046EC00E056EB7EC0DF097
:100FC800660E3B6E760E3A6EC10EE82EFED73A2EAE
:100FD800FCD73B2EFAD700F0020E566E15EF08F03C
:100FE80056503A6E3B6A3B50000AD8B4FEEF07F001
:100FF800D4EF07F03A50000AD8B48BEF07F0010A93
:10100800D8B490EF07F0030AD8B4A2EF07F0010AAA
:10101800D8B4B8EF07F0040AD8B4C6EF07F0D4EF95
:1010280007F004EC0DF0140E1B6EAE0E1C6E230EB2
:101038001D6E410E1E6E040E81EC0EF001C009F00B
:1010480002C00AF00B6A0C6A000E67EC09F009C0CE
:1010580017F00AC018F00BC019F00CC01AF024ECF5
:1010680002F017C030F018C031F019C032F01AC0C1
:1010780033F08EEC0BF030C0A0F031C0A1F0A0C06E
:1010880008F0A1C009F00DEC0FF04EEF07F007EFE4
:1010980000F00E6ED00E036E2F0E046E800E056EDD
:1010A800B7EC0DF0890E086E40C001F041C002F0A7
:1010B80053C003F0046A20EC0EF00150300FC7EC67
:1010C8000FF0C40E036E2F0E046E8A0E056EB7EC79
:1010D8000DF00B0E0E18D8A474EF08F076EF08F098
:1010E8007DEF08F00EC048F0496A424A432A25EFCE
:1010F80009F042504310D8B484EF08F086EF08F0A6
:10110800BDEF08F0900E425C010E4358D8B08FEF47
:1011180008F091EF08F0BDEF08F00B0E48184910E1
:10112800D8A499EF08F09BEF08F0BDEF08F00E285F
:10113800D8A4A1EF08F0A3EF08F0BDEF08F0010E66
:101148000001A26F4006D8A04106402806E14128C8
:10115800D8A4B1EF08F0B3EF08F0B7EF08F0000E2D
:10116800416E090E406E000E436E000E426E25EF72
:1011780009F00C0E0E18D8A4C4EF08F0C6EF08F05A
:10118800EAEF08F00EC048F0496A42500A6E435030
:101198000B6E424A432A2D0E0A5C010E0B58D8A04A
:1011A800D8EF08F0DAEF08F025EF09F0000E436EEB
:1011B800000E426E020E566E000E416E000E406E1C
:1011C800000E516E000E506E66EF09F0425043104B
:1011D800D8B4F1EF08F0F3EF08F0B7EF08F02C0EF1
:1011E800425C010E4358D8B0FCEF08F0FEEF08F05F
:1011F800B7EF08F00C0E48184910D8A406EF09F00C
:1012080008EF09F0B7EF08F00E28D8A40EEF09F0A0
:1012180010EF09F0B7EF08F0010E0001A26F404A85
:10122800412A0A0E40184110D8A41DEF09F01FEFFB
:1012380009F0B7EF08F0000E416E000E406EB7EFF0
:1012480008F040C001F041C002F053C003F0046A46
:1012580020EC0EF0013A023AF00E021601500F0B84
:101268000212F00E011601C09AF002C09BF0000EA7
:101278000D6E000E0C6EA30E0C24D96E000E0D2000
:10128800DA6E0C5000019A2565EC0FF0DF6E0C4AFF
:101298000D2A0DBE59EF09F00D5009E1100E0C5C36
:1012A800D8A059EF09F05BEF09F03FEF09F0000E05
:1012B8000001B36FA30E036E000E046EC00E056E20
:1012C800B7EC0DF01200116E1150D8B46EEF09F0A2
:1012D80070EF09F092EF09F00CBE77EF09F075EFA7
:1012E80009F092EF09F009C00DF00AC00EF00BC02A
:1012F8000FF00CC010F00D1E0E1E0F1E101E0D2A32
:10130800000E0E220F2210220DC013F00EC014F092
:101318000FC015F010C016F09AEF09F009C013F0CD
:101328000AC014F00BC015F00CC016F009500A10D2
:101338000B100C10D8A4A3EF09F0A5EF09F0AFEF3C
:1013480009F0000E096E000E0A6E000E0B6E000EFC
:101358000C6E40EF0AF0960E126EB9EF09F0122AE1
:10136800D8901632153214321332000E13140D6E43
:10137800000E14140E6E000E15140F6EFE0E1614C9
:10138800106E0D500E100F101010D8A4CEEF09F0EB
:10139800D0EF09F0B3EF09F0DEEF09F0122A010EE1
:1013A8001326000E142215221622D8901632153252
:1013B80014321332000E13140D6E000E14140E6E38
:1013C800000E15140F6EFF0E1614106E0D500E1031
:1013D8000F101010D8A4F3EF09F0F5EF09F0D2EFD1
:1013E80009F0FDEF09F01206D890133614361536B9
:1013F800163615BE02EF0AF004EF0AF00CEF0AF0F9
:10140800020E12600AEF0AF00CEF0AF0F7EF09F08B
:1014180012B011EF0AF013EF0AF014EF0AF0159E5C
:10142800D890123212C00DF00E6A0F6A106A0DC001
:1014380010F00F6A0E6A0D6A0D5013120E50141236
:101448000F501512105016121150D8B42EEF0AF082
:1014580030EF0AF038EF0AF00CBE37EF0AF035EF3C
:101468000AF038EF0AF0168E13C009F014C00AF01B
:1014780015C00BF016C00CF01200106E1004D8A4A2
:1014880048EF0AF04AEF0AF05BEF0AF04804491007
:10149800D8B451EF0AF053EF0AF05BEF0AF0010EEF
:1014A800546E000E4F6E070E4E6ECEEF0AF0020E0F
:1014B8001018D8B462EF0AF064EF0AF06DEF0AF082
:1014C800030E1018D8A46BEF0AF06DEF0AF0CEEFF8
:1014D8000AF0070E4E184F10D8A475EF0AF077EFF0
:1014E8000AF090EF0AF0020E1018D8A47EEF0AF066
:1014F80080EF0AF090EF0AF0020E48184910D8B4AD
:1015080088EF0AF08AEF0AF090EF0AF0010E546EA5
:10151800000E4F6E000E4E6E020E1018D8A497EFF4
:101528000AF099EF0AF0AAEF0AF04F5007E1060E09
:101538004E5CD8B0A2EF0AF0A4EF0AF0AAEF0AF0C6
:101548004E4A4F2A010E546ECEEF0AF0030E1018C1
:10155800D8A4B1EF0AF0B3EF0AF0CEEF0AF04F507B
:1015680009E1020E4E5CD8A0BCEF0AF0BEEF0AF00B
:10157800CEEF0AF04F5007E1070E4E5CD8B0C7EF28
:101588000AF0C9EF0AF0CEEF0AF04E06D8A04F06CF
:10159800A6EF0AF05404D8A4D4EF0AF0D6EF0AF064
:1015A80006EF0BF0000E546ED8904E34D96E4F34BF
:1015B800DA6E600ED926000EDA22DECFF6FFDDCF16
:1015C800F7FF0800F5CF8CF0D8904E34D96E4F3421
:1015D800DA6E600ED926000EDA22DECF0EF0DDCFED
:1015E8000FF0010E0E26000E0F220EC0F6FF0FC0E0
:1015F800F7FF0800F5CF8DF0820E066E000E076E1D
:10160800B8EC0CF010C048F0496A1200819A818C3D
:10161800818E81B212EF0BF014EF0BF017EF0BF085
:10162800010E8DEF0BF081B41CEF0BF01EEF0BF0E9
:1016380021EF0BF0040E8DEF0BF081B626EF0BF0C7
:1016480028EF0BF02BEF0BF0070E8DEF0BF081B8A6
:1016580030EF0BF032EF0BF035EF0BF00A0E8DEF99
:101668000BF0818A819C818E81B23DEF0BF03FEFB8
:101678000BF042EF0BF0020E8DEF0BF081B447EF49
:101688000BF049EF0BF04CEF0BF0050E8DEF0BF064
:1016980081B651EF0BF053EF0BF056EF0BF0080E3D
:1016A8008DEF0BF081B85BEF0BF05DEF0BF060EFA7
:1016B8000BF00B0E8DEF0BF0818A818C819E819E41
:1016C80081B269EF0BF06BEF0BF06EEF0BF0030ECE
:1016D8008DEF0BF081B473EF0BF075EF0BF078EF33
:1016E8000BF0060E8DEF0BF081B67DEF0BF07FEF60
:1016F8000BF082EF0BF0090E8DEF0BF081B887EF3E
:101708000BF089EF0BF08CEF0BF00C0E8DEF0BF05C
:10171800FF0E120032343334396E3950D8A497EFA3
:101728000BF099EF0BF0A3EF0BF0000E306E000EEC
:10173800316E000E326E000E336E10EF0CF030C0BA
:1017480034F031C035F032C036F033C037F0200EF7
:10175800B3EF0BF0D8903732363235323432E82EC8
:10176800AEEF0BF03450386E328EFF0E3016FF0E8F
:101778003116FF0E3216000E3316960E395E39BE3C
:10178800CAEF0BF0C8EF0BF0E0EF0BF03950800A0E
:10179800970FD8B0D2EF0BF0D4EF0BF0D6EF0BF0D9
:1017A80099EF0BF0D8903332323231323032393E41
:1017B800D6EF0BF0F8EF0BF01F0E3964E6EF0BF0E5
:1017C800E8EF0BF0F0EF0BF099EF0BF0D890303614
:1017D80031363236333639063950D8A4F6EF0BF0A5
:1017E800F8EF0BF0EAEF0BF03850D8B4FEEF0BF03F
:1017F80000EF0CF008EF0CF0331E321E311E306C77
:10180800000E31223222332230C030F031C031F0A4
:1018180032C032F033C033F01200000E956E94508F
:10182800F80B946E8290020E046E040E036EBA0ECC
:10183800E82EFED7032EFCD7042EFAD700D0000ED0
:10184800016E330E2CEC0FF01B0E036E9E0EE82E6D
:10185800FED7032EFCD700D0000E016E330E2CEC01
:101868000FF0A60EE82EFED700D0000E016E330E44
:101878002CEC0FF000D000D000F0000E016E020E2C
:101888002CEC0FF0A60EE82EFED700D0000E016E4D
:10189800380E2CEC0FF0A60EE82EFED700D0000E66
:1018A800016E010E2CEC0FF0040E036E3E0EE82EB6
:1018B800FED7032EFCD7000E016E0C0E2CEC0FF099
:1018C800A60EE82EFED700D01200000E096E000EFC
:1018D800086EA7EF0CF008500124D96E09500220B9
:1018E800DA6EDF50056E066A08500324D96E095077
:1018F8000420DA6EDF50076E0750055E000E065AA8
:1019080005500610D8B48BEF0CF08DEF0CF0A5EF56
:101918000CF008500124D96E09500220DA6EDF500D
:10192800056E08500324D96E09500420DA6EDF5082
:10193800066E0650055C016E026AD8A00206B7EF73
:101948000CF0084A092A08500124D96E09500220CF
:10195800DA6EDF50D8A4B3EF0CF0B5EF0CF06FEFF0
:101968000CF08DEF0CF012009EC008F09FC009F03B
:10197800083A093AF00E091608500F0B0912F00E32
:10198800081608C00AF009C00BF0000E0D6E000E14
:101998000C6E0C500624D96E0D500720DA6EDF50FD
:1019A800026E0A500C24EDEC0EF00C4A0D2A0DBE06
:1019B800E7EF0CF00D5009E1100E0C5CD8A0E7EF32
:1019C8000CF0E9EF0CF0CDEF0CF000019E4B9F2BD3
:1019D8000A0E5360F2EF0CF0F4EF0CF0F5EF0CF098
:1019E800532A0A0E9E199F11D8A4FDEF0CF0FFEFA1
:1019F8000CF003EF0DF0000E9F6F000E9E6F1200AB
:101A0800020E7AEC0FF03D6E010E7AEC0FF03E6E8E
:101A1800000E7AEC0FF03F6E3DAC15EF0DF017EFAE
:101A28000DF023EF0DF03D380F0B010B300F0001C7
:101A3800826F3D500F0B300F836F2DEF0DF03D3847
:101A48000F0B030B300F0001826F3D500F0B300F4F
:101A5800836F3A0E846F3E380F0B0F0B300F856F74
:101A68003E500F0B300F866F3A0E876F3F380F0BC3
:101A78000F0B300F886F3F500F0B300F896F12001C
:101A8800000E066E000E056E03500410D8B44FEF1A
:101A98000DF051EF0DF079EF0DF0010E076E59EFD3
:101AA8000DF0D89003360436072A04AE5EEF0DF029
:101AB80060EF0DF055EF0DF0D8900536063603505F
:101AC800015C04500258D8A06CEF0DF06EEF0DF0D9
:101AD80073EF0DF00350015E0450025A0580D89050
:101AE80004320332072E60EF0DF005C001F006C086
:101AF80002F01200016E0150D8A485EF0DF087EFB7
:101B08000DF08BEF0DF00AEC0BF0B6EF0DF00104C1
:101B1800D8A491EF0DF093EF0DF0B6EF0DF00AECAD
:101B28000BF0026E0228D8B49CEF0DF09EEF0DF07A
:101B3800ABEF0DF05B50D8B4A4EF0DF0A6EF0DF0AD
:101B4800ABEF0DF0000E5B6E0250B6EF0DF0022801
:101B5800D8A4B1EF0DF0B3EF0DF0B5EF0DF0010E15
:101B68005B6EFF0E1200000E016E05502CEC0FF09C
:101B7800D4EF0DF0010E016E03C0F6FF04C0F7FFAD
:101B8800F86A050EF76403D00800F55005D0F6CFC3
:101B9800E1FFF7CFE2FFE7502CEC0FF0034A042AED
:101BA80003C0F6FF04C0F7FFF86A050EF76403D018
:101BB8000800F55005D0F6CFE1FFF7CFE2FFE75078
:101BC8000009D8A4EAEF0DF0ECEF0DF0BEEF0DF030
:101BD8001200920EF66E1E0EF76E000EF86E00EEF4
:101BE80060F010EE38F00900F5CFEEFFE550E15057
:101BF800FAE10E0EF66E200EF76E000EF86E00EE8D
:101C080057F010EE06F00900F5CFEEFFE550E15071
:101C1800FAE100EE98F0260EEE6AE806FDE100EE25
:101C28003DF01A0EEE6AE806FDE15D905D92000E49
:101C3800F86E000112EF07F003500410D8B427EF34
:101C48000EF029EF0EF04DEF0EF0010E056E31EF9C
:101C58000EF0D89003360436052A04AE36EF0EF09F
:101C680038EF0EF02DEF0EF00350015C04500258CF
:101C7800D8A041EF0EF043EF0EF047EF0EF00350FF
:101C8800015E0450025AD89004320332052E38EF10
:101C98000EF001C001F002C002F01200116E1D0E1C
:101CA800036E2F0E046E800E056EB7EC0DF0110456
:101CB800D8B461EF0EF063EF0EF075EF0EF0020E80
:101CC8001118D8B46AEF0EF06CEF0EF075EF0EF045
:101CD800030E1118D8A473EF0EF075EF0EF078EF1D
:101CE8000EF0115041EC0AF0820E036E000E046EE5
:101CF800C00E056EB7EC0DF01200086E08C003F0B8
:101D0800D8900336D8900336C250C30B0310C26E66
:101D1800C282C2B292EF0EF094EF0EF08DEF0EF089
:101D2800C4CF03F0030E03160350056E046AC350B4
:101D3800066E076A04500610016E05500710026E01
:101D48001200000E7AEC0FF0046E04508009026E47
:101D5800000E8FEC0FF0020E7AEC0FF0046E0450B8
:101D68004009026E020E8FEC0FF0930E026E070E02
:101D78008FEC0FF0000E7AEC0FF0046E04507F0B1E
:101D8800026E000E8FEC0FF012000600DE0ED62455
:101D9800D66E0B0ED720D76EF2A4D5EF0EF0D7EF84
:101DA8000EF0EBEF0EF00001984B992B510E98199D
:101DB8009911D8A4E2EF0EF0E4EF0EF0EAEF0EF07E
:101DC800000E996F000E986F504A512AF2945D9256
:101DD8001100056E03EC10F0A00EEDEC0FF00550AD
:101DE800EDEC0FF00250EDEC0FF0FFEC0FF00B0EE6
:101DF800046EB80E036E0306D8A00406032806E195
:101E08000428D8A40AEF0FF00CEF0FF0FFEF0EF044
:101E1800120008C001F009C002F0000E046E0A0E9C
:101E2800036E44EC0DF00150300F0001906F08C0B4
:101E380001F009C002F0000E046E0A0E036E20ECD9
:101E48000EF00150300F0001916F000E926F1200DA
:101E5800026E01B032EF0FF035EF0FF0828236EFED
:101E68000FF0829202C083FF82848294958E8280D2
:101E780082928284829483BE44EF0FF046EF0FF083
:101E88003DEF0FF08290959E1200F22FEF2FDD2F7D
:101E9800E02FE32FE62FF82FDA2F622E512EA62EF1
:101EA800732E942FFB2FEC2FE92FF52F20202020C5
:101EB8002020202020204F4E20202020203131308B
:101EC8003000026E03EC10F0A00EEDEC0FF00250A3
:101ED800EDEC0FF0F7EC0FF0A10EEDEC0FF0E7ECE6
:101EE8000FF0036EFFEC0FF003501200026E03ECCC
:101EF80010F0D00EEDEC0FF00250EDEC0FF0F7EC17
:101F08000FF0D10EEDEC0FF0E7EC0FF0036EFFECE5
:101F18000FF003501200036E03EC10F0D00EEDEC3E
:101F28000FF00350EDEC0FF00250EDEC0FF0FFEC6A
:101F38000FF01200C280C19AC198C186C194C182B3
:101F4800C190C08AC098C096C094C082C090C08E0C
:101F58001200F3EC0FF011EC0CF09EEC0FF0BAEC61
:101F68000FF0D3EC0FF0A5EC0EF01200F28EF28C0D
:101F7800F28AF2940B0ED76EDC0ED66ED58ED59CF7
:101F8800D59AD5861200096E000E016E08502CEC09
:101F98000FF0010E016E09502CEC0FF01200948620
:101FA8009488280EC66E310EC86EC79CC78E9E9642
:101FB800A19612009EA6E3EF0FF0E5EF0FF0DEEF1B
:101FC8000FF09E961200FBEC0FF00AEC10F0C950CF
:101FD8001200016E01C0C9FFDEEC0FF012001E0EE8
:101FE800936EF19E1200C582DEEC0FF01200C586DA
:101FF800DEEC0FF01200C584DEEC0FF01200C58095
:10200800DEEC0FF01200010001000133C58AC5881B
:022018001200B4
:102E3E00002020204E6F74204D61746368656420FD
:102E4E002020005365742054696D652020202020B9
:102E5E002020200056696577204C6F6720202020A7
:102E6E002020202000436C656172206C6F6720204B
:102E7E002020202020002020202050617373776FA7
:102E8E00726420202020002020204D656E75205079
:102E9E006167652020202000446F776E6C6F61643F
:102EAE00204C6F67202020200020204E6577205078
:102EBE00617373776F7264202000202041747465F3
:102ECE006D7074204F76657220200020205375633C
:102EDE006365737366756C6C792020002057726F72
:102EEE006E672050617373776F7264200020456E99
:102EFE007465722050617373776F72642000204581
:102F0E006E7465722070617373776F726420002027
:102F1E002054494D45202020204556202053500056
:102F2E00205761697420466F7220202020536563FC
:102F3E000050617373776F7264206368616E6765AA
:102F4E006400436F6E6669726D2050617373776FA4
:102F5E00726400436F72726563742050617373778D
:102F6E006F7264002020202020202020202020208E
:102F7E00202020200020202068656C6C6F2D6D6550
:102F8E006E75202020005265736574205061737336
:102F9E00776F726420002057726F6E6720506173D6
:102FAE0073776F7264002D417474656D7074205266
:102FBE00656D61696E005D2020202020202020207C
:102FCE0020004C6F67733A2D2D3E5B004320004767
:102FDE003100473200473300473400434C00444C25
:102FEE0000474E004F4E00435000475200535400CE
:012FFE0000D2
:020000040020DA
:08000000FFFFFFFFFFFFFFFF00
:020000040030CA
:0E000000FF071F1FFF8285FF0FC00FE00F409C
:00000001FF
