:020000040000FA
:0400000012EF09F002
:1006000000202054494D4520202020204520205303
:100610005000202031303A30303A30302000432032
:1006200000473100473200473300473400474E004F
:070630004F4E00475200008D
:100638001A50800B276E1A501A242E6E19AE27EF07
:1006480003F029EF03F02AEF03F02E802E50D8B4E0
:1006580030EF03F032EF03F047EF03F02E28D8A471
:1006680038EF03F03AEF03F042EF03F0000E176E95
:10067800000E186E000E196E000E1A6E198E000EFE
:100688001A6E4FEF03F0000E176E000E186E000E74
:10069800196E000E1A6E1E50800B271A1E501E244B
:1006A8002F6E1DAE5AEF03F05CEF03F05DEF03F021
:1006B8002F802F50D8B463EF03F065EF03F07AEF83
:1006C80003F02F28D8A46BEF03F06DEF03F075EF5C
:1006D80003F0000E1B6E000E1C6E000E1D6E000E49
:1006E8001E6E1D8E000E1E6E82EF03F0000E1B6E36
:1006F800000E1C6E000E1D6E000E1E6E1B501C1090
:100708001D101E10D8A48BEF03F08DEF03F0A5EF9A
:1007180003F0000E176E000E186E000E196E000E14
:100728001A6E800E19127F0E1A1227501A1217C04D
:1007380017F018C018F019C019F01AC01AF0E8EF2D
:1007480004F02E50D8A4ABEF03F0ADEF03F0B7EFF1
:1007580003F0000E176E000E186E000E196E000ED4
:100768001A6EE8EF04F02F502EC01FF0206A1F5EAB
:10077800000E205A7F0E1F24286E000E2020296E9E
:1007880017C023F018C024F019C025F01AC026F0AD
:10079800000E176E000E186E000E196E000E1A6EFF
:1007A800000E2A6E000E2B6E000E2C6E000E2D6EA3
:1007B800000E2F6E18EF04F02F50D8B4E6EF03F0B8
:1007C800E8EF03F0FFEF03F0D89023362436253600
:1007D8002636D8901736183619361A362DAEF7EF52
:1007E80003F0F9EF03F0FAEF03F01780D8902A36F8
:1007F8002B362C362D361B50235C1C5024581D508C
:1008080025581E502658D8A00CEF04F00EEF04F01F
:1008180017EF04F02D8C1B50235E1C50245A1D50DA
:10082800255A1E50265A2F2A190E2F641EEF04F03F
:1008380020EF04F0E0EF03F02350241025102610D9
:10084800D8B429EF04F02BEF04F043EF04F02A802A
:1008580043EF04F0D8901736183619361A362DAEED
:1008680038EF04F03AEF04F03BEF04F01780D8902B
:100878002A362B362C362D362806D8A0290619AE4E
:1008880048EF04F04AEF04F02EEF04F0000E2F6E4C
:100898002DAE51EF04F053EF04F077EF04F0FF0EA4
:1008A8002A141F6EFF0E2B14206EFF0E2C14216EBF
:1008B8007F0E2D14226E1F50201021102210D8B444
:1008C80068EF04F06AEF04F06EEF04F0010E2F6E8B
:1008D80077EF04F017A073EF04F075EF04F077EFEB
:1008E80004F06AEF04F02F50D8B47DEF04F07FEFE6
:1008F80004F0A3EF04F0010E1726000E18221922A7
:100908001A221AA08AEF04F08CEF04F0A3EF04F087
:1009180017C01FF018C020F019C021F01AC022F02B
:1009280022342232213220321F321FC017F020C059
:1009380018F021C019F022C01AF0284A292A29BE25
:10094800AEEF04F0295008E12828D8A0AEEF04F053
:10095800B0EF04F0BBEF04F0000E296E2868000E1B
:10096800176E000E186E000E196E000E1A6E29BE54
:10097800C8EF04F0295006E12804D8B0C6EF04F007
:10098800C8EF04F0D6EF04F0000E296E000E286EB2
:10099800000E176E000E186E000E196E000E1A6EFD
:1009A800000E276E28C02EF02EA0DDEF04F0DFEF3A
:1009B80004F0E2EF04F0198EE3EF04F0199ED890EA
:1009C8002E301A6E99EF03F01200116E1150D8B440
:1009D800F0EF04F0F2EF04F014EF05F00CBEF9EFBD
:1009E80004F0F7EF04F014EF05F009C00DF00AC0A9
:1009F8000EF00BC00FF00CC010F00D1E0E1E0F1ED7
:100A0800101E0D2A000E0E220F2210220DC013F008
:100A18000EC014F00FC015F010C016F01CEF05F052
:100A280009C013F00AC014F00BC015F00CC016F082
:100A380009500A100B100C10D8A425EF05F027EF69
:100A480005F031EF05F0000E096E000E0A6E000E7B
:100A58000B6E000E0C6EC2EF05F0960E126E3BEF99
:100A680005F0122AD8901632153214321332000EBD
:100A780013140D6E000E14140E6E000E15140F6E66
:100A8800FE0E1614106E0D500E100F101010D8A474
:100A980050EF05F052EF05F035EF05F060EF05F087
:100AA800122A010E1326000E142215221622D8909F
:100AB8001632153214321332000E13140D6E000E56
:100AC80014140E6E000E15140F6EFF0E1614106E11
:100AD8000D500E100F101010D8A475EF05F077EF19
:100AE80005F054EF05F07FEF05F01206D8901336A5
:100AF80014361536163615BE84EF05F086EF05F068
:100B08008EEF05F0020E12608CEF05F08EEF05F007
:100B180079EF05F012B093EF05F095EF05F096EF39
:100B280005F0159ED890123212C00DF00E6A0F6AA9
:100B3800106A0DC010F00F6A0E6A0D6A0D5013127C
:100B48000E5014120F501512105016121150D8B41E
:100B5800B0EF05F0B2EF05F0BAEF05F00CBEB9EF53
:100B680005F0B7EF05F0BAEF05F0168E13C009F0DF
:100B780014C00AF015C00BF016C00CF01200066E77
:100B88000604D8A4CAEF05F0CCEF05F0D2EF05F0C3
:100B9800000E506E070E4F6E37EF06F0020E061865
:100BA800D8B4D9EF05F0DBEF05F0E4EF05F0030E5C
:100BB8000618D8A4E2EF05F0E4EF05F037EF06F0E9
:100BC800070E4F185010D8A4ECEF05F0EEEF05F023
:100BD800FBEF05F0020E0618D8A4F5EF05F0F7EFC5
:100BE80005F0FBEF05F0000E506E000E4F6E020E82
:100BF8000618D8A402EF06F004EF06F013EF06F08B
:100C0800505007E1060E4F5CD8B00DEF06F00FEF1D
:100C180006F013EF06F04F4A502A37EF06F0030E9E
:100C28000618D8A41AEF06F01CEF06F037EF06F006
:100C3800505009E1020E4F5CD8A025EF06F027EFCF
:100C480006F037EF06F0505007E1070E4F5CD8B0BA
:100C580030EF06F032EF06F037EF06F04F06D8A077
:100C6800500637EF06F0D8904F34D96E5034DA6E0C
:100C78003C0ED926000EDA22DECF03F0DDCF04F0D9
:100C8800CB0E056EB2EC08F01200819A818C818E31
:100C980081B251EF06F053EF06F056EF06F0010E61
:100CA800CCEF06F081B45BEF06F05DEF06F060EF85
:100CB80006F0040ECCEF06F081B665EF06F067EF9C
:100CC80006F06AEF06F0070ECCEF06F081B86FEF7A
:100CD80006F071EF06F074EF06F00A0ECCEF06F09E
:100CE800818A819C818E81B27CEF06F07EEF06F0CE
:100CF80081EF06F0020ECCEF06F081B486EF06F025
:100D080088EF06F08BEF06F0050ECCEF06F081B603
:100D180090EF06F092EF06F095EF06F0080ECCEF94
:100D280006F081B89AEF06F09CEF06F09FEF06F008
:100D38000B0ECCEF06F0818A818C819E819E81B258
:100D4800A8EF06F0AAEF06F0ADEF06F0030ECCEF21
:100D580006F081B4B2EF06F0B4EF06F0B7EF06F094
:100D6800060ECCEF06F081B6BCEF06F0BEEF06F03B
:100D7800C1EF06F0090ECCEF06F081B8C6EF06F019
:100D8800C8EF06F0CBEF06F00C0ECCEF06F0FF0E26
:100D9800120032343334396E3950D8A4D6EF06F005
:100DA800D8EF06F0E2EF06F0000E306E000E316E5E
:100DB800000E326E000E336E4FEF07F030C034F085
:100DC80031C035F032C036F033C037F0200EF2EFC4
:100DD80006F0D8903732363235323432E82EEDEF1D
:100DE80006F03450386E328EFF0E3016FF0E311674
:100DF800FF0E3216000E3316960E395E39BE09EF15
:100E080007F007EF07F01FEF07F03950800A970F38
:100E1800D8B011EF07F013EF07F015EF07F0D8EF90
:100E280006F0D8903332323231323032393E15EF53
:100E380007F037EF07F01F0E396425EF07F027EFAB
:100E480007F02FEF07F0D8EF06F0D890303631369C
:100E58003236333639063950D8A435EF07F037EF34
:100E680007F029EF07F03850D8B43DEF07F03FEF0F
:100E780007F047EF07F0331E321E311E306C000EAC
:100E880031223222332230C030F031C031F032C04A
:100E980032F033C033F01200000E956E9450F80B08
:100EA800946E8290020E046E040E036EBA0EE82E43
:100EB800FED7032EFCD7042EFAD700D0000E016E01
:100EC800330EF5EC08F01B0E036E9E0EE82EFED7CF
:100ED800032EFCD700D0000E016E330EF5EC08F09F
:100EE800A60EE82EFED700D0000E016E330EF5ECEC
:100EF80008F000D000D000F0000E016E020EF5ECF4
:100F080008F0A60EE82EFED700D0000E016E380EAF
:100F1800F5EC08F0A60EE82EFED700D0000E016E04
:100F2800010EF5EC08F0040E036E3E0EE82EFED717
:100F3800032EFCD7000E016E0C0EF5EC08F0A60E81
:100F4800E82EFED700D012003A6E010E036E060E90
:100F5800046E800E056EB2EC08F055EC09F03A50BC
:100F6800C3EC05F0140E1B6EAE0E1C6E230E1D6E28
:100F7800410E1E6E040E8EEC08F001C009F002C08E
:100F88000AF00B6A0C6A000EE9EC04F009C017F0CD
:100F98000AC018F00BC019F00CC01AF01CEC03F0D2
:100FA80017C030F018C031F019C032F01AC033F051
:100FB800CDEC06F030C04DF031C04EF04DC00AF017
:100FC8004EC00BF0D4EC08F01200000E066E000EB6
:100FD800056E03500410D8B4F4EF07F0F6EF07F0ED
:100FE8001EEF08F0010E076EFEEF07F0D8900336EB
:100FF8000436072A04AE03EF08F005EF08F0FAEF0D
:1010080007F0D890053606360350015C04500258A4
:10101800D8A011EF08F013EF08F018EF08F003500C
:10102800015E0450025A0580D89004320332072E1C
:1010380005EF08F005C001F006C002F01200016ECD
:101048000150D8A42AEF08F02CEF08F030EF08F090
:1010580049EC06F05BEF08F00104D8A436EF08F07D
:1010680038EF08F05BEF08F049EC06F0026E022852
:10107800D8B441EF08F043EF08F050EF08F04C50B7
:10108800D8B449EF08F04BEF08F050EF08F0000E25
:101098004C6E02505BEF08F00228D8A456EF08F017
:1010A80058EF08F05AEF08F0010E4C6EFF0E1200D0
:1010B80003500410D8B463EF08F065EF08F089EF27
:1010C80008F0010E056E6DEF08F0D890033604366F
:1010D800052A04AE72EF08F074EF08F069EF08F023
:1010E8000350015C04500258D8A07DEF08F07FEF50
:1010F80008F083EF08F00350015E0450025AD890BC
:1011080004320332052E74EF08F001C001F002C06A
:1011180002F01200086E08C003F0D8900336D89089
:101128000336C250C30B0310C26EC282C2B29FEF15
:1011380008F0A1EF08F09AEF08F0C4CF03F0030E0F
:1011480003160350056E046AC350066E076A0450FE
:101158000610016E05500710026E1200000E016E97
:101168000550F5EC08F0C5EF08F0010E016E03C05C
:10117800F6FF04C0F7FF0800F550F5EC08F0034A45
:10118800042A03C0F6FF04C0F7FF0800F550000961
:10119800D8A4D1EF08F0D3EF08F0B9EF08F01200A7
:1011A800CE0E086E0AC001F00BC002F0000E046EED
:1011B8000A0E036EE9EC07F00150300F49EC09F014
:1011C800CF0E086E0AC001F00BC002F0000E046ECC
:1011D8000A0E036E5CEC08F00150300F49EC09F080
:1011E8001200026E01B0FBEF08F0FEEF08F08282F9
:1011F800FFEF08F0829202C083FF82848294958E6A
:10120800828082928284829483BE0DEF09F00FEF70
:1012180009F006EF09F08290959E1200BC0EF66E5A
:10122800120EF76E000EF86E00EE3CF010EE11F0A4
:101238000900F5CFEEFFE550E150FAE1506A4F6A38
:101248004E6A4D6A000EF86E060EF76E00013CEF0E
:1012580009F0C280C19AC198C186C194C182C19067
:10126800C08AC098C096C094C082C090C08E120038
:1012780067EC09F0010E23EC08F03B6E3B50A8EC3C
:1012880007F03EEF09F000EF00F0096E000E016E66
:101298000850F5EC08F0010E016E0950F5EC08F065
:1012A8001200120E036E060E046EC00E056EB2EC2E
:1012B80008F0120030062D062106240627062A0605
:0512C80033061E0601C3
:1012CE006EEC09F050EC07F02DEC09F012001E0E3A
:0612DE00936EF19E120068
:020000040020DA
:08000000FFFFFFFFFFFFFFFF00
:020000040030CA
:0E000000FF071F1FFF8285FF0FC00FE00F409C
:00000001FF
